{
  "_format": "hh-sol-artifact-1",
  "contractName": "SeatedNftContract",
  "sourceName": "contracts/SeatedNftContract.sol",
  "abi": [
    {
      "inputs": [
        {
          "internalType": "string",
          "name": "_section",
          "type": "string"
        },
        {
          "internalType": "uint256",
          "name": "_supply",
          "type": "uint256"
        },
        {
          "internalType": "uint256",
          "name": "_startPrice",
          "type": "uint256"
        },
        {
          "internalType": "uint256",
          "name": "_priceCap",
          "type": "uint256"
        },
        {
          "internalType": "uint256",
          "name": "_startSeat",
          "type": "uint256"
        },
        {
          "internalType": "string",
          "name": "_event",
          "type": "string"
        },
        {
          "internalType": "address",
          "name": "_usdc",
          "type": "address"
        }
      ],
      "stateMutability": "nonpayable",
      "type": "constructor"
    },
    {
      "anonymous": false,
      "inputs": [
        {
          "indexed": true,
          "internalType": "address",
          "name": "account",
          "type": "address"
        },
        {
          "indexed": true,
          "internalType": "address",
          "name": "operator",
          "type": "address"
        },
        {
          "indexed": false,
          "internalType": "bool",
          "name": "approved",
          "type": "bool"
        }
      ],
      "name": "ApprovalForAll",
      "type": "event"
    },
    {
      "anonymous": false,
      "inputs": [
        {
          "indexed": true,
          "internalType": "address",
          "name": "previousOwner",
          "type": "address"
        },
        {
          "indexed": true,
          "internalType": "address",
          "name": "newOwner",
          "type": "address"
        }
      ],
      "name": "OwnershipTransferred",
      "type": "event"
    },
    {
      "anonymous": false,
      "inputs": [
        {
          "indexed": true,
          "internalType": "address",
          "name": "operator",
          "type": "address"
        },
        {
          "indexed": true,
          "internalType": "address",
          "name": "from",
          "type": "address"
        },
        {
          "indexed": true,
          "internalType": "address",
          "name": "to",
          "type": "address"
        },
        {
          "indexed": false,
          "internalType": "uint256[]",
          "name": "ids",
          "type": "uint256[]"
        },
        {
          "indexed": false,
          "internalType": "uint256[]",
          "name": "values",
          "type": "uint256[]"
        }
      ],
      "name": "TransferBatch",
      "type": "event"
    },
    {
      "anonymous": false,
      "inputs": [
        {
          "indexed": true,
          "internalType": "address",
          "name": "operator",
          "type": "address"
        },
        {
          "indexed": true,
          "internalType": "address",
          "name": "from",
          "type": "address"
        },
        {
          "indexed": true,
          "internalType": "address",
          "name": "to",
          "type": "address"
        },
        {
          "indexed": false,
          "internalType": "uint256",
          "name": "id",
          "type": "uint256"
        },
        {
          "indexed": false,
          "internalType": "uint256",
          "name": "value",
          "type": "uint256"
        }
      ],
      "name": "TransferSingle",
      "type": "event"
    },
    {
      "anonymous": false,
      "inputs": [
        {
          "indexed": false,
          "internalType": "string",
          "name": "value",
          "type": "string"
        },
        {
          "indexed": true,
          "internalType": "uint256",
          "name": "id",
          "type": "uint256"
        }
      ],
      "name": "URI",
      "type": "event"
    },
    {
      "anonymous": false,
      "inputs": [
        {
          "indexed": true,
          "internalType": "address",
          "name": "minter",
          "type": "address"
        },
        {
          "indexed": false,
          "internalType": "uint256",
          "name": "amount",
          "type": "uint256"
        }
      ],
      "name": "minted",
      "type": "event"
    },
    {
      "inputs": [],
      "name": "approveMarket",
      "outputs": [],
      "stateMutability": "nonpayable",
      "type": "function"
    },
    {
      "inputs": [
        {
          "internalType": "address",
          "name": "account",
          "type": "address"
        },
        {
          "internalType": "uint256",
          "name": "id",
          "type": "uint256"
        }
      ],
      "name": "balanceOf",
      "outputs": [
        {
          "internalType": "uint256",
          "name": "",
          "type": "uint256"
        }
      ],
      "stateMutability": "view",
      "type": "function"
    },
    {
      "inputs": [
        {
          "internalType": "address[]",
          "name": "accounts",
          "type": "address[]"
        },
        {
          "internalType": "uint256[]",
          "name": "ids",
          "type": "uint256[]"
        }
      ],
      "name": "balanceOfBatch",
      "outputs": [
        {
          "internalType": "uint256[]",
          "name": "",
          "type": "uint256[]"
        }
      ],
      "stateMutability": "view",
      "type": "function"
    },
    {
      "inputs": [],
      "name": "eventName",
      "outputs": [
        {
          "internalType": "string",
          "name": "",
          "type": "string"
        }
      ],
      "stateMutability": "view",
      "type": "function"
    },
    {
      "inputs": [],
      "name": "getEventName",
      "outputs": [
        {
          "internalType": "string",
          "name": "",
          "type": "string"
        }
      ],
      "stateMutability": "view",
      "type": "function"
    },
    {
      "inputs": [],
      "name": "getOwner",
      "outputs": [
        {
          "internalType": "address",
          "name": "",
          "type": "address"
        }
      ],
      "stateMutability": "view",
      "type": "function"
    },
    {
      "inputs": [],
      "name": "getSection",
      "outputs": [
        {
          "internalType": "string",
          "name": "",
          "type": "string"
        }
      ],
      "stateMutability": "view",
      "type": "function"
    },
    {
      "inputs": [],
      "name": "getStartPrice",
      "outputs": [
        {
          "internalType": "uint256",
          "name": "",
          "type": "uint256"
        }
      ],
      "stateMutability": "view",
      "type": "function"
    },
    {
      "inputs": [],
      "name": "getStartSeat",
      "outputs": [
        {
          "internalType": "uint256",
          "name": "",
          "type": "uint256"
        }
      ],
      "stateMutability": "view",
      "type": "function"
    },
    {
      "inputs": [],
      "name": "getSupply",
      "outputs": [
        {
          "internalType": "uint256",
          "name": "",
          "type": "uint256"
        }
      ],
      "stateMutability": "view",
      "type": "function"
    },
    {
      "inputs": [],
      "name": "getTicketsLeft",
      "outputs": [
        {
          "internalType": "uint256",
          "name": "",
          "type": "uint256"
        }
      ],
      "stateMutability": "view",
      "type": "function"
    },
    {
      "inputs": [
        {
          "internalType": "uint256",
          "name": "_tokenId",
          "type": "uint256"
        }
      ],
      "name": "getTokenURI",
      "outputs": [
        {
          "internalType": "string",
          "name": "",
          "type": "string"
        }
      ],
      "stateMutability": "view",
      "type": "function"
    },
    {
      "inputs": [
        {
          "internalType": "address",
          "name": "account",
          "type": "address"
        },
        {
          "internalType": "address",
          "name": "operator",
          "type": "address"
        }
      ],
      "name": "isApprovedForAll",
      "outputs": [
        {
          "internalType": "bool",
          "name": "",
          "type": "bool"
        }
      ],
      "stateMutability": "view",
      "type": "function"
    },
    {
      "inputs": [],
      "name": "marketPlaceAddress",
      "outputs": [
        {
          "internalType": "address",
          "name": "",
          "type": "address"
        }
      ],
      "stateMutability": "view",
      "type": "function"
    },
    {
      "inputs": [],
      "name": "mint",
      "outputs": [],
      "stateMutability": "nonpayable",
      "type": "function"
    },
    {
      "inputs": [
        {
          "internalType": "uint256",
          "name": "_amounts",
          "type": "uint256"
        }
      ],
      "name": "mintBatch",
      "outputs": [],
      "stateMutability": "nonpayable",
      "type": "function"
    },
    {
      "inputs": [],
      "name": "owner",
      "outputs": [
        {
          "internalType": "address",
          "name": "",
          "type": "address"
        }
      ],
      "stateMutability": "view",
      "type": "function"
    },
    {
      "inputs": [],
      "name": "priceCap",
      "outputs": [
        {
          "internalType": "uint256",
          "name": "",
          "type": "uint256"
        }
      ],
      "stateMutability": "view",
      "type": "function"
    },
    {
      "inputs": [],
      "name": "renounceOwnership",
      "outputs": [],
      "stateMutability": "nonpayable",
      "type": "function"
    },
    {
      "inputs": [
        {
          "internalType": "address",
          "name": "from",
          "type": "address"
        },
        {
          "internalType": "address",
          "name": "to",
          "type": "address"
        },
        {
          "internalType": "uint256[]",
          "name": "ids",
          "type": "uint256[]"
        },
        {
          "internalType": "uint256[]",
          "name": "amounts",
          "type": "uint256[]"
        },
        {
          "internalType": "bytes",
          "name": "data",
          "type": "bytes"
        }
      ],
      "name": "safeBatchTransferFrom",
      "outputs": [],
      "stateMutability": "nonpayable",
      "type": "function"
    },
    {
      "inputs": [
        {
          "internalType": "address",
          "name": "from",
          "type": "address"
        },
        {
          "internalType": "address",
          "name": "to",
          "type": "address"
        },
        {
          "internalType": "uint256",
          "name": "id",
          "type": "uint256"
        },
        {
          "internalType": "uint256",
          "name": "amount",
          "type": "uint256"
        },
        {
          "internalType": "bytes",
          "name": "data",
          "type": "bytes"
        }
      ],
      "name": "safeTransferFrom",
      "outputs": [],
      "stateMutability": "nonpayable",
      "type": "function"
    },
    {
      "inputs": [],
      "name": "section",
      "outputs": [
        {
          "internalType": "string",
          "name": "",
          "type": "string"
        }
      ],
      "stateMutability": "view",
      "type": "function"
    },
    {
      "inputs": [
        {
          "internalType": "address",
          "name": "operator",
          "type": "address"
        },
        {
          "internalType": "bool",
          "name": "approved",
          "type": "bool"
        }
      ],
      "name": "setApprovalForAll",
      "outputs": [],
      "stateMutability": "nonpayable",
      "type": "function"
    },
    {
      "inputs": [
        {
          "internalType": "address",
          "name": "_marketPlaceAddress",
          "type": "address"
        }
      ],
      "name": "setMarketPlaceAddress",
      "outputs": [],
      "stateMutability": "nonpayable",
      "type": "function"
    },
    {
      "inputs": [],
      "name": "startPrice",
      "outputs": [
        {
          "internalType": "uint256",
          "name": "",
          "type": "uint256"
        }
      ],
      "stateMutability": "view",
      "type": "function"
    },
    {
      "inputs": [],
      "name": "startSeat",
      "outputs": [
        {
          "internalType": "uint256",
          "name": "",
          "type": "uint256"
        }
      ],
      "stateMutability": "view",
      "type": "function"
    },
    {
      "inputs": [],
      "name": "supply",
      "outputs": [
        {
          "internalType": "uint256",
          "name": "",
          "type": "uint256"
        }
      ],
      "stateMutability": "view",
      "type": "function"
    },
    {
      "inputs": [
        {
          "internalType": "bytes4",
          "name": "interfaceId",
          "type": "bytes4"
        }
      ],
      "name": "supportsInterface",
      "outputs": [
        {
          "internalType": "bool",
          "name": "",
          "type": "bool"
        }
      ],
      "stateMutability": "view",
      "type": "function"
    },
    {
      "inputs": [
        {
          "internalType": "uint256",
          "name": "",
          "type": "uint256"
        }
      ],
      "name": "tokenOwner",
      "outputs": [
        {
          "internalType": "address",
          "name": "",
          "type": "address"
        }
      ],
      "stateMutability": "view",
      "type": "function"
    },
    {
      "inputs": [
        {
          "internalType": "address",
          "name": "newOwner",
          "type": "address"
        }
      ],
      "name": "transferOwnership",
      "outputs": [],
      "stateMutability": "nonpayable",
      "type": "function"
    },
    {
      "inputs": [
        {
          "internalType": "uint256",
          "name": "_tokenid",
          "type": "uint256"
        }
      ],
      "name": "uri",
      "outputs": [
        {
          "internalType": "string",
          "name": "",
          "type": "string"
        }
      ],
      "stateMutability": "view",
      "type": "function"
    },
    {
      "inputs": [],
      "name": "usdcToken",
      "outputs": [
        {
          "internalType": "contract IERC20",
          "name": "",
          "type": "address"
        }
      ],
      "stateMutability": "view",
      "type": "function"
    }
  ],
  "bytecode": "0x60806040523480156200001157600080fd5b5060405162004c7138038062004c71833981810160405281019062000037919062000437565b816040516020016200004a919062000665565b6040516020818303038152906040526200006a816200012160201b60201c565b506200008b6200007f6200013660201b60201c565b6200013e60201b60201c565b60016004819055508660069081620000a49190620008db565b50856007819055508360088190555082600a819055508460098190555081600b9081620000d29190620008db565b5080600c60006101000a81548173ffffffffffffffffffffffffffffffffffffffff021916908373ffffffffffffffffffffffffffffffffffffffff16021790555050505050505050620009c2565b8060029081620001329190620008db565b5050565b600033905090565b6000600360009054906101000a900473ffffffffffffffffffffffffffffffffffffffff16905081600360006101000a81548173ffffffffffffffffffffffffffffffffffffffff021916908373ffffffffffffffffffffffffffffffffffffffff1602179055508173ffffffffffffffffffffffffffffffffffffffff168173ffffffffffffffffffffffffffffffffffffffff167f8be0079c531659141344cd1fd0a4f28419497f9722a3daafe3b4186f6b6457e060405160405180910390a35050565b6000604051905090565b600080fd5b600080fd5b600080fd5b600080fd5b6000601f19601f8301169050919050565b7f4e487b7100000000000000000000000000000000000000000000000000000000600052604160045260246000fd5b6200026d8262000222565b810181811067ffffffffffffffff821117156200028f576200028e62000233565b5b80604052505050565b6000620002a462000204565b9050620002b2828262000262565b919050565b600067ffffffffffffffff821115620002d557620002d462000233565b5b620002e08262000222565b9050602081019050919050565b60005b838110156200030d578082015181840152602081019050620002f0565b60008484015250505050565b6000620003306200032a84620002b7565b62000298565b9050828152602081018484840111156200034f576200034e6200021d565b5b6200035c848285620002ed565b509392505050565b600082601f8301126200037c576200037b62000218565b5b81516200038e84826020860162000319565b91505092915050565b6000819050919050565b620003ac8162000397565b8114620003b857600080fd5b50565b600081519050620003cc81620003a1565b92915050565b600073ffffffffffffffffffffffffffffffffffffffff82169050919050565b6000620003ff82620003d2565b9050919050565b6200041181620003f2565b81146200041d57600080fd5b50565b600081519050620004318162000406565b92915050565b600080600080600080600060e0888a0312156200045957620004586200020e565b5b600088015167ffffffffffffffff8111156200047a576200047962000213565b5b620004888a828b0162000364565b97505060206200049b8a828b01620003bb565b9650506040620004ae8a828b01620003bb565b9550506060620004c18a828b01620003bb565b9450506080620004d48a828b01620003bb565b93505060a088015167ffffffffffffffff811115620004f857620004f762000213565b5b620005068a828b0162000364565b92505060c0620005198a828b0162000420565b91505092959891949750929550565b600081905092915050565b7f68747470733a2f2f6d796170692e636f6d2f6170692f4e46542f000000000000600082015250565b60006200056b601a8362000528565b9150620005788262000533565b601a82019050919050565b600081519050919050565b60006200059b8262000583565b620005a7818562000528565b9350620005b9818560208601620002ed565b80840191505092915050565b7f2f00000000000000000000000000000000000000000000000000000000000000600082015250565b6000620005fd60018362000528565b91506200060a82620005c5565b600182019050919050565b7f7b69647d2e6a736f6e0000000000000000000000000000000000000000000000600082015250565b60006200064d60098362000528565b91506200065a8262000615565b600982019050919050565b600062000672826200055c565b91506200068082846200058e565b91506200068d82620005ee565b91506200069a826200063e565b915081905092915050565b7f4e487b7100000000000000000000000000000000000000000000000000000000600052602260045260246000fd5b60006002820490506001821680620006ed57607f821691505b602082108103620007035762000702620006a5565b5b50919050565b60008190508160005260206000209050919050565b60006020601f8301049050919050565b600082821b905092915050565b6000600883026200076d7fffffffffffffffffffffffffffffffffffffffffffffffffffffffffffffffff826200072e565b6200077986836200072e565b95508019841693508086168417925050509392505050565b6000819050919050565b6000620007bc620007b6620007b08462000397565b62000791565b62000397565b9050919050565b6000819050919050565b620007d8836200079b565b620007f0620007e782620007c3565b8484546200073b565b825550505050565b600090565b62000807620007f8565b62000814818484620007cd565b505050565b5b818110156200083c5762000830600082620007fd565b6001810190506200081a565b5050565b601f8211156200088b57620008558162000709565b62000860846200071e565b8101602085101562000870578190505b620008886200087f856200071e565b83018262000819565b50505b505050565b600082821c905092915050565b6000620008b06000198460080262000890565b1980831691505092915050565b6000620008cb83836200089d565b9150826002028217905092915050565b620008e68262000583565b67ffffffffffffffff81111562000902576200090162000233565b5b6200090e8254620006d4565b6200091b82828562000840565b600060209050601f8311600181146200095357600084156200093e578287015190505b6200094a8582620008bd565b865550620009ba565b601f198416620009638662000709565b60005b828110156200098d5784890151825560018201915060208501945060208101905062000966565b86831015620009ad5784890151620009a9601f8916826200089d565b8355505b6001600288020188555050505b505050505050565b61429f80620009d26000396000f3fe608060405234801561001057600080fd5b50600436106101ef5760003560e01c8063646f22c51161010f578063baffa903116100a2578063ed27107b11610071578063ed27107b14610576578063f1a9af8914610594578063f242432a146105b2578063f2fde38b146105ce576101ef565b8063baffa90314610502578063c2560f2a14610520578063cc98ef961461052a578063e985e9c514610546576101ef565b8063893d20e8116100de578063893d20e81461048c5780638da5cb5b146104aa578063a22cb465146104c8578063b81e43fc146104e4576101ef565b8063646f22c5146104285780636c9c2faf14610446578063715018a6146104645780638043c9c01461046e576101ef565b80631caaa487116101875780632eb2c2d6116101565780632eb2c2d61461038e5780633bb3a24d146103aa5780634e1273f4146103da5780635a7bddbf1461040a576101ef565b80631caaa4871461030657806320e409b414610336578063278a262f146103525780632c9cf35214610370576101ef565b80630e89341c116101c35780630e89341c1461029057806311eac855146102c05780631249c58b146102de57806318df458d146102e8576101ef565b8062fdd58e146101f457806301ffc9a71461022457806302b7847c14610254578063047fc9aa14610272575b600080fd5b61020e600480360381019061020991906129bf565b6105ea565b60405161021b9190612a0e565b60405180910390f35b61023e60048036038101906102399190612a81565b6106b2565b60405161024b9190612ac9565b60405180910390f35b61025c610794565b6040516102699190612a0e565b60405180910390f35b61027a61079a565b6040516102879190612a0e565b60405180910390f35b6102aa60048036038101906102a59190612ae4565b6107a0565b6040516102b79190612ba1565b60405180910390f35b6102c86107d4565b6040516102d59190612c22565b60405180910390f35b6102e66107fa565b005b6102f0610a0f565b6040516102fd9190612a0e565b60405180910390f35b610320600480360381019061031b9190612ae4565b610a15565b60405161032d9190612c4c565b60405180910390f35b610350600480360381019061034b9190612ae4565b610a48565b005b61035a610d8a565b6040516103679190612ba1565b60405180910390f35b610378610e18565b6040516103859190612a0e565b60405180910390f35b6103a860048036038101906103a39190612e64565b610e22565b005b6103c460048036038101906103bf9190612ae4565b610ec3565b6040516103d19190612ba1565b60405180910390f35b6103f460048036038101906103ef9190612ff6565b610ef7565b604051610401919061312c565b60405180910390f35b610412611010565b60405161041f9190612ba1565b60405180910390f35b6104306110a2565b60405161043d9190612a0e565b60405180910390f35b61044e6110c0565b60405161045b9190612a0e565b60405180910390f35b61046c6110ca565b005b6104766110de565b6040516104839190612ba1565b60405180910390f35b61049461116c565b6040516104a19190612c4c565b60405180910390f35b6104b261117b565b6040516104bf9190612c4c565b60405180910390f35b6104e260048036038101906104dd919061317a565b6111a5565b005b6104ec6111bb565b6040516104f99190612ba1565b60405180910390f35b61050a61124d565b6040516105179190612a0e565b60405180910390f35b610528611257565b005b610544600480360381019061053f91906131ba565b6112f2565b005b610560600480360381019061055b91906131e7565b6113ad565b60405161056d9190612ac9565b60405180910390f35b61057e611441565b60405161058b9190612c4c565b60405180910390f35b61059c611467565b6040516105a99190612a0e565b60405180910390f35b6105cc60048036038101906105c79190613227565b61146d565b005b6105e860048036038101906105e391906131ba565b61150e565b005b60008073ffffffffffffffffffffffffffffffffffffffff168373ffffffffffffffffffffffffffffffffffffffff160361065a576040517f08c379a000000000000000000000000000000000000000000000000000000000815260040161065190613330565b60405180910390fd5b60008083815260200190815260200160002060008473ffffffffffffffffffffffffffffffffffffffff1673ffffffffffffffffffffffffffffffffffffffff16815260200190815260200160002054905092915050565b60007fd9b67a26000000000000000000000000000000000000000000000000000000007bffffffffffffffffffffffffffffffffffffffffffffffffffffffff1916827bffffffffffffffffffffffffffffffffffffffffffffffffffffffff1916148061077d57507f0e89341c000000000000000000000000000000000000000000000000000000007bffffffffffffffffffffffffffffffffffffffffffffffffffffffff1916827bffffffffffffffffffffffffffffffffffffffffffffffffffffffff1916145b8061078d575061078c82611591565b5b9050919050565b60085481565b60075481565b6060600b6107ad836115fb565b6040516020016107be929190613568565b6040516020818303038152906040529050919050565b600c60009054906101000a900473ffffffffffffffffffffffffffffffffffffffff1681565b600754610807600d6116c9565b10610847576040517f08c379a000000000000000000000000000000000000000000000000000000000815260040161083e906135f9565b60405180910390fd5b600c60009054906101000a900473ffffffffffffffffffffffffffffffffffffffff1673ffffffffffffffffffffffffffffffffffffffff166323b872dd33306009546040518463ffffffff1660e01b81526004016108a893929190613619565b6020604051808303816000875af11580156108c7573d6000803e3d6000fd5b505050506040513d601f19601f820116820180604052508101906108eb9190613665565b61092a576040517f08c379a0000000000000000000000000000000000000000000000000000000008152600401610921906136de565b60405180910390fd5b6000610936600d6116c9565b600a54610943919061372d565b905061096133826001604051806020016040528060008152506116d7565b33600e600083815260200190815260200160002060006101000a81548173ffffffffffffffffffffffffffffffffffffffff021916908373ffffffffffffffffffffffffffffffffffffffff1602179055506109bd600d611887565b3373ffffffffffffffffffffffffffffffffffffffff167fb7656808f0e04b4af7a20f7ef1caa7669f0d781f1ca4cba31a3ba467880766c96001604051610a04919061379c565b60405180910390a250565b600a5481565b600e6020528060005260406000206000915054906101000a900473ffffffffffffffffffffffffffffffffffffffff1681565b600754610a6782610a59600d6116c9565b61189d90919063ffffffff16565b1115610aa8576040517f08c379a0000000000000000000000000000000000000000000000000000000008152600401610a9f906135f9565b60405180910390fd5b6000610abf600954836118b390919063ffffffff16565b9050600c60009054906101000a900473ffffffffffffffffffffffffffffffffffffffff1673ffffffffffffffffffffffffffffffffffffffff166323b872dd3330846040518463ffffffff1660e01b8152600401610b2093929190613619565b6020604051808303816000875af1158015610b3f573d6000803e3d6000fd5b505050506040513d601f19601f82011682018060405250810190610b639190613665565b610ba2576040517f08c379a0000000000000000000000000000000000000000000000000000000008152600401610b99906136de565b60405180910390fd5b60008267ffffffffffffffff811115610bbe57610bbd612c6c565b5b604051908082528060200260200182016040528015610bec5781602001602082028036833780820191505090505b50905060008367ffffffffffffffff811115610c0b57610c0a612c6c565b5b604051908082528060200260200182016040528015610c395781602001602082028036833780820191505090505b50905060005b84811015610d1a576000610c67610c56600d6116c9565b600a5461189d90919063ffffffff16565b905080848381518110610c7d57610c7c6137b7565b5b60200260200101818152505033600e600083815260200190815260200160002060006101000a81548173ffffffffffffffffffffffffffffffffffffffff021916908373ffffffffffffffffffffffffffffffffffffffff160217905550610ce5600d611887565b6001838381518110610cfa57610cf96137b7565b5b602002602001018181525050508080610d12906137e6565b915050610c3f565b50610d36338383604051806020016040528060008152506118c9565b3373ffffffffffffffffffffffffffffffffffffffff167fb7656808f0e04b4af7a20f7ef1caa7669f0d781f1ca4cba31a3ba467880766c985604051610d7c9190612a0e565b60405180910390a250505050565b60068054610d97906133d6565b80601f0160208091040260200160405190810160405280929190818152602001828054610dc3906133d6565b8015610e105780601f10610de557610100808354040283529160200191610e10565b820191906000526020600020905b815481529060010190602001808311610df357829003601f168201915b505050505081565b6000600a54905090565b610e2a611af5565b73ffffffffffffffffffffffffffffffffffffffff168573ffffffffffffffffffffffffffffffffffffffff161480610e705750610e6f85610e6a611af5565b6113ad565b5b610eaf576040517f08c379a0000000000000000000000000000000000000000000000000000000008152600401610ea6906138a0565b60405180910390fd5b610ebc8585858585611afd565b5050505050565b6060600b610ed0836115fb565b604051602001610ee1929190613568565b6040516020818303038152906040529050919050565b60608151835114610f3d576040517f08c379a0000000000000000000000000000000000000000000000000000000008152600401610f3490613932565b60405180910390fd5b6000835167ffffffffffffffff811115610f5a57610f59612c6c565b5b604051908082528060200260200182016040528015610f885781602001602082028036833780820191505090505b50905060005b845181101561100557610fd5858281518110610fad57610fac6137b7565b5b6020026020010151858381518110610fc857610fc76137b7565b5b60200260200101516105ea565b828281518110610fe857610fe76137b7565b5b60200260200101818152505080610ffe906137e6565b9050610f8e565b508091505092915050565b60606006805461101f906133d6565b80601f016020809104026020016040519081016040528092919081815260200182805461104b906133d6565b80156110985780601f1061106d57610100808354040283529160200191611098565b820191906000526020600020905b81548152906001019060200180831161107b57829003601f168201915b5050505050905090565b60006110ae600d6116c9565b6007546110bb9190613952565b905090565b6000600754905090565b6110d2611e1e565b6110dc6000611e9c565b565b600b80546110eb906133d6565b80601f0160208091040260200160405190810160405280929190818152602001828054611117906133d6565b80156111645780601f1061113957610100808354040283529160200191611164565b820191906000526020600020905b81548152906001019060200180831161114757829003601f168201915b505050505081565b600061117661117b565b905090565b6000600360009054906101000a900473ffffffffffffffffffffffffffffffffffffffff16905090565b6111b76111b0611af5565b8383611f62565b5050565b6060600b80546111ca906133d6565b80601f01602080910402602001604051908101604052809291908181526020018280546111f6906133d6565b80156112435780601f1061121857610100808354040283529160200191611243565b820191906000526020600020905b81548152906001019060200180831161122657829003601f168201915b5050505050905090565b6000600954905090565b61128333600560009054906101000a900473ffffffffffffffffffffffffffffffffffffffff166113ad565b156112c3576040517f08c379a00000000000000000000000000000000000000000000000000000000081526004016112ba906139f8565b60405180910390fd5b6112f0600560009054906101000a900473ffffffffffffffffffffffffffffffffffffffff1660016111a5565b565b6112fa611e1e565b600073ffffffffffffffffffffffffffffffffffffffff168173ffffffffffffffffffffffffffffffffffffffff1603611369576040517f08c379a000000000000000000000000000000000000000000000000000000000815260040161136090613a64565b60405180910390fd5b80600560006101000a81548173ffffffffffffffffffffffffffffffffffffffff021916908373ffffffffffffffffffffffffffffffffffffffff16021790555050565b6000600160008473ffffffffffffffffffffffffffffffffffffffff1673ffffffffffffffffffffffffffffffffffffffff16815260200190815260200160002060008373ffffffffffffffffffffffffffffffffffffffff1673ffffffffffffffffffffffffffffffffffffffff16815260200190815260200160002060009054906101000a900460ff16905092915050565b600560009054906101000a900473ffffffffffffffffffffffffffffffffffffffff1681565b60095481565b611475611af5565b73ffffffffffffffffffffffffffffffffffffffff168573ffffffffffffffffffffffffffffffffffffffff1614806114bb57506114ba856114b5611af5565b6113ad565b5b6114fa576040517f08c379a00000000000000000000000000000000000000000000000000000000081526004016114f1906138a0565b60405180910390fd5b61150785858585856120ce565b5050505050565b611516611e1e565b600073ffffffffffffffffffffffffffffffffffffffff168173ffffffffffffffffffffffffffffffffffffffff1603611585576040517f08c379a000000000000000000000000000000000000000000000000000000000815260040161157c90613af6565b60405180910390fd5b61158e81611e9c565b50565b60007f01ffc9a7000000000000000000000000000000000000000000000000000000007bffffffffffffffffffffffffffffffffffffffffffffffffffffffff1916827bffffffffffffffffffffffffffffffffffffffffffffffffffffffff1916149050919050565b60606000600161160a84612369565b01905060008167ffffffffffffffff81111561162957611628612c6c565b5b6040519080825280601f01601f19166020018201604052801561165b5781602001600182028036833780820191505090505b509050600082602001820190505b6001156116be578080600190039150507f3031323334353637383961626364656600000000000000000000000000000000600a86061a8153600a85816116b2576116b1613b16565b5b04945060008503611669575b819350505050919050565b600081600001549050919050565b600073ffffffffffffffffffffffffffffffffffffffff168473ffffffffffffffffffffffffffffffffffffffff1603611746576040517f08c379a000000000000000000000000000000000000000000000000000000000815260040161173d90613bb7565b60405180910390fd5b6000611750611af5565b9050600061175d856124bc565b9050600061176a856124bc565b905061177b83600089858589612536565b8460008088815260200190815260200160002060008973ffffffffffffffffffffffffffffffffffffffff1673ffffffffffffffffffffffffffffffffffffffff16815260200190815260200160002060008282546117da919061372d565b925050819055508673ffffffffffffffffffffffffffffffffffffffff16600073ffffffffffffffffffffffffffffffffffffffff168473ffffffffffffffffffffffffffffffffffffffff167fc3d58168c5ae7397731d063d5bbf3d657854427343f4c083240f7aacaa2d0f628989604051611858929190613bd7565b60405180910390a461186f8360008985858961253e565b61187e83600089898989612546565b50505050505050565b6001816000016000828254019250508190555050565b600081836118ab919061372d565b905092915050565b600081836118c19190613c00565b905092915050565b600073ffffffffffffffffffffffffffffffffffffffff168473ffffffffffffffffffffffffffffffffffffffff1603611938576040517f08c379a000000000000000000000000000000000000000000000000000000000815260040161192f90613bb7565b60405180910390fd5b815183511461197c576040517f08c379a000000000000000000000000000000000000000000000000000000000815260040161197390613cb4565b60405180910390fd5b6000611986611af5565b905061199781600087878787612536565b60005b8451811015611a50578381815181106119b6576119b56137b7565b5b60200260200101516000808784815181106119d4576119d36137b7565b5b6020026020010151815260200190815260200160002060008873ffffffffffffffffffffffffffffffffffffffff1673ffffffffffffffffffffffffffffffffffffffff1681526020019081526020016000206000828254611a36919061372d565b925050819055508080611a48906137e6565b91505061199a565b508473ffffffffffffffffffffffffffffffffffffffff16600073ffffffffffffffffffffffffffffffffffffffff168273ffffffffffffffffffffffffffffffffffffffff167f4a39dc06d4c0dbc64b70af90fd698a233a518aa5d07e595d983b8c0526c8f7fb8787604051611ac8929190613cd4565b60405180910390a4611adf8160008787878761253e565b611aee8160008787878761271d565b5050505050565b600033905090565b8151835114611b41576040517f08c379a0000000000000000000000000000000000000000000000000000000008152600401611b3890613cb4565b60405180910390fd5b600073ffffffffffffffffffffffffffffffffffffffff168473ffffffffffffffffffffffffffffffffffffffff1603611bb0576040517f08c379a0000000000000000000000000000000000000000000000000000000008152600401611ba790613d7d565b60405180910390fd5b6000611bba611af5565b9050611bca818787878787612536565b60005b8451811015611d7b576000858281518110611beb57611bea6137b7565b5b602002602001015190506000858381518110611c0a57611c096137b7565b5b60200260200101519050600080600084815260200190815260200160002060008b73ffffffffffffffffffffffffffffffffffffffff1673ffffffffffffffffffffffffffffffffffffffff16815260200190815260200160002054905081811015611cab576040517f08c379a0000000000000000000000000000000000000000000000000000000008152600401611ca290613e0f565b60405180910390fd5b81810360008085815260200190815260200160002060008c73ffffffffffffffffffffffffffffffffffffffff1673ffffffffffffffffffffffffffffffffffffffff168152602001908152602001600020819055508160008085815260200190815260200160002060008b73ffffffffffffffffffffffffffffffffffffffff1673ffffffffffffffffffffffffffffffffffffffff1681526020019081526020016000206000828254611d60919061372d565b9250508190555050505080611d74906137e6565b9050611bcd565b508473ffffffffffffffffffffffffffffffffffffffff168673ffffffffffffffffffffffffffffffffffffffff168273ffffffffffffffffffffffffffffffffffffffff167f4a39dc06d4c0dbc64b70af90fd698a233a518aa5d07e595d983b8c0526c8f7fb8787604051611df2929190613cd4565b60405180910390a4611e0881878787878761253e565b611e1681878787878761271d565b505050505050565b611e26611af5565b73ffffffffffffffffffffffffffffffffffffffff16611e4461117b565b73ffffffffffffffffffffffffffffffffffffffff1614611e9a576040517f08c379a0000000000000000000000000000000000000000000000000000000008152600401611e9190613e7b565b60405180910390fd5b565b6000600360009054906101000a900473ffffffffffffffffffffffffffffffffffffffff16905081600360006101000a81548173ffffffffffffffffffffffffffffffffffffffff021916908373ffffffffffffffffffffffffffffffffffffffff1602179055508173ffffffffffffffffffffffffffffffffffffffff168173ffffffffffffffffffffffffffffffffffffffff167f8be0079c531659141344cd1fd0a4f28419497f9722a3daafe3b4186f6b6457e060405160405180910390a35050565b8173ffffffffffffffffffffffffffffffffffffffff168373ffffffffffffffffffffffffffffffffffffffff1603611fd0576040517f08c379a0000000000000000000000000000000000000000000000000000000008152600401611fc790613f0d565b60405180910390fd5b80600160008573ffffffffffffffffffffffffffffffffffffffff1673ffffffffffffffffffffffffffffffffffffffff16815260200190815260200160002060008473ffffffffffffffffffffffffffffffffffffffff1673ffffffffffffffffffffffffffffffffffffffff16815260200190815260200160002060006101000a81548160ff0219169083151502179055508173ffffffffffffffffffffffffffffffffffffffff168373ffffffffffffffffffffffffffffffffffffffff167f17307eab39ab6107e8899845ad3d59bd9653f200f220920489ca2b5937696c31836040516120c19190612ac9565b60405180910390a3505050565b600073ffffffffffffffffffffffffffffffffffffffff168473ffffffffffffffffffffffffffffffffffffffff160361213d576040517f08c379a000000000000000000000000000000000000000000000000000000000815260040161213490613d7d565b60405180910390fd5b6000612147611af5565b90506000612154856124bc565b90506000612161856124bc565b9050612171838989858589612536565b600080600088815260200190815260200160002060008a73ffffffffffffffffffffffffffffffffffffffff1673ffffffffffffffffffffffffffffffffffffffff16815260200190815260200160002054905085811015612208576040517f08c379a00000000000000000000000000000000000000000000000000000000081526004016121ff90613e0f565b60405180910390fd5b85810360008089815260200190815260200160002060008b73ffffffffffffffffffffffffffffffffffffffff1673ffffffffffffffffffffffffffffffffffffffff168152602001908152602001600020819055508560008089815260200190815260200160002060008a73ffffffffffffffffffffffffffffffffffffffff1673ffffffffffffffffffffffffffffffffffffffff16815260200190815260200160002060008282546122bd919061372d565b925050819055508773ffffffffffffffffffffffffffffffffffffffff168973ffffffffffffffffffffffffffffffffffffffff168573ffffffffffffffffffffffffffffffffffffffff167fc3d58168c5ae7397731d063d5bbf3d657854427343f4c083240f7aacaa2d0f628a8a60405161233a929190613bd7565b60405180910390a4612350848a8a86868a61253e565b61235e848a8a8a8a8a612546565b505050505050505050565b600080600090507a184f03e93ff9f4daa797ed6e38ed64bf6a1f01000000000000000083106123c7577a184f03e93ff9f4daa797ed6e38ed64bf6a1f01000000000000000083816123bd576123bc613b16565b5b0492506040810190505b6d04ee2d6d415b85acef81000000008310612404576d04ee2d6d415b85acef810000000083816123fa576123f9613b16565b5b0492506020810190505b662386f26fc10000831061243357662386f26fc10000838161242957612428613b16565b5b0492506010810190505b6305f5e100831061245c576305f5e100838161245257612451613b16565b5b0492506008810190505b612710831061248157612710838161247757612476613b16565b5b0492506004810190505b606483106124a4576064838161249a57612499613b16565b5b0492506002810190505b600a83106124b3576001810190505b80915050919050565b60606000600167ffffffffffffffff8111156124db576124da612c6c565b5b6040519080825280602002602001820160405280156125095781602001602082028036833780820191505090505b5090508281600081518110612521576125206137b7565b5b60200260200101818152505080915050919050565b505050505050565b505050505050565b6125658473ffffffffffffffffffffffffffffffffffffffff166128f4565b15612715578373ffffffffffffffffffffffffffffffffffffffff1663f23a6e6187878686866040518663ffffffff1660e01b81526004016125ab959493929190613f82565b6020604051808303816000875af19250505080156125e757506040513d601f19601f820116820180604052508101906125e49190613ff1565b60015b61268c576125f361402b565b806308c379a00361264f575061260761404d565b806126125750612651565b806040517f08c379a00000000000000000000000000000000000000000000000000000000081526004016126469190612ba1565b60405180910390fd5b505b6040517f08c379a00000000000000000000000000000000000000000000000000000000081526004016126839061414f565b60405180910390fd5b63f23a6e6160e01b7bffffffffffffffffffffffffffffffffffffffffffffffffffffffff1916817bffffffffffffffffffffffffffffffffffffffffffffffffffffffff191614612713576040517f08c379a000000000000000000000000000000000000000000000000000000000815260040161270a906141e1565b60405180910390fd5b505b505050505050565b61273c8473ffffffffffffffffffffffffffffffffffffffff166128f4565b156128ec578373ffffffffffffffffffffffffffffffffffffffff1663bc197c8187878686866040518663ffffffff1660e01b8152600401612782959493929190614201565b6020604051808303816000875af19250505080156127be57506040513d601f19601f820116820180604052508101906127bb9190613ff1565b60015b612863576127ca61402b565b806308c379a00361282657506127de61404d565b806127e95750612828565b806040517f08c379a000000000000000000000000000000000000000000000000000000000815260040161281d9190612ba1565b60405180910390fd5b505b6040517f08c379a000000000000000000000000000000000000000000000000000000000815260040161285a9061414f565b60405180910390fd5b63bc197c8160e01b7bffffffffffffffffffffffffffffffffffffffffffffffffffffffff1916817bffffffffffffffffffffffffffffffffffffffffffffffffffffffff1916146128ea576040517f08c379a00000000000000000000000000000000000000000000000000000000081526004016128e1906141e1565b60405180910390fd5b505b505050505050565b6000808273ffffffffffffffffffffffffffffffffffffffff163b119050919050565b6000604051905090565b600080fd5b600080fd5b600073ffffffffffffffffffffffffffffffffffffffff82169050919050565b60006129568261292b565b9050919050565b6129668161294b565b811461297157600080fd5b50565b6000813590506129838161295d565b92915050565b6000819050919050565b61299c81612989565b81146129a757600080fd5b50565b6000813590506129b981612993565b92915050565b600080604083850312156129d6576129d5612921565b5b60006129e485828601612974565b92505060206129f5858286016129aa565b9150509250929050565b612a0881612989565b82525050565b6000602082019050612a2360008301846129ff565b92915050565b60007fffffffff0000000000000000000000000000000000000000000000000000000082169050919050565b612a5e81612a29565b8114612a6957600080fd5b50565b600081359050612a7b81612a55565b92915050565b600060208284031215612a9757612a96612921565b5b6000612aa584828501612a6c565b91505092915050565b60008115159050919050565b612ac381612aae565b82525050565b6000602082019050612ade6000830184612aba565b92915050565b600060208284031215612afa57612af9612921565b5b6000612b08848285016129aa565b91505092915050565b600081519050919050565b600082825260208201905092915050565b60005b83811015612b4b578082015181840152602081019050612b30565b60008484015250505050565b6000601f19601f8301169050919050565b6000612b7382612b11565b612b7d8185612b1c565b9350612b8d818560208601612b2d565b612b9681612b57565b840191505092915050565b60006020820190508181036000830152612bbb8184612b68565b905092915050565b6000819050919050565b6000612be8612be3612bde8461292b565b612bc3565b61292b565b9050919050565b6000612bfa82612bcd565b9050919050565b6000612c0c82612bef565b9050919050565b612c1c81612c01565b82525050565b6000602082019050612c376000830184612c13565b92915050565b612c468161294b565b82525050565b6000602082019050612c616000830184612c3d565b92915050565b600080fd5b7f4e487b7100000000000000000000000000000000000000000000000000000000600052604160045260246000fd5b612ca482612b57565b810181811067ffffffffffffffff82111715612cc357612cc2612c6c565b5b80604052505050565b6000612cd6612917565b9050612ce28282612c9b565b919050565b600067ffffffffffffffff821115612d0257612d01612c6c565b5b602082029050602081019050919050565b600080fd5b6000612d2b612d2684612ce7565b612ccc565b90508083825260208201905060208402830185811115612d4e57612d4d612d13565b5b835b81811015612d775780612d6388826129aa565b845260208401935050602081019050612d50565b5050509392505050565b600082601f830112612d9657612d95612c67565b5b8135612da6848260208601612d18565b91505092915050565b600080fd5b600067ffffffffffffffff821115612dcf57612dce612c6c565b5b612dd882612b57565b9050602081019050919050565b82818337600083830152505050565b6000612e07612e0284612db4565b612ccc565b905082815260208101848484011115612e2357612e22612daf565b5b612e2e848285612de5565b509392505050565b600082601f830112612e4b57612e4a612c67565b5b8135612e5b848260208601612df4565b91505092915050565b600080600080600060a08688031215612e8057612e7f612921565b5b6000612e8e88828901612974565b9550506020612e9f88828901612974565b945050604086013567ffffffffffffffff811115612ec057612ebf612926565b5b612ecc88828901612d81565b935050606086013567ffffffffffffffff811115612eed57612eec612926565b5b612ef988828901612d81565b925050608086013567ffffffffffffffff811115612f1a57612f19612926565b5b612f2688828901612e36565b9150509295509295909350565b600067ffffffffffffffff821115612f4e57612f4d612c6c565b5b602082029050602081019050919050565b6000612f72612f6d84612f33565b612ccc565b90508083825260208201905060208402830185811115612f9557612f94612d13565b5b835b81811015612fbe5780612faa8882612974565b845260208401935050602081019050612f97565b5050509392505050565b600082601f830112612fdd57612fdc612c67565b5b8135612fed848260208601612f5f565b91505092915050565b6000806040838503121561300d5761300c612921565b5b600083013567ffffffffffffffff81111561302b5761302a612926565b5b61303785828601612fc8565b925050602083013567ffffffffffffffff81111561305857613057612926565b5b61306485828601612d81565b9150509250929050565b600081519050919050565b600082825260208201905092915050565b6000819050602082019050919050565b6130a381612989565b82525050565b60006130b5838361309a565b60208301905092915050565b6000602082019050919050565b60006130d98261306e565b6130e38185613079565b93506130ee8361308a565b8060005b8381101561311f57815161310688826130a9565b9750613111836130c1565b9250506001810190506130f2565b5085935050505092915050565b6000602082019050818103600083015261314681846130ce565b905092915050565b61315781612aae565b811461316257600080fd5b50565b6000813590506131748161314e565b92915050565b6000806040838503121561319157613190612921565b5b600061319f85828601612974565b92505060206131b085828601613165565b9150509250929050565b6000602082840312156131d0576131cf612921565b5b60006131de84828501612974565b91505092915050565b600080604083850312156131fe576131fd612921565b5b600061320c85828601612974565b925050602061321d85828601612974565b9150509250929050565b600080600080600060a0868803121561324357613242612921565b5b600061325188828901612974565b955050602061326288828901612974565b9450506040613273888289016129aa565b9350506060613284888289016129aa565b925050608086013567ffffffffffffffff8111156132a5576132a4612926565b5b6132b188828901612e36565b9150509295509295909350565b7f455243313135353a2061646472657373207a65726f206973206e6f742061207660008201527f616c6964206f776e657200000000000000000000000000000000000000000000602082015250565b600061331a602a83612b1c565b9150613325826132be565b604082019050919050565b600060208201905081810360008301526133498161330d565b9050919050565b600081905092915050565b7f68747470733a2f2f6d796170692e636f6d2f6170692f4e46542f000000000000600082015250565b6000613391601a83613350565b915061339c8261335b565b601a82019050919050565b7f4e487b7100000000000000000000000000000000000000000000000000000000600052602260045260246000fd5b600060028204905060018216806133ee57607f821691505b602082108103613401576134006133a7565b5b50919050565b60008190508160005260206000209050919050565b60008154613429816133d6565b6134338186613350565b9450600182166000811461344e576001811461346357613496565b60ff1983168652811515820286019350613496565b61346c85613407565b60005b8381101561348e5781548189015260018201915060208101905061346f565b838801955050505b50505092915050565b7f2f00000000000000000000000000000000000000000000000000000000000000600082015250565b60006134d5600183613350565b91506134e08261349f565b600182019050919050565b60006134f682612b11565b6135008185613350565b9350613510818560208601612b2d565b80840191505092915050565b7f2e6a736f6e000000000000000000000000000000000000000000000000000000600082015250565b6000613552600583613350565b915061355d8261351c565b600582019050919050565b600061357382613384565b915061357f828561341c565b915061358a826134c8565b915061359682846134eb565b91506135a182613545565b91508190509392505050565b7f536f7272792c20776527726520736f6c64206f75740000000000000000000000600082015250565b60006135e3601583612b1c565b91506135ee826135ad565b602082019050919050565b60006020820190508181036000830152613612816135d6565b9050919050565b600060608201905061362e6000830186612c3d565b61363b6020830185612c3d565b61364860408301846129ff565b949350505050565b60008151905061365f8161314e565b92915050565b60006020828403121561367b5761367a612921565b5b600061368984828501613650565b91505092915050565b7f55534443207472616e73666572206661696c6564000000000000000000000000600082015250565b60006136c8601483612b1c565b91506136d382613692565b602082019050919050565b600060208201905081810360008301526136f7816136bb565b9050919050565b7f4e487b7100000000000000000000000000000000000000000000000000000000600052601160045260246000fd5b600061373882612989565b915061374383612989565b925082820190508082111561375b5761375a6136fe565b5b92915050565b6000819050919050565b600061378661378161377c84613761565b612bc3565b612989565b9050919050565b6137968161376b565b82525050565b60006020820190506137b1600083018461378d565b92915050565b7f4e487b7100000000000000000000000000000000000000000000000000000000600052603260045260246000fd5b60006137f182612989565b91507fffffffffffffffffffffffffffffffffffffffffffffffffffffffffffffffff8203613823576138226136fe565b5b600182019050919050565b7f455243313135353a2063616c6c6572206973206e6f7420746f6b656e206f776e60008201527f6572206f7220617070726f766564000000000000000000000000000000000000602082015250565b600061388a602e83612b1c565b91506138958261382e565b604082019050919050565b600060208201905081810360008301526138b98161387d565b9050919050565b7f455243313135353a206163636f756e747320616e6420696473206c656e67746860008201527f206d69736d617463680000000000000000000000000000000000000000000000602082015250565b600061391c602983612b1c565b9150613927826138c0565b604082019050919050565b6000602082019050818103600083015261394b8161390f565b9050919050565b600061395d82612989565b915061396883612989565b92508282039050818111156139805761397f6136fe565b5b92915050565b7f596f75206861766520616c726561647920617070726f76656420746865206d6160008201527f726b6574706c6163650000000000000000000000000000000000000000000000602082015250565b60006139e2602983612b1c565b91506139ed82613986565b604082019050919050565b60006020820190508181036000830152613a11816139d5565b9050919050565b7f496e76616c696420616464726573730000000000000000000000000000000000600082015250565b6000613a4e600f83612b1c565b9150613a5982613a18565b602082019050919050565b60006020820190508181036000830152613a7d81613a41565b9050919050565b7f4f776e61626c653a206e6577206f776e657220697320746865207a65726f206160008201527f6464726573730000000000000000000000000000000000000000000000000000602082015250565b6000613ae0602683612b1c565b9150613aeb82613a84565b604082019050919050565b60006020820190508181036000830152613b0f81613ad3565b9050919050565b7f4e487b7100000000000000000000000000000000000000000000000000000000600052601260045260246000fd5b7f455243313135353a206d696e7420746f20746865207a65726f2061646472657360008201527f7300000000000000000000000000000000000000000000000000000000000000602082015250565b6000613ba1602183612b1c565b9150613bac82613b45565b604082019050919050565b60006020820190508181036000830152613bd081613b94565b9050919050565b6000604082019050613bec60008301856129ff565b613bf960208301846129ff565b9392505050565b6000613c0b82612989565b9150613c1683612989565b9250828202613c2481612989565b91508282048414831517613c3b57613c3a6136fe565b5b5092915050565b7f455243313135353a2069647320616e6420616d6f756e7473206c656e6774682060008201527f6d69736d61746368000000000000000000000000000000000000000000000000602082015250565b6000613c9e602883612b1c565b9150613ca982613c42565b604082019050919050565b60006020820190508181036000830152613ccd81613c91565b9050919050565b60006040820190508181036000830152613cee81856130ce565b90508181036020830152613d0281846130ce565b90509392505050565b7f455243313135353a207472616e7366657220746f20746865207a65726f20616460008201527f6472657373000000000000000000000000000000000000000000000000000000602082015250565b6000613d67602583612b1c565b9150613d7282613d0b565b604082019050919050565b60006020820190508181036000830152613d9681613d5a565b9050919050565b7f455243313135353a20696e73756666696369656e742062616c616e636520666f60008201527f72207472616e7366657200000000000000000000000000000000000000000000602082015250565b6000613df9602a83612b1c565b9150613e0482613d9d565b604082019050919050565b60006020820190508181036000830152613e2881613dec565b9050919050565b7f4f776e61626c653a2063616c6c6572206973206e6f7420746865206f776e6572600082015250565b6000613e65602083612b1c565b9150613e7082613e2f565b602082019050919050565b60006020820190508181036000830152613e9481613e58565b9050919050565b7f455243313135353a2073657474696e6720617070726f76616c2073746174757360008201527f20666f722073656c660000000000000000000000000000000000000000000000602082015250565b6000613ef7602983612b1c565b9150613f0282613e9b565b604082019050919050565b60006020820190508181036000830152613f2681613eea565b9050919050565b600081519050919050565b600082825260208201905092915050565b6000613f5482613f2d565b613f5e8185613f38565b9350613f6e818560208601612b2d565b613f7781612b57565b840191505092915050565b600060a082019050613f976000830188612c3d565b613fa46020830187612c3d565b613fb160408301866129ff565b613fbe60608301856129ff565b8181036080830152613fd08184613f49565b90509695505050505050565b600081519050613feb81612a55565b92915050565b60006020828403121561400757614006612921565b5b600061401584828501613fdc565b91505092915050565b60008160e01c9050919050565b600060033d111561404a5760046000803e61404760005161401e565b90505b90565b600060443d106140da5761405f612917565b60043d036004823e80513d602482011167ffffffffffffffff821117156140875750506140da565b808201805167ffffffffffffffff8111156140a557505050506140da565b80602083010160043d0385018111156140c25750505050506140da565b6140d182602001850186612c9b565b82955050505050505b90565b7f455243313135353a207472616e7366657220746f206e6f6e2d4552433131353560008201527f526563656976657220696d706c656d656e746572000000000000000000000000602082015250565b6000614139603483612b1c565b9150614144826140dd565b604082019050919050565b600060208201905081810360008301526141688161412c565b9050919050565b7f455243313135353a204552433131353552656365697665722072656a6563746560008201527f6420746f6b656e73000000000000000000000000000000000000000000000000602082015250565b60006141cb602883612b1c565b91506141d68261416f565b604082019050919050565b600060208201905081810360008301526141fa816141be565b9050919050565b600060a0820190506142166000830188612c3d565b6142236020830187612c3d565b818103604083015261423581866130ce565b9050818103606083015261424981856130ce565b9050818103608083015261425d8184613f49565b9050969550505050505056fea2646970667358221220659c2963eb70578873b7322da35cb641a794085b15b76286b8e8d66f0e22928864736f6c63430008130033",
  "linkReferences": {},
  "deployedLinkReferences": {}
}