{
  "_format": "hh-sol-artifact-1",
  "contractName": "SeatedNftContract",
  "sourceName": "contracts/SeatedNftContract.sol",
  "abi": [
    {
      "inputs": [
        {
          "internalType": "string",
          "name": "_section",
          "type": "string"
        },
        {
          "internalType": "uint256",
          "name": "_supply",
          "type": "uint256"
        },
        {
          "internalType": "uint256",
          "name": "_startPrice",
          "type": "uint256"
        },
        {
          "internalType": "uint256",
          "name": "_priceCap",
          "type": "uint256"
        },
        {
          "internalType": "uint256",
          "name": "_startSeat",
          "type": "uint256"
        },
        {
          "internalType": "string",
          "name": "_event",
          "type": "string"
        }
      ],
      "stateMutability": "nonpayable",
      "type": "constructor"
    },
    {
      "anonymous": false,
      "inputs": [
        {
          "indexed": true,
          "internalType": "address",
          "name": "account",
          "type": "address"
        },
        {
          "indexed": true,
          "internalType": "address",
          "name": "operator",
          "type": "address"
        },
        {
          "indexed": false,
          "internalType": "bool",
          "name": "approved",
          "type": "bool"
        }
      ],
      "name": "ApprovalForAll",
      "type": "event"
    },
    {
      "anonymous": false,
      "inputs": [
        {
          "indexed": true,
          "internalType": "address",
          "name": "previousOwner",
          "type": "address"
        },
        {
          "indexed": true,
          "internalType": "address",
          "name": "newOwner",
          "type": "address"
        }
      ],
      "name": "OwnershipTransferred",
      "type": "event"
    },
    {
      "anonymous": false,
      "inputs": [
        {
          "indexed": true,
          "internalType": "address",
          "name": "operator",
          "type": "address"
        },
        {
          "indexed": true,
          "internalType": "address",
          "name": "from",
          "type": "address"
        },
        {
          "indexed": true,
          "internalType": "address",
          "name": "to",
          "type": "address"
        },
        {
          "indexed": false,
          "internalType": "uint256[]",
          "name": "ids",
          "type": "uint256[]"
        },
        {
          "indexed": false,
          "internalType": "uint256[]",
          "name": "values",
          "type": "uint256[]"
        }
      ],
      "name": "TransferBatch",
      "type": "event"
    },
    {
      "anonymous": false,
      "inputs": [
        {
          "indexed": true,
          "internalType": "address",
          "name": "operator",
          "type": "address"
        },
        {
          "indexed": true,
          "internalType": "address",
          "name": "from",
          "type": "address"
        },
        {
          "indexed": true,
          "internalType": "address",
          "name": "to",
          "type": "address"
        },
        {
          "indexed": false,
          "internalType": "uint256",
          "name": "id",
          "type": "uint256"
        },
        {
          "indexed": false,
          "internalType": "uint256",
          "name": "value",
          "type": "uint256"
        }
      ],
      "name": "TransferSingle",
      "type": "event"
    },
    {
      "anonymous": false,
      "inputs": [
        {
          "indexed": false,
          "internalType": "string",
          "name": "value",
          "type": "string"
        },
        {
          "indexed": true,
          "internalType": "uint256",
          "name": "id",
          "type": "uint256"
        }
      ],
      "name": "URI",
      "type": "event"
    },
    {
      "inputs": [],
      "name": "approveMarket",
      "outputs": [],
      "stateMutability": "nonpayable",
      "type": "function"
    },
    {
      "inputs": [
        {
          "internalType": "address",
          "name": "account",
          "type": "address"
        },
        {
          "internalType": "uint256",
          "name": "id",
          "type": "uint256"
        }
      ],
      "name": "balanceOf",
      "outputs": [
        {
          "internalType": "uint256",
          "name": "",
          "type": "uint256"
        }
      ],
      "stateMutability": "view",
      "type": "function"
    },
    {
      "inputs": [
        {
          "internalType": "address[]",
          "name": "accounts",
          "type": "address[]"
        },
        {
          "internalType": "uint256[]",
          "name": "ids",
          "type": "uint256[]"
        }
      ],
      "name": "balanceOfBatch",
      "outputs": [
        {
          "internalType": "uint256[]",
          "name": "",
          "type": "uint256[]"
        }
      ],
      "stateMutability": "view",
      "type": "function"
    },
    {
      "inputs": [],
      "name": "eventName",
      "outputs": [
        {
          "internalType": "string",
          "name": "",
          "type": "string"
        }
      ],
      "stateMutability": "view",
      "type": "function"
    },
    {
      "inputs": [],
      "name": "getEventName",
      "outputs": [
        {
          "internalType": "string",
          "name": "",
          "type": "string"
        }
      ],
      "stateMutability": "view",
      "type": "function"
    },
    {
      "inputs": [],
      "name": "getOwner",
      "outputs": [
        {
          "internalType": "address",
          "name": "",
          "type": "address"
        }
      ],
      "stateMutability": "view",
      "type": "function"
    },
    {
      "inputs": [],
      "name": "getSection",
      "outputs": [
        {
          "internalType": "string",
          "name": "",
          "type": "string"
        }
      ],
      "stateMutability": "view",
      "type": "function"
    },
    {
      "inputs": [],
      "name": "getStartPrice",
      "outputs": [
        {
          "internalType": "uint256",
          "name": "",
          "type": "uint256"
        }
      ],
      "stateMutability": "view",
      "type": "function"
    },
    {
      "inputs": [],
      "name": "getStartSeat",
      "outputs": [
        {
          "internalType": "uint256",
          "name": "",
          "type": "uint256"
        }
      ],
      "stateMutability": "view",
      "type": "function"
    },
    {
      "inputs": [],
      "name": "getSupply",
      "outputs": [
        {
          "internalType": "uint256",
          "name": "",
          "type": "uint256"
        }
      ],
      "stateMutability": "view",
      "type": "function"
    },
    {
      "inputs": [],
      "name": "getTicketsLeft",
      "outputs": [
        {
          "internalType": "uint256",
          "name": "",
          "type": "uint256"
        }
      ],
      "stateMutability": "view",
      "type": "function"
    },
    {
      "inputs": [
        {
          "internalType": "uint256",
          "name": "_tokenId",
          "type": "uint256"
        }
      ],
      "name": "getTokenURI",
      "outputs": [
        {
          "internalType": "string",
          "name": "",
          "type": "string"
        }
      ],
      "stateMutability": "view",
      "type": "function"
    },
    {
      "inputs": [
        {
          "internalType": "address",
          "name": "account",
          "type": "address"
        },
        {
          "internalType": "address",
          "name": "operator",
          "type": "address"
        }
      ],
      "name": "isApprovedForAll",
      "outputs": [
        {
          "internalType": "bool",
          "name": "",
          "type": "bool"
        }
      ],
      "stateMutability": "view",
      "type": "function"
    },
    {
      "inputs": [],
      "name": "marketPlaceAddress",
      "outputs": [
        {
          "internalType": "address",
          "name": "",
          "type": "address"
        }
      ],
      "stateMutability": "view",
      "type": "function"
    },
    {
      "inputs": [
        {
          "internalType": "address",
          "name": "_userwallet",
          "type": "address"
        }
      ],
      "name": "mint",
      "outputs": [],
      "stateMutability": "payable",
      "type": "function"
    },
    {
      "inputs": [
        {
          "internalType": "address",
          "name": "to",
          "type": "address"
        },
        {
          "internalType": "uint256",
          "name": "_amounts",
          "type": "uint256"
        }
      ],
      "name": "mintBatch",
      "outputs": [],
      "stateMutability": "payable",
      "type": "function"
    },
    {
      "inputs": [],
      "name": "owner",
      "outputs": [
        {
          "internalType": "address",
          "name": "",
          "type": "address"
        }
      ],
      "stateMutability": "view",
      "type": "function"
    },
    {
      "inputs": [],
      "name": "priceCap",
      "outputs": [
        {
          "internalType": "uint256",
          "name": "",
          "type": "uint256"
        }
      ],
      "stateMutability": "view",
      "type": "function"
    },
    {
      "inputs": [],
      "name": "renounceOwnership",
      "outputs": [],
      "stateMutability": "nonpayable",
      "type": "function"
    },
    {
      "inputs": [
        {
          "internalType": "address",
          "name": "from",
          "type": "address"
        },
        {
          "internalType": "address",
          "name": "to",
          "type": "address"
        },
        {
          "internalType": "uint256[]",
          "name": "ids",
          "type": "uint256[]"
        },
        {
          "internalType": "uint256[]",
          "name": "amounts",
          "type": "uint256[]"
        },
        {
          "internalType": "bytes",
          "name": "data",
          "type": "bytes"
        }
      ],
      "name": "safeBatchTransferFrom",
      "outputs": [],
      "stateMutability": "nonpayable",
      "type": "function"
    },
    {
      "inputs": [
        {
          "internalType": "address",
          "name": "from",
          "type": "address"
        },
        {
          "internalType": "address",
          "name": "to",
          "type": "address"
        },
        {
          "internalType": "uint256",
          "name": "id",
          "type": "uint256"
        },
        {
          "internalType": "uint256",
          "name": "amount",
          "type": "uint256"
        },
        {
          "internalType": "bytes",
          "name": "data",
          "type": "bytes"
        }
      ],
      "name": "safeTransferFrom",
      "outputs": [],
      "stateMutability": "nonpayable",
      "type": "function"
    },
    {
      "inputs": [],
      "name": "section",
      "outputs": [
        {
          "internalType": "string",
          "name": "",
          "type": "string"
        }
      ],
      "stateMutability": "view",
      "type": "function"
    },
    {
      "inputs": [
        {
          "internalType": "address",
          "name": "operator",
          "type": "address"
        },
        {
          "internalType": "bool",
          "name": "approved",
          "type": "bool"
        }
      ],
      "name": "setApprovalForAll",
      "outputs": [],
      "stateMutability": "nonpayable",
      "type": "function"
    },
    {
      "inputs": [
        {
          "internalType": "address",
          "name": "_marketPlaceAddress",
          "type": "address"
        }
      ],
      "name": "setMarketPlaceAddress",
      "outputs": [],
      "stateMutability": "nonpayable",
      "type": "function"
    },
    {
      "inputs": [],
      "name": "startPrice",
      "outputs": [
        {
          "internalType": "uint256",
          "name": "",
          "type": "uint256"
        }
      ],
      "stateMutability": "view",
      "type": "function"
    },
    {
      "inputs": [],
      "name": "startSeat",
      "outputs": [
        {
          "internalType": "uint256",
          "name": "",
          "type": "uint256"
        }
      ],
      "stateMutability": "view",
      "type": "function"
    },
    {
      "inputs": [],
      "name": "supply",
      "outputs": [
        {
          "internalType": "uint256",
          "name": "",
          "type": "uint256"
        }
      ],
      "stateMutability": "view",
      "type": "function"
    },
    {
      "inputs": [
        {
          "internalType": "bytes4",
          "name": "interfaceId",
          "type": "bytes4"
        }
      ],
      "name": "supportsInterface",
      "outputs": [
        {
          "internalType": "bool",
          "name": "",
          "type": "bool"
        }
      ],
      "stateMutability": "view",
      "type": "function"
    },
    {
      "inputs": [
        {
          "internalType": "uint256",
          "name": "",
          "type": "uint256"
        }
      ],
      "name": "tokenOwner",
      "outputs": [
        {
          "internalType": "address",
          "name": "",
          "type": "address"
        }
      ],
      "stateMutability": "view",
      "type": "function"
    },
    {
      "inputs": [
        {
          "internalType": "address",
          "name": "newOwner",
          "type": "address"
        }
      ],
      "name": "transferOwnership",
      "outputs": [],
      "stateMutability": "nonpayable",
      "type": "function"
    },
    {
      "inputs": [
        {
          "internalType": "uint256",
          "name": "_tokenid",
          "type": "uint256"
        }
      ],
      "name": "uri",
      "outputs": [
        {
          "internalType": "string",
          "name": "",
          "type": "string"
        }
      ],
      "stateMutability": "view",
      "type": "function"
    }
  ],
  "bytecode": "0x60806040523480156200001157600080fd5b5060405162004a7838038062004a78833981810160405281019062000037919062000390565b806040516020016200004a9190620005a7565b6040516020818303038152906040526200006a81620000df60201b60201c565b506200008b6200007f620000f460201b60201c565b620000fc60201b60201c565b60016004819055508560069081620000a491906200081d565b50846007819055508260088190555081600a819055508360098190555080600b9081620000d291906200081d565b5050505050505062000904565b8060029081620000f091906200081d565b5050565b600033905090565b6000600360009054906101000a900473ffffffffffffffffffffffffffffffffffffffff16905081600360006101000a81548173ffffffffffffffffffffffffffffffffffffffff021916908373ffffffffffffffffffffffffffffffffffffffff1602179055508173ffffffffffffffffffffffffffffffffffffffff168173ffffffffffffffffffffffffffffffffffffffff167f8be0079c531659141344cd1fd0a4f28419497f9722a3daafe3b4186f6b6457e060405160405180910390a35050565b6000604051905090565b600080fd5b600080fd5b600080fd5b600080fd5b6000601f19601f8301169050919050565b7f4e487b7100000000000000000000000000000000000000000000000000000000600052604160045260246000fd5b6200022b82620001e0565b810181811067ffffffffffffffff821117156200024d576200024c620001f1565b5b80604052505050565b600062000262620001c2565b905062000270828262000220565b919050565b600067ffffffffffffffff821115620002935762000292620001f1565b5b6200029e82620001e0565b9050602081019050919050565b60005b83811015620002cb578082015181840152602081019050620002ae565b60008484015250505050565b6000620002ee620002e88462000275565b62000256565b9050828152602081018484840111156200030d576200030c620001db565b5b6200031a848285620002ab565b509392505050565b600082601f8301126200033a5762000339620001d6565b5b81516200034c848260208601620002d7565b91505092915050565b6000819050919050565b6200036a8162000355565b81146200037657600080fd5b50565b6000815190506200038a816200035f565b92915050565b60008060008060008060c08789031215620003b057620003af620001cc565b5b600087015167ffffffffffffffff811115620003d157620003d0620001d1565b5b620003df89828a0162000322565b9650506020620003f289828a0162000379565b95505060406200040589828a0162000379565b94505060606200041889828a0162000379565b93505060806200042b89828a0162000379565b92505060a087015167ffffffffffffffff8111156200044f576200044e620001d1565b5b6200045d89828a0162000322565b9150509295509295509295565b600081905092915050565b7f68747470733a2f2f6d796170692e636f6d2f6170692f4e46542f000000000000600082015250565b6000620004ad601a836200046a565b9150620004ba8262000475565b601a82019050919050565b600081519050919050565b6000620004dd82620004c5565b620004e981856200046a565b9350620004fb818560208601620002ab565b80840191505092915050565b7f2f00000000000000000000000000000000000000000000000000000000000000600082015250565b60006200053f6001836200046a565b91506200054c8262000507565b600182019050919050565b7f7b69647d2e6a736f6e0000000000000000000000000000000000000000000000600082015250565b60006200058f6009836200046a565b91506200059c8262000557565b600982019050919050565b6000620005b4826200049e565b9150620005c28284620004d0565b9150620005cf8262000530565b9150620005dc8262000580565b915081905092915050565b7f4e487b7100000000000000000000000000000000000000000000000000000000600052602260045260246000fd5b600060028204905060018216806200062f57607f821691505b602082108103620006455762000644620005e7565b5b50919050565b60008190508160005260206000209050919050565b60006020601f8301049050919050565b600082821b905092915050565b600060088302620006af7fffffffffffffffffffffffffffffffffffffffffffffffffffffffffffffffff8262000670565b620006bb868362000670565b95508019841693508086168417925050509392505050565b6000819050919050565b6000620006fe620006f8620006f28462000355565b620006d3565b62000355565b9050919050565b6000819050919050565b6200071a83620006dd565b62000732620007298262000705565b8484546200067d565b825550505050565b600090565b620007496200073a565b620007568184846200070f565b505050565b5b818110156200077e57620007726000826200073f565b6001810190506200075c565b5050565b601f821115620007cd5762000797816200064b565b620007a28462000660565b81016020851015620007b2578190505b620007ca620007c18562000660565b8301826200075b565b50505b505050565b600082821c905092915050565b6000620007f260001984600802620007d2565b1980831691505092915050565b60006200080d8383620007df565b9150826002028217905092915050565b6200082882620004c5565b67ffffffffffffffff811115620008445762000843620001f1565b5b62000850825462000616565b6200085d82828562000782565b600060209050601f83116001811462000895576000841562000880578287015190505b6200088c8582620007ff565b865550620008fc565b601f198416620008a5866200064b565b60005b82811015620008cf57848901518255600182019150602085019450602081019050620008a8565b86831015620008ef5784890151620008eb601f891682620007df565b8355505b6001600288020188555050505b505050505050565b61416480620009146000396000f3fe6080604052600436106101d75760003560e01c80636a62784211610102578063baffa90311610095578063ed27107b11610064578063ed27107b14610697578063f1a9af89146106c2578063f242432a146106ed578063f2fde38b14610716576101d7565b8063baffa903146105ef578063c2560f2a1461061a578063cc98ef9614610631578063e985e9c51461065a576101d7565b8063893d20e8116100d1578063893d20e8146105455780638da5cb5b14610570578063a22cb4651461059b578063b81e43fc146105c4576101d7565b80636a627842146104bc5780636c9c2faf146104d8578063715018a6146105035780638043c9c01461051a576101d7565b8063248b71fc1161017a5780633bb3a24d116101495780633bb3a24d146103ec5780634e1273f4146104295780635a7bddbf14610466578063646f22c514610491576101d7565b8063248b71fc14610351578063278a262f1461036d5780632c9cf352146103985780632eb2c2d6146103c3576101d7565b8063047fc9aa116101b6578063047fc9aa146102815780630e89341c146102ac57806318df458d146102e95780631caaa48714610314576101d7565b8062fdd58e146101dc57806301ffc9a71461021957806302b7847c14610256575b600080fd5b3480156101e857600080fd5b5061020360048036038101906101fe9190612915565b61073f565b6040516102109190612964565b60405180910390f35b34801561022557600080fd5b50610240600480360381019061023b91906129d7565b610807565b60405161024d9190612a1f565b60405180910390f35b34801561026257600080fd5b5061026b6108e9565b6040516102789190612964565b60405180910390f35b34801561028d57600080fd5b506102966108ef565b6040516102a39190612964565b60405180910390f35b3480156102b857600080fd5b506102d360048036038101906102ce9190612a3a565b6108f5565b6040516102e09190612af7565b60405180910390f35b3480156102f557600080fd5b506102fe610929565b60405161030b9190612964565b60405180910390f35b34801561032057600080fd5b5061033b60048036038101906103369190612a3a565b61092f565b6040516103489190612b28565b60405180910390f35b61036b60048036038101906103669190612915565b610962565b005b34801561037957600080fd5b50610382610bb8565b60405161038f9190612af7565b60405180910390f35b3480156103a457600080fd5b506103ad610c46565b6040516103ba9190612964565b60405180910390f35b3480156103cf57600080fd5b506103ea60048036038101906103e59190612d40565b610c50565b005b3480156103f857600080fd5b50610413600480360381019061040e9190612a3a565b610cf1565b6040516104209190612af7565b60405180910390f35b34801561043557600080fd5b50610450600480360381019061044b9190612ed2565b610d25565b60405161045d9190613008565b60405180910390f35b34801561047257600080fd5b5061047b610e3e565b6040516104889190612af7565b60405180910390f35b34801561049d57600080fd5b506104a6610ed0565b6040516104b39190612964565b60405180910390f35b6104d660048036038101906104d1919061302a565b610eee565b005b3480156104e457600080fd5b506104ed611016565b6040516104fa9190612964565b60405180910390f35b34801561050f57600080fd5b50610518611020565b005b34801561052657600080fd5b5061052f611034565b60405161053c9190612af7565b60405180910390f35b34801561055157600080fd5b5061055a6110c2565b6040516105679190612b28565b60405180910390f35b34801561057c57600080fd5b506105856110d1565b6040516105929190612b28565b60405180910390f35b3480156105a757600080fd5b506105c260048036038101906105bd9190613083565b6110fb565b005b3480156105d057600080fd5b506105d9611111565b6040516105e69190612af7565b60405180910390f35b3480156105fb57600080fd5b506106046111a3565b6040516106119190612964565b60405180910390f35b34801561062657600080fd5b5061062f6111ad565b005b34801561063d57600080fd5b506106586004803603810190610653919061302a565b611248565b005b34801561066657600080fd5b50610681600480360381019061067c91906130c3565b611303565b60405161068e9190612a1f565b60405180910390f35b3480156106a357600080fd5b506106ac611397565b6040516106b99190612b28565b60405180910390f35b3480156106ce57600080fd5b506106d76113bd565b6040516106e49190612964565b60405180910390f35b3480156106f957600080fd5b50610714600480360381019061070f9190613103565b6113c3565b005b34801561072257600080fd5b5061073d6004803603810190610738919061302a565b611464565b005b60008073ffffffffffffffffffffffffffffffffffffffff168373ffffffffffffffffffffffffffffffffffffffff16036107af576040517f08c379a00000000000000000000000000000000000000000000000000000000081526004016107a69061320c565b60405180910390fd5b60008083815260200190815260200160002060008473ffffffffffffffffffffffffffffffffffffffff1673ffffffffffffffffffffffffffffffffffffffff16815260200190815260200160002054905092915050565b60007fd9b67a26000000000000000000000000000000000000000000000000000000007bffffffffffffffffffffffffffffffffffffffffffffffffffffffff1916827bffffffffffffffffffffffffffffffffffffffffffffffffffffffff191614806108d257507f0e89341c000000000000000000000000000000000000000000000000000000007bffffffffffffffffffffffffffffffffffffffffffffffffffffffff1916827bffffffffffffffffffffffffffffffffffffffffffffffffffffffff1916145b806108e257506108e1826114e7565b5b9050919050565b60085481565b60075481565b6060600b61090283611551565b604051602001610913929190613444565b6040516020818303038152906040529050919050565b600a5481565b600d6020528060005260406000206000915054906101000a900473ffffffffffffffffffffffffffffffffffffffff1681565b60075461098182610973600c61161f565b61162d90919063ffffffff16565b11156109c2576040517f08c379a00000000000000000000000000000000000000000000000000000000081526004016109b9906134d5565b60405180910390fd5b60006109d96009548361164390919063ffffffff16565b9050803414610a1d576040517f08c379a0000000000000000000000000000000000000000000000000000000008152600401610a1490613567565b60405180910390fd5b60008267ffffffffffffffff811115610a3957610a38612b48565b5b604051908082528060200260200182016040528015610a675781602001602082028036833780820191505090505b50905060008367ffffffffffffffff811115610a8657610a85612b48565b5b604051908082528060200260200182016040528015610ab45781602001602082028036833780820191505090505b50905060005b84811015610b95576000610ae2610ad1600c61161f565b600a5461162d90919063ffffffff16565b905080848381518110610af857610af7613587565b5b60200260200101818152505033600d600083815260200190815260200160002060006101000a81548173ffffffffffffffffffffffffffffffffffffffff021916908373ffffffffffffffffffffffffffffffffffffffff160217905550610b60600c611659565b6001838381518110610b7557610b74613587565b5b602002602001018181525050508080610b8d906135e5565b915050610aba565b50610bb18583836040518060200160405280600081525061166f565b5050505050565b60068054610bc5906132b2565b80601f0160208091040260200160405190810160405280929190818152602001828054610bf1906132b2565b8015610c3e5780601f10610c1357610100808354040283529160200191610c3e565b820191906000526020600020905b815481529060010190602001808311610c2157829003601f168201915b505050505081565b6000600a54905090565b610c5861189b565b73ffffffffffffffffffffffffffffffffffffffff168573ffffffffffffffffffffffffffffffffffffffff161480610c9e5750610c9d85610c9861189b565b611303565b5b610cdd576040517f08c379a0000000000000000000000000000000000000000000000000000000008152600401610cd49061369f565b60405180910390fd5b610cea85858585856118a3565b5050505050565b6060600b610cfe83611551565b604051602001610d0f929190613444565b6040516020818303038152906040529050919050565b60608151835114610d6b576040517f08c379a0000000000000000000000000000000000000000000000000000000008152600401610d6290613731565b60405180910390fd5b6000835167ffffffffffffffff811115610d8857610d87612b48565b5b604051908082528060200260200182016040528015610db65781602001602082028036833780820191505090505b50905060005b8451811015610e3357610e03858281518110610ddb57610dda613587565b5b6020026020010151858381518110610df657610df5613587565b5b602002602001015161073f565b828281518110610e1657610e15613587565b5b60200260200101818152505080610e2c906135e5565b9050610dbc565b508091505092915050565b606060068054610e4d906132b2565b80601f0160208091040260200160405190810160405280929190818152602001828054610e79906132b2565b8015610ec65780601f10610e9b57610100808354040283529160200191610ec6565b820191906000526020600020905b815481529060010190602001808311610ea957829003601f168201915b5050505050905090565b6000610edc600c61161f565b600754610ee99190613751565b905090565b6009543414610f32576040517f08c379a0000000000000000000000000000000000000000000000000000000008152600401610f29906137f7565b60405180910390fd5b600754610f3f600c61161f565b10610f7f576040517f08c379a0000000000000000000000000000000000000000000000000000000008152600401610f76906134d5565b60405180910390fd5b6000610f8b600c61161f565b600a54610f989190613817565b9050610fb68282600160405180602001604052806000815250611bc4565b33600d600083815260200190815260200160002060006101000a81548173ffffffffffffffffffffffffffffffffffffffff021916908373ffffffffffffffffffffffffffffffffffffffff160217905550611012600c611659565b5050565b6000600754905090565b611028611d74565b6110326000611df2565b565b600b8054611041906132b2565b80601f016020809104026020016040519081016040528092919081815260200182805461106d906132b2565b80156110ba5780601f1061108f576101008083540402835291602001916110ba565b820191906000526020600020905b81548152906001019060200180831161109d57829003601f168201915b505050505081565b60006110cc6110d1565b905090565b6000600360009054906101000a900473ffffffffffffffffffffffffffffffffffffffff16905090565b61110d61110661189b565b8383611eb8565b5050565b6060600b8054611120906132b2565b80601f016020809104026020016040519081016040528092919081815260200182805461114c906132b2565b80156111995780601f1061116e57610100808354040283529160200191611199565b820191906000526020600020905b81548152906001019060200180831161117c57829003601f168201915b5050505050905090565b6000600954905090565b6111d933600560009054906101000a900473ffffffffffffffffffffffffffffffffffffffff16611303565b15611219576040517f08c379a0000000000000000000000000000000000000000000000000000000008152600401611210906138bd565b60405180910390fd5b611246600560009054906101000a900473ffffffffffffffffffffffffffffffffffffffff1660016110fb565b565b611250611d74565b600073ffffffffffffffffffffffffffffffffffffffff168173ffffffffffffffffffffffffffffffffffffffff16036112bf576040517f08c379a00000000000000000000000000000000000000000000000000000000081526004016112b690613929565b60405180910390fd5b80600560006101000a81548173ffffffffffffffffffffffffffffffffffffffff021916908373ffffffffffffffffffffffffffffffffffffffff16021790555050565b6000600160008473ffffffffffffffffffffffffffffffffffffffff1673ffffffffffffffffffffffffffffffffffffffff16815260200190815260200160002060008373ffffffffffffffffffffffffffffffffffffffff1673ffffffffffffffffffffffffffffffffffffffff16815260200190815260200160002060009054906101000a900460ff16905092915050565b600560009054906101000a900473ffffffffffffffffffffffffffffffffffffffff1681565b60095481565b6113cb61189b565b73ffffffffffffffffffffffffffffffffffffffff168573ffffffffffffffffffffffffffffffffffffffff16148061141157506114108561140b61189b565b611303565b5b611450576040517f08c379a00000000000000000000000000000000000000000000000000000000081526004016114479061369f565b60405180910390fd5b61145d8585858585612024565b5050505050565b61146c611d74565b600073ffffffffffffffffffffffffffffffffffffffff168173ffffffffffffffffffffffffffffffffffffffff16036114db576040517f08c379a00000000000000000000000000000000000000000000000000000000081526004016114d2906139bb565b60405180910390fd5b6114e481611df2565b50565b60007f01ffc9a7000000000000000000000000000000000000000000000000000000007bffffffffffffffffffffffffffffffffffffffffffffffffffffffff1916827bffffffffffffffffffffffffffffffffffffffffffffffffffffffff1916149050919050565b606060006001611560846122bf565b01905060008167ffffffffffffffff81111561157f5761157e612b48565b5b6040519080825280601f01601f1916602001820160405280156115b15781602001600182028036833780820191505090505b509050600082602001820190505b600115611614578080600190039150507f3031323334353637383961626364656600000000000000000000000000000000600a86061a8153600a8581611608576116076139db565b5b049450600085036115bf575b819350505050919050565b600081600001549050919050565b6000818361163b9190613817565b905092915050565b600081836116519190613a0a565b905092915050565b6001816000016000828254019250508190555050565b600073ffffffffffffffffffffffffffffffffffffffff168473ffffffffffffffffffffffffffffffffffffffff16036116de576040517f08c379a00000000000000000000000000000000000000000000000000000000081526004016116d590613abe565b60405180910390fd5b8151835114611722576040517f08c379a000000000000000000000000000000000000000000000000000000000815260040161171990613b50565b60405180910390fd5b600061172c61189b565b905061173d81600087878787612412565b60005b84518110156117f65783818151811061175c5761175b613587565b5b602002602001015160008087848151811061177a57611779613587565b5b6020026020010151815260200190815260200160002060008873ffffffffffffffffffffffffffffffffffffffff1673ffffffffffffffffffffffffffffffffffffffff16815260200190815260200160002060008282546117dc9190613817565b9250508190555080806117ee906135e5565b915050611740565b508473ffffffffffffffffffffffffffffffffffffffff16600073ffffffffffffffffffffffffffffffffffffffff168273ffffffffffffffffffffffffffffffffffffffff167f4a39dc06d4c0dbc64b70af90fd698a233a518aa5d07e595d983b8c0526c8f7fb878760405161186e929190613b70565b60405180910390a46118858160008787878761241a565b61189481600087878787612422565b5050505050565b600033905090565b81518351146118e7576040517f08c379a00000000000000000000000000000000000000000000000000000000081526004016118de90613b50565b60405180910390fd5b600073ffffffffffffffffffffffffffffffffffffffff168473ffffffffffffffffffffffffffffffffffffffff1603611956576040517f08c379a000000000000000000000000000000000000000000000000000000000815260040161194d90613c19565b60405180910390fd5b600061196061189b565b9050611970818787878787612412565b60005b8451811015611b2157600085828151811061199157611990613587565b5b6020026020010151905060008583815181106119b0576119af613587565b5b60200260200101519050600080600084815260200190815260200160002060008b73ffffffffffffffffffffffffffffffffffffffff1673ffffffffffffffffffffffffffffffffffffffff16815260200190815260200160002054905081811015611a51576040517f08c379a0000000000000000000000000000000000000000000000000000000008152600401611a4890613cab565b60405180910390fd5b81810360008085815260200190815260200160002060008c73ffffffffffffffffffffffffffffffffffffffff1673ffffffffffffffffffffffffffffffffffffffff168152602001908152602001600020819055508160008085815260200190815260200160002060008b73ffffffffffffffffffffffffffffffffffffffff1673ffffffffffffffffffffffffffffffffffffffff1681526020019081526020016000206000828254611b069190613817565b9250508190555050505080611b1a906135e5565b9050611973565b508473ffffffffffffffffffffffffffffffffffffffff168673ffffffffffffffffffffffffffffffffffffffff168273ffffffffffffffffffffffffffffffffffffffff167f4a39dc06d4c0dbc64b70af90fd698a233a518aa5d07e595d983b8c0526c8f7fb8787604051611b98929190613b70565b60405180910390a4611bae81878787878761241a565b611bbc818787878787612422565b505050505050565b600073ffffffffffffffffffffffffffffffffffffffff168473ffffffffffffffffffffffffffffffffffffffff1603611c33576040517f08c379a0000000000000000000000000000000000000000000000000000000008152600401611c2a90613abe565b60405180910390fd5b6000611c3d61189b565b90506000611c4a856125f9565b90506000611c57856125f9565b9050611c6883600089858589612412565b8460008088815260200190815260200160002060008973ffffffffffffffffffffffffffffffffffffffff1673ffffffffffffffffffffffffffffffffffffffff1681526020019081526020016000206000828254611cc79190613817565b925050819055508673ffffffffffffffffffffffffffffffffffffffff16600073ffffffffffffffffffffffffffffffffffffffff168473ffffffffffffffffffffffffffffffffffffffff167fc3d58168c5ae7397731d063d5bbf3d657854427343f4c083240f7aacaa2d0f628989604051611d45929190613ccb565b60405180910390a4611d5c8360008985858961241a565b611d6b83600089898989612673565b50505050505050565b611d7c61189b565b73ffffffffffffffffffffffffffffffffffffffff16611d9a6110d1565b73ffffffffffffffffffffffffffffffffffffffff1614611df0576040517f08c379a0000000000000000000000000000000000000000000000000000000008152600401611de790613d40565b60405180910390fd5b565b6000600360009054906101000a900473ffffffffffffffffffffffffffffffffffffffff16905081600360006101000a81548173ffffffffffffffffffffffffffffffffffffffff021916908373ffffffffffffffffffffffffffffffffffffffff1602179055508173ffffffffffffffffffffffffffffffffffffffff168173ffffffffffffffffffffffffffffffffffffffff167f8be0079c531659141344cd1fd0a4f28419497f9722a3daafe3b4186f6b6457e060405160405180910390a35050565b8173ffffffffffffffffffffffffffffffffffffffff168373ffffffffffffffffffffffffffffffffffffffff1603611f26576040517f08c379a0000000000000000000000000000000000000000000000000000000008152600401611f1d90613dd2565b60405180910390fd5b80600160008573ffffffffffffffffffffffffffffffffffffffff1673ffffffffffffffffffffffffffffffffffffffff16815260200190815260200160002060008473ffffffffffffffffffffffffffffffffffffffff1673ffffffffffffffffffffffffffffffffffffffff16815260200190815260200160002060006101000a81548160ff0219169083151502179055508173ffffffffffffffffffffffffffffffffffffffff168373ffffffffffffffffffffffffffffffffffffffff167f17307eab39ab6107e8899845ad3d59bd9653f200f220920489ca2b5937696c31836040516120179190612a1f565b60405180910390a3505050565b600073ffffffffffffffffffffffffffffffffffffffff168473ffffffffffffffffffffffffffffffffffffffff1603612093576040517f08c379a000000000000000000000000000000000000000000000000000000000815260040161208a90613c19565b60405180910390fd5b600061209d61189b565b905060006120aa856125f9565b905060006120b7856125f9565b90506120c7838989858589612412565b600080600088815260200190815260200160002060008a73ffffffffffffffffffffffffffffffffffffffff1673ffffffffffffffffffffffffffffffffffffffff1681526020019081526020016000205490508581101561215e576040517f08c379a000000000000000000000000000000000000000000000000000000000815260040161215590613cab565b60405180910390fd5b85810360008089815260200190815260200160002060008b73ffffffffffffffffffffffffffffffffffffffff1673ffffffffffffffffffffffffffffffffffffffff168152602001908152602001600020819055508560008089815260200190815260200160002060008a73ffffffffffffffffffffffffffffffffffffffff1673ffffffffffffffffffffffffffffffffffffffff16815260200190815260200160002060008282546122139190613817565b925050819055508773ffffffffffffffffffffffffffffffffffffffff168973ffffffffffffffffffffffffffffffffffffffff168573ffffffffffffffffffffffffffffffffffffffff167fc3d58168c5ae7397731d063d5bbf3d657854427343f4c083240f7aacaa2d0f628a8a604051612290929190613ccb565b60405180910390a46122a6848a8a86868a61241a565b6122b4848a8a8a8a8a612673565b505050505050505050565b600080600090507a184f03e93ff9f4daa797ed6e38ed64bf6a1f010000000000000000831061231d577a184f03e93ff9f4daa797ed6e38ed64bf6a1f0100000000000000008381612313576123126139db565b5b0492506040810190505b6d04ee2d6d415b85acef8100000000831061235a576d04ee2d6d415b85acef810000000083816123505761234f6139db565b5b0492506020810190505b662386f26fc10000831061238957662386f26fc10000838161237f5761237e6139db565b5b0492506010810190505b6305f5e10083106123b2576305f5e10083816123a8576123a76139db565b5b0492506008810190505b61271083106123d75761271083816123cd576123cc6139db565b5b0492506004810190505b606483106123fa57606483816123f0576123ef6139db565b5b0492506002810190505b600a8310612409576001810190505b80915050919050565b505050505050565b505050505050565b6124418473ffffffffffffffffffffffffffffffffffffffff1661284a565b156125f1578373ffffffffffffffffffffffffffffffffffffffff1663bc197c8187878686866040518663ffffffff1660e01b8152600401612487959493929190613e47565b6020604051808303816000875af19250505080156124c357506040513d601f19601f820116820180604052508101906124c09190613ec4565b60015b612568576124cf613efe565b806308c379a00361252b57506124e3613f20565b806124ee575061252d565b806040517f08c379a00000000000000000000000000000000000000000000000000000000081526004016125229190612af7565b60405180910390fd5b505b6040517f08c379a000000000000000000000000000000000000000000000000000000000815260040161255f90614022565b60405180910390fd5b63bc197c8160e01b7bffffffffffffffffffffffffffffffffffffffffffffffffffffffff1916817bffffffffffffffffffffffffffffffffffffffffffffffffffffffff1916146125ef576040517f08c379a00000000000000000000000000000000000000000000000000000000081526004016125e6906140b4565b60405180910390fd5b505b505050505050565b60606000600167ffffffffffffffff81111561261857612617612b48565b5b6040519080825280602002602001820160405280156126465781602001602082028036833780820191505090505b509050828160008151811061265e5761265d613587565b5b60200260200101818152505080915050919050565b6126928473ffffffffffffffffffffffffffffffffffffffff1661284a565b15612842578373ffffffffffffffffffffffffffffffffffffffff1663f23a6e6187878686866040518663ffffffff1660e01b81526004016126d89594939291906140d4565b6020604051808303816000875af192505050801561271457506040513d601f19601f820116820180604052508101906127119190613ec4565b60015b6127b957612720613efe565b806308c379a00361277c5750612734613f20565b8061273f575061277e565b806040517f08c379a00000000000000000000000000000000000000000000000000000000081526004016127739190612af7565b60405180910390fd5b505b6040517f08c379a00000000000000000000000000000000000000000000000000000000081526004016127b090614022565b60405180910390fd5b63f23a6e6160e01b7bffffffffffffffffffffffffffffffffffffffffffffffffffffffff1916817bffffffffffffffffffffffffffffffffffffffffffffffffffffffff191614612840576040517f08c379a0000000000000000000000000000000000000000000000000000000008152600401612837906140b4565b60405180910390fd5b505b505050505050565b6000808273ffffffffffffffffffffffffffffffffffffffff163b119050919050565b6000604051905090565b600080fd5b600080fd5b600073ffffffffffffffffffffffffffffffffffffffff82169050919050565b60006128ac82612881565b9050919050565b6128bc816128a1565b81146128c757600080fd5b50565b6000813590506128d9816128b3565b92915050565b6000819050919050565b6128f2816128df565b81146128fd57600080fd5b50565b60008135905061290f816128e9565b92915050565b6000806040838503121561292c5761292b612877565b5b600061293a858286016128ca565b925050602061294b85828601612900565b9150509250929050565b61295e816128df565b82525050565b60006020820190506129796000830184612955565b92915050565b60007fffffffff0000000000000000000000000000000000000000000000000000000082169050919050565b6129b48161297f565b81146129bf57600080fd5b50565b6000813590506129d1816129ab565b92915050565b6000602082840312156129ed576129ec612877565b5b60006129fb848285016129c2565b91505092915050565b60008115159050919050565b612a1981612a04565b82525050565b6000602082019050612a346000830184612a10565b92915050565b600060208284031215612a5057612a4f612877565b5b6000612a5e84828501612900565b91505092915050565b600081519050919050565b600082825260208201905092915050565b60005b83811015612aa1578082015181840152602081019050612a86565b60008484015250505050565b6000601f19601f8301169050919050565b6000612ac982612a67565b612ad38185612a72565b9350612ae3818560208601612a83565b612aec81612aad565b840191505092915050565b60006020820190508181036000830152612b118184612abe565b905092915050565b612b22816128a1565b82525050565b6000602082019050612b3d6000830184612b19565b92915050565b600080fd5b7f4e487b7100000000000000000000000000000000000000000000000000000000600052604160045260246000fd5b612b8082612aad565b810181811067ffffffffffffffff82111715612b9f57612b9e612b48565b5b80604052505050565b6000612bb261286d565b9050612bbe8282612b77565b919050565b600067ffffffffffffffff821115612bde57612bdd612b48565b5b602082029050602081019050919050565b600080fd5b6000612c07612c0284612bc3565b612ba8565b90508083825260208201905060208402830185811115612c2a57612c29612bef565b5b835b81811015612c535780612c3f8882612900565b845260208401935050602081019050612c2c565b5050509392505050565b600082601f830112612c7257612c71612b43565b5b8135612c82848260208601612bf4565b91505092915050565b600080fd5b600067ffffffffffffffff821115612cab57612caa612b48565b5b612cb482612aad565b9050602081019050919050565b82818337600083830152505050565b6000612ce3612cde84612c90565b612ba8565b905082815260208101848484011115612cff57612cfe612c8b565b5b612d0a848285612cc1565b509392505050565b600082601f830112612d2757612d26612b43565b5b8135612d37848260208601612cd0565b91505092915050565b600080600080600060a08688031215612d5c57612d5b612877565b5b6000612d6a888289016128ca565b9550506020612d7b888289016128ca565b945050604086013567ffffffffffffffff811115612d9c57612d9b61287c565b5b612da888828901612c5d565b935050606086013567ffffffffffffffff811115612dc957612dc861287c565b5b612dd588828901612c5d565b925050608086013567ffffffffffffffff811115612df657612df561287c565b5b612e0288828901612d12565b9150509295509295909350565b600067ffffffffffffffff821115612e2a57612e29612b48565b5b602082029050602081019050919050565b6000612e4e612e4984612e0f565b612ba8565b90508083825260208201905060208402830185811115612e7157612e70612bef565b5b835b81811015612e9a5780612e8688826128ca565b845260208401935050602081019050612e73565b5050509392505050565b600082601f830112612eb957612eb8612b43565b5b8135612ec9848260208601612e3b565b91505092915050565b60008060408385031215612ee957612ee8612877565b5b600083013567ffffffffffffffff811115612f0757612f0661287c565b5b612f1385828601612ea4565b925050602083013567ffffffffffffffff811115612f3457612f3361287c565b5b612f4085828601612c5d565b9150509250929050565b600081519050919050565b600082825260208201905092915050565b6000819050602082019050919050565b612f7f816128df565b82525050565b6000612f918383612f76565b60208301905092915050565b6000602082019050919050565b6000612fb582612f4a565b612fbf8185612f55565b9350612fca83612f66565b8060005b83811015612ffb578151612fe28882612f85565b9750612fed83612f9d565b925050600181019050612fce565b5085935050505092915050565b600060208201905081810360008301526130228184612faa565b905092915050565b6000602082840312156130405761303f612877565b5b600061304e848285016128ca565b91505092915050565b61306081612a04565b811461306b57600080fd5b50565b60008135905061307d81613057565b92915050565b6000806040838503121561309a57613099612877565b5b60006130a8858286016128ca565b92505060206130b98582860161306e565b9150509250929050565b600080604083850312156130da576130d9612877565b5b60006130e8858286016128ca565b92505060206130f9858286016128ca565b9150509250929050565b600080600080600060a0868803121561311f5761311e612877565b5b600061312d888289016128ca565b955050602061313e888289016128ca565b945050604061314f88828901612900565b935050606061316088828901612900565b925050608086013567ffffffffffffffff8111156131815761318061287c565b5b61318d88828901612d12565b9150509295509295909350565b7f455243313135353a2061646472657373207a65726f206973206e6f742061207660008201527f616c6964206f776e657200000000000000000000000000000000000000000000602082015250565b60006131f6602a83612a72565b91506132018261319a565b604082019050919050565b60006020820190508181036000830152613225816131e9565b9050919050565b600081905092915050565b7f68747470733a2f2f6d796170692e636f6d2f6170692f4e46542f000000000000600082015250565b600061326d601a8361322c565b915061327882613237565b601a82019050919050565b7f4e487b7100000000000000000000000000000000000000000000000000000000600052602260045260246000fd5b600060028204905060018216806132ca57607f821691505b6020821081036132dd576132dc613283565b5b50919050565b60008190508160005260206000209050919050565b60008154613305816132b2565b61330f818661322c565b9450600182166000811461332a576001811461333f57613372565b60ff1983168652811515820286019350613372565b613348856132e3565b60005b8381101561336a5781548189015260018201915060208101905061334b565b838801955050505b50505092915050565b7f2f00000000000000000000000000000000000000000000000000000000000000600082015250565b60006133b160018361322c565b91506133bc8261337b565b600182019050919050565b60006133d282612a67565b6133dc818561322c565b93506133ec818560208601612a83565b80840191505092915050565b7f2e6a736f6e000000000000000000000000000000000000000000000000000000600082015250565b600061342e60058361322c565b9150613439826133f8565b600582019050919050565b600061344f82613260565b915061345b82856132f8565b9150613466826133a4565b915061347282846133c7565b915061347d82613421565b91508190509392505050565b7f536f7272792c20776527726520736f6c64206f75740000000000000000000000600082015250565b60006134bf601583612a72565b91506134ca82613489565b602082019050919050565b600060208201905081810360008301526134ee816134b2565b9050919050565b7f416d6f756e742073656e74206973206c6f776572207468616e2074686520726560008201527f7175697265642070726963650000000000000000000000000000000000000000602082015250565b6000613551602c83612a72565b915061355c826134f5565b604082019050919050565b6000602082019050818103600083015261358081613544565b9050919050565b7f4e487b7100000000000000000000000000000000000000000000000000000000600052603260045260246000fd5b7f4e487b7100000000000000000000000000000000000000000000000000000000600052601160045260246000fd5b60006135f0826128df565b91507fffffffffffffffffffffffffffffffffffffffffffffffffffffffffffffffff8203613622576136216135b6565b5b600182019050919050565b7f455243313135353a2063616c6c6572206973206e6f7420746f6b656e206f776e60008201527f6572206f7220617070726f766564000000000000000000000000000000000000602082015250565b6000613689602e83612a72565b91506136948261362d565b604082019050919050565b600060208201905081810360008301526136b88161367c565b9050919050565b7f455243313135353a206163636f756e747320616e6420696473206c656e67746860008201527f206d69736d617463680000000000000000000000000000000000000000000000602082015250565b600061371b602983612a72565b9150613726826136bf565b604082019050919050565b6000602082019050818103600083015261374a8161370e565b9050919050565b600061375c826128df565b9150613767836128df565b925082820390508181111561377f5761377e6135b6565b5b92915050565b7f416d6f756e742073656e74206d75737420626520657175616c20746f2074686560008201527f2072657175697265642070726963650000000000000000000000000000000000602082015250565b60006137e1602f83612a72565b91506137ec82613785565b604082019050919050565b60006020820190508181036000830152613810816137d4565b9050919050565b6000613822826128df565b915061382d836128df565b9250828201905080821115613845576138446135b6565b5b92915050565b7f596f75206861766520616c726561647920617070726f76656420746865206d6160008201527f726b6574706c6163650000000000000000000000000000000000000000000000602082015250565b60006138a7602983612a72565b91506138b28261384b565b604082019050919050565b600060208201905081810360008301526138d68161389a565b9050919050565b7f496e76616c696420616464726573730000000000000000000000000000000000600082015250565b6000613913600f83612a72565b915061391e826138dd565b602082019050919050565b6000602082019050818103600083015261394281613906565b9050919050565b7f4f776e61626c653a206e6577206f776e657220697320746865207a65726f206160008201527f6464726573730000000000000000000000000000000000000000000000000000602082015250565b60006139a5602683612a72565b91506139b082613949565b604082019050919050565b600060208201905081810360008301526139d481613998565b9050919050565b7f4e487b7100000000000000000000000000000000000000000000000000000000600052601260045260246000fd5b6000613a15826128df565b9150613a20836128df565b9250828202613a2e816128df565b91508282048414831517613a4557613a446135b6565b5b5092915050565b7f455243313135353a206d696e7420746f20746865207a65726f2061646472657360008201527f7300000000000000000000000000000000000000000000000000000000000000602082015250565b6000613aa8602183612a72565b9150613ab382613a4c565b604082019050919050565b60006020820190508181036000830152613ad781613a9b565b9050919050565b7f455243313135353a2069647320616e6420616d6f756e7473206c656e6774682060008201527f6d69736d61746368000000000000000000000000000000000000000000000000602082015250565b6000613b3a602883612a72565b9150613b4582613ade565b604082019050919050565b60006020820190508181036000830152613b6981613b2d565b9050919050565b60006040820190508181036000830152613b8a8185612faa565b90508181036020830152613b9e8184612faa565b90509392505050565b7f455243313135353a207472616e7366657220746f20746865207a65726f20616460008201527f6472657373000000000000000000000000000000000000000000000000000000602082015250565b6000613c03602583612a72565b9150613c0e82613ba7565b604082019050919050565b60006020820190508181036000830152613c3281613bf6565b9050919050565b7f455243313135353a20696e73756666696369656e742062616c616e636520666f60008201527f72207472616e7366657200000000000000000000000000000000000000000000602082015250565b6000613c95602a83612a72565b9150613ca082613c39565b604082019050919050565b60006020820190508181036000830152613cc481613c88565b9050919050565b6000604082019050613ce06000830185612955565b613ced6020830184612955565b9392505050565b7f4f776e61626c653a2063616c6c6572206973206e6f7420746865206f776e6572600082015250565b6000613d2a602083612a72565b9150613d3582613cf4565b602082019050919050565b60006020820190508181036000830152613d5981613d1d565b9050919050565b7f455243313135353a2073657474696e6720617070726f76616c2073746174757360008201527f20666f722073656c660000000000000000000000000000000000000000000000602082015250565b6000613dbc602983612a72565b9150613dc782613d60565b604082019050919050565b60006020820190508181036000830152613deb81613daf565b9050919050565b600081519050919050565b600082825260208201905092915050565b6000613e1982613df2565b613e238185613dfd565b9350613e33818560208601612a83565b613e3c81612aad565b840191505092915050565b600060a082019050613e5c6000830188612b19565b613e696020830187612b19565b8181036040830152613e7b8186612faa565b90508181036060830152613e8f8185612faa565b90508181036080830152613ea38184613e0e565b90509695505050505050565b600081519050613ebe816129ab565b92915050565b600060208284031215613eda57613ed9612877565b5b6000613ee884828501613eaf565b91505092915050565b60008160e01c9050919050565b600060033d1115613f1d5760046000803e613f1a600051613ef1565b90505b90565b600060443d10613fad57613f3261286d565b60043d036004823e80513d602482011167ffffffffffffffff82111715613f5a575050613fad565b808201805167ffffffffffffffff811115613f785750505050613fad565b80602083010160043d038501811115613f95575050505050613fad565b613fa482602001850186612b77565b82955050505050505b90565b7f455243313135353a207472616e7366657220746f206e6f6e2d4552433131353560008201527f526563656976657220696d706c656d656e746572000000000000000000000000602082015250565b600061400c603483612a72565b915061401782613fb0565b604082019050919050565b6000602082019050818103600083015261403b81613fff565b9050919050565b7f455243313135353a204552433131353552656365697665722072656a6563746560008201527f6420746f6b656e73000000000000000000000000000000000000000000000000602082015250565b600061409e602883612a72565b91506140a982614042565b604082019050919050565b600060208201905081810360008301526140cd81614091565b9050919050565b600060a0820190506140e96000830188612b19565b6140f66020830187612b19565b6141036040830186612955565b6141106060830185612955565b81810360808301526141228184613e0e565b9050969550505050505056fea26469706673582212207e14ce54fd726985cdecb7ff5dced270e1b23d505c05b6e19ef67cf3b11d17bc64736f6c63430008130033",
  "linkReferences": {},
  "deployedLinkReferences": {}
}