{
  "_format": "hh-sol-artifact-1",
  "contractName": "SeatedNftContract",
  "sourceName": "contracts/SeatedNftContract.sol",
  "abi": [
    {
      "inputs": [
        {
          "internalType": "uint256",
          "name": "_eventId",
          "type": "uint256"
        },
        {
          "internalType": "uint256",
          "name": "_sessionId",
          "type": "uint256"
        },
        {
          "internalType": "string",
          "name": "_section",
          "type": "string"
        },
        {
          "internalType": "uint256",
          "name": "_supply",
          "type": "uint256"
        },
        {
          "internalType": "uint256",
          "name": "_startPrice",
          "type": "uint256"
        },
        {
          "internalType": "uint256",
          "name": "_priceCap",
          "type": "uint256"
        },
        {
          "internalType": "uint256",
          "name": "_startSeat",
          "type": "uint256"
        },
        {
          "internalType": "string",
          "name": "_event",
          "type": "string"
        },
        {
          "internalType": "address",
          "name": "_usdc",
          "type": "address"
        }
      ],
      "stateMutability": "nonpayable",
      "type": "constructor"
    },
    {
      "anonymous": false,
      "inputs": [
        {
          "indexed": true,
          "internalType": "address",
          "name": "account",
          "type": "address"
        },
        {
          "indexed": true,
          "internalType": "address",
          "name": "operator",
          "type": "address"
        },
        {
          "indexed": false,
          "internalType": "bool",
          "name": "approved",
          "type": "bool"
        }
      ],
      "name": "ApprovalForAll",
      "type": "event"
    },
    {
      "anonymous": false,
      "inputs": [
        {
          "indexed": true,
          "internalType": "address",
          "name": "previousOwner",
          "type": "address"
        },
        {
          "indexed": true,
          "internalType": "address",
          "name": "newOwner",
          "type": "address"
        }
      ],
      "name": "OwnershipTransferred",
      "type": "event"
    },
    {
      "anonymous": false,
      "inputs": [
        {
          "indexed": true,
          "internalType": "address",
          "name": "operator",
          "type": "address"
        },
        {
          "indexed": true,
          "internalType": "address",
          "name": "from",
          "type": "address"
        },
        {
          "indexed": true,
          "internalType": "address",
          "name": "to",
          "type": "address"
        },
        {
          "indexed": false,
          "internalType": "uint256[]",
          "name": "ids",
          "type": "uint256[]"
        },
        {
          "indexed": false,
          "internalType": "uint256[]",
          "name": "values",
          "type": "uint256[]"
        }
      ],
      "name": "TransferBatch",
      "type": "event"
    },
    {
      "anonymous": false,
      "inputs": [
        {
          "indexed": true,
          "internalType": "address",
          "name": "operator",
          "type": "address"
        },
        {
          "indexed": true,
          "internalType": "address",
          "name": "from",
          "type": "address"
        },
        {
          "indexed": true,
          "internalType": "address",
          "name": "to",
          "type": "address"
        },
        {
          "indexed": false,
          "internalType": "uint256",
          "name": "id",
          "type": "uint256"
        },
        {
          "indexed": false,
          "internalType": "uint256",
          "name": "value",
          "type": "uint256"
        }
      ],
      "name": "TransferSingle",
      "type": "event"
    },
    {
      "anonymous": false,
      "inputs": [
        {
          "indexed": false,
          "internalType": "string",
          "name": "value",
          "type": "string"
        },
        {
          "indexed": true,
          "internalType": "uint256",
          "name": "id",
          "type": "uint256"
        }
      ],
      "name": "URI",
      "type": "event"
    },
    {
      "anonymous": false,
      "inputs": [
        {
          "indexed": true,
          "internalType": "address",
          "name": "minter",
          "type": "address"
        },
        {
          "indexed": false,
          "internalType": "uint256",
          "name": "amount",
          "type": "uint256"
        }
      ],
      "name": "minted",
      "type": "event"
    },
    {
      "inputs": [],
      "name": "approveMarket",
      "outputs": [],
      "stateMutability": "nonpayable",
      "type": "function"
    },
    {
      "inputs": [
        {
          "internalType": "address",
          "name": "account",
          "type": "address"
        },
        {
          "internalType": "uint256",
          "name": "id",
          "type": "uint256"
        }
      ],
      "name": "balanceOf",
      "outputs": [
        {
          "internalType": "uint256",
          "name": "",
          "type": "uint256"
        }
      ],
      "stateMutability": "view",
      "type": "function"
    },
    {
      "inputs": [
        {
          "internalType": "address[]",
          "name": "accounts",
          "type": "address[]"
        },
        {
          "internalType": "uint256[]",
          "name": "ids",
          "type": "uint256[]"
        }
      ],
      "name": "balanceOfBatch",
      "outputs": [
        {
          "internalType": "uint256[]",
          "name": "",
          "type": "uint256[]"
        }
      ],
      "stateMutability": "view",
      "type": "function"
    },
    {
      "inputs": [],
      "name": "eventName",
      "outputs": [
        {
          "internalType": "string",
          "name": "",
          "type": "string"
        }
      ],
      "stateMutability": "view",
      "type": "function"
    },
    {
      "inputs": [],
      "name": "getEventName",
      "outputs": [
        {
          "internalType": "string",
          "name": "",
          "type": "string"
        }
      ],
      "stateMutability": "view",
      "type": "function"
    },
    {
      "inputs": [],
      "name": "getOwner",
      "outputs": [
        {
          "internalType": "address",
          "name": "",
          "type": "address"
        }
      ],
      "stateMutability": "view",
      "type": "function"
    },
    {
      "inputs": [],
      "name": "getSection",
      "outputs": [
        {
          "internalType": "string",
          "name": "",
          "type": "string"
        }
      ],
      "stateMutability": "view",
      "type": "function"
    },
    {
      "inputs": [],
      "name": "getStartPrice",
      "outputs": [
        {
          "internalType": "uint256",
          "name": "",
          "type": "uint256"
        }
      ],
      "stateMutability": "view",
      "type": "function"
    },
    {
      "inputs": [],
      "name": "getStartSeat",
      "outputs": [
        {
          "internalType": "uint256",
          "name": "",
          "type": "uint256"
        }
      ],
      "stateMutability": "view",
      "type": "function"
    },
    {
      "inputs": [],
      "name": "getSupply",
      "outputs": [
        {
          "internalType": "uint256",
          "name": "",
          "type": "uint256"
        }
      ],
      "stateMutability": "view",
      "type": "function"
    },
    {
      "inputs": [],
      "name": "getTicketsLeft",
      "outputs": [
        {
          "internalType": "uint256",
          "name": "",
          "type": "uint256"
        }
      ],
      "stateMutability": "view",
      "type": "function"
    },
    {
      "inputs": [
        {
          "internalType": "uint256",
          "name": "_tokenId",
          "type": "uint256"
        }
      ],
      "name": "getTokenURI",
      "outputs": [
        {
          "internalType": "string",
          "name": "",
          "type": "string"
        }
      ],
      "stateMutability": "view",
      "type": "function"
    },
    {
      "inputs": [
        {
          "internalType": "address",
          "name": "account",
          "type": "address"
        },
        {
          "internalType": "address",
          "name": "operator",
          "type": "address"
        }
      ],
      "name": "isApprovedForAll",
      "outputs": [
        {
          "internalType": "bool",
          "name": "",
          "type": "bool"
        }
      ],
      "stateMutability": "view",
      "type": "function"
    },
    {
      "inputs": [],
      "name": "marketPlaceAddress",
      "outputs": [
        {
          "internalType": "address",
          "name": "",
          "type": "address"
        }
      ],
      "stateMutability": "view",
      "type": "function"
    },
    {
      "inputs": [],
      "name": "mint",
      "outputs": [],
      "stateMutability": "nonpayable",
      "type": "function"
    },
    {
      "inputs": [
        {
          "internalType": "uint256",
          "name": "_amounts",
          "type": "uint256"
        }
      ],
      "name": "mintBatch",
      "outputs": [],
      "stateMutability": "nonpayable",
      "type": "function"
    },
    {
      "inputs": [],
      "name": "owner",
      "outputs": [
        {
          "internalType": "address",
          "name": "",
          "type": "address"
        }
      ],
      "stateMutability": "view",
      "type": "function"
    },
    {
      "inputs": [],
      "name": "priceCap",
      "outputs": [
        {
          "internalType": "uint256",
          "name": "",
          "type": "uint256"
        }
      ],
      "stateMutability": "view",
      "type": "function"
    },
    {
      "inputs": [],
      "name": "renounceOwnership",
      "outputs": [],
      "stateMutability": "nonpayable",
      "type": "function"
    },
    {
      "inputs": [
        {
          "internalType": "address",
          "name": "from",
          "type": "address"
        },
        {
          "internalType": "address",
          "name": "to",
          "type": "address"
        },
        {
          "internalType": "uint256[]",
          "name": "ids",
          "type": "uint256[]"
        },
        {
          "internalType": "uint256[]",
          "name": "amounts",
          "type": "uint256[]"
        },
        {
          "internalType": "bytes",
          "name": "data",
          "type": "bytes"
        }
      ],
      "name": "safeBatchTransferFrom",
      "outputs": [],
      "stateMutability": "nonpayable",
      "type": "function"
    },
    {
      "inputs": [
        {
          "internalType": "address",
          "name": "from",
          "type": "address"
        },
        {
          "internalType": "address",
          "name": "to",
          "type": "address"
        },
        {
          "internalType": "uint256",
          "name": "id",
          "type": "uint256"
        },
        {
          "internalType": "uint256",
          "name": "amount",
          "type": "uint256"
        },
        {
          "internalType": "bytes",
          "name": "data",
          "type": "bytes"
        }
      ],
      "name": "safeTransferFrom",
      "outputs": [],
      "stateMutability": "nonpayable",
      "type": "function"
    },
    {
      "inputs": [],
      "name": "section",
      "outputs": [
        {
          "internalType": "string",
          "name": "",
          "type": "string"
        }
      ],
      "stateMutability": "view",
      "type": "function"
    },
    {
      "inputs": [
        {
          "internalType": "address",
          "name": "operator",
          "type": "address"
        },
        {
          "internalType": "bool",
          "name": "approved",
          "type": "bool"
        }
      ],
      "name": "setApprovalForAll",
      "outputs": [],
      "stateMutability": "nonpayable",
      "type": "function"
    },
    {
      "inputs": [
        {
          "internalType": "address",
          "name": "_marketPlaceAddress",
          "type": "address"
        }
      ],
      "name": "setMarketPlaceAddress",
      "outputs": [],
      "stateMutability": "nonpayable",
      "type": "function"
    },
    {
      "inputs": [],
      "name": "startPrice",
      "outputs": [
        {
          "internalType": "uint256",
          "name": "",
          "type": "uint256"
        }
      ],
      "stateMutability": "view",
      "type": "function"
    },
    {
      "inputs": [],
      "name": "startSeat",
      "outputs": [
        {
          "internalType": "uint256",
          "name": "",
          "type": "uint256"
        }
      ],
      "stateMutability": "view",
      "type": "function"
    },
    {
      "inputs": [],
      "name": "supply",
      "outputs": [
        {
          "internalType": "uint256",
          "name": "",
          "type": "uint256"
        }
      ],
      "stateMutability": "view",
      "type": "function"
    },
    {
      "inputs": [
        {
          "internalType": "bytes4",
          "name": "interfaceId",
          "type": "bytes4"
        }
      ],
      "name": "supportsInterface",
      "outputs": [
        {
          "internalType": "bool",
          "name": "",
          "type": "bool"
        }
      ],
      "stateMutability": "view",
      "type": "function"
    },
    {
      "inputs": [
        {
          "internalType": "uint256",
          "name": "",
          "type": "uint256"
        }
      ],
      "name": "tokenOwner",
      "outputs": [
        {
          "internalType": "address",
          "name": "",
          "type": "address"
        }
      ],
      "stateMutability": "view",
      "type": "function"
    },
    {
      "inputs": [
        {
          "internalType": "address",
          "name": "newOwner",
          "type": "address"
        }
      ],
      "name": "transferOwnership",
      "outputs": [],
      "stateMutability": "nonpayable",
      "type": "function"
    },
    {
      "inputs": [
        {
          "internalType": "uint256",
          "name": "_tokenid",
          "type": "uint256"
        }
      ],
      "name": "uri",
      "outputs": [
        {
          "internalType": "string",
          "name": "",
          "type": "string"
        }
      ],
      "stateMutability": "view",
      "type": "function"
    },
    {
      "inputs": [],
      "name": "usdcToken",
      "outputs": [
        {
          "internalType": "contract IERC20",
          "name": "",
          "type": "address"
        }
      ],
      "stateMutability": "view",
      "type": "function"
    }
  ],
  "bytecode": "0x60806040523480156200001157600080fd5b50604051620027463803806200274683398101604081905262000034916200020f565b81604051602001620000479190620002d8565b60408051601f198184030181529190526200006281620000de565b506200006e33620000f0565b60016004556005899055600688905560086200008b8882620003cb565b506009869055600a849055600c839055600b859055600d620000ae8382620003cb565b50600e80546001600160a01b0319166001600160a01b039290921691909117905550620004979650505050505050565b6002620000ec8282620003cb565b5050565b600380546001600160a01b038381166001600160a01b0319831681179093556040519116919082907f8be0079c531659141344cd1fd0a4f28419497f9722a3daafe3b4186f6b6457e090600090a35050565b634e487b7160e01b600052604160045260246000fd5b60005b83811015620001755781810151838201526020016200015b565b50506000910152565b600082601f8301126200019057600080fd5b81516001600160401b0380821115620001ad57620001ad62000142565b604051601f8301601f19908116603f01168101908282118183101715620001d857620001d862000142565b81604052838152866020858801011115620001f257600080fd5b6200020584602083016020890162000158565b9695505050505050565b60008060008060008060008060006101208a8c0312156200022f57600080fd5b895160208b015160408c0151919a5098506001600160401b03808211156200025657600080fd5b620002648d838e016200017e565b985060608c0151975060808c0151965060a08c0151955060c08c0151945060e08c01519150808211156200029757600080fd5b50620002a68c828d016200017e565b6101008c015190935090506001600160a01b0381168114620002c757600080fd5b809150509295985092959850929598565b7f68747470733a2f2f6d796170692e636f6d2f6170692f4e46542f0000000000008152600082516200031281601a85016020870162000158565b602f60f81b601a939091019283015250683db4b23e973539b7b760b91b601b820152602401919050565b600181811c908216806200035157607f821691505b6020821081036200037257634e487b7160e01b600052602260045260246000fd5b50919050565b601f821115620003c657600081815260208120601f850160051c81016020861015620003a15750805b601f850160051c820191505b81811015620003c257828155600101620003ad565b5050505b505050565b81516001600160401b03811115620003e757620003e762000142565b620003ff81620003f884546200033c565b8462000378565b602080601f8311600181146200043757600084156200041e5750858301515b600019600386901b1c1916600185901b178555620003c2565b600085815260208120601f198616915b82811015620004685788860151825594840194600190910190840162000447565b5085821015620004875787850151600019600388901b60f8161c191681555b5050505050600190811b01905550565b61229f80620004a76000396000f3fe608060405234801561001057600080fd5b506004361061017f5760003560e01c8062fdd58e1461018457806301ffc9a7146101aa57806302b7847c146101cd578063047fc9aa146101d65780630e89341c146101df57806311eac855146101ff5780631249c58b1461022a57806318df458d146102345780631caaa4871461023d57806320e409b414610266578063278a262f146102795780632c9cf352146102815780632eb2c2d6146102895780633bb3a24d146101df5780634e1273f41461029c5780635a7bddbf146102bc578063646f22c5146102c45780636c9c2faf146102cc578063715018a6146102d45780638043c9c0146102dc578063893d20e8146102e45780638da5cb5b146102ec578063a22cb465146102f4578063b81e43fc14610307578063baffa9031461030f578063c2560f2a14610317578063cc98ef961461031f578063e985e9c514610332578063ed27107b14610345578063f1a9af8914610358578063f242432a14610361578063f2fde38b14610374575b600080fd5b61019761019236600461177e565b610387565b6040519081526020015b60405180910390f35b6101bd6101b83660046117be565b610420565b60405190151581526020016101a1565b610197600a5481565b61019760095481565b6101f26101ed3660046117db565b610470565b6040516101a19190611844565b600e54610212906001600160a01b031681565b6040516001600160a01b0390911681526020016101a1565b6102326104a4565b005b610197600c5481565b61021261024b3660046117db565b6010602052600090815260409020546001600160a01b031681565b6102326102743660046117db565b6105e4565b6101f2610838565b600c54610197565b6102326102973660046119a0565b6108c6565b6102af6102aa366004611a49565b610912565b6040516101a19190611b4e565b6101f2610a3b565b610197610acd565b600954610197565b610232610aea565b6101f2610afe565b610212610b0b565b610212610b11565b610232610302366004611b6f565b610b20565b6101f2610b2f565b600b54610197565b610232610b3e565b61023261032d366004611ba6565b610bcb565b6101bd610340366004611bc1565b610c3d565b600754610212906001600160a01b031681565b610197600b5481565b61023261036f366004611bf4565b610c6b565b610232610382366004611ba6565b610cb0565b60006001600160a01b0383166103f75760405162461bcd60e51b815260206004820152602a60248201527f455243313135353a2061646472657373207a65726f206973206e6f742061207660448201526930b634b21037bbb732b960b11b60648201526084015b60405180910390fd5b506000818152602081815260408083206001600160a01b03861684529091529020545b92915050565b60006001600160e01b03198216636cdb3d1360e11b148061045157506001600160e01b031982166303a24d0760e21b145b8061041a57506301ffc9a760e01b6001600160e01b031983161461041a565b6060600d61047d83610d29565b60405160200161048e929190611cae565b6040516020818303038152906040529050919050565b600954600f54106104c75760405162461bcd60e51b81526004016103ee90611da8565b600e54600b546040516323b872dd60e01b81526001600160a01b03909216916323b872dd916104fc9133913091600401611dd7565b6020604051808303816000875af115801561051b573d6000803e3d6000fd5b505050506040513d601f19601f8201168201806040525081019061053f9190611dfb565b61055b5760405162461bcd60e51b81526004016103ee90611e18565b6000610566600f5490565b600c546105739190611e5c565b90506105913382600160405180602001604052806000815250610dbb565b600081815260106020526040902080546001600160a01b031916331790556105bd600f80546001019055565b60405160018152339060008051602061224a8339815191529060200160405180910390a250565b6009546105fa826105f4600f5490565b90610e83565b11156106185760405162461bcd60e51b81526004016103ee90611da8565b600061062f600b5483610e9690919063ffffffff16565b600e546040516323b872dd60e01b81529192506001600160a01b0316906323b872dd9061066490339030908690600401611dd7565b6020604051808303816000875af1158015610683573d6000803e3d6000fd5b505050506040513d601f19601f820116820180604052508101906106a79190611dfb565b6106c35760405162461bcd60e51b81526004016103ee90611e18565b6000826001600160401b038111156106dd576106dd611857565b604051908082528060200260200182016040528015610706578160200160208202803683370190505b5090506000836001600160401b0381111561072357610723611857565b60405190808252806020026020018201604052801561074c578160200160208202803683370190505b50905060005b848110156107f3576000610771610768600f5490565b600c5490610e83565b90508084838151811061078657610786611e6f565b602090810291909101810191909152600082815260109091526040902080546001600160a01b031916331790556107c1600f80546001019055565b60018383815181106107d5576107d5611e6f565b602090810291909101015250806107eb81611e85565b915050610752565b5061080f33838360405180602001604052806000815250610ea2565b604051848152339060008051602061224a8339815191529060200160405180910390a250505050565b6008805461084590611c58565b80601f016020809104026020016040519081016040528092919081815260200182805461087190611c58565b80156108be5780601f10610893576101008083540402835291602001916108be565b820191906000526020600020905b8154815290600101906020018083116108a157829003601f168201915b505050505081565b6001600160a01b0385163314806108e257506108e28533610c3d565b6108fe5760405162461bcd60e51b81526004016103ee90611e9e565b61090b8585858585610fdb565b5050505050565b606081518351146109775760405162461bcd60e51b815260206004820152602960248201527f455243313135353a206163636f756e747320616e6420696473206c656e677468604482015268040dad2e6dac2e8c6d60bb1b60648201526084016103ee565b600083516001600160401b0381111561099257610992611857565b6040519080825280602002602001820160405280156109bb578160200160208202803683370190505b50905060005b8451811015610a3357610a068582815181106109df576109df611e6f565b60200260200101518583815181106109f9576109f9611e6f565b6020026020010151610387565b828281518110610a1857610a18611e6f565b6020908102919091010152610a2c81611e85565b90506109c1565b509392505050565b606060088054610a4a90611c58565b80601f0160208091040260200160405190810160405280929190818152602001828054610a7690611c58565b8015610ac35780601f10610a9857610100808354040283529160200191610ac3565b820191906000526020600020905b815481529060010190602001808311610aa657829003601f168201915b5050505050905090565b6000610ad8600f5490565b600954610ae59190611eec565b905090565b610af2611165565b610afc60006111c4565b565b600d805461084590611c58565b6000610ae55b6003546001600160a01b031690565b610b2b338383611216565b5050565b6060600d8054610a4a90611c58565b600754610b559033906001600160a01b0316610c3d565b15610bb45760405162461bcd60e51b815260206004820152602960248201527f596f75206861766520616c726561647920617070726f76656420746865206d61604482015268726b6574706c61636560b81b60648201526084016103ee565b600754610afc906001600160a01b03166001610b20565b610bd3611165565b6001600160a01b038116610c1b5760405162461bcd60e51b815260206004820152600f60248201526e496e76616c6964206164647265737360881b60448201526064016103ee565b600780546001600160a01b0319166001600160a01b0392909216919091179055565b6001600160a01b03918216600090815260016020908152604080832093909416825291909152205460ff1690565b6001600160a01b038516331480610c875750610c878533610c3d565b610ca35760405162461bcd60e51b81526004016103ee90611e9e565b61090b85858585856112f6565b610cb8611165565b6001600160a01b038116610d1d5760405162461bcd60e51b815260206004820152602660248201527f4f776e61626c653a206e6577206f776e657220697320746865207a65726f206160448201526564647265737360d01b60648201526084016103ee565b610d26816111c4565b50565b60606000610d368361140e565b60010190506000816001600160401b03811115610d5557610d55611857565b6040519080825280601f01601f191660200182016040528015610d7f576020820181803683370190505b5090508181016020015b600019016f181899199a1a9b1b9c1cb0b131b232b360811b600a86061a8153600a8504945084610d8957509392505050565b6001600160a01b038416610de15760405162461bcd60e51b81526004016103ee90611eff565b336000610ded856114e4565b90506000610dfa856114e4565b90506000868152602081815260408083206001600160a01b038b16845290915281208054879290610e2c908490611e5c565b909155505060408051878152602081018790526001600160a01b03808a16926000929187169160008051602061222a833981519152910160405180910390a4610e7a8360008989898961152f565b50505050505050565b6000610e8f8284611e5c565b9392505050565b6000610e8f8284611f40565b6001600160a01b038416610ec85760405162461bcd60e51b81526004016103ee90611eff565b8151835114610ee95760405162461bcd60e51b81526004016103ee90611f57565b3360005b8451811015610f8557838181518110610f0857610f08611e6f565b6020026020010151600080878481518110610f2557610f25611e6f565b602002602001015181526020019081526020016000206000886001600160a01b03166001600160a01b031681526020019081526020016000206000828254610f6d9190611e5c565b90915550819050610f7d81611e85565b915050610eed565b50846001600160a01b031660006001600160a01b0316826001600160a01b031660008051602061220a8339815191528787604051610fc4929190611f9f565b60405180910390a461090b81600087878787611691565b8151835114610ffc5760405162461bcd60e51b81526004016103ee90611f57565b6001600160a01b0384166110225760405162461bcd60e51b81526004016103ee90611fcd565b3360005b845181101561110957600085828151811061104357611043611e6f565b60200260200101519050600085838151811061106157611061611e6f565b602090810291909101810151600084815280835260408082206001600160a01b038e1683529093529190912054909150818110156110b15760405162461bcd60e51b81526004016103ee90612012565b6000838152602081815260408083206001600160a01b038e8116855292528083208585039055908b168252812080548492906110ee908490611e5c565b925050819055505050508061110290611e85565b9050611026565b50846001600160a01b0316866001600160a01b0316826001600160a01b031660008051602061220a8339815191528787604051611147929190611f9f565b60405180910390a461115d818787878787611691565b505050505050565b3361116e610b11565b6001600160a01b031614610afc5760405162461bcd60e51b815260206004820181905260248201527f4f776e61626c653a2063616c6c6572206973206e6f7420746865206f776e657260448201526064016103ee565b600380546001600160a01b038381166001600160a01b0319831681179093556040519116919082907f8be0079c531659141344cd1fd0a4f28419497f9722a3daafe3b4186f6b6457e090600090a35050565b816001600160a01b0316836001600160a01b0316036112895760405162461bcd60e51b815260206004820152602960248201527f455243313135353a2073657474696e6720617070726f76616c20737461747573604482015268103337b91039b2b63360b91b60648201526084016103ee565b6001600160a01b03838116600081815260016020908152604080832094871680845294825291829020805460ff191686151590811790915591519182527f17307eab39ab6107e8899845ad3d59bd9653f200f220920489ca2b5937696c31910160405180910390a3505050565b6001600160a01b03841661131c5760405162461bcd60e51b81526004016103ee90611fcd565b336000611328856114e4565b90506000611335856114e4565b90506000868152602081815260408083206001600160a01b038c168452909152902054858110156113785760405162461bcd60e51b81526004016103ee90612012565b6000878152602081815260408083206001600160a01b038d8116855292528083208985039055908a168252812080548892906113b5908490611e5c565b909155505060408051888152602081018890526001600160a01b03808b16928c8216929188169160008051602061222a833981519152910160405180910390a4611403848a8a8a8a8a61152f565b505050505050505050565b60008072184f03e93ff9f4daa797ed6e38ed64bf6a1f0160401b831061144d5772184f03e93ff9f4daa797ed6e38ed64bf6a1f0160401b830492506040015b6904ee2d6d415b85acef8160201b8310611477576904ee2d6d415b85acef8160201b830492506020015b662386f26fc10000831061149557662386f26fc10000830492506010015b6305f5e10083106114ad576305f5e100830492506008015b61271083106114c157612710830492506004015b606483106114d3576064830492506002015b600a831061041a5760010192915050565b6040805160018082528183019092526060916000919060208083019080368337019050509050828160008151811061151e5761151e611e6f565b602090810291909101015292915050565b611541846001600160a01b0316611753565b1561115d5760405163f23a6e6160e01b81526001600160a01b0385169063f23a6e619061157a908990899088908890889060040161205c565b6020604051808303816000875af19250505080156115b5575060408051601f3d908101601f191682019092526115b2918101906120a1565b60015b611661576115c16120be565b806308c379a0036115fa57506115d56120da565b806115e057506115fc565b8060405162461bcd60e51b81526004016103ee9190611844565b505b60405162461bcd60e51b815260206004820152603460248201527f455243313135353a207472616e7366657220746f206e6f6e2d455243313135356044820152732932b1b2b4bb32b91034b6b83632b6b2b73a32b960611b60648201526084016103ee565b6001600160e01b0319811663f23a6e6160e01b14610e7a5760405162461bcd60e51b81526004016103ee90612163565b6116a3846001600160a01b0316611753565b1561115d5760405163bc197c8160e01b81526001600160a01b0385169063bc197c81906116dc90899089908890889088906004016121ab565b6020604051808303816000875af1925050508015611717575060408051601f3d908101601f19168201909252611714918101906120a1565b60015b611723576115c16120be565b6001600160e01b0319811663bc197c8160e01b14610e7a5760405162461bcd60e51b81526004016103ee90612163565b6001600160a01b03163b151590565b80356001600160a01b038116811461177957600080fd5b919050565b6000806040838503121561179157600080fd5b61179a83611762565b946020939093013593505050565b6001600160e01b031981168114610d2657600080fd5b6000602082840312156117d057600080fd5b8135610e8f816117a8565b6000602082840312156117ed57600080fd5b5035919050565b60005b8381101561180f5781810151838201526020016117f7565b50506000910152565b600081518084526118308160208601602086016117f4565b601f01601f19169290920160200192915050565b602081526000610e8f6020830184611818565b634e487b7160e01b600052604160045260246000fd5b601f8201601f191681016001600160401b038111828210171561189257611892611857565b6040525050565b60006001600160401b038211156118b2576118b2611857565b5060051b60200190565b600082601f8301126118cd57600080fd5b813560206118da82611899565b6040516118e7828261186d565b83815260059390931b850182019282810191508684111561190757600080fd5b8286015b84811015611922578035835291830191830161190b565b509695505050505050565b600082601f83011261193e57600080fd5b81356001600160401b0381111561195757611957611857565b60405161196e601f8301601f19166020018261186d565b81815284602083860101111561198357600080fd5b816020850160208301376000918101602001919091529392505050565b600080600080600060a086880312156119b857600080fd5b6119c186611762565b94506119cf60208701611762565b935060408601356001600160401b03808211156119eb57600080fd5b6119f789838a016118bc565b94506060880135915080821115611a0d57600080fd5b611a1989838a016118bc565b93506080880135915080821115611a2f57600080fd5b50611a3c8882890161192d565b9150509295509295909350565b60008060408385031215611a5c57600080fd5b82356001600160401b0380821115611a7357600080fd5b818501915085601f830112611a8757600080fd5b81356020611a9482611899565b604051611aa1828261186d565b83815260059390931b8501820192828101915089841115611ac157600080fd5b948201945b83861015611ae657611ad786611762565b82529482019490820190611ac6565b96505086013592505080821115611afc57600080fd5b50611b09858286016118bc565b9150509250929050565b600081518084526020808501945080840160005b83811015611b4357815187529582019590820190600101611b27565b509495945050505050565b602081526000610e8f6020830184611b13565b8015158114610d2657600080fd5b60008060408385031215611b8257600080fd5b611b8b83611762565b91506020830135611b9b81611b61565b809150509250929050565b600060208284031215611bb857600080fd5b610e8f82611762565b60008060408385031215611bd457600080fd5b611bdd83611762565b9150611beb60208401611762565b90509250929050565b600080600080600060a08688031215611c0c57600080fd5b611c1586611762565b9450611c2360208701611762565b9350604086013592506060860135915060808601356001600160401b03811115611c4c57600080fd5b611a3c8882890161192d565b600181811c90821680611c6c57607f821691505b602082108103611c8c57634e487b7160e01b600052602260045260246000fd5b50919050565b60008151611ca48185602086016117f4565b9290920192915050565b7968747470733a2f2f6d796170692e636f6d2f6170692f4e46542f60301b81526000601a6000855481600182811c915080831680611ced57607f831692505b60208084108203611d0c57634e487b7160e01b86526022600452602486fd5b818015611d205760018114611d3957611d6a565b60ff1986168a89015284151585028a0188019650611d6a565b60008c81526020902060005b86811015611d605781548c82018b0152908501908301611d45565b505087858b010196505b505050505050611d9e611d8d611d8783602f60f81b815260010190565b87611c92565b64173539b7b760d91b815260050190565b9695505050505050565b60208082526015908201527414dbdc9c9e4b081dd949dc99481cdbdb19081bdd5d605a1b604082015260600190565b6001600160a01b039384168152919092166020820152604081019190915260600190565b600060208284031215611e0d57600080fd5b8151610e8f81611b61565b6020808252601490820152731554d110c81d1c985b9cd9995c8819985a5b195960621b604082015260600190565b634e487b7160e01b600052601160045260246000fd5b8082018082111561041a5761041a611e46565b634e487b7160e01b600052603260045260246000fd5b600060018201611e9757611e97611e46565b5060010190565b6020808252602e908201527f455243313135353a2063616c6c6572206973206e6f7420746f6b656e206f776e60408201526d195c881bdc88185c1c1c9bdd995960921b606082015260800190565b8181038181111561041a5761041a611e46565b60208082526021908201527f455243313135353a206d696e7420746f20746865207a65726f206164647265736040820152607360f81b606082015260800190565b808202811582820484141761041a5761041a611e46565b60208082526028908201527f455243313135353a2069647320616e6420616d6f756e7473206c656e677468206040820152670dad2e6dac2e8c6d60c31b606082015260800190565b604081526000611fb26040830185611b13565b8281036020840152611fc48185611b13565b95945050505050565b60208082526025908201527f455243313135353a207472616e7366657220746f20746865207a65726f206164604082015264647265737360d81b606082015260800190565b6020808252602a908201527f455243313135353a20696e73756666696369656e742062616c616e636520666f60408201526939103a3930b739b332b960b11b606082015260800190565b6001600160a01b03868116825285166020820152604081018490526060810183905260a06080820181905260009061209690830184611818565b979650505050505050565b6000602082840312156120b357600080fd5b8151610e8f816117a8565b600060033d11156120d75760046000803e5060005160e01c5b90565b600060443d10156120e85790565b6040516003193d81016004833e81513d6001600160401b03808311602484018310171561211757505050505090565b828501915081518181111561212f5750505050505090565b843d87010160208285010111156121495750505050505090565b6121586020828601018761186d565b509095945050505050565b60208082526028908201527f455243313135353a204552433131353552656365697665722072656a656374656040820152676420746f6b656e7360c01b606082015260800190565b6001600160a01b0386811682528516602082015260a0604082018190526000906121d790830186611b13565b82810360608401526121e98186611b13565b905082810360808401526121fd8185611818565b9897505050505050505056fe4a39dc06d4c0dbc64b70af90fd698a233a518aa5d07e595d983b8c0526c8f7fbc3d58168c5ae7397731d063d5bbf3d657854427343f4c083240f7aacaa2d0f62b7656808f0e04b4af7a20f7ef1caa7669f0d781f1ca4cba31a3ba467880766c9a2646970667358221220794837085dba1117a7cdd3ecbaf38e698923c3af107c5af79361669a0767ba3564736f6c63430008130033",
  "linkReferences": {},
  "deployedLinkReferences": {}
}