{
  "_format": "hh-sol-artifact-1",
  "contractName": "SeatedNftContract",
  "sourceName": "contracts/SeatedNftContract.sol",
  "abi": [
    {
      "inputs": [
        {
          "internalType": "uint256",
          "name": "_eventId",
          "type": "uint256"
        },
        {
          "internalType": "uint256",
          "name": "_sessionId",
          "type": "uint256"
        },
        {
          "internalType": "string",
          "name": "_section",
          "type": "string"
        },
        {
          "internalType": "uint256",
          "name": "_supply",
          "type": "uint256"
        },
        {
          "internalType": "uint256",
          "name": "_startPrice",
          "type": "uint256"
        },
        {
          "internalType": "uint256",
          "name": "_priceCap",
          "type": "uint256"
        },
        {
          "internalType": "uint256",
          "name": "_startSeat",
          "type": "uint256"
        },
        {
          "internalType": "string",
          "name": "_nftMeta",
          "type": "string"
        }
      ],
      "stateMutability": "nonpayable",
      "type": "constructor"
    },
    {
      "anonymous": false,
      "inputs": [
        {
          "indexed": true,
          "internalType": "address",
          "name": "account",
          "type": "address"
        },
        {
          "indexed": true,
          "internalType": "address",
          "name": "operator",
          "type": "address"
        },
        {
          "indexed": false,
          "internalType": "bool",
          "name": "approved",
          "type": "bool"
        }
      ],
      "name": "ApprovalForAll",
      "type": "event"
    },
    {
      "anonymous": false,
      "inputs": [
        {
          "indexed": true,
          "internalType": "address",
          "name": "previousOwner",
          "type": "address"
        },
        {
          "indexed": true,
          "internalType": "address",
          "name": "newOwner",
          "type": "address"
        }
      ],
      "name": "OwnershipTransferred",
      "type": "event"
    },
    {
      "anonymous": false,
      "inputs": [
        {
          "indexed": true,
          "internalType": "address",
          "name": "operator",
          "type": "address"
        },
        {
          "indexed": true,
          "internalType": "address",
          "name": "from",
          "type": "address"
        },
        {
          "indexed": true,
          "internalType": "address",
          "name": "to",
          "type": "address"
        },
        {
          "indexed": false,
          "internalType": "uint256[]",
          "name": "ids",
          "type": "uint256[]"
        },
        {
          "indexed": false,
          "internalType": "uint256[]",
          "name": "values",
          "type": "uint256[]"
        }
      ],
      "name": "TransferBatch",
      "type": "event"
    },
    {
      "anonymous": false,
      "inputs": [
        {
          "indexed": true,
          "internalType": "address",
          "name": "operator",
          "type": "address"
        },
        {
          "indexed": true,
          "internalType": "address",
          "name": "from",
          "type": "address"
        },
        {
          "indexed": true,
          "internalType": "address",
          "name": "to",
          "type": "address"
        },
        {
          "indexed": false,
          "internalType": "uint256",
          "name": "id",
          "type": "uint256"
        },
        {
          "indexed": false,
          "internalType": "uint256",
          "name": "value",
          "type": "uint256"
        }
      ],
      "name": "TransferSingle",
      "type": "event"
    },
    {
      "anonymous": false,
      "inputs": [
        {
          "indexed": false,
          "internalType": "string",
          "name": "value",
          "type": "string"
        },
        {
          "indexed": true,
          "internalType": "uint256",
          "name": "id",
          "type": "uint256"
        }
      ],
      "name": "URI",
      "type": "event"
    },
    {
      "anonymous": false,
      "inputs": [
        {
          "indexed": true,
          "internalType": "address",
          "name": "minter",
          "type": "address"
        },
        {
          "indexed": false,
          "internalType": "uint256",
          "name": "amount",
          "type": "uint256"
        }
      ],
      "name": "minted",
      "type": "event"
    },
    {
      "inputs": [],
      "name": "approveMarket",
      "outputs": [],
      "stateMutability": "nonpayable",
      "type": "function"
    },
    {
      "inputs": [
        {
          "internalType": "address",
          "name": "account",
          "type": "address"
        },
        {
          "internalType": "uint256",
          "name": "id",
          "type": "uint256"
        }
      ],
      "name": "balanceOf",
      "outputs": [
        {
          "internalType": "uint256",
          "name": "",
          "type": "uint256"
        }
      ],
      "stateMutability": "view",
      "type": "function"
    },
    {
      "inputs": [
        {
          "internalType": "address[]",
          "name": "accounts",
          "type": "address[]"
        },
        {
          "internalType": "uint256[]",
          "name": "ids",
          "type": "uint256[]"
        }
      ],
      "name": "balanceOfBatch",
      "outputs": [
        {
          "internalType": "uint256[]",
          "name": "",
          "type": "uint256[]"
        }
      ],
      "stateMutability": "view",
      "type": "function"
    },
    {
      "inputs": [],
      "name": "getOwner",
      "outputs": [
        {
          "internalType": "address",
          "name": "",
          "type": "address"
        }
      ],
      "stateMutability": "view",
      "type": "function"
    },
    {
      "inputs": [],
      "name": "getSection",
      "outputs": [
        {
          "internalType": "string",
          "name": "",
          "type": "string"
        }
      ],
      "stateMutability": "view",
      "type": "function"
    },
    {
      "inputs": [],
      "name": "getStartPrice",
      "outputs": [
        {
          "internalType": "uint256",
          "name": "",
          "type": "uint256"
        }
      ],
      "stateMutability": "view",
      "type": "function"
    },
    {
      "inputs": [],
      "name": "getStartSeat",
      "outputs": [
        {
          "internalType": "uint256",
          "name": "",
          "type": "uint256"
        }
      ],
      "stateMutability": "view",
      "type": "function"
    },
    {
      "inputs": [],
      "name": "getSupply",
      "outputs": [
        {
          "internalType": "uint256",
          "name": "",
          "type": "uint256"
        }
      ],
      "stateMutability": "view",
      "type": "function"
    },
    {
      "inputs": [],
      "name": "getTicketsLeft",
      "outputs": [
        {
          "internalType": "uint256",
          "name": "",
          "type": "uint256"
        }
      ],
      "stateMutability": "view",
      "type": "function"
    },
    {
      "inputs": [
        {
          "internalType": "uint256",
          "name": "_tokenId",
          "type": "uint256"
        }
      ],
      "name": "getTokenURI",
      "outputs": [
        {
          "internalType": "string",
          "name": "",
          "type": "string"
        }
      ],
      "stateMutability": "view",
      "type": "function"
    },
    {
      "inputs": [
        {
          "internalType": "address",
          "name": "account",
          "type": "address"
        },
        {
          "internalType": "address",
          "name": "operator",
          "type": "address"
        }
      ],
      "name": "isApprovedForAll",
      "outputs": [
        {
          "internalType": "bool",
          "name": "",
          "type": "bool"
        }
      ],
      "stateMutability": "view",
      "type": "function"
    },
    {
      "inputs": [],
      "name": "marketPlaceAddress",
      "outputs": [
        {
          "internalType": "address",
          "name": "",
          "type": "address"
        }
      ],
      "stateMutability": "view",
      "type": "function"
    },
    {
      "inputs": [],
      "name": "mint",
      "outputs": [],
      "stateMutability": "payable",
      "type": "function"
    },
    {
      "inputs": [
        {
          "internalType": "uint256",
          "name": "_amounts",
          "type": "uint256"
        }
      ],
      "name": "mintBatch",
      "outputs": [],
      "stateMutability": "payable",
      "type": "function"
    },
    {
      "inputs": [],
      "name": "owner",
      "outputs": [
        {
          "internalType": "address",
          "name": "",
          "type": "address"
        }
      ],
      "stateMutability": "view",
      "type": "function"
    },
    {
      "inputs": [],
      "name": "priceCap",
      "outputs": [
        {
          "internalType": "uint256",
          "name": "",
          "type": "uint256"
        }
      ],
      "stateMutability": "view",
      "type": "function"
    },
    {
      "inputs": [],
      "name": "renounceOwnership",
      "outputs": [],
      "stateMutability": "nonpayable",
      "type": "function"
    },
    {
      "inputs": [
        {
          "internalType": "address",
          "name": "from",
          "type": "address"
        },
        {
          "internalType": "address",
          "name": "to",
          "type": "address"
        },
        {
          "internalType": "uint256[]",
          "name": "ids",
          "type": "uint256[]"
        },
        {
          "internalType": "uint256[]",
          "name": "amounts",
          "type": "uint256[]"
        },
        {
          "internalType": "bytes",
          "name": "data",
          "type": "bytes"
        }
      ],
      "name": "safeBatchTransferFrom",
      "outputs": [],
      "stateMutability": "nonpayable",
      "type": "function"
    },
    {
      "inputs": [
        {
          "internalType": "address",
          "name": "from",
          "type": "address"
        },
        {
          "internalType": "address",
          "name": "to",
          "type": "address"
        },
        {
          "internalType": "uint256",
          "name": "id",
          "type": "uint256"
        },
        {
          "internalType": "uint256",
          "name": "amount",
          "type": "uint256"
        },
        {
          "internalType": "bytes",
          "name": "data",
          "type": "bytes"
        }
      ],
      "name": "safeTransferFrom",
      "outputs": [],
      "stateMutability": "nonpayable",
      "type": "function"
    },
    {
      "inputs": [],
      "name": "section",
      "outputs": [
        {
          "internalType": "string",
          "name": "",
          "type": "string"
        }
      ],
      "stateMutability": "view",
      "type": "function"
    },
    {
      "inputs": [
        {
          "internalType": "address",
          "name": "operator",
          "type": "address"
        },
        {
          "internalType": "bool",
          "name": "approved",
          "type": "bool"
        }
      ],
      "name": "setApprovalForAll",
      "outputs": [],
      "stateMutability": "nonpayable",
      "type": "function"
    },
    {
      "inputs": [
        {
          "internalType": "address",
          "name": "_marketPlaceAddress",
          "type": "address"
        }
      ],
      "name": "setMarketPlaceAddress",
      "outputs": [],
      "stateMutability": "nonpayable",
      "type": "function"
    },
    {
      "inputs": [],
      "name": "startPrice",
      "outputs": [
        {
          "internalType": "uint256",
          "name": "",
          "type": "uint256"
        }
      ],
      "stateMutability": "view",
      "type": "function"
    },
    {
      "inputs": [],
      "name": "startSeat",
      "outputs": [
        {
          "internalType": "uint256",
          "name": "",
          "type": "uint256"
        }
      ],
      "stateMutability": "view",
      "type": "function"
    },
    {
      "inputs": [],
      "name": "supply",
      "outputs": [
        {
          "internalType": "uint256",
          "name": "",
          "type": "uint256"
        }
      ],
      "stateMutability": "view",
      "type": "function"
    },
    {
      "inputs": [
        {
          "internalType": "bytes4",
          "name": "interfaceId",
          "type": "bytes4"
        }
      ],
      "name": "supportsInterface",
      "outputs": [
        {
          "internalType": "bool",
          "name": "",
          "type": "bool"
        }
      ],
      "stateMutability": "view",
      "type": "function"
    },
    {
      "inputs": [
        {
          "internalType": "uint256",
          "name": "",
          "type": "uint256"
        }
      ],
      "name": "tokenOwner",
      "outputs": [
        {
          "internalType": "address",
          "name": "",
          "type": "address"
        }
      ],
      "stateMutability": "view",
      "type": "function"
    },
    {
      "inputs": [
        {
          "internalType": "address",
          "name": "newOwner",
          "type": "address"
        }
      ],
      "name": "transferOwnership",
      "outputs": [],
      "stateMutability": "nonpayable",
      "type": "function"
    },
    {
      "inputs": [
        {
          "internalType": "uint256",
          "name": "_tokenid",
          "type": "uint256"
        }
      ],
      "name": "uri",
      "outputs": [
        {
          "internalType": "string",
          "name": "",
          "type": "string"
        }
      ],
      "stateMutability": "view",
      "type": "function"
    }
  ],
  "bytecode": "0x60806040523480156200001157600080fd5b506040516200248c3803806200248c8339810160408190526200003491620001c4565b8062000040816200009b565b506200004c33620000ad565b6001600455600588905560068790556008620000698782620002f8565b506009859055600a839055600c829055600b849055600d6200008c8282620002f8565b505050505050505050620003c4565b6002620000a98282620002f8565b5050565b600380546001600160a01b038381166001600160a01b0319831681179093556040519116919082907f8be0079c531659141344cd1fd0a4f28419497f9722a3daafe3b4186f6b6457e090600090a35050565b634e487b7160e01b600052604160045260246000fd5b600082601f8301126200012757600080fd5b81516001600160401b0380821115620001445762000144620000ff565b604051601f8301601f19908116603f011681019082821181831017156200016f576200016f620000ff565b816040528381526020925086838588010111156200018c57600080fd5b600091505b83821015620001b0578582018301518183018401529082019062000191565b600093810190920192909252949350505050565b600080600080600080600080610100898b031215620001e257600080fd5b885160208a015160408b015191995097506001600160401b03808211156200020957600080fd5b620002178c838d0162000115565b975060608b0151965060808b0151955060a08b0151945060c08b0151935060e08b01519150808211156200024a57600080fd5b50620002598b828c0162000115565b9150509295985092959890939650565b600181811c908216806200027e57607f821691505b6020821081036200029f57634e487b7160e01b600052602260045260246000fd5b50919050565b601f821115620002f357600081815260208120601f850160051c81016020861015620002ce5750805b601f850160051c820191505b81811015620002ef57828155600101620002da565b5050505b505050565b81516001600160401b03811115620003145762000314620000ff565b6200032c8162000325845462000269565b84620002a5565b602080601f8311600181146200036457600084156200034b5750858301515b600019600386901b1c1916600185901b178555620002ef565b600085815260208120601f198616915b82811015620003955788860151825594840194600190910190840162000374565b5085821015620003b45787850151600019600388901b60f8161c191681555b5050505050600190811b01905550565b6120b880620003d46000396000f3fe6080604052600436106101515760003560e01c8062fdd58e1461015657806301ffc9a71461018957806302b7847c146101b9578063047fc9aa146101cf5780630e89341c146101e55780631249c58b1461021257806318df458d1461021c5780631caaa4871461023257806320e409b414610280578063278a262f146102935780632c9cf352146102a85780632eb2c2d6146102bd5780633bb3a24d146102dd5780634e1273f4146102fd5780635a7bddbf1461032a578063646f22c51461033f5780636c9c2faf14610354578063715018a614610369578063893d20e81461037e5780638da5cb5b14610393578063a22cb465146103a8578063baffa903146103c8578063c2560f2a146103dd578063cc98ef96146103f2578063e985e9c514610412578063ed27107b14610432578063f1a9af8914610452578063f242432a14610468578063f2fde38b14610488575b600080fd5b34801561016257600080fd5b5061017661017136600461172f565b6104a8565b6040519081526020015b60405180910390f35b34801561019557600080fd5b506101a96101a436600461176f565b610541565b6040519015158152602001610180565b3480156101c557600080fd5b50610176600a5481565b3480156101db57600080fd5b5061017660095481565b3480156101f157600080fd5b5061020561020036600461178c565b610591565b60405161018091906117eb565b61021a61066b565b005b34801561022857600080fd5b50610176600c5481565b34801561023e57600080fd5b5061026861024d36600461178c565b600f602052600090815260409020546001600160a01b031681565b6040516001600160a01b039091168152602001610180565b61021a61028e36600461178c565b61075a565b34801561029f57600080fd5b50610205610962565b3480156102b457600080fd5b50600c54610176565b3480156102c957600080fd5b5061021a6102d8366004611947565b6109f0565b3480156102e957600080fd5b506102056102f836600461178c565b610a3c565b34801561030957600080fd5b5061031d6103183660046119f0565b610a47565b6040516101809190611af5565b34801561033657600080fd5b50610205610b70565b34801561034b57600080fd5b50610176610c02565b34801561036057600080fd5b50600954610176565b34801561037557600080fd5b5061021a610c1f565b34801561038a57600080fd5b50610268610c33565b34801561039f57600080fd5b50610268610c39565b3480156103b457600080fd5b5061021a6103c3366004611b08565b610c48565b3480156103d457600080fd5b50600b54610176565b3480156103e957600080fd5b5061021a610c57565b3480156103fe57600080fd5b5061021a61040d366004611b44565b610ce4565b34801561041e57600080fd5b506101a961042d366004611b5f565b610d56565b34801561043e57600080fd5b50600754610268906001600160a01b031681565b34801561045e57600080fd5b50610176600b5481565b34801561047457600080fd5b5061021a610483366004611b92565b610d84565b34801561049457600080fd5b5061021a6104a3366004611b44565b610dc9565b60006001600160a01b0383166105185760405162461bcd60e51b815260206004820152602a60248201527f455243313135353a2061646472657373207a65726f206973206e6f742061207660448201526930b634b21037bbb732b960b11b60648201526084015b60405180910390fd5b506000818152602081815260408083206001600160a01b03861684529091529020545b92915050565b60006001600160e01b03198216636cdb3d1360e11b148061057257506001600160e01b031982166303a24d0760e21b145b8061053b57506301ffc9a760e01b6001600160e01b031983161461053b565b6060816000036105d95760405162461bcd60e51b81526020600482015260136024820152720546f6b656e49642063616e6e6f74206265203606c1b604482015260640161050f565b600d80546105e690611bf6565b80601f016020809104026020016040519081016040528092919081815260200182805461061290611bf6565b801561065f5780601f106106345761010080835404028352916020019161065f565b820191906000526020600020905b81548152906001019060200180831161064257829003601f168201915b50505050509050919050565b600954600e541061068e5760405162461bcd60e51b815260040161050f90611c30565b600b5434146106d15760405162461bcd60e51b815260206004820152600f60248201526e1d1c985b9cd9995c8819985a5b1959608a1b604482015260640161050f565b60006106dc600e5490565b600c546106e99190611c75565b90506107073382600160405180602001604052806000815250610e42565b6000818152600f6020526040902080546001600160a01b03191633179055610733600e80546001019055565b6040516001815233906000805160206120638339815191529060200160405180910390a250565b6009546107708261076a600e5490565b90610f0a565b111561078e5760405162461bcd60e51b815260040161050f90611c30565b60006107a5600b5483610f1d90919063ffffffff16565b90508034146107ed5760405162461bcd60e51b81526020600482015260146024820152731554d110c81d1c985b9cd9995c8819985a5b195960621b604482015260640161050f565b6000826001600160401b03811115610807576108076117fe565b604051908082528060200260200182016040528015610830578160200160208202803683370190505b5090506000836001600160401b0381111561084d5761084d6117fe565b604051908082528060200260200182016040528015610876578160200160208202803683370190505b50905060005b8481101561091d57600061089b610892600e5490565b600c5490610f0a565b9050808483815181106108b0576108b0611c88565b6020908102919091018101919091526000828152600f9091526040902080546001600160a01b031916331790556108eb600e80546001019055565b60018383815181106108ff576108ff611c88565b6020908102919091010152508061091581611c9e565b91505061087c565b5061093933838360405180602001604052806000815250610f29565b60405184815233906000805160206120638339815191529060200160405180910390a250505050565b6008805461096f90611bf6565b80601f016020809104026020016040519081016040528092919081815260200182805461099b90611bf6565b80156109e85780601f106109bd576101008083540402835291602001916109e8565b820191906000526020600020905b8154815290600101906020018083116109cb57829003601f168201915b505050505081565b6001600160a01b038516331480610a0c5750610a0c8533610d56565b610a285760405162461bcd60e51b815260040161050f90611cb7565b610a358585858585611062565b5050505050565b606061053b82610591565b60608151835114610aac5760405162461bcd60e51b815260206004820152602960248201527f455243313135353a206163636f756e747320616e6420696473206c656e677468604482015268040dad2e6dac2e8c6d60bb1b606482015260840161050f565b600083516001600160401b03811115610ac757610ac76117fe565b604051908082528060200260200182016040528015610af0578160200160208202803683370190505b50905060005b8451811015610b6857610b3b858281518110610b1457610b14611c88565b6020026020010151858381518110610b2e57610b2e611c88565b60200260200101516104a8565b828281518110610b4d57610b4d611c88565b6020908102919091010152610b6181611c9e565b9050610af6565b509392505050565b606060088054610b7f90611bf6565b80601f0160208091040260200160405190810160405280929190818152602001828054610bab90611bf6565b8015610bf85780601f10610bcd57610100808354040283529160200191610bf8565b820191906000526020600020905b815481529060010190602001808311610bdb57829003601f168201915b5050505050905090565b6000610c0d600e5490565b600954610c1a9190611d05565b905090565b610c276111ec565b610c31600061124b565b565b6000610c1a5b6003546001600160a01b031690565b610c5333838361129d565b5050565b600754610c6e9033906001600160a01b0316610d56565b15610ccd5760405162461bcd60e51b815260206004820152602960248201527f596f75206861766520616c726561647920617070726f76656420746865206d61604482015268726b6574706c61636560b81b606482015260840161050f565b600754610c31906001600160a01b03166001610c48565b610cec6111ec565b6001600160a01b038116610d345760405162461bcd60e51b815260206004820152600f60248201526e496e76616c6964206164647265737360881b604482015260640161050f565b600780546001600160a01b0319166001600160a01b0392909216919091179055565b6001600160a01b03918216600090815260016020908152604080832093909416825291909152205460ff1690565b6001600160a01b038516331480610da05750610da08533610d56565b610dbc5760405162461bcd60e51b815260040161050f90611cb7565b610a35858585858561137d565b610dd16111ec565b6001600160a01b038116610e365760405162461bcd60e51b815260206004820152602660248201527f4f776e61626c653a206e6577206f776e657220697320746865207a65726f206160448201526564647265737360d01b606482015260840161050f565b610e3f8161124b565b50565b6001600160a01b038416610e685760405162461bcd60e51b815260040161050f90611d18565b336000610e7485611495565b90506000610e8185611495565b90506000868152602081815260408083206001600160a01b038b16845290915281208054879290610eb3908490611c75565b909155505060408051878152602081018790526001600160a01b03808a169260009291871691600080516020612043833981519152910160405180910390a4610f01836000898989896114e0565b50505050505050565b6000610f168284611c75565b9392505050565b6000610f168284611d59565b6001600160a01b038416610f4f5760405162461bcd60e51b815260040161050f90611d18565b8151835114610f705760405162461bcd60e51b815260040161050f90611d70565b3360005b845181101561100c57838181518110610f8f57610f8f611c88565b6020026020010151600080878481518110610fac57610fac611c88565b602002602001015181526020019081526020016000206000886001600160a01b03166001600160a01b031681526020019081526020016000206000828254610ff49190611c75565b9091555081905061100481611c9e565b915050610f74565b50846001600160a01b031660006001600160a01b0316826001600160a01b0316600080516020612023833981519152878760405161104b929190611db8565b60405180910390a4610a3581600087878787611642565b81518351146110835760405162461bcd60e51b815260040161050f90611d70565b6001600160a01b0384166110a95760405162461bcd60e51b815260040161050f90611de6565b3360005b84518110156111905760008582815181106110ca576110ca611c88565b6020026020010151905060008583815181106110e8576110e8611c88565b602090810291909101810151600084815280835260408082206001600160a01b038e1683529093529190912054909150818110156111385760405162461bcd60e51b815260040161050f90611e2b565b6000838152602081815260408083206001600160a01b038e8116855292528083208585039055908b16825281208054849290611175908490611c75565b925050819055505050508061118990611c9e565b90506110ad565b50846001600160a01b0316866001600160a01b0316826001600160a01b031660008051602061202383398151915287876040516111ce929190611db8565b60405180910390a46111e4818787878787611642565b505050505050565b336111f5610c39565b6001600160a01b031614610c315760405162461bcd60e51b815260206004820181905260248201527f4f776e61626c653a2063616c6c6572206973206e6f7420746865206f776e6572604482015260640161050f565b600380546001600160a01b038381166001600160a01b0319831681179093556040519116919082907f8be0079c531659141344cd1fd0a4f28419497f9722a3daafe3b4186f6b6457e090600090a35050565b816001600160a01b0316836001600160a01b0316036113105760405162461bcd60e51b815260206004820152602960248201527f455243313135353a2073657474696e6720617070726f76616c20737461747573604482015268103337b91039b2b63360b91b606482015260840161050f565b6001600160a01b03838116600081815260016020908152604080832094871680845294825291829020805460ff191686151590811790915591519182527f17307eab39ab6107e8899845ad3d59bd9653f200f220920489ca2b5937696c31910160405180910390a3505050565b6001600160a01b0384166113a35760405162461bcd60e51b815260040161050f90611de6565b3360006113af85611495565b905060006113bc85611495565b90506000868152602081815260408083206001600160a01b038c168452909152902054858110156113ff5760405162461bcd60e51b815260040161050f90611e2b565b6000878152602081815260408083206001600160a01b038d8116855292528083208985039055908a1682528120805488929061143c908490611c75565b909155505060408051888152602081018890526001600160a01b03808b16928c82169291881691600080516020612043833981519152910160405180910390a461148a848a8a8a8a8a6114e0565b505050505050505050565b604080516001808252818301909252606091600091906020808301908036833701905050905082816000815181106114cf576114cf611c88565b602090810291909101015292915050565b6114f2846001600160a01b0316611704565b156111e45760405163f23a6e6160e01b81526001600160a01b0385169063f23a6e619061152b9089908990889088908890600401611e75565b6020604051808303816000875af1925050508015611566575060408051601f3d908101601f1916820190925261156391810190611eba565b60015b61161257611572611ed7565b806308c379a0036115ab5750611586611ef3565b8061159157506115ad565b8060405162461bcd60e51b815260040161050f91906117eb565b505b60405162461bcd60e51b815260206004820152603460248201527f455243313135353a207472616e7366657220746f206e6f6e2d455243313135356044820152732932b1b2b4bb32b91034b6b83632b6b2b73a32b960611b606482015260840161050f565b6001600160e01b0319811663f23a6e6160e01b14610f015760405162461bcd60e51b815260040161050f90611f7c565b611654846001600160a01b0316611704565b156111e45760405163bc197c8160e01b81526001600160a01b0385169063bc197c819061168d9089908990889088908890600401611fc4565b6020604051808303816000875af19250505080156116c8575060408051601f3d908101601f191682019092526116c591810190611eba565b60015b6116d457611572611ed7565b6001600160e01b0319811663bc197c8160e01b14610f015760405162461bcd60e51b815260040161050f90611f7c565b6001600160a01b03163b151590565b80356001600160a01b038116811461172a57600080fd5b919050565b6000806040838503121561174257600080fd5b61174b83611713565b946020939093013593505050565b6001600160e01b031981168114610e3f57600080fd5b60006020828403121561178157600080fd5b8135610f1681611759565b60006020828403121561179e57600080fd5b5035919050565b6000815180845260005b818110156117cb576020818501810151868301820152016117af565b506000602082860101526020601f19601f83011685010191505092915050565b602081526000610f1660208301846117a5565b634e487b7160e01b600052604160045260246000fd5b601f8201601f191681016001600160401b0381118282101715611839576118396117fe565b6040525050565b60006001600160401b03821115611859576118596117fe565b5060051b60200190565b600082601f83011261187457600080fd5b8135602061188182611840565b60405161188e8282611814565b83815260059390931b85018201928281019150868411156118ae57600080fd5b8286015b848110156118c957803583529183019183016118b2565b509695505050505050565b600082601f8301126118e557600080fd5b81356001600160401b038111156118fe576118fe6117fe565b604051611915601f8301601f191660200182611814565b81815284602083860101111561192a57600080fd5b816020850160208301376000918101602001919091529392505050565b600080600080600060a0868803121561195f57600080fd5b61196886611713565b945061197660208701611713565b935060408601356001600160401b038082111561199257600080fd5b61199e89838a01611863565b945060608801359150808211156119b457600080fd5b6119c089838a01611863565b935060808801359150808211156119d657600080fd5b506119e3888289016118d4565b9150509295509295909350565b60008060408385031215611a0357600080fd5b82356001600160401b0380821115611a1a57600080fd5b818501915085601f830112611a2e57600080fd5b81356020611a3b82611840565b604051611a488282611814565b83815260059390931b8501820192828101915089841115611a6857600080fd5b948201945b83861015611a8d57611a7e86611713565b82529482019490820190611a6d565b96505086013592505080821115611aa357600080fd5b50611ab085828601611863565b9150509250929050565b600081518084526020808501945080840160005b83811015611aea57815187529582019590820190600101611ace565b509495945050505050565b602081526000610f166020830184611aba565b60008060408385031215611b1b57600080fd5b611b2483611713565b915060208301358015158114611b3957600080fd5b809150509250929050565b600060208284031215611b5657600080fd5b610f1682611713565b60008060408385031215611b7257600080fd5b611b7b83611713565b9150611b8960208401611713565b90509250929050565b600080600080600060a08688031215611baa57600080fd5b611bb386611713565b9450611bc160208701611713565b9350604086013592506060860135915060808601356001600160401b03811115611bea57600080fd5b6119e3888289016118d4565b600181811c90821680611c0a57607f821691505b602082108103611c2a57634e487b7160e01b600052602260045260246000fd5b50919050565b60208082526015908201527414dbdc9c9e4b081dd949dc99481cdbdb19081bdd5d605a1b604082015260600190565b634e487b7160e01b600052601160045260246000fd5b8082018082111561053b5761053b611c5f565b634e487b7160e01b600052603260045260246000fd5b600060018201611cb057611cb0611c5f565b5060010190565b6020808252602e908201527f455243313135353a2063616c6c6572206973206e6f7420746f6b656e206f776e60408201526d195c881bdc88185c1c1c9bdd995960921b606082015260800190565b8181038181111561053b5761053b611c5f565b60208082526021908201527f455243313135353a206d696e7420746f20746865207a65726f206164647265736040820152607360f81b606082015260800190565b808202811582820484141761053b5761053b611c5f565b60208082526028908201527f455243313135353a2069647320616e6420616d6f756e7473206c656e677468206040820152670dad2e6dac2e8c6d60c31b606082015260800190565b604081526000611dcb6040830185611aba565b8281036020840152611ddd8185611aba565b95945050505050565b60208082526025908201527f455243313135353a207472616e7366657220746f20746865207a65726f206164604082015264647265737360d81b606082015260800190565b6020808252602a908201527f455243313135353a20696e73756666696369656e742062616c616e636520666f60408201526939103a3930b739b332b960b11b606082015260800190565b6001600160a01b03868116825285166020820152604081018490526060810183905260a060808201819052600090611eaf908301846117a5565b979650505050505050565b600060208284031215611ecc57600080fd5b8151610f1681611759565b600060033d1115611ef05760046000803e5060005160e01c5b90565b600060443d1015611f015790565b6040516003193d81016004833e81513d6001600160401b038083116024840183101715611f3057505050505090565b8285019150815181811115611f485750505050505090565b843d8701016020828501011115611f625750505050505090565b611f7160208286010187611814565b509095945050505050565b60208082526028908201527f455243313135353a204552433131353552656365697665722072656a656374656040820152676420746f6b656e7360c01b606082015260800190565b6001600160a01b0386811682528516602082015260a060408201819052600090611ff090830186611aba565b82810360608401526120028186611aba565b9050828103608084015261201681856117a5565b9897505050505050505056fe4a39dc06d4c0dbc64b70af90fd698a233a518aa5d07e595d983b8c0526c8f7fbc3d58168c5ae7397731d063d5bbf3d657854427343f4c083240f7aacaa2d0f62b7656808f0e04b4af7a20f7ef1caa7669f0d781f1ca4cba31a3ba467880766c9a26469706673582212208d75289fdbc8d657d6ab330f5fe33b142cfc28fdab5c68b5b4d4a7bd9193562364736f6c63430008130033",
  "linkReferences": {},
  "deployedLinkReferences": {}
}