{
  "_format": "hh-sol-artifact-1",
  "contractName": "StandingFactory",
  "sourceName": "contracts/StandingFactory.sol",
  "abi": [
    {
      "anonymous": false,
      "inputs": [
        {
          "indexed": true,
          "internalType": "uint256",
          "name": "eventId",
          "type": "uint256"
        },
        {
          "indexed": true,
          "internalType": "uint256",
          "name": "sessionId",
          "type": "uint256"
        },
        {
          "indexed": true,
          "internalType": "string",
          "name": "section",
          "type": "string"
        },
        {
          "indexed": false,
          "internalType": "address",
          "name": "nftAddress",
          "type": "address"
        },
        {
          "indexed": false,
          "internalType": "uint256",
          "name": "supply",
          "type": "uint256"
        },
        {
          "indexed": false,
          "internalType": "uint256",
          "name": "startPrice",
          "type": "uint256"
        },
        {
          "indexed": false,
          "internalType": "uint256",
          "name": "startSeat",
          "type": "uint256"
        },
        {
          "indexed": false,
          "internalType": "string",
          "name": "nftMeta",
          "type": "string"
        }
      ],
      "name": "NFTAdded",
      "type": "event"
    },
    {
      "anonymous": false,
      "inputs": [
        {
          "indexed": true,
          "internalType": "address",
          "name": "previousOwner",
          "type": "address"
        },
        {
          "indexed": true,
          "internalType": "address",
          "name": "newOwner",
          "type": "address"
        }
      ],
      "name": "OwnershipTransferred",
      "type": "event"
    },
    {
      "inputs": [
        {
          "internalType": "uint256",
          "name": "_eventId",
          "type": "uint256"
        },
        {
          "internalType": "uint256",
          "name": "_sessionId",
          "type": "uint256"
        },
        {
          "internalType": "string",
          "name": "_section",
          "type": "string"
        },
        {
          "internalType": "uint256",
          "name": "_supply",
          "type": "uint256"
        },
        {
          "internalType": "uint256",
          "name": "_startPrice",
          "type": "uint256"
        },
        {
          "internalType": "uint256",
          "name": "_priceCap",
          "type": "uint256"
        },
        {
          "internalType": "string",
          "name": "_nftMeta",
          "type": "string"
        }
      ],
      "name": "addStandingNft",
      "outputs": [
        {
          "internalType": "address",
          "name": "",
          "type": "address"
        }
      ],
      "stateMutability": "nonpayable",
      "type": "function"
    },
    {
      "inputs": [],
      "name": "owner",
      "outputs": [
        {
          "internalType": "address",
          "name": "",
          "type": "address"
        }
      ],
      "stateMutability": "view",
      "type": "function"
    },
    {
      "inputs": [],
      "name": "renounceOwnership",
      "outputs": [],
      "stateMutability": "nonpayable",
      "type": "function"
    },
    {
      "inputs": [
        {
          "internalType": "address",
          "name": "newOwner",
          "type": "address"
        }
      ],
      "name": "transferOwnership",
      "outputs": [],
      "stateMutability": "nonpayable",
      "type": "function"
    }
  ],
  "bytecode": "0x608060405234801561001057600080fd5b5061001a3361001f565b61006f565b600080546001600160a01b038381166001600160a01b0319831681178455604051919092169283917f8be0079c531659141344cd1fd0a4f28419497f9722a3daafe3b4186f6b6457e09190a35050565b6129308061007e6000396000f3fe608060405234801561001057600080fd5b506004361061004c5760003560e01c8063715018a6146100515780638da5cb5b1461005b578063f2fde38b14610084578063f943899c14610097575b600080fd5b6100596100aa565b005b6000546001600160a01b03165b6040516001600160a01b03909116815260200160405180910390f35b61005961009236600461029d565b6100be565b6100686100a5366004610370565b61013c565b6100b26101e5565b6100bc600061023f565b565b6100c66101e5565b6001600160a01b0381166101305760405162461bcd60e51b815260206004820152602660248201527f4f776e61626c653a206e6577206f776e657220697320746865207a65726f206160448201526564647265737360d01b60648201526084015b60405180910390fd5b6101398161023f565b50565b600080888888888888886040516101529061028f565b6101629796959493929190610454565b604051809103906000f08015801561017e573d6000803e3d6000fd5b5090508660405161018f91906104a5565b6040518091039020888a7f7c92bff999110248d5f3d2ed5ebf9f107c30e28ea83d0d5354148025a0d4944b848a8a60008a6040516101d19594939291906104c1565b60405180910390a498975050505050505050565b6000546001600160a01b031633146100bc5760405162461bcd60e51b815260206004820181905260248201527f4f776e61626c653a2063616c6c6572206973206e6f7420746865206f776e65726044820152606401610127565b600080546001600160a01b038381166001600160a01b0319831681178455604051919092169283917f8be0079c531659141344cd1fd0a4f28419497f9722a3daafe3b4186f6b6457e09190a35050565b6123fb806200050083390190565b6000602082840312156102af57600080fd5b81356001600160a01b03811681146102c657600080fd5b9392505050565b634e487b7160e01b600052604160045260246000fd5b600082601f8301126102f457600080fd5b813567ffffffffffffffff8082111561030f5761030f6102cd565b604051601f8301601f19908116603f01168101908282118183101715610337576103376102cd565b8160405283815286602085880101111561035057600080fd5b836020870160208301376000602085830101528094505050505092915050565b600080600080600080600060e0888a03121561038b57600080fd5b8735965060208801359550604088013567ffffffffffffffff808211156103b157600080fd5b6103bd8b838c016102e3565b965060608a0135955060808a0135945060a08a0135935060c08a01359150808211156103e857600080fd5b506103f58a828b016102e3565b91505092959891949750929550565b60005b8381101561041f578181015183820152602001610407565b50506000910152565b60008151808452610440816020860160208601610404565b601f01601f19169290920160200192915050565b87815286602082015260e06040820152600061047360e0830188610428565b8660608401528560808401528460a084015282810360c08401526104978185610428565b9a9950505050505050505050565b600082516104b7818460208701610404565b9190910192915050565b60018060a01b038616815284602082015283604082015282606082015260a0608082015260006104f460a0830184610428565b97965050505050505056fe60806040523480156200001157600080fd5b50604051620023fb380380620023fb8339810160408190526200003491620001be565b80620000408162000095565b506200004c33620000a7565b600487905560078690556006620000648682620002e8565b506008849055600a83905560098290556000600b55600c620000878282620002e8565b5050505050505050620003b4565b6002620000a38282620002e8565b5050565b600380546001600160a01b038381166001600160a01b0319831681179093556040519116919082907f8be0079c531659141344cd1fd0a4f28419497f9722a3daafe3b4186f6b6457e090600090a35050565b634e487b7160e01b600052604160045260246000fd5b600082601f8301126200012157600080fd5b81516001600160401b03808211156200013e576200013e620000f9565b604051601f8301601f19908116603f01168101908282118183101715620001695762000169620000f9565b816040528381526020925086838588010111156200018657600080fd5b600091505b83821015620001aa57858201830151818301840152908201906200018b565b600093810190920192909252949350505050565b600080600080600080600060e0888a031215620001da57600080fd5b8751602089015160408a015191985096506001600160401b03808211156200020157600080fd5b6200020f8b838c016200010f565b965060608a0151955060808a0151945060a08a0151935060c08a01519150808211156200023b57600080fd5b506200024a8a828b016200010f565b91505092959891949750929550565b600181811c908216806200026e57607f821691505b6020821081036200028f57634e487b7160e01b600052602260045260246000fd5b50919050565b601f821115620002e357600081815260208120601f850160051c81016020861015620002be5750805b601f850160051c820191505b81811015620002df57828155600101620002ca565b5050505b505050565b81516001600160401b03811115620003045762000304620000f9565b6200031c8162000315845462000259565b8462000295565b602080601f8311600181146200035457600084156200033b5750858301515b600019600386901b1c1916600185901b178555620002df565b600085815260208120601f198616915b82811015620003855788860151825594840194600190910190840162000364565b5085821015620003a45787850151600019600388901b60f8161c191681555b5050505050600190811b01905550565b61203780620003c46000396000f3fe6080604052600436106101cc5760003560e01c80636c9c2faf116100f7578063baffa90311610095578063ed27107b11610064578063ed27107b146104f7578063f1a9af8914610517578063f242432a1461052d578063f2fde38b1461054d57600080fd5b8063baffa90314610464578063c2560f2a14610479578063cc98ef961461048e578063e985e9c5146104ae57600080fd5b80638da5cb5b116100d15780638da5cb5b146103fa5780639648c9f4146104185780639659867e1461042e578063a22cb4651461044457600080fd5b80636c9c2faf146103a3578063715018a6146103b8578063893d20e8146103cd57600080fd5b8063278a262f1161016f5780634c7afe601161013e5780634c7afe60146103135780634e1273f4146103285780635a7bddbf14610355578063646f22c51461038e57600080fd5b8063278a262f146102aa5780632c9cf352146102bf5780632eb2c2d6146102d35780633bb3a24d146102f357600080fd5b8063047fc9aa116101ab578063047fc9aa1461024a5780630e89341c146102605780631249c58b1461028d57806320e409b41461029757600080fd5b8062fdd58e146101d157806301ffc9a71461020457806302b7847c14610234575b600080fd5b3480156101dd57600080fd5b506101f16101ec366004611736565b61056d565b6040519081526020015b60405180910390f35b34801561021057600080fd5b5061022461021f366004611776565b610606565b60405190151581526020016101fb565b34801561024057600080fd5b506101f160095481565b34801561025657600080fd5b506101f160085481565b34801561026c57600080fd5b5061028061027b366004611793565b610656565b6040516101fb91906117f2565b610295610728565b005b6102956102a5366004611793565b6107f1565b3480156102b657600080fd5b50610280610a02565b3480156102cb57600080fd5b5060006101f1565b3480156102df57600080fd5b506102956102ee366004611951565b610a90565b3480156102ff57600080fd5b5061028061030e366004611793565b610adc565b34801561031f57600080fd5b506009546101f1565b34801561033457600080fd5b506103486103433660046119fb565b610ae7565b6040516101fb9190611b01565b34801561036157600080fd5b5060408051808201909152601081526f29ba30b73234b7339039b2b1ba34b7b760811b6020820152610280565b34801561039a57600080fd5b506101f1610c11565b3480156103af57600080fd5b506008546101f1565b3480156103c457600080fd5b50610295610c28565b3480156103d957600080fd5b506103e2610c3c565b6040516001600160a01b0390911681526020016101fb565b34801561040657600080fd5b506003546001600160a01b03166103e2565b34801561042457600080fd5b506101f160075481565b34801561043a57600080fd5b506101f1600b5481565b34801561045057600080fd5b5061029561045f366004611b14565b610c50565b34801561047057600080fd5b50600a546101f1565b34801561048557600080fd5b50610295610c5f565b34801561049a57600080fd5b506102956104a9366004611b50565b610cff565b3480156104ba57600080fd5b506102246104c9366004611b6b565b6001600160a01b03918216600090815260016020908152604080832093909416825291909152205460ff1690565b34801561050357600080fd5b506005546103e2906001600160a01b031681565b34801561052357600080fd5b506101f1600a5481565b34801561053957600080fd5b50610295610548366004611b9e565b610d71565b34801561055957600080fd5b50610295610568366004611b50565b610db6565b60006001600160a01b0383166105dd5760405162461bcd60e51b815260206004820152602a60248201527f455243313135353a2061646472657373207a65726f206973206e6f742061207660448201526930b634b21037bbb732b960b11b60648201526084015b60405180910390fd5b506000818152602081815260408083206001600160a01b03861684529091529020545b92915050565b60006001600160e01b03198216636cdb3d1360e11b148061063757506001600160e01b031982166303a24d0760e21b145b8061060057506301ffc9a760e01b6001600160e01b0319831614610600565b606081156106965760405162461bcd60e51b815260206004820152600d60248201526c0746f6b656e4964206e6f74203609c1b60448201526064016105d4565b600c80546106a390611c03565b80601f01602080910402602001604051908101604052809291908181526020018280546106cf90611c03565b801561071c5780601f106106f15761010080835404028352916020019161071c565b820191906000526020600020905b8154815290600101906020018083116106ff57829003601f168201915b50505050509050919050565b600a5434146107725760405162461bcd60e51b81526020600482015260166024820152751d1c985b9cd9995c88185b5bdd5b9d0819985a5b195960521b60448201526064016105d4565b600854600b54106107bd5760405162461bcd60e51b815260206004820152601560248201527414dbdc9c9e4b081dd949dc99481cdbdb19081bdd5d605a1b60448201526064016105d4565b6107da336000600160405180602001604052806000815250610e2f565b600b80549060006107ea83611c53565b9190505550565b600181116108605760405162461bcd60e51b815260206004820152603660248201527f546f2075736520746869732066756e6374696f6e2c20746865726520686173206044820152751d1bc81899481b5bdc99481391951cc81b5a5b9d195960521b60648201526084016105d4565b600854600b546108709083611c6c565b11156108e45760405162461bcd60e51b815260206004820152603d60248201527f54686520616d6f756e7420796f75207769736820746f2070757263686173652060448201527f6973206d6f7265207468616e20746865207469636b657473206c65667400000060648201526084016105d4565b60006108fb600a5483610f0990919063ffffffff16565b90508034146109445760405162461bcd60e51b81526020600482015260156024820152747472616e7366657220616d6f756e742066616c736560581b60448201526064016105d4565b604080516001808252818301909252600091602080830190803683375050604080516001808252818301909252929350600092915060208083019080368337019050509050838260008151811061099d5761099d611c7f565b6020026020010181815250506000816000815181106109be576109be611c7f565b6020026020010181815250506109e533828460405180602001604052806000815250610f1c565b83600b60008282546109f79190611c6c565b909155505050505050565b60068054610a0f90611c03565b80601f0160208091040260200160405190810160405280929190818152602001828054610a3b90611c03565b8015610a885780601f10610a5d57610100808354040283529160200191610a88565b820191906000526020600020905b815481529060010190602001808311610a6b57829003601f168201915b505050505081565b6001600160a01b038516331480610aac5750610aac85336104c9565b610ac85760405162461bcd60e51b81526004016105d490611c95565b610ad58585858585611067565b5050505050565b606061060082610656565b60608151835114610b4c5760405162461bcd60e51b815260206004820152602960248201527f455243313135353a206163636f756e747320616e6420696473206c656e677468604482015268040dad2e6dac2e8c6d60bb1b60648201526084016105d4565b6000835167ffffffffffffffff811115610b6857610b68611805565b604051908082528060200260200182016040528015610b91578160200160208202803683370190505b50905060005b8451811015610c0957610bdc858281518110610bb557610bb5611c7f565b6020026020010151858381518110610bcf57610bcf611c7f565b602002602001015161056d565b828281518110610bee57610bee611c7f565b6020908102919091010152610c0281611c53565b9050610b97565b509392505050565b6000600b54600854610c239190611ce3565b905090565b610c30611203565b610c3a600061125d565b565b6000610c236003546001600160a01b031690565b610c5b3383836112af565b5050565b6005543360009081526001602090815260408083206001600160a01b039094168352929052205460ff1615610ce85760405162461bcd60e51b815260206004820152602960248201527f596f75206861766520616c726561647920617070726f76656420746865206d61604482015268726b6574706c61636560b81b60648201526084016105d4565b600554610c3a906001600160a01b03166001610c50565b610d07611203565b6001600160a01b038116610d4f5760405162461bcd60e51b815260206004820152600f60248201526e496e76616c6964206164647265737360881b60448201526064016105d4565b600580546001600160a01b0319166001600160a01b0392909216919091179055565b6001600160a01b038516331480610d8d5750610d8d85336104c9565b610da95760405162461bcd60e51b81526004016105d490611c95565b610ad5858585858561138f565b610dbe611203565b6001600160a01b038116610e235760405162461bcd60e51b815260206004820152602660248201527f4f776e61626c653a206e6577206f776e657220697320746865207a65726f206160448201526564647265737360d01b60648201526084016105d4565b610e2c8161125d565b50565b6001600160a01b038416610e555760405162461bcd60e51b81526004016105d490611cf6565b336000610e61856114b9565b90506000610e6e856114b9565b90506000868152602081815260408083206001600160a01b038b16845290915281208054879290610ea0908490611c6c565b909155505060408051878152602081018790526001600160a01b03808a1692600092918716917fc3d58168c5ae7397731d063d5bbf3d657854427343f4c083240f7aacaa2d0f62910160405180910390a4610f0083600089898989611504565b50505050505050565b6000610f158284611d37565b9392505050565b6001600160a01b038416610f425760405162461bcd60e51b81526004016105d490611cf6565b8151835114610f635760405162461bcd60e51b81526004016105d490611d4e565b3360005b8451811015610fff57838181518110610f8257610f82611c7f565b6020026020010151600080878481518110610f9f57610f9f611c7f565b602002602001015181526020019081526020016000206000886001600160a01b03166001600160a01b031681526020019081526020016000206000828254610fe79190611c6c565b90915550819050610ff781611c53565b915050610f67565b50846001600160a01b031660006001600160a01b0316826001600160a01b03167f4a39dc06d4c0dbc64b70af90fd698a233a518aa5d07e595d983b8c0526c8f7fb8787604051611050929190611d96565b60405180910390a4610ad58160008787878761165f565b81518351146110885760405162461bcd60e51b81526004016105d490611d4e565b6001600160a01b0384166110ae5760405162461bcd60e51b81526004016105d490611dc4565b3360005b84518110156111955760008582815181106110cf576110cf611c7f565b6020026020010151905060008583815181106110ed576110ed611c7f565b602090810291909101810151600084815280835260408082206001600160a01b038e16835290935291909120549091508181101561113d5760405162461bcd60e51b81526004016105d490611e09565b6000838152602081815260408083206001600160a01b038e8116855292528083208585039055908b1682528120805484929061117a908490611c6c565b925050819055505050508061118e90611c53565b90506110b2565b50846001600160a01b0316866001600160a01b0316826001600160a01b03167f4a39dc06d4c0dbc64b70af90fd698a233a518aa5d07e595d983b8c0526c8f7fb87876040516111e5929190611d96565b60405180910390a46111fb81878787878761165f565b505050505050565b6003546001600160a01b03163314610c3a5760405162461bcd60e51b815260206004820181905260248201527f4f776e61626c653a2063616c6c6572206973206e6f7420746865206f776e657260448201526064016105d4565b600380546001600160a01b038381166001600160a01b0319831681179093556040519116919082907f8be0079c531659141344cd1fd0a4f28419497f9722a3daafe3b4186f6b6457e090600090a35050565b816001600160a01b0316836001600160a01b0316036113225760405162461bcd60e51b815260206004820152602960248201527f455243313135353a2073657474696e6720617070726f76616c20737461747573604482015268103337b91039b2b63360b91b60648201526084016105d4565b6001600160a01b03838116600081815260016020908152604080832094871680845294825291829020805460ff191686151590811790915591519182527f17307eab39ab6107e8899845ad3d59bd9653f200f220920489ca2b5937696c31910160405180910390a3505050565b6001600160a01b0384166113b55760405162461bcd60e51b81526004016105d490611dc4565b3360006113c1856114b9565b905060006113ce856114b9565b90506000868152602081815260408083206001600160a01b038c168452909152902054858110156114115760405162461bcd60e51b81526004016105d490611e09565b6000878152602081815260408083206001600160a01b038d8116855292528083208985039055908a1682528120805488929061144e908490611c6c565b909155505060408051888152602081018890526001600160a01b03808b16928c821692918816917fc3d58168c5ae7397731d063d5bbf3d657854427343f4c083240f7aacaa2d0f62910160405180910390a46114ae848a8a8a8a8a611504565b505050505050505050565b604080516001808252818301909252606091600091906020808301908036833701905050905082816000815181106114f3576114f3611c7f565b602090810291909101015292915050565b6001600160a01b0384163b156111fb5760405163f23a6e6160e01b81526001600160a01b0385169063f23a6e61906115489089908990889088908890600401611e53565b6020604051808303816000875af1925050508015611583575060408051601f3d908101601f1916820190925261158091810190611e98565b60015b61162f5761158f611eb5565b806308c379a0036115c857506115a3611ed1565b806115ae57506115ca565b8060405162461bcd60e51b81526004016105d491906117f2565b505b60405162461bcd60e51b815260206004820152603460248201527f455243313135353a207472616e7366657220746f206e6f6e2d455243313135356044820152732932b1b2b4bb32b91034b6b83632b6b2b73a32b960611b60648201526084016105d4565b6001600160e01b0319811663f23a6e6160e01b14610f005760405162461bcd60e51b81526004016105d490611f5b565b6001600160a01b0384163b156111fb5760405163bc197c8160e01b81526001600160a01b0385169063bc197c81906116a39089908990889088908890600401611fa3565b6020604051808303816000875af19250505080156116de575060408051601f3d908101601f191682019092526116db91810190611e98565b60015b6116ea5761158f611eb5565b6001600160e01b0319811663bc197c8160e01b14610f005760405162461bcd60e51b81526004016105d490611f5b565b80356001600160a01b038116811461173157600080fd5b919050565b6000806040838503121561174957600080fd5b6117528361171a565b946020939093013593505050565b6001600160e01b031981168114610e2c57600080fd5b60006020828403121561178857600080fd5b8135610f1581611760565b6000602082840312156117a557600080fd5b5035919050565b6000815180845260005b818110156117d2576020818501810151868301820152016117b6565b506000602082860101526020601f19601f83011685010191505092915050565b602081526000610f1560208301846117ac565b634e487b7160e01b600052604160045260246000fd5b601f8201601f1916810167ffffffffffffffff8111828210171561184157611841611805565b6040525050565b600067ffffffffffffffff82111561186257611862611805565b5060051b60200190565b600082601f83011261187d57600080fd5b8135602061188a82611848565b604051611897828261181b565b83815260059390931b85018201928281019150868411156118b757600080fd5b8286015b848110156118d257803583529183019183016118bb565b509695505050505050565b600082601f8301126118ee57600080fd5b813567ffffffffffffffff81111561190857611908611805565b60405161191f601f8301601f19166020018261181b565b81815284602083860101111561193457600080fd5b816020850160208301376000918101602001919091529392505050565b600080600080600060a0868803121561196957600080fd5b6119728661171a565b94506119806020870161171a565b9350604086013567ffffffffffffffff8082111561199d57600080fd5b6119a989838a0161186c565b945060608801359150808211156119bf57600080fd5b6119cb89838a0161186c565b935060808801359150808211156119e157600080fd5b506119ee888289016118dd565b9150509295509295909350565b60008060408385031215611a0e57600080fd5b823567ffffffffffffffff80821115611a2657600080fd5b818501915085601f830112611a3a57600080fd5b81356020611a4782611848565b604051611a54828261181b565b83815260059390931b8501820192828101915089841115611a7457600080fd5b948201945b83861015611a9957611a8a8661171a565b82529482019490820190611a79565b96505086013592505080821115611aaf57600080fd5b50611abc8582860161186c565b9150509250929050565b600081518084526020808501945080840160005b83811015611af657815187529582019590820190600101611ada565b509495945050505050565b602081526000610f156020830184611ac6565b60008060408385031215611b2757600080fd5b611b308361171a565b915060208301358015158114611b4557600080fd5b809150509250929050565b600060208284031215611b6257600080fd5b610f158261171a565b60008060408385031215611b7e57600080fd5b611b878361171a565b9150611b956020840161171a565b90509250929050565b600080600080600060a08688031215611bb657600080fd5b611bbf8661171a565b9450611bcd6020870161171a565b93506040860135925060608601359150608086013567ffffffffffffffff811115611bf757600080fd5b6119ee888289016118dd565b600181811c90821680611c1757607f821691505b602082108103611c3757634e487b7160e01b600052602260045260246000fd5b50919050565b634e487b7160e01b600052601160045260246000fd5b600060018201611c6557611c65611c3d565b5060010190565b8082018082111561060057610600611c3d565b634e487b7160e01b600052603260045260246000fd5b6020808252602e908201527f455243313135353a2063616c6c6572206973206e6f7420746f6b656e206f776e60408201526d195c881bdc88185c1c1c9bdd995960921b606082015260800190565b8181038181111561060057610600611c3d565b60208082526021908201527f455243313135353a206d696e7420746f20746865207a65726f206164647265736040820152607360f81b606082015260800190565b808202811582820484141761060057610600611c3d565b60208082526028908201527f455243313135353a2069647320616e6420616d6f756e7473206c656e677468206040820152670dad2e6dac2e8c6d60c31b606082015260800190565b604081526000611da96040830185611ac6565b8281036020840152611dbb8185611ac6565b95945050505050565b60208082526025908201527f455243313135353a207472616e7366657220746f20746865207a65726f206164604082015264647265737360d81b606082015260800190565b6020808252602a908201527f455243313135353a20696e73756666696369656e742062616c616e636520666f60408201526939103a3930b739b332b960b11b606082015260800190565b6001600160a01b03868116825285166020820152604081018490526060810183905260a060808201819052600090611e8d908301846117ac565b979650505050505050565b600060208284031215611eaa57600080fd5b8151610f1581611760565b600060033d1115611ece5760046000803e5060005160e01c5b90565b600060443d1015611edf5790565b6040516003193d81016004833e81513d67ffffffffffffffff8160248401118184111715611f0f57505050505090565b8285019150815181811115611f275750505050505090565b843d8701016020828501011115611f415750505050505090565b611f506020828601018761181b565b509095945050505050565b60208082526028908201527f455243313135353a204552433131353552656365697665722072656a656374656040820152676420746f6b656e7360c01b606082015260800190565b6001600160a01b0386811682528516602082015260a060408201819052600090611fcf90830186611ac6565b8281036060840152611fe18186611ac6565b90508281036080840152611ff581856117ac565b9897505050505050505056fea26469706673582212208946db3146b0fb4b99d8e10f922c48875f6d25e1f1d7d9786b8d44075f0abb1f64736f6c63430008130033a264697066735822122033a291a35888a2ea414bf7bbd29b6d118a999a6e8a876843669af7b592c7e0da64736f6c63430008130033",
  "linkReferences": {},
  "deployedLinkReferences": {}
}