{"contracts/SessionFactory.sol":{"SessionFactory":{"abi":[{"inputs":[{"internalType":"address","name":"_standingFactory","type":"address"},{"internalType":"address","name":"_seatedFactory","type":"address"},{"internalType":"uint256","name":"_eventId","type":"uint256"},{"internalType":"uint256","name":"_numSessions","type":"uint256"},{"internalType":"uint256[]","name":"_sessionId","type":"uint256[]"},{"internalType":"string[]","name":"_section","type":"string[]"},{"internalType":"uint256[]","name":"_supplyPerSection","type":"uint256[]"},{"internalType":"uint256[]","name":"_startPrice","type":"uint256[]"},{"internalType":"uint256","name":"_priceCap","type":"uint256"},{"internalType":"uint256[]","name":"_startSeats","type":"uint256[]"},{"internalType":"string[]","name":"_nftMeta","type":"string[]"}],"stateMutability":"nonpayable","type":"constructor"},{"anonymous":false,"inputs":[{"indexed":true,"internalType":"address","name":"previousOwner","type":"address"},{"indexed":true,"internalType":"address","name":"newOwner","type":"address"}],"name":"OwnershipTransferred","type":"event"},{"inputs":[{"internalType":"address","name":"_standingFactory","type":"address"},{"internalType":"address","name":"_seatedFactory","type":"address"},{"internalType":"address","name":"_sessionFactory","type":"address"},{"internalType":"uint256","name":"_eventId","type":"uint256"},{"internalType":"uint256[]","name":"_supplyPerSection","type":"uint256[]"},{"internalType":"string[]","name":"_section","type":"string[]"},{"internalType":"uint256[]","name":"_startPrice","type":"uint256[]"},{"internalType":"uint256[]","name":"_sessionId","type":"uint256[]"},{"internalType":"uint256","name":"_priceCap","type":"uint256"},{"internalType":"uint256[]","name":"_startSeats","type":"uint256[]"},{"internalType":"string[]","name":"_nftMeta","type":"string[]"}],"name":"createSession","outputs":[],"stateMutability":"nonpayable","type":"function"},{"inputs":[{"internalType":"uint256","name":"_sessionId","type":"uint256"}],"name":"getSectionAddressesFromSession","outputs":[{"internalType":"address[]","name":"","type":"address[]"}],"stateMutability":"view","type":"function"},{"inputs":[{"internalType":"uint256","name":"_sessionId","type":"uint256"}],"name":"getSessionAddresses","outputs":[{"internalType":"address","name":"","type":"address"}],"stateMutability":"view","type":"function"},{"inputs":[],"name":"getSessionsId","outputs":[{"internalType":"uint256[]","name":"","type":"uint256[]"}],"stateMutability":"view","type":"function"},{"inputs":[],"name":"owner","outputs":[{"internalType":"address","name":"","type":"address"}],"stateMutability":"view","type":"function"},{"inputs":[],"name":"renounceOwnership","outputs":[],"stateMutability":"nonpayable","type":"function"},{"inputs":[{"internalType":"uint256","name":"","type":"uint256"}],"name":"sessionToAddress","outputs":[{"internalType":"address","name":"","type":"address"}],"stateMutability":"view","type":"function"},{"inputs":[{"internalType":"uint256","name":"","type":"uint256"}],"name":"sessionsId","outputs":[{"internalType":"uint256","name":"","type":"uint256"}],"stateMutability":"view","type":"function"},{"inputs":[{"internalType":"address","name":"newOwner","type":"address"}],"name":"transferOwnership","outputs":[],"stateMutability":"nonpayable","type":"function"}],"evm":{"bytecode":{"linkReferences":{},"object":"60806040523480156200001157600080fd5b506040516200506938038062005069833981016040819052620000349162000626565b6200003f33620000f8565b6003899055600488905584516200005e906006906020880190620002dc565b508551620000749060079060208901906200032c565b5086516200008a9060089060208a0190620002dc565b508351620000a0906009906020870190620002dc565b50600a8390558151620000bb90600b906020850190620002dc565b508051620000d19060059060208401906200032c565b50620000e78b8b308c898b8a8e8b8b8b62000148565b505050505050505050505062000a9a565b600080546001600160a01b038381166001600160a01b0319831681178455604051919092169283917f8be0079c531659141344cd1fd0a4f28419497f9722a3daafe3b4186f6b6457e09190a35050565b620001526200027b565b60005b6004548110156200026d5760008c8c8c8c8c8c8c8c89815181106200017e576200017e6200079c565b60200260200101518c8c8c604051620001979062000385565b620001ad9b9a9998979695949392919062000860565b604051809103906000f080158015620001ca573d6000803e3d6000fd5b5090508060026000888581518110620001e757620001e76200079c565b6020026020010151815260200190815260200160002060006101000a8154816001600160a01b0302191690836001600160a01b0316021790555060018683815181106200023857620002386200079c565b602090810291909101810151825460018101845560009384529190922001555080620002648162000917565b91505062000155565b505050505050505050505050565b6000546001600160a01b03163314620002da5760405162461bcd60e51b815260206004820181905260248201527f4f776e61626c653a2063616c6c6572206973206e6f7420746865206f776e6572604482015260640160405180910390fd5b565b8280548282559060005260206000209081019282156200031a579160200282015b828111156200031a578251825591602001919060010190620002fd565b506200032892915062000393565b5090565b82805482825590600052602060002090810192821562000377579160200282015b82811115620003775782518290620003669082620009ce565b50916020019190600101906200034d565b5062000328929150620003aa565b611c8980620033e083390190565b5b8082111562000328576000815560010162000394565b8082111562000328576000620003c18282620003cb565b50600101620003aa565b508054620003d9906200093f565b6000825580601f10620003ea575050565b601f0160209004906000526020600020908101906200040a919062000393565b50565b80516001600160a01b03811681146200042557600080fd5b919050565b634e487b7160e01b600052604160045260246000fd5b604051601f8201601f191681016001600160401b03811182821017156200046b576200046b6200042a565b604052919050565b60006001600160401b038211156200048f576200048f6200042a565b5060051b60200190565b600082601f830112620004ab57600080fd5b81516020620004c4620004be8362000473565b62000440565b82815260059290921b84018101918181019086841115620004e457600080fd5b8286015b84811015620005015780518352918301918301620004e8565b509695505050505050565b60005b83811015620005295781810151838201526020016200050f565b50506000910152565b6000601f83818401126200054557600080fd5b8251602062000558620004be8362000473565b82815260059290921b850181019181810190878411156200057857600080fd5b8287015b848110156200061a5780516001600160401b03808211156200059e5760008081fd5b818a0191508a603f830112620005b45760008081fd5b85820151604082821115620005cd57620005cd6200042a565b620005e0828b01601f1916890162000440565b92508183528c81838601011115620005f85760008081fd5b62000609828985018387016200050c565b50508452509183019183016200057c565b50979650505050505050565b60008060008060008060008060008060006101608c8e0312156200064957600080fd5b620006548c6200040d565b9a506200066460208d016200040d565b60408d015160608e015160808f0151929c50909a5098506001600160401b038111156200069057600080fd5b6200069e8e828f0162000499565b60a08e015190985090506001600160401b03811115620006bd57600080fd5b620006cb8e828f0162000532565b60c08e015190975090506001600160401b03811115620006ea57600080fd5b620006f88e828f0162000499565b60e08e015190965090506001600160401b038111156200071757600080fd5b620007258e828f0162000499565b6101008e01516101208f0151919650945090506001600160401b038111156200074d57600080fd5b6200075b8e828f0162000499565b6101408e015190935090506001600160401b038111156200077b57600080fd5b620007898e828f0162000532565b9150509295989b509295989b9093969950565b634e487b7160e01b600052603260045260246000fd5b600081518084526020808501945080840160005b83811015620007e457815187529582019590820190600101620007c6565b509495945050505050565b600081518084526020808501808196508360051b8101915082860160005b85811015620008535782840389528151805180865262000833818888018985016200050c565b99860199601f01601f19169490940185019350908401906001016200080d565b5091979650505050505050565b6001600160a01b038c811682528b811660208301528a16604082015260608101899052610160608082018190526000906200089e8382018b620007b2565b905082810360a0840152620008b4818a620007ef565b905082810360c0840152620008ca8189620007b2565b90508660e084015285610100840152828103610120840152620008ee8186620007b2565b9050828103610140840152620009058185620007ef565b9e9d5050505050505050505050505050565b6000600182016200093857634e487b7160e01b600052601160045260246000fd5b5060010190565b600181811c908216806200095457607f821691505b6020821081036200097557634e487b7160e01b600052602260045260246000fd5b50919050565b601f821115620009c957600081815260208120601f850160051c81016020861015620009a45750805b601f850160051c820191505b81811015620009c557828155600101620009b0565b5050505b505050565b81516001600160401b03811115620009ea57620009ea6200042a565b62000a0281620009fb84546200093f565b846200097b565b602080601f83116001811462000a3a576000841562000a215750858301515b600019600386901b1c1916600185901b178555620009c5565b600085815260208120601f198616915b8281101562000a6b5788860151825594840194600190910190840162000a4a565b508582101562000a8a5787850151600019600388901b60f8161c191681555b5050505050600190811b01905550565b6129368062000aaa6000396000f3fe60806040523480156200001157600080fd5b50600436106200009f5760003560e01c80637fa10508116200006e5780637fa10508146200010f5780638da5cb5b1462000135578063bb6fe0f4146200015b578063f2fde38b1462000172578063fcc6e567146200018957600080fd5b806312848ab914620000a45780632f4fc72514620000c65780634fe40a5914620000df578063715018a61462000105575b600080fd5b620000ae620001b5565b604051620000bd919062000656565b60405180910390f35b620000dd620000d73660046200086a565b6200020f565b005b620000f6620000f0366004620009cb565b62000342565b604051908152602001620000bd565b620000dd62000364565b6200012662000120366004620009cb565b6200037c565b604051620000bd9190620009e5565b6000546001600160a01b03165b6040516001600160a01b039091168152602001620000bd565b620001426200016c366004620009cb565b62000462565b620000dd6200018336600462000a34565b620004e0565b620001426200019a366004620009cb565b6002602052600090815260409020546001600160a01b031681565b606060018054806020026020016040519081016040528092919081815260200182805480156200020557602002820191906000526020600020905b815481526020019060010190808311620001f0575b5050505050905090565b620002196200055f565b60005b600454811015620003345760008c8c8c8c8c8c8c8c898151811062000245576200024562000a54565b60200260200101518c8c8c6040516200025e906200060b565b620002749b9a9998979695949392919062000af3565b604051809103906000f08015801562000291573d6000803e3d6000fd5b5090508060026000888581518110620002ae57620002ae62000a54565b6020026020010151815260200190815260200160002060006101000a8154816001600160a01b0302191690836001600160a01b031602179055506001868381518110620002ff57620002ff62000a54565b6020908102919091018101518254600181018455600093845291909220015550806200032b8162000baa565b9150506200021c565b505050505050505050505050565b600181815481106200035357600080fd5b600091825260209091200154905081565b6200036e6200055f565b6200037a6000620005bb565b565b606060006200038b8362000462565b6001600160a01b031603620003e35760405162461bcd60e51b815260206004820152601960248201527814d95cdcda5bdb88125108191bd95cc81b9bdd08195e1a5cdd603a1b60448201526064015b60405180910390fd5b6000620003f08362000462565b9050806001600160a01b031663cc4370086040518163ffffffff1660e01b8152600401600060405180830381865afa15801562000431573d6000803e3d6000fd5b505050506040513d6000823e601f3d908101601f191682016040526200045b919081019062000bd2565b9392505050565b6000818152600260205260408120546001600160a01b0316620004c45760405162461bcd60e51b815260206004820152601960248201527814d95cdcda5bdb88125108191bd95cc81b9bdd08195e1a5cdd603a1b6044820152606401620003da565b506000908152600260205260409020546001600160a01b031690565b620004ea6200055f565b6001600160a01b038116620005515760405162461bcd60e51b815260206004820152602660248201527f4f776e61626c653a206e6577206f776e657220697320746865207a65726f206160448201526564647265737360d01b6064820152608401620003da565b6200055c81620005bb565b50565b6000546001600160a01b031633146200037a5760405162461bcd60e51b815260206004820181905260248201527f4f776e61626c653a2063616c6c6572206973206e6f7420746865206f776e65726044820152606401620003da565b600080546001600160a01b038381166001600160a01b0319831681178455604051919092169283917f8be0079c531659141344cd1fd0a4f28419497f9722a3daafe3b4186f6b6457e09190a35050565b611c898062000c7883390190565b600081518084526020808501945080840160005b838110156200064b578151875295820195908201906001016200062d565b509495945050505050565b6020815260006200045b602083018462000619565b6001600160a01b03811681146200055c57600080fd5b80356200068e816200066b565b919050565b634e487b7160e01b600052604160045260246000fd5b604051601f8201601f1916810167ffffffffffffffff81118282101715620006d557620006d562000693565b604052919050565b600067ffffffffffffffff821115620006fa57620006fa62000693565b5060051b60200190565b600082601f8301126200071657600080fd5b813560206200072f6200072983620006dd565b620006a9565b82815260059290921b840181019181810190868411156200074f57600080fd5b8286015b848110156200076c578035835291830191830162000753565b509695505050505050565b6000601f83818401126200078a57600080fd5b823560206200079d6200072983620006dd565b82815260059290921b85018101918181019087841115620007bd57600080fd5b8287015b848110156200085e57803567ffffffffffffffff80821115620007e45760008081fd5b818a0191508a603f830112620007fa5760008081fd5b8582013560408282111562000813576200081362000693565b62000826828b01601f19168901620006a9565b92508183528c818386010111156200083e5760008081fd5b8181850189850137506000908201870152845250918301918301620007c1565b50979650505050505050565b60008060008060008060008060008060006101608c8e0312156200088d57600080fd5b620008988c62000681565b9a50620008a860208d0162000681565b9950620008b860408d0162000681565b985060608c0135975067ffffffffffffffff8060808e01351115620008dc57600080fd5b620008ee8e60808f01358f0162000704565b97508060a08e013511156200090257600080fd5b620009148e60a08f01358f0162000777565b96508060c08e013511156200092857600080fd5b6200093a8e60c08f01358f0162000704565b95508060e08e013511156200094e57600080fd5b620009608e60e08f01358f0162000704565b94506101008d01359350806101208e013511156200097d57600080fd5b620009908e6101208f01358f0162000704565b9250806101408e01351115620009a557600080fd5b50620009b98d6101408e01358e0162000777565b90509295989b509295989b9093969950565b600060208284031215620009de57600080fd5b5035919050565b6020808252825182820181905260009190848201906040850190845b8181101562000a285783516001600160a01b03168352928401929184019160010162000a01565b50909695505050505050565b60006020828403121562000a4757600080fd5b81356200045b816200066b565b634e487b7160e01b600052603260045260246000fd5b600081518084526020808501808196508360051b810191508286016000805b8681101562000ae5578385038a5282518051808752835b8181101562000abd578281018901518882018a0152880162000aa0565b5086810188018490529a87019a601f01601f1916909501860194509185019160010162000a89565b509298975050505050505050565b6001600160a01b038c811682528b811660208301528a166040820152606081018990526101606080820181905260009062000b318382018b62000619565b905082810360a084015262000b47818a62000a6a565b905082810360c084015262000b5d818962000619565b90508660e08401528561010084015282810361012084015262000b81818662000619565b905082810361014084015262000b98818562000a6a565b9e9d5050505050505050505050505050565b60006001820162000bcb57634e487b7160e01b600052601160045260246000fd5b5060010190565b6000602080838503121562000be657600080fd5b825167ffffffffffffffff81111562000bfe57600080fd5b8301601f8101851362000c1057600080fd5b805162000c216200072982620006dd565b81815260059190911b8201830190838101908783111562000c4157600080fd5b928401925b8284101562000c6c57835162000c5c816200066b565b8252928401929084019062000c46565b97965050505050505056fe60806040523480156200001157600080fd5b5060405162001c8938038062001c898339810160408190526200003491620007fe565b6200003f3362000163565b600380546001600160a01b03808e166001600160a01b031992831617909255600480548d841690831617905560058054928c16929091169190911790558051620000919060069060208401906200050e565b506200011d888588600081518110620000ae57620000ae62000953565b60200260200101518a600081518110620000cc57620000cc62000953565b602002602001015189600081518110620000ea57620000ea62000953565b6020026020010151888760008151811062000109576200010962000953565b6020026020010151620001b360201b60201c565b620001528885888a898888886001815181106200013e576200013e62000953565b6020026020010151620002cf60201b60201c565b505050505050505050505062000c11565b600080546001600160a01b038381166001600160a01b0319831681178455604051919092169283917f8be0079c531659141344cd1fd0a4f28419497f9722a3daafe3b4186f6b6457e09190a35050565b620001bd620004ad565b600354604051633e50e26760e21b81526000916001600160a01b03169063f943899c90620001fc908b908b908b908b908b908b908b9060040162000997565b6020604051808303816000875af11580156200021c573d6000803e3d6000fd5b505050506040513d601f19601f82011682018060405250810190620002429190620009ec565b90508060018760405162000257919062000a11565b90815260405190819003602001902080546001600160a01b03929092166001600160a01b0319909216919091179055600280546001810182556000919091527f405787fa12a823e0f2b7631cc41b3ba8828b3321ca811111fa75cd3aa3bb5ace01620002c4878262000abe565b505050505050505050565b620002d9620004ad565b855160015b81811015620004a15760045488516000916001600160a01b031690635c2d70ce908d908d908d908790811062000318576200031862000953565b60200260200101518c878151811062000335576200033562000953565b60200260200101518c888151811062000352576200035262000953565b60200260200101518c8c8a8151811062000370576200037062000953565b60200260200101518c6040518963ffffffff1660e01b81526004016200039e98979695949392919062000b8a565b6020604051808303816000875af1158015620003be573d6000803e3d6000fd5b505050506040513d601f19601f82011682018060405250810190620003e49190620009ec565b90508060018a8481518110620003fe57620003fe62000953565b602002602001015160405162000415919062000a11565b908152602001604051809103902060006101000a8154816001600160a01b0302191690836001600160a01b0316021790555060028983815181106200045e576200045e62000953565b6020908102919091018101518254600181018455600093845291909220019062000489908262000abe565b50508080620004989062000be9565b915050620002de565b50505050505050505050565b6000546001600160a01b031633146200050c5760405162461bcd60e51b815260206004820181905260248201527f4f776e61626c653a2063616c6c6572206973206e6f7420746865206f776e6572604482015260640160405180910390fd5b565b82805482825590600052602060002090810192821562000559579160200282015b8281111562000559578251829062000548908262000abe565b50916020019190600101906200052f565b50620005679291506200056b565b5090565b80821115620005675760006200058282826200058c565b506001016200056b565b5080546200059a9062000a2f565b6000825580601f10620005ab575050565b601f016020900490600052602060002090810190620005cb9190620005ce565b50565b5b80821115620005675760008155600101620005cf565b80516001600160a01b0381168114620005fd57600080fd5b919050565b634e487b7160e01b600052604160045260246000fd5b604051601f8201601f191681016001600160401b038111828210171562000643576200064362000602565b604052919050565b60006001600160401b0382111562000667576200066762000602565b5060051b60200190565b600082601f8301126200068357600080fd5b815160206200069c62000696836200064b565b62000618565b82815260059290921b84018101918181019086841115620006bc57600080fd5b8286015b84811015620006d95780518352918301918301620006c0565b509695505050505050565b60005b8381101562000701578181015183820152602001620006e7565b50506000910152565b6000601f83818401126200071d57600080fd5b825160206200073062000696836200064b565b82815260059290921b850181019181810190878411156200075057600080fd5b8287015b84811015620007f25780516001600160401b0380821115620007765760008081fd5b818a0191508a603f8301126200078c5760008081fd5b85820151604082821115620007a557620007a562000602565b620007b8828b01601f1916890162000618565b92508183528c81838601011115620007d05760008081fd5b620007e182898501838701620006e4565b505084525091830191830162000754565b50979650505050505050565b60008060008060008060008060008060006101608c8e0312156200082157600080fd5b6200082c8c620005e5565b9a506200083c60208d01620005e5565b99506200084c60408d01620005e5565b60608d015160808e0151919a5098506001600160401b038111156200087057600080fd5b6200087e8e828f0162000671565b60a08e015190985090506001600160401b038111156200089d57600080fd5b620008ab8e828f016200070a565b60c08e015190975090506001600160401b03811115620008ca57600080fd5b620008d88e828f0162000671565b95505060e08c015193506101008c015192506101208c015160018060401b038111156200090457600080fd5b620009128e828f0162000671565b6101408e015190935090506001600160401b038111156200093257600080fd5b620009408e828f016200070a565b9150509295989b509295989b9093969950565b634e487b7160e01b600052603260045260246000fd5b6000815180845262000983816020860160208601620006e4565b601f01601f19169290920160200192915050565b87815286602082015260e060408201526000620009b860e083018862000969565b8660608401528560808401528460a084015282810360c0840152620009de818562000969565b9a9950505050505050505050565b600060208284031215620009ff57600080fd5b62000a0a82620005e5565b9392505050565b6000825162000a25818460208701620006e4565b9190910192915050565b600181811c9082168062000a4457607f821691505b60208210810362000a6557634e487b7160e01b600052602260045260246000fd5b50919050565b601f82111562000ab957600081815260208120601f850160051c8101602086101562000a945750805b601f850160051c820191505b8181101562000ab55782815560010162000aa0565b5050505b505050565b81516001600160401b0381111562000ada5762000ada62000602565b62000af28162000aeb845462000a2f565b8462000a6b565b602080601f83116001811462000b2a576000841562000b115750858301515b600019600386901b1c1916600185901b17855562000ab5565b600085815260208120601f198616915b8281101562000b5b5788860151825594840194600190910190840162000b3a565b508582101562000b7a5787850151600019600388901b60f8161c191681555b5050505050600190811b01905550565b60006101008a835289602084015280604084015262000bac8184018a62000969565b90508760608401528660808401528560a08401528460c084015282810360e084015262000bda818562000969565b9b9a5050505050505050505050565b60006001820162000c0a57634e487b7160e01b600052601160045260246000fd5b5060010190565b6110688062000c216000396000f3fe608060405234801561001057600080fd5b50600436106100a95760003560e01c80637580916b116100715780637580916b14610130578063849db6bf146101645780638da5cb5b146101775780639648c9f414610188578063cc4370081461019f578063f2fde38b146101b457600080fd5b8063183a471c146100ae578063290f3094146100de57806335603440146100f357806348a4f2e914610113578063715018a614610128575b600080fd5b6100c16100bc366004610924565b6101c7565b6040516001600160a01b0390911681526020015b60405180910390f35b6100f16100ec366004610961565b6101f8565b005b6101066101013660046109f5565b610309565b6040516100d59190610a5e565b61011b6103b5565b6040516100d59190610a78565b6100f161048e565b6100c161013e366004610924565b80516020818301810180516001825292820191909301209152546001600160a01b031681565b6100f1610172366004610be9565b6104a2565b6000546001600160a01b03166100c1565b61019160075481565b6040519081526020016100d5565b6101a761065f565b6040516100d59190610cd8565b6100f16101c2366004610d3a565b610745565b60006001826040516101d99190610d57565b908152604051908190036020019020546001600160a01b031692915050565b6102006107c3565b600354604051633e50e26760e21b81526000916001600160a01b03169063f943899c9061023d908b908b908b908b908b908b908b90600401610d73565b6020604051808303816000875af115801561025c573d6000803e3d6000fd5b505050506040513d601f19601f820116820180604052508101906102809190610dc4565b9050806001876040516102939190610d57565b90815260405190819003602001902080546001600160a01b03929092166001600160a01b0319909216919091179055600280546001810182556000919091527f405787fa12a823e0f2b7631cc41b3ba8828b3321ca811111fa75cd3aa3bb5ace016102fe8782610e64565b505050505050505050565b6002818154811061031957600080fd5b90600052602060002001600091509050805461033490610de1565b80601f016020809104026020016040519081016040528092919081815260200182805461036090610de1565b80156103ad5780601f10610382576101008083540402835291602001916103ad565b820191906000526020600020905b81548152906001019060200180831161039057829003601f168201915b505050505081565b60606002805480602002602001604051908101604052809291908181526020016000905b828210156104855783829060005260206000200180546103f890610de1565b80601f016020809104026020016040519081016040528092919081815260200182805461042490610de1565b80156104715780601f1061044657610100808354040283529160200191610471565b820191906000526020600020905b81548152906001019060200180831161045457829003601f168201915b5050505050815260200190600101906103d9565b50505050905090565b6104966107c3565b6104a0600061081d565b565b6104aa6107c3565b855160015b818110156106535760045488516000916001600160a01b031690635c2d70ce908d908d908d90879081106104e5576104e5610f24565b60200260200101518c87815181106104ff576104ff610f24565b60200260200101518c888151811061051957610519610f24565b60200260200101518c8c8a8151811061053457610534610f24565b60200260200101518c6040518963ffffffff1660e01b8152600401610560989796959493929190610f3a565b6020604051808303816000875af115801561057f573d6000803e3d6000fd5b505050506040513d601f19601f820116820180604052508101906105a39190610dc4565b90508060018a84815181106105ba576105ba610f24565b60200260200101516040516105cf9190610d57565b908152602001604051809103902060006101000a8154816001600160a01b0302191690836001600160a01b03160217905550600289838151811061061557610615610f24565b6020908102919091018101518254600181018455600093845291909220019061063e9082610e64565b5050808061064b90610f95565b9150506104af565b50505050505050505050565b60025460609060009067ffffffffffffffff8111156106805761068061086d565b6040519080825280602002602001820160405280156106a9578160200160208202803683370190505b50905060005b60025481101561073f576001600282815481106106ce576106ce610f24565b906000526020600020016040516106e59190610fbc565b9081526040519081900360200190205482516001600160a01b039091169083908390811061071557610715610f24565b6001600160a01b03909216602092830291909101909101528061073781610f95565b9150506106af565b50919050565b61074d6107c3565b6001600160a01b0381166107b75760405162461bcd60e51b815260206004820152602660248201527f4f776e61626c653a206e6577206f776e657220697320746865207a65726f206160448201526564647265737360d01b60648201526084015b60405180910390fd5b6107c08161081d565b50565b6000546001600160a01b031633146104a05760405162461bcd60e51b815260206004820181905260248201527f4f776e61626c653a2063616c6c6572206973206e6f7420746865206f776e657260448201526064016107ae565b600080546001600160a01b038381166001600160a01b0319831681178455604051919092169283917f8be0079c531659141344cd1fd0a4f28419497f9722a3daafe3b4186f6b6457e09190a35050565b634e487b7160e01b600052604160045260246000fd5b604051601f8201601f1916810167ffffffffffffffff811182821017156108ac576108ac61086d565b604052919050565b600082601f8301126108c557600080fd5b813567ffffffffffffffff8111156108df576108df61086d565b6108f2601f8201601f1916602001610883565b81815284602083860101111561090757600080fd5b816020850160208301376000918101602001919091529392505050565b60006020828403121561093657600080fd5b813567ffffffffffffffff81111561094d57600080fd5b610959848285016108b4565b949350505050565b600080600080600080600060e0888a03121561097c57600080fd5b8735965060208801359550604088013567ffffffffffffffff808211156109a257600080fd5b6109ae8b838c016108b4565b965060608a0135955060808a0135945060a08a0135935060c08a01359150808211156109d957600080fd5b506109e68a828b016108b4565b91505092959891949750929550565b600060208284031215610a0757600080fd5b5035919050565b60005b83811015610a29578181015183820152602001610a11565b50506000910152565b60008151808452610a4a816020860160208601610a0e565b601f01601f19169290920160200192915050565b602081526000610a716020830184610a32565b9392505050565b6000602080830181845280855180835260408601915060408160051b870101925083870160005b82811015610acd57603f19888603018452610abb858351610a32565b94509285019290850190600101610a9f565b5092979650505050505050565b600067ffffffffffffffff821115610af457610af461086d565b5060051b60200190565b600082601f830112610b0f57600080fd5b81356020610b24610b1f83610ada565b610883565b82815260059290921b84018101918181019086841115610b4357600080fd5b8286015b84811015610b8357803567ffffffffffffffff811115610b675760008081fd5b610b758986838b01016108b4565b845250918301918301610b47565b509695505050505050565b600082601f830112610b9f57600080fd5b81356020610baf610b1f83610ada565b82815260059290921b84018101918181019086841115610bce57600080fd5b8286015b84811015610b835780358352918301918301610bd2565b600080600080600080600080610100898b031215610c0657600080fd5b8835975060208901359650604089013567ffffffffffffffff80821115610c2c57600080fd5b610c388c838d01610afe565b975060608b0135915080821115610c4e57600080fd5b610c5a8c838d01610b8e565b965060808b0135915080821115610c7057600080fd5b610c7c8c838d01610b8e565b955060a08b0135945060c08b0135915080821115610c9957600080fd5b610ca58c838d01610b8e565b935060e08b0135915080821115610cbb57600080fd5b50610cc88b828c016108b4565b9150509295985092959890939650565b6020808252825182820181905260009190848201906040850190845b81811015610d195783516001600160a01b031683529284019291840191600101610cf4565b50909695505050505050565b6001600160a01b03811681146107c057600080fd5b600060208284031215610d4c57600080fd5b8135610a7181610d25565b60008251610d69818460208701610a0e565b9190910192915050565b87815286602082015260e060408201526000610d9260e0830188610a32565b8660608401528560808401528460a084015282810360c0840152610db68185610a32565b9a9950505050505050505050565b600060208284031215610dd657600080fd5b8151610a7181610d25565b600181811c90821680610df557607f821691505b60208210810361073f57634e487b7160e01b600052602260045260246000fd5b601f821115610e5f57600081815260208120601f850160051c81016020861015610e3c5750805b601f850160051c820191505b81811015610e5b57828155600101610e48565b5050505b505050565b815167ffffffffffffffff811115610e7e57610e7e61086d565b610e9281610e8c8454610de1565b84610e15565b602080601f831160018114610ec75760008415610eaf5750858301515b600019600386901b1c1916600185901b178555610e5b565b600085815260208120601f198616915b82811015610ef657888601518255948401946001909101908401610ed7565b5085821015610f145787850151600019600388901b60f8161c191681555b5050505050600190811b01905550565b634e487b7160e01b600052603260045260246000fd5b60006101008a8352896020840152806040840152610f5a8184018a610a32565b90508760608401528660808401528560a08401528460c084015282810360e0840152610f868185610a32565b9b9a5050505050505050505050565b600060018201610fb557634e487b7160e01b600052601160045260246000fd5b5060010190565b6000808354610fca81610de1565b60018281168015610fe25760018114610ff757611026565b60ff1984168752821515830287019450611026565b8760005260208060002060005b8581101561101d5781548a820152908401908201611004565b50505082870194505b5092969550505050505056fea264697066735822122091b18f380ee8d435adc514165603a5a0107c191ef4fc7096c277975072b0e50c64736f6c63430008130033a264697066735822122027099627ab16fb8ab42fda6caa3e8ee529b160b71ec24aea8f02c9703b72740564736f6c6343000813003360806040523480156200001157600080fd5b5060405162001c8938038062001c898339810160408190526200003491620007fe565b6200003f3362000163565b600380546001600160a01b03808e166001600160a01b031992831617909255600480548d841690831617905560058054928c16929091169190911790558051620000919060069060208401906200050e565b506200011d888588600081518110620000ae57620000ae62000953565b60200260200101518a600081518110620000cc57620000cc62000953565b602002602001015189600081518110620000ea57620000ea62000953565b6020026020010151888760008151811062000109576200010962000953565b6020026020010151620001b360201b60201c565b620001528885888a898888886001815181106200013e576200013e62000953565b6020026020010151620002cf60201b60201c565b505050505050505050505062000c11565b600080546001600160a01b038381166001600160a01b0319831681178455604051919092169283917f8be0079c531659141344cd1fd0a4f28419497f9722a3daafe3b4186f6b6457e09190a35050565b620001bd620004ad565b600354604051633e50e26760e21b81526000916001600160a01b03169063f943899c90620001fc908b908b908b908b908b908b908b9060040162000997565b6020604051808303816000875af11580156200021c573d6000803e3d6000fd5b505050506040513d601f19601f82011682018060405250810190620002429190620009ec565b90508060018760405162000257919062000a11565b90815260405190819003602001902080546001600160a01b03929092166001600160a01b0319909216919091179055600280546001810182556000919091527f405787fa12a823e0f2b7631cc41b3ba8828b3321ca811111fa75cd3aa3bb5ace01620002c4878262000abe565b505050505050505050565b620002d9620004ad565b855160015b81811015620004a15760045488516000916001600160a01b031690635c2d70ce908d908d908d908790811062000318576200031862000953565b60200260200101518c878151811062000335576200033562000953565b60200260200101518c888151811062000352576200035262000953565b60200260200101518c8c8a8151811062000370576200037062000953565b60200260200101518c6040518963ffffffff1660e01b81526004016200039e98979695949392919062000b8a565b6020604051808303816000875af1158015620003be573d6000803e3d6000fd5b505050506040513d601f19601f82011682018060405250810190620003e49190620009ec565b90508060018a8481518110620003fe57620003fe62000953565b602002602001015160405162000415919062000a11565b908152602001604051809103902060006101000a8154816001600160a01b0302191690836001600160a01b0316021790555060028983815181106200045e576200045e62000953565b6020908102919091018101518254600181018455600093845291909220019062000489908262000abe565b50508080620004989062000be9565b915050620002de565b50505050505050505050565b6000546001600160a01b031633146200050c5760405162461bcd60e51b815260206004820181905260248201527f4f776e61626c653a2063616c6c6572206973206e6f7420746865206f776e6572604482015260640160405180910390fd5b565b82805482825590600052602060002090810192821562000559579160200282015b8281111562000559578251829062000548908262000abe565b50916020019190600101906200052f565b50620005679291506200056b565b5090565b80821115620005675760006200058282826200058c565b506001016200056b565b5080546200059a9062000a2f565b6000825580601f10620005ab575050565b601f016020900490600052602060002090810190620005cb9190620005ce565b50565b5b80821115620005675760008155600101620005cf565b80516001600160a01b0381168114620005fd57600080fd5b919050565b634e487b7160e01b600052604160045260246000fd5b604051601f8201601f191681016001600160401b038111828210171562000643576200064362000602565b604052919050565b60006001600160401b0382111562000667576200066762000602565b5060051b60200190565b600082601f8301126200068357600080fd5b815160206200069c62000696836200064b565b62000618565b82815260059290921b84018101918181019086841115620006bc57600080fd5b8286015b84811015620006d95780518352918301918301620006c0565b509695505050505050565b60005b8381101562000701578181015183820152602001620006e7565b50506000910152565b6000601f83818401126200071d57600080fd5b825160206200073062000696836200064b565b82815260059290921b850181019181810190878411156200075057600080fd5b8287015b84811015620007f25780516001600160401b0380821115620007765760008081fd5b818a0191508a603f8301126200078c5760008081fd5b85820151604082821115620007a557620007a562000602565b620007b8828b01601f1916890162000618565b92508183528c81838601011115620007d05760008081fd5b620007e182898501838701620006e4565b505084525091830191830162000754565b50979650505050505050565b60008060008060008060008060008060006101608c8e0312156200082157600080fd5b6200082c8c620005e5565b9a506200083c60208d01620005e5565b99506200084c60408d01620005e5565b60608d015160808e0151919a5098506001600160401b038111156200087057600080fd5b6200087e8e828f0162000671565b60a08e015190985090506001600160401b038111156200089d57600080fd5b620008ab8e828f016200070a565b60c08e015190975090506001600160401b03811115620008ca57600080fd5b620008d88e828f0162000671565b95505060e08c015193506101008c015192506101208c015160018060401b038111156200090457600080fd5b620009128e828f0162000671565b6101408e015190935090506001600160401b038111156200093257600080fd5b620009408e828f016200070a565b9150509295989b509295989b9093969950565b634e487b7160e01b600052603260045260246000fd5b6000815180845262000983816020860160208601620006e4565b601f01601f19169290920160200192915050565b87815286602082015260e060408201526000620009b860e083018862000969565b8660608401528560808401528460a084015282810360c0840152620009de818562000969565b9a9950505050505050505050565b600060208284031215620009ff57600080fd5b62000a0a82620005e5565b9392505050565b6000825162000a25818460208701620006e4565b9190910192915050565b600181811c9082168062000a4457607f821691505b60208210810362000a6557634e487b7160e01b600052602260045260246000fd5b50919050565b601f82111562000ab957600081815260208120601f850160051c8101602086101562000a945750805b601f850160051c820191505b8181101562000ab55782815560010162000aa0565b5050505b505050565b81516001600160401b0381111562000ada5762000ada62000602565b62000af28162000aeb845462000a2f565b8462000a6b565b602080601f83116001811462000b2a576000841562000b115750858301515b600019600386901b1c1916600185901b17855562000ab5565b600085815260208120601f198616915b8281101562000b5b5788860151825594840194600190910190840162000b3a565b508582101562000b7a5787850151600019600388901b60f8161c191681555b5050505050600190811b01905550565b60006101008a835289602084015280604084015262000bac8184018a62000969565b90508760608401528660808401528560a08401528460c084015282810360e084015262000bda818562000969565b9b9a5050505050505050505050565b60006001820162000c0a57634e487b7160e01b600052601160045260246000fd5b5060010190565b6110688062000c216000396000f3fe608060405234801561001057600080fd5b50600436106100a95760003560e01c80637580916b116100715780637580916b14610130578063849db6bf146101645780638da5cb5b146101775780639648c9f414610188578063cc4370081461019f578063f2fde38b146101b457600080fd5b8063183a471c146100ae578063290f3094146100de57806335603440146100f357806348a4f2e914610113578063715018a614610128575b600080fd5b6100c16100bc366004610924565b6101c7565b6040516001600160a01b0390911681526020015b60405180910390f35b6100f16100ec366004610961565b6101f8565b005b6101066101013660046109f5565b610309565b6040516100d59190610a5e565b61011b6103b5565b6040516100d59190610a78565b6100f161048e565b6100c161013e366004610924565b80516020818301810180516001825292820191909301209152546001600160a01b031681565b6100f1610172366004610be9565b6104a2565b6000546001600160a01b03166100c1565b61019160075481565b6040519081526020016100d5565b6101a761065f565b6040516100d59190610cd8565b6100f16101c2366004610d3a565b610745565b60006001826040516101d99190610d57565b908152604051908190036020019020546001600160a01b031692915050565b6102006107c3565b600354604051633e50e26760e21b81526000916001600160a01b03169063f943899c9061023d908b908b908b908b908b908b908b90600401610d73565b6020604051808303816000875af115801561025c573d6000803e3d6000fd5b505050506040513d601f19601f820116820180604052508101906102809190610dc4565b9050806001876040516102939190610d57565b90815260405190819003602001902080546001600160a01b03929092166001600160a01b0319909216919091179055600280546001810182556000919091527f405787fa12a823e0f2b7631cc41b3ba8828b3321ca811111fa75cd3aa3bb5ace016102fe8782610e64565b505050505050505050565b6002818154811061031957600080fd5b90600052602060002001600091509050805461033490610de1565b80601f016020809104026020016040519081016040528092919081815260200182805461036090610de1565b80156103ad5780601f10610382576101008083540402835291602001916103ad565b820191906000526020600020905b81548152906001019060200180831161039057829003601f168201915b505050505081565b60606002805480602002602001604051908101604052809291908181526020016000905b828210156104855783829060005260206000200180546103f890610de1565b80601f016020809104026020016040519081016040528092919081815260200182805461042490610de1565b80156104715780601f1061044657610100808354040283529160200191610471565b820191906000526020600020905b81548152906001019060200180831161045457829003601f168201915b5050505050815260200190600101906103d9565b50505050905090565b6104966107c3565b6104a0600061081d565b565b6104aa6107c3565b855160015b818110156106535760045488516000916001600160a01b031690635c2d70ce908d908d908d90879081106104e5576104e5610f24565b60200260200101518c87815181106104ff576104ff610f24565b60200260200101518c888151811061051957610519610f24565b60200260200101518c8c8a8151811061053457610534610f24565b60200260200101518c6040518963ffffffff1660e01b8152600401610560989796959493929190610f3a565b6020604051808303816000875af115801561057f573d6000803e3d6000fd5b505050506040513d601f19601f820116820180604052508101906105a39190610dc4565b90508060018a84815181106105ba576105ba610f24565b60200260200101516040516105cf9190610d57565b908152602001604051809103902060006101000a8154816001600160a01b0302191690836001600160a01b03160217905550600289838151811061061557610615610f24565b6020908102919091018101518254600181018455600093845291909220019061063e9082610e64565b5050808061064b90610f95565b9150506104af565b50505050505050505050565b60025460609060009067ffffffffffffffff8111156106805761068061086d565b6040519080825280602002602001820160405280156106a9578160200160208202803683370190505b50905060005b60025481101561073f576001600282815481106106ce576106ce610f24565b906000526020600020016040516106e59190610fbc565b9081526040519081900360200190205482516001600160a01b039091169083908390811061071557610715610f24565b6001600160a01b03909216602092830291909101909101528061073781610f95565b9150506106af565b50919050565b61074d6107c3565b6001600160a01b0381166107b75760405162461bcd60e51b815260206004820152602660248201527f4f776e61626c653a206e6577206f776e657220697320746865207a65726f206160448201526564647265737360d01b60648201526084015b60405180910390fd5b6107c08161081d565b50565b6000546001600160a01b031633146104a05760405162461bcd60e51b815260206004820181905260248201527f4f776e61626c653a2063616c6c6572206973206e6f7420746865206f776e657260448201526064016107ae565b600080546001600160a01b038381166001600160a01b0319831681178455604051919092169283917f8be0079c531659141344cd1fd0a4f28419497f9722a3daafe3b4186f6b6457e09190a35050565b634e487b7160e01b600052604160045260246000fd5b604051601f8201601f1916810167ffffffffffffffff811182821017156108ac576108ac61086d565b604052919050565b600082601f8301126108c557600080fd5b813567ffffffffffffffff8111156108df576108df61086d565b6108f2601f8201601f1916602001610883565b81815284602083860101111561090757600080fd5b816020850160208301376000918101602001919091529392505050565b60006020828403121561093657600080fd5b813567ffffffffffffffff81111561094d57600080fd5b610959848285016108b4565b949350505050565b600080600080600080600060e0888a03121561097c57600080fd5b8735965060208801359550604088013567ffffffffffffffff808211156109a257600080fd5b6109ae8b838c016108b4565b965060608a0135955060808a0135945060a08a0135935060c08a01359150808211156109d957600080fd5b506109e68a828b016108b4565b91505092959891949750929550565b600060208284031215610a0757600080fd5b5035919050565b60005b83811015610a29578181015183820152602001610a11565b50506000910152565b60008151808452610a4a816020860160208601610a0e565b601f01601f19169290920160200192915050565b602081526000610a716020830184610a32565b9392505050565b6000602080830181845280855180835260408601915060408160051b870101925083870160005b82811015610acd57603f19888603018452610abb858351610a32565b94509285019290850190600101610a9f565b5092979650505050505050565b600067ffffffffffffffff821115610af457610af461086d565b5060051b60200190565b600082601f830112610b0f57600080fd5b81356020610b24610b1f83610ada565b610883565b82815260059290921b84018101918181019086841115610b4357600080fd5b8286015b84811015610b8357803567ffffffffffffffff811115610b675760008081fd5b610b758986838b01016108b4565b845250918301918301610b47565b509695505050505050565b600082601f830112610b9f57600080fd5b81356020610baf610b1f83610ada565b82815260059290921b84018101918181019086841115610bce57600080fd5b8286015b84811015610b835780358352918301918301610bd2565b600080600080600080600080610100898b031215610c0657600080fd5b8835975060208901359650604089013567ffffffffffffffff80821115610c2c57600080fd5b610c388c838d01610afe565b975060608b0135915080821115610c4e57600080fd5b610c5a8c838d01610b8e565b965060808b0135915080821115610c7057600080fd5b610c7c8c838d01610b8e565b955060a08b0135945060c08b0135915080821115610c9957600080fd5b610ca58c838d01610b8e565b935060e08b0135915080821115610cbb57600080fd5b50610cc88b828c016108b4565b9150509295985092959890939650565b6020808252825182820181905260009190848201906040850190845b81811015610d195783516001600160a01b031683529284019291840191600101610cf4565b50909695505050505050565b6001600160a01b03811681146107c057600080fd5b600060208284031215610d4c57600080fd5b8135610a7181610d25565b60008251610d69818460208701610a0e565b9190910192915050565b87815286602082015260e060408201526000610d9260e0830188610a32565b8660608401528560808401528460a084015282810360c0840152610db68185610a32565b9a9950505050505050505050565b600060208284031215610dd657600080fd5b8151610a7181610d25565b600181811c90821680610df557607f821691505b60208210810361073f57634e487b7160e01b600052602260045260246000fd5b601f821115610e5f57600081815260208120601f850160051c81016020861015610e3c5750805b601f850160051c820191505b81811015610e5b57828155600101610e48565b5050505b505050565b815167ffffffffffffffff811115610e7e57610e7e61086d565b610e9281610e8c8454610de1565b84610e15565b602080601f831160018114610ec75760008415610eaf5750858301515b600019600386901b1c1916600185901b178555610e5b565b600085815260208120601f198616915b82811015610ef657888601518255948401946001909101908401610ed7565b5085821015610f145787850151600019600388901b60f8161c191681555b5050505050600190811b01905550565b634e487b7160e01b600052603260045260246000fd5b60006101008a8352896020840152806040840152610f5a8184018a610a32565b90508760608401528660808401528560a08401528460c084015282810360e0840152610f868185610a32565b9b9a5050505050505050505050565b600060018201610fb557634e487b7160e01b600052601160045260246000fd5b5060010190565b6000808354610fca81610de1565b60018281168015610fe25760018114610ff757611026565b60ff1984168752821515830287019450611026565b8760005260208060002060005b8581101561101d5781548a820152908401908201611004565b50505082870194505b5092969550505050505056fea264697066735822122091b18f380ee8d435adc514165603a5a0107c191ef4fc7096c277975072b0e50c64736f6c63430008130033","opcodes":"PUSH1 0x80 PUSH1 0x40 MSTORE CALLVALUE DUP1 ISZERO PUSH3 0x11 JUMPI PUSH1 0x0 DUP1 REVERT JUMPDEST POP PUSH1 0x40 MLOAD PUSH3 0x5069 CODESIZE SUB DUP1 PUSH3 0x5069 DUP4 CODECOPY DUP2 ADD PUSH1 0x40 DUP2 SWAP1 MSTORE PUSH3 0x34 SWAP2 PUSH3 0x626 JUMP JUMPDEST PUSH3 0x3F CALLER PUSH3 0xF8 JUMP JUMPDEST PUSH1 0x3 DUP10 SWAP1 SSTORE PUSH1 0x4 DUP9 SWAP1 SSTORE DUP5 MLOAD PUSH3 0x5E SWAP1 PUSH1 0x6 SWAP1 PUSH1 0x20 DUP9 ADD SWAP1 PUSH3 0x2DC JUMP JUMPDEST POP DUP6 MLOAD PUSH3 0x74 SWAP1 PUSH1 0x7 SWAP1 PUSH1 0x20 DUP10 ADD SWAP1 PUSH3 0x32C JUMP JUMPDEST POP DUP7 MLOAD PUSH3 0x8A SWAP1 PUSH1 0x8 SWAP1 PUSH1 0x20 DUP11 ADD SWAP1 PUSH3 0x2DC JUMP JUMPDEST POP DUP4 MLOAD PUSH3 0xA0 SWAP1 PUSH1 0x9 SWAP1 PUSH1 0x20 DUP8 ADD SWAP1 PUSH3 0x2DC JUMP JUMPDEST POP PUSH1 0xA DUP4 SWAP1 SSTORE DUP2 MLOAD PUSH3 0xBB SWAP1 PUSH1 0xB SWAP1 PUSH1 0x20 DUP6 ADD SWAP1 PUSH3 0x2DC JUMP JUMPDEST POP DUP1 MLOAD PUSH3 0xD1 SWAP1 PUSH1 0x5 SWAP1 PUSH1 0x20 DUP5 ADD SWAP1 PUSH3 0x32C JUMP JUMPDEST POP PUSH3 0xE7 DUP12 DUP12 ADDRESS DUP13 DUP10 DUP12 DUP11 DUP15 DUP12 DUP12 DUP12 PUSH3 0x148 JUMP JUMPDEST POP POP POP POP POP POP POP POP POP POP POP PUSH3 0xA9A JUMP JUMPDEST PUSH1 0x0 DUP1 SLOAD PUSH1 0x1 PUSH1 0x1 PUSH1 0xA0 SHL SUB DUP4 DUP2 AND PUSH1 0x1 PUSH1 0x1 PUSH1 0xA0 SHL SUB NOT DUP4 AND DUP2 OR DUP5 SSTORE PUSH1 0x40 MLOAD SWAP2 SWAP1 SWAP3 AND SWAP3 DUP4 SWAP2 PUSH32 0x8BE0079C531659141344CD1FD0A4F28419497F9722A3DAAFE3B4186F6B6457E0 SWAP2 SWAP1 LOG3 POP POP JUMP JUMPDEST PUSH3 0x152 PUSH3 0x27B JUMP JUMPDEST PUSH1 0x0 JUMPDEST PUSH1 0x4 SLOAD DUP2 LT ISZERO PUSH3 0x26D JUMPI PUSH1 0x0 DUP13 DUP13 DUP13 DUP13 DUP13 DUP13 DUP13 DUP13 DUP10 DUP2 MLOAD DUP2 LT PUSH3 0x17E JUMPI PUSH3 0x17E PUSH3 0x79C JUMP JUMPDEST PUSH1 0x20 MUL PUSH1 0x20 ADD ADD MLOAD DUP13 DUP13 DUP13 PUSH1 0x40 MLOAD PUSH3 0x197 SWAP1 PUSH3 0x385 JUMP JUMPDEST PUSH3 0x1AD SWAP12 SWAP11 SWAP10 SWAP9 SWAP8 SWAP7 SWAP6 SWAP5 SWAP4 SWAP3 SWAP2 SWAP1 PUSH3 0x860 JUMP JUMPDEST PUSH1 0x40 MLOAD DUP1 SWAP2 SUB SWAP1 PUSH1 0x0 CREATE DUP1 ISZERO DUP1 ISZERO PUSH3 0x1CA JUMPI RETURNDATASIZE PUSH1 0x0 DUP1 RETURNDATACOPY RETURNDATASIZE PUSH1 0x0 REVERT JUMPDEST POP SWAP1 POP DUP1 PUSH1 0x2 PUSH1 0x0 DUP9 DUP6 DUP2 MLOAD DUP2 LT PUSH3 0x1E7 JUMPI PUSH3 0x1E7 PUSH3 0x79C JUMP JUMPDEST PUSH1 0x20 MUL PUSH1 0x20 ADD ADD MLOAD DUP2 MSTORE PUSH1 0x20 ADD SWAP1 DUP2 MSTORE PUSH1 0x20 ADD PUSH1 0x0 KECCAK256 PUSH1 0x0 PUSH2 0x100 EXP DUP2 SLOAD DUP2 PUSH1 0x1 PUSH1 0x1 PUSH1 0xA0 SHL SUB MUL NOT AND SWAP1 DUP4 PUSH1 0x1 PUSH1 0x1 PUSH1 0xA0 SHL SUB AND MUL OR SWAP1 SSTORE POP PUSH1 0x1 DUP7 DUP4 DUP2 MLOAD DUP2 LT PUSH3 0x238 JUMPI PUSH3 0x238 PUSH3 0x79C JUMP JUMPDEST PUSH1 0x20 SWAP1 DUP2 MUL SWAP2 SWAP1 SWAP2 ADD DUP2 ADD MLOAD DUP3 SLOAD PUSH1 0x1 DUP2 ADD DUP5 SSTORE PUSH1 0x0 SWAP4 DUP5 MSTORE SWAP2 SWAP1 SWAP3 KECCAK256 ADD SSTORE POP DUP1 PUSH3 0x264 DUP2 PUSH3 0x917 JUMP JUMPDEST SWAP2 POP POP PUSH3 0x155 JUMP JUMPDEST POP POP POP POP POP POP POP POP POP POP POP POP JUMP JUMPDEST PUSH1 0x0 SLOAD PUSH1 0x1 PUSH1 0x1 PUSH1 0xA0 SHL SUB AND CALLER EQ PUSH3 0x2DA JUMPI PUSH1 0x40 MLOAD PUSH3 0x461BCD PUSH1 0xE5 SHL DUP2 MSTORE PUSH1 0x20 PUSH1 0x4 DUP3 ADD DUP2 SWAP1 MSTORE PUSH1 0x24 DUP3 ADD MSTORE PUSH32 0x4F776E61626C653A2063616C6C6572206973206E6F7420746865206F776E6572 PUSH1 0x44 DUP3 ADD MSTORE PUSH1 0x64 ADD PUSH1 0x40 MLOAD DUP1 SWAP2 SUB SWAP1 REVERT JUMPDEST JUMP JUMPDEST DUP3 DUP1 SLOAD DUP3 DUP3 SSTORE SWAP1 PUSH1 0x0 MSTORE PUSH1 0x20 PUSH1 0x0 KECCAK256 SWAP1 DUP2 ADD SWAP3 DUP3 ISZERO PUSH3 0x31A JUMPI SWAP2 PUSH1 0x20 MUL DUP3 ADD JUMPDEST DUP3 DUP2 GT ISZERO PUSH3 0x31A JUMPI DUP3 MLOAD DUP3 SSTORE SWAP2 PUSH1 0x20 ADD SWAP2 SWAP1 PUSH1 0x1 ADD SWAP1 PUSH3 0x2FD JUMP JUMPDEST POP PUSH3 0x328 SWAP3 SWAP2 POP PUSH3 0x393 JUMP JUMPDEST POP SWAP1 JUMP JUMPDEST DUP3 DUP1 SLOAD DUP3 DUP3 SSTORE SWAP1 PUSH1 0x0 MSTORE PUSH1 0x20 PUSH1 0x0 KECCAK256 SWAP1 DUP2 ADD SWAP3 DUP3 ISZERO PUSH3 0x377 JUMPI SWAP2 PUSH1 0x20 MUL DUP3 ADD JUMPDEST DUP3 DUP2 GT ISZERO PUSH3 0x377 JUMPI DUP3 MLOAD DUP3 SWAP1 PUSH3 0x366 SWAP1 DUP3 PUSH3 0x9CE JUMP JUMPDEST POP SWAP2 PUSH1 0x20 ADD SWAP2 SWAP1 PUSH1 0x1 ADD SWAP1 PUSH3 0x34D JUMP JUMPDEST POP PUSH3 0x328 SWAP3 SWAP2 POP PUSH3 0x3AA JUMP JUMPDEST PUSH2 0x1C89 DUP1 PUSH3 0x33E0 DUP4 CODECOPY ADD SWAP1 JUMP JUMPDEST JUMPDEST DUP1 DUP3 GT ISZERO PUSH3 0x328 JUMPI PUSH1 0x0 DUP2 SSTORE PUSH1 0x1 ADD PUSH3 0x394 JUMP JUMPDEST DUP1 DUP3 GT ISZERO PUSH3 0x328 JUMPI PUSH1 0x0 PUSH3 0x3C1 DUP3 DUP3 PUSH3 0x3CB JUMP JUMPDEST POP PUSH1 0x1 ADD PUSH3 0x3AA JUMP JUMPDEST POP DUP1 SLOAD PUSH3 0x3D9 SWAP1 PUSH3 0x93F JUMP JUMPDEST PUSH1 0x0 DUP3 SSTORE DUP1 PUSH1 0x1F LT PUSH3 0x3EA JUMPI POP POP JUMP JUMPDEST PUSH1 0x1F ADD PUSH1 0x20 SWAP1 DIV SWAP1 PUSH1 0x0 MSTORE PUSH1 0x20 PUSH1 0x0 KECCAK256 SWAP1 DUP2 ADD SWAP1 PUSH3 0x40A SWAP2 SWAP1 PUSH3 0x393 JUMP JUMPDEST POP JUMP JUMPDEST DUP1 MLOAD PUSH1 0x1 PUSH1 0x1 PUSH1 0xA0 SHL SUB DUP2 AND DUP2 EQ PUSH3 0x425 JUMPI PUSH1 0x0 DUP1 REVERT JUMPDEST SWAP2 SWAP1 POP JUMP JUMPDEST PUSH4 0x4E487B71 PUSH1 0xE0 SHL PUSH1 0x0 MSTORE PUSH1 0x41 PUSH1 0x4 MSTORE PUSH1 0x24 PUSH1 0x0 REVERT JUMPDEST PUSH1 0x40 MLOAD PUSH1 0x1F DUP3 ADD PUSH1 0x1F NOT AND DUP2 ADD PUSH1 0x1 PUSH1 0x1 PUSH1 0x40 SHL SUB DUP2 GT DUP3 DUP3 LT OR ISZERO PUSH3 0x46B JUMPI PUSH3 0x46B PUSH3 0x42A JUMP JUMPDEST PUSH1 0x40 MSTORE SWAP2 SWAP1 POP JUMP JUMPDEST PUSH1 0x0 PUSH1 0x1 PUSH1 0x1 PUSH1 0x40 SHL SUB DUP3 GT ISZERO PUSH3 0x48F JUMPI PUSH3 0x48F PUSH3 0x42A JUMP JUMPDEST POP PUSH1 0x5 SHL PUSH1 0x20 ADD SWAP1 JUMP JUMPDEST PUSH1 0x0 DUP3 PUSH1 0x1F DUP4 ADD SLT PUSH3 0x4AB JUMPI PUSH1 0x0 DUP1 REVERT JUMPDEST DUP2 MLOAD PUSH1 0x20 PUSH3 0x4C4 PUSH3 0x4BE DUP4 PUSH3 0x473 JUMP JUMPDEST PUSH3 0x440 JUMP JUMPDEST DUP3 DUP2 MSTORE PUSH1 0x5 SWAP3 SWAP1 SWAP3 SHL DUP5 ADD DUP2 ADD SWAP2 DUP2 DUP2 ADD SWAP1 DUP7 DUP5 GT ISZERO PUSH3 0x4E4 JUMPI PUSH1 0x0 DUP1 REVERT JUMPDEST DUP3 DUP7 ADD JUMPDEST DUP5 DUP2 LT ISZERO PUSH3 0x501 JUMPI DUP1 MLOAD DUP4 MSTORE SWAP2 DUP4 ADD SWAP2 DUP4 ADD PUSH3 0x4E8 JUMP JUMPDEST POP SWAP7 SWAP6 POP POP POP POP POP POP JUMP JUMPDEST PUSH1 0x0 JUMPDEST DUP4 DUP2 LT ISZERO PUSH3 0x529 JUMPI DUP2 DUP2 ADD MLOAD DUP4 DUP3 ADD MSTORE PUSH1 0x20 ADD PUSH3 0x50F JUMP JUMPDEST POP POP PUSH1 0x0 SWAP2 ADD MSTORE JUMP JUMPDEST PUSH1 0x0 PUSH1 0x1F DUP4 DUP2 DUP5 ADD SLT PUSH3 0x545 JUMPI PUSH1 0x0 DUP1 REVERT JUMPDEST DUP3 MLOAD PUSH1 0x20 PUSH3 0x558 PUSH3 0x4BE DUP4 PUSH3 0x473 JUMP JUMPDEST DUP3 DUP2 MSTORE PUSH1 0x5 SWAP3 SWAP1 SWAP3 SHL DUP6 ADD DUP2 ADD SWAP2 DUP2 DUP2 ADD SWAP1 DUP8 DUP5 GT ISZERO PUSH3 0x578 JUMPI PUSH1 0x0 DUP1 REVERT JUMPDEST DUP3 DUP8 ADD JUMPDEST DUP5 DUP2 LT ISZERO PUSH3 0x61A JUMPI DUP1 MLOAD PUSH1 0x1 PUSH1 0x1 PUSH1 0x40 SHL SUB DUP1 DUP3 GT ISZERO PUSH3 0x59E JUMPI PUSH1 0x0 DUP1 DUP2 REVERT JUMPDEST DUP2 DUP11 ADD SWAP2 POP DUP11 PUSH1 0x3F DUP4 ADD SLT PUSH3 0x5B4 JUMPI PUSH1 0x0 DUP1 DUP2 REVERT JUMPDEST DUP6 DUP3 ADD MLOAD PUSH1 0x40 DUP3 DUP3 GT ISZERO PUSH3 0x5CD JUMPI PUSH3 0x5CD PUSH3 0x42A JUMP JUMPDEST PUSH3 0x5E0 DUP3 DUP12 ADD PUSH1 0x1F NOT AND DUP10 ADD PUSH3 0x440 JUMP JUMPDEST SWAP3 POP DUP2 DUP4 MSTORE DUP13 DUP2 DUP4 DUP7 ADD ADD GT ISZERO PUSH3 0x5F8 JUMPI PUSH1 0x0 DUP1 DUP2 REVERT JUMPDEST PUSH3 0x609 DUP3 DUP10 DUP6 ADD DUP4 DUP8 ADD PUSH3 0x50C JUMP JUMPDEST POP POP DUP5 MSTORE POP SWAP2 DUP4 ADD SWAP2 DUP4 ADD PUSH3 0x57C JUMP JUMPDEST POP SWAP8 SWAP7 POP POP POP POP POP POP POP JUMP JUMPDEST PUSH1 0x0 DUP1 PUSH1 0x0 DUP1 PUSH1 0x0 DUP1 PUSH1 0x0 DUP1 PUSH1 0x0 DUP1 PUSH1 0x0 PUSH2 0x160 DUP13 DUP15 SUB SLT ISZERO PUSH3 0x649 JUMPI PUSH1 0x0 DUP1 REVERT JUMPDEST PUSH3 0x654 DUP13 PUSH3 0x40D JUMP JUMPDEST SWAP11 POP PUSH3 0x664 PUSH1 0x20 DUP14 ADD PUSH3 0x40D JUMP JUMPDEST PUSH1 0x40 DUP14 ADD MLOAD PUSH1 0x60 DUP15 ADD MLOAD PUSH1 0x80 DUP16 ADD MLOAD SWAP3 SWAP13 POP SWAP1 SWAP11 POP SWAP9 POP PUSH1 0x1 PUSH1 0x1 PUSH1 0x40 SHL SUB DUP2 GT ISZERO PUSH3 0x690 JUMPI PUSH1 0x0 DUP1 REVERT JUMPDEST PUSH3 0x69E DUP15 DUP3 DUP16 ADD PUSH3 0x499 JUMP JUMPDEST PUSH1 0xA0 DUP15 ADD MLOAD SWAP1 SWAP9 POP SWAP1 POP PUSH1 0x1 PUSH1 0x1 PUSH1 0x40 SHL SUB DUP2 GT ISZERO PUSH3 0x6BD JUMPI PUSH1 0x0 DUP1 REVERT JUMPDEST PUSH3 0x6CB DUP15 DUP3 DUP16 ADD PUSH3 0x532 JUMP JUMPDEST PUSH1 0xC0 DUP15 ADD MLOAD SWAP1 SWAP8 POP SWAP1 POP PUSH1 0x1 PUSH1 0x1 PUSH1 0x40 SHL SUB DUP2 GT ISZERO PUSH3 0x6EA JUMPI PUSH1 0x0 DUP1 REVERT JUMPDEST PUSH3 0x6F8 DUP15 DUP3 DUP16 ADD PUSH3 0x499 JUMP JUMPDEST PUSH1 0xE0 DUP15 ADD MLOAD SWAP1 SWAP7 POP SWAP1 POP PUSH1 0x1 PUSH1 0x1 PUSH1 0x40 SHL SUB DUP2 GT ISZERO PUSH3 0x717 JUMPI PUSH1 0x0 DUP1 REVERT JUMPDEST PUSH3 0x725 DUP15 DUP3 DUP16 ADD PUSH3 0x499 JUMP JUMPDEST PUSH2 0x100 DUP15 ADD MLOAD PUSH2 0x120 DUP16 ADD MLOAD SWAP2 SWAP7 POP SWAP5 POP SWAP1 POP PUSH1 0x1 PUSH1 0x1 PUSH1 0x40 SHL SUB DUP2 GT ISZERO PUSH3 0x74D JUMPI PUSH1 0x0 DUP1 REVERT JUMPDEST PUSH3 0x75B DUP15 DUP3 DUP16 ADD PUSH3 0x499 JUMP JUMPDEST PUSH2 0x140 DUP15 ADD MLOAD SWAP1 SWAP4 POP SWAP1 POP PUSH1 0x1 PUSH1 0x1 PUSH1 0x40 SHL SUB DUP2 GT ISZERO PUSH3 0x77B JUMPI PUSH1 0x0 DUP1 REVERT JUMPDEST PUSH3 0x789 DUP15 DUP3 DUP16 ADD PUSH3 0x532 JUMP JUMPDEST SWAP2 POP POP SWAP3 SWAP6 SWAP9 SWAP12 POP SWAP3 SWAP6 SWAP9 SWAP12 SWAP1 SWAP4 SWAP7 SWAP10 POP JUMP JUMPDEST PUSH4 0x4E487B71 PUSH1 0xE0 SHL PUSH1 0x0 MSTORE PUSH1 0x32 PUSH1 0x4 MSTORE PUSH1 0x24 PUSH1 0x0 REVERT JUMPDEST PUSH1 0x0 DUP2 MLOAD DUP1 DUP5 MSTORE PUSH1 0x20 DUP1 DUP6 ADD SWAP5 POP DUP1 DUP5 ADD PUSH1 0x0 JUMPDEST DUP4 DUP2 LT ISZERO PUSH3 0x7E4 JUMPI DUP2 MLOAD DUP8 MSTORE SWAP6 DUP3 ADD SWAP6 SWAP1 DUP3 ADD SWAP1 PUSH1 0x1 ADD PUSH3 0x7C6 JUMP JUMPDEST POP SWAP5 SWAP6 SWAP5 POP POP POP POP POP JUMP JUMPDEST PUSH1 0x0 DUP2 MLOAD DUP1 DUP5 MSTORE PUSH1 0x20 DUP1 DUP6 ADD DUP1 DUP2 SWAP7 POP DUP4 PUSH1 0x5 SHL DUP2 ADD SWAP2 POP DUP3 DUP7 ADD PUSH1 0x0 JUMPDEST DUP6 DUP2 LT ISZERO PUSH3 0x853 JUMPI DUP3 DUP5 SUB DUP10 MSTORE DUP2 MLOAD DUP1 MLOAD DUP1 DUP7 MSTORE PUSH3 0x833 DUP2 DUP9 DUP9 ADD DUP10 DUP6 ADD PUSH3 0x50C JUMP JUMPDEST SWAP10 DUP7 ADD SWAP10 PUSH1 0x1F ADD PUSH1 0x1F NOT AND SWAP5 SWAP1 SWAP5 ADD DUP6 ADD SWAP4 POP SWAP1 DUP5 ADD SWAP1 PUSH1 0x1 ADD PUSH3 0x80D JUMP JUMPDEST POP SWAP2 SWAP8 SWAP7 POP POP POP POP POP POP POP JUMP JUMPDEST PUSH1 0x1 PUSH1 0x1 PUSH1 0xA0 SHL SUB DUP13 DUP2 AND DUP3 MSTORE DUP12 DUP2 AND PUSH1 0x20 DUP4 ADD MSTORE DUP11 AND PUSH1 0x40 DUP3 ADD MSTORE PUSH1 0x60 DUP2 ADD DUP10 SWAP1 MSTORE PUSH2 0x160 PUSH1 0x80 DUP3 ADD DUP2 SWAP1 MSTORE PUSH1 0x0 SWAP1 PUSH3 0x89E DUP4 DUP3 ADD DUP12 PUSH3 0x7B2 JUMP JUMPDEST SWAP1 POP DUP3 DUP2 SUB PUSH1 0xA0 DUP5 ADD MSTORE PUSH3 0x8B4 DUP2 DUP11 PUSH3 0x7EF JUMP JUMPDEST SWAP1 POP DUP3 DUP2 SUB PUSH1 0xC0 DUP5 ADD MSTORE PUSH3 0x8CA DUP2 DUP10 PUSH3 0x7B2 JUMP JUMPDEST SWAP1 POP DUP7 PUSH1 0xE0 DUP5 ADD MSTORE DUP6 PUSH2 0x100 DUP5 ADD MSTORE DUP3 DUP2 SUB PUSH2 0x120 DUP5 ADD MSTORE PUSH3 0x8EE DUP2 DUP7 PUSH3 0x7B2 JUMP JUMPDEST SWAP1 POP DUP3 DUP2 SUB PUSH2 0x140 DUP5 ADD MSTORE PUSH3 0x905 DUP2 DUP6 PUSH3 0x7EF JUMP JUMPDEST SWAP15 SWAP14 POP POP POP POP POP POP POP POP POP POP POP POP POP POP JUMP JUMPDEST PUSH1 0x0 PUSH1 0x1 DUP3 ADD PUSH3 0x938 JUMPI PUSH4 0x4E487B71 PUSH1 0xE0 SHL PUSH1 0x0 MSTORE PUSH1 0x11 PUSH1 0x4 MSTORE PUSH1 0x24 PUSH1 0x0 REVERT JUMPDEST POP PUSH1 0x1 ADD SWAP1 JUMP JUMPDEST PUSH1 0x1 DUP2 DUP2 SHR SWAP1 DUP3 AND DUP1 PUSH3 0x954 JUMPI PUSH1 0x7F DUP3 AND SWAP2 POP JUMPDEST PUSH1 0x20 DUP3 LT DUP2 SUB PUSH3 0x975 JUMPI PUSH4 0x4E487B71 PUSH1 0xE0 SHL PUSH1 0x0 MSTORE PUSH1 0x22 PUSH1 0x4 MSTORE PUSH1 0x24 PUSH1 0x0 REVERT JUMPDEST POP SWAP2 SWAP1 POP JUMP JUMPDEST PUSH1 0x1F DUP3 GT ISZERO PUSH3 0x9C9 JUMPI PUSH1 0x0 DUP2 DUP2 MSTORE PUSH1 0x20 DUP2 KECCAK256 PUSH1 0x1F DUP6 ADD PUSH1 0x5 SHR DUP2 ADD PUSH1 0x20 DUP7 LT ISZERO PUSH3 0x9A4 JUMPI POP DUP1 JUMPDEST PUSH1 0x1F DUP6 ADD PUSH1 0x5 SHR DUP3 ADD SWAP2 POP JUMPDEST DUP2 DUP2 LT ISZERO PUSH3 0x9C5 JUMPI DUP3 DUP2 SSTORE PUSH1 0x1 ADD PUSH3 0x9B0 JUMP JUMPDEST POP POP POP JUMPDEST POP POP POP JUMP JUMPDEST DUP2 MLOAD PUSH1 0x1 PUSH1 0x1 PUSH1 0x40 SHL SUB DUP2 GT ISZERO PUSH3 0x9EA JUMPI PUSH3 0x9EA PUSH3 0x42A JUMP JUMPDEST PUSH3 0xA02 DUP2 PUSH3 0x9FB DUP5 SLOAD PUSH3 0x93F JUMP JUMPDEST DUP5 PUSH3 0x97B JUMP JUMPDEST PUSH1 0x20 DUP1 PUSH1 0x1F DUP4 GT PUSH1 0x1 DUP2 EQ PUSH3 0xA3A JUMPI PUSH1 0x0 DUP5 ISZERO PUSH3 0xA21 JUMPI POP DUP6 DUP4 ADD MLOAD JUMPDEST PUSH1 0x0 NOT PUSH1 0x3 DUP7 SWAP1 SHL SHR NOT AND PUSH1 0x1 DUP6 SWAP1 SHL OR DUP6 SSTORE PUSH3 0x9C5 JUMP JUMPDEST PUSH1 0x0 DUP6 DUP2 MSTORE PUSH1 0x20 DUP2 KECCAK256 PUSH1 0x1F NOT DUP7 AND SWAP2 JUMPDEST DUP3 DUP2 LT ISZERO PUSH3 0xA6B JUMPI DUP9 DUP7 ADD MLOAD DUP3 SSTORE SWAP5 DUP5 ADD SWAP5 PUSH1 0x1 SWAP1 SWAP2 ADD SWAP1 DUP5 ADD PUSH3 0xA4A JUMP JUMPDEST POP DUP6 DUP3 LT ISZERO PUSH3 0xA8A JUMPI DUP8 DUP6 ADD MLOAD PUSH1 0x0 NOT PUSH1 0x3 DUP9 SWAP1 SHL PUSH1 0xF8 AND SHR NOT AND DUP2 SSTORE JUMPDEST POP POP POP POP POP PUSH1 0x1 SWAP1 DUP2 SHL ADD SWAP1 SSTORE POP JUMP JUMPDEST PUSH2 0x2936 DUP1 PUSH3 0xAAA PUSH1 0x0 CODECOPY PUSH1 0x0 RETURN INVALID PUSH1 0x80 PUSH1 0x40 MSTORE CALLVALUE DUP1 ISZERO PUSH3 0x11 JUMPI PUSH1 0x0 DUP1 REVERT JUMPDEST POP PUSH1 0x4 CALLDATASIZE LT PUSH3 0x9F JUMPI PUSH1 0x0 CALLDATALOAD PUSH1 0xE0 SHR DUP1 PUSH4 0x7FA10508 GT PUSH3 0x6E JUMPI DUP1 PUSH4 0x7FA10508 EQ PUSH3 0x10F JUMPI DUP1 PUSH4 0x8DA5CB5B EQ PUSH3 0x135 JUMPI DUP1 PUSH4 0xBB6FE0F4 EQ PUSH3 0x15B JUMPI DUP1 PUSH4 0xF2FDE38B EQ PUSH3 0x172 JUMPI DUP1 PUSH4 0xFCC6E567 EQ PUSH3 0x189 JUMPI PUSH1 0x0 DUP1 REVERT JUMPDEST DUP1 PUSH4 0x12848AB9 EQ PUSH3 0xA4 JUMPI DUP1 PUSH4 0x2F4FC725 EQ PUSH3 0xC6 JUMPI DUP1 PUSH4 0x4FE40A59 EQ PUSH3 0xDF JUMPI DUP1 PUSH4 0x715018A6 EQ PUSH3 0x105 JUMPI JUMPDEST PUSH1 0x0 DUP1 REVERT JUMPDEST PUSH3 0xAE PUSH3 0x1B5 JUMP JUMPDEST PUSH1 0x40 MLOAD PUSH3 0xBD SWAP2 SWAP1 PUSH3 0x656 JUMP JUMPDEST PUSH1 0x40 MLOAD DUP1 SWAP2 SUB SWAP1 RETURN JUMPDEST PUSH3 0xDD PUSH3 0xD7 CALLDATASIZE PUSH1 0x4 PUSH3 0x86A JUMP JUMPDEST PUSH3 0x20F JUMP JUMPDEST STOP JUMPDEST PUSH3 0xF6 PUSH3 0xF0 CALLDATASIZE PUSH1 0x4 PUSH3 0x9CB JUMP JUMPDEST PUSH3 0x342 JUMP JUMPDEST PUSH1 0x40 MLOAD SWAP1 DUP2 MSTORE PUSH1 0x20 ADD PUSH3 0xBD JUMP JUMPDEST PUSH3 0xDD PUSH3 0x364 JUMP JUMPDEST PUSH3 0x126 PUSH3 0x120 CALLDATASIZE PUSH1 0x4 PUSH3 0x9CB JUMP JUMPDEST PUSH3 0x37C JUMP JUMPDEST PUSH1 0x40 MLOAD PUSH3 0xBD SWAP2 SWAP1 PUSH3 0x9E5 JUMP JUMPDEST PUSH1 0x0 SLOAD PUSH1 0x1 PUSH1 0x1 PUSH1 0xA0 SHL SUB AND JUMPDEST PUSH1 0x40 MLOAD PUSH1 0x1 PUSH1 0x1 PUSH1 0xA0 SHL SUB SWAP1 SWAP2 AND DUP2 MSTORE PUSH1 0x20 ADD PUSH3 0xBD JUMP JUMPDEST PUSH3 0x142 PUSH3 0x16C CALLDATASIZE PUSH1 0x4 PUSH3 0x9CB JUMP JUMPDEST PUSH3 0x462 JUMP JUMPDEST PUSH3 0xDD PUSH3 0x183 CALLDATASIZE PUSH1 0x4 PUSH3 0xA34 JUMP JUMPDEST PUSH3 0x4E0 JUMP JUMPDEST PUSH3 0x142 PUSH3 0x19A CALLDATASIZE PUSH1 0x4 PUSH3 0x9CB JUMP JUMPDEST PUSH1 0x2 PUSH1 0x20 MSTORE PUSH1 0x0 SWAP1 DUP2 MSTORE PUSH1 0x40 SWAP1 KECCAK256 SLOAD PUSH1 0x1 PUSH1 0x1 PUSH1 0xA0 SHL SUB AND DUP2 JUMP JUMPDEST PUSH1 0x60 PUSH1 0x1 DUP1 SLOAD DUP1 PUSH1 0x20 MUL PUSH1 0x20 ADD PUSH1 0x40 MLOAD SWAP1 DUP2 ADD PUSH1 0x40 MSTORE DUP1 SWAP3 SWAP2 SWAP1 DUP2 DUP2 MSTORE PUSH1 0x20 ADD DUP3 DUP1 SLOAD DUP1 ISZERO PUSH3 0x205 JUMPI PUSH1 0x20 MUL DUP3 ADD SWAP2 SWAP1 PUSH1 0x0 MSTORE PUSH1 0x20 PUSH1 0x0 KECCAK256 SWAP1 JUMPDEST DUP2 SLOAD DUP2 MSTORE PUSH1 0x20 ADD SWAP1 PUSH1 0x1 ADD SWAP1 DUP1 DUP4 GT PUSH3 0x1F0 JUMPI JUMPDEST POP POP POP POP POP SWAP1 POP SWAP1 JUMP JUMPDEST PUSH3 0x219 PUSH3 0x55F JUMP JUMPDEST PUSH1 0x0 JUMPDEST PUSH1 0x4 SLOAD DUP2 LT ISZERO PUSH3 0x334 JUMPI PUSH1 0x0 DUP13 DUP13 DUP13 DUP13 DUP13 DUP13 DUP13 DUP13 DUP10 DUP2 MLOAD DUP2 LT PUSH3 0x245 JUMPI PUSH3 0x245 PUSH3 0xA54 JUMP JUMPDEST PUSH1 0x20 MUL PUSH1 0x20 ADD ADD MLOAD DUP13 DUP13 DUP13 PUSH1 0x40 MLOAD PUSH3 0x25E SWAP1 PUSH3 0x60B JUMP JUMPDEST PUSH3 0x274 SWAP12 SWAP11 SWAP10 SWAP9 SWAP8 SWAP7 SWAP6 SWAP5 SWAP4 SWAP3 SWAP2 SWAP1 PUSH3 0xAF3 JUMP JUMPDEST PUSH1 0x40 MLOAD DUP1 SWAP2 SUB SWAP1 PUSH1 0x0 CREATE DUP1 ISZERO DUP1 ISZERO PUSH3 0x291 JUMPI RETURNDATASIZE PUSH1 0x0 DUP1 RETURNDATACOPY RETURNDATASIZE PUSH1 0x0 REVERT JUMPDEST POP SWAP1 POP DUP1 PUSH1 0x2 PUSH1 0x0 DUP9 DUP6 DUP2 MLOAD DUP2 LT PUSH3 0x2AE JUMPI PUSH3 0x2AE PUSH3 0xA54 JUMP JUMPDEST PUSH1 0x20 MUL PUSH1 0x20 ADD ADD MLOAD DUP2 MSTORE PUSH1 0x20 ADD SWAP1 DUP2 MSTORE PUSH1 0x20 ADD PUSH1 0x0 KECCAK256 PUSH1 0x0 PUSH2 0x100 EXP DUP2 SLOAD DUP2 PUSH1 0x1 PUSH1 0x1 PUSH1 0xA0 SHL SUB MUL NOT AND SWAP1 DUP4 PUSH1 0x1 PUSH1 0x1 PUSH1 0xA0 SHL SUB AND MUL OR SWAP1 SSTORE POP PUSH1 0x1 DUP7 DUP4 DUP2 MLOAD DUP2 LT PUSH3 0x2FF JUMPI PUSH3 0x2FF PUSH3 0xA54 JUMP JUMPDEST PUSH1 0x20 SWAP1 DUP2 MUL SWAP2 SWAP1 SWAP2 ADD DUP2 ADD MLOAD DUP3 SLOAD PUSH1 0x1 DUP2 ADD DUP5 SSTORE PUSH1 0x0 SWAP4 DUP5 MSTORE SWAP2 SWAP1 SWAP3 KECCAK256 ADD SSTORE POP DUP1 PUSH3 0x32B DUP2 PUSH3 0xBAA JUMP JUMPDEST SWAP2 POP POP PUSH3 0x21C JUMP JUMPDEST POP POP POP POP POP POP POP POP POP POP POP POP JUMP JUMPDEST PUSH1 0x1 DUP2 DUP2 SLOAD DUP2 LT PUSH3 0x353 JUMPI PUSH1 0x0 DUP1 REVERT JUMPDEST PUSH1 0x0 SWAP2 DUP3 MSTORE PUSH1 0x20 SWAP1 SWAP2 KECCAK256 ADD SLOAD SWAP1 POP DUP2 JUMP JUMPDEST PUSH3 0x36E PUSH3 0x55F JUMP JUMPDEST PUSH3 0x37A PUSH1 0x0 PUSH3 0x5BB JUMP JUMPDEST JUMP JUMPDEST PUSH1 0x60 PUSH1 0x0 PUSH3 0x38B DUP4 PUSH3 0x462 JUMP JUMPDEST PUSH1 0x1 PUSH1 0x1 PUSH1 0xA0 SHL SUB AND SUB PUSH3 0x3E3 JUMPI PUSH1 0x40 MLOAD PUSH3 0x461BCD PUSH1 0xE5 SHL DUP2 MSTORE PUSH1 0x20 PUSH1 0x4 DUP3 ADD MSTORE PUSH1 0x19 PUSH1 0x24 DUP3 ADD MSTORE PUSH25 0x14D95CDCDA5BDB88125108191BD95CC81B9BDD08195E1A5CDD PUSH1 0x3A SHL PUSH1 0x44 DUP3 ADD MSTORE PUSH1 0x64 ADD JUMPDEST PUSH1 0x40 MLOAD DUP1 SWAP2 SUB SWAP1 REVERT JUMPDEST PUSH1 0x0 PUSH3 0x3F0 DUP4 PUSH3 0x462 JUMP JUMPDEST SWAP1 POP DUP1 PUSH1 0x1 PUSH1 0x1 PUSH1 0xA0 SHL SUB AND PUSH4 0xCC437008 PUSH1 0x40 MLOAD DUP2 PUSH4 0xFFFFFFFF AND PUSH1 0xE0 SHL DUP2 MSTORE PUSH1 0x4 ADD PUSH1 0x0 PUSH1 0x40 MLOAD DUP1 DUP4 SUB DUP2 DUP7 GAS STATICCALL ISZERO DUP1 ISZERO PUSH3 0x431 JUMPI RETURNDATASIZE PUSH1 0x0 DUP1 RETURNDATACOPY RETURNDATASIZE PUSH1 0x0 REVERT JUMPDEST POP POP POP POP PUSH1 0x40 MLOAD RETURNDATASIZE PUSH1 0x0 DUP3 RETURNDATACOPY PUSH1 0x1F RETURNDATASIZE SWAP1 DUP2 ADD PUSH1 0x1F NOT AND DUP3 ADD PUSH1 0x40 MSTORE PUSH3 0x45B SWAP2 SWAP1 DUP2 ADD SWAP1 PUSH3 0xBD2 JUMP JUMPDEST SWAP4 SWAP3 POP POP POP JUMP JUMPDEST PUSH1 0x0 DUP2 DUP2 MSTORE PUSH1 0x2 PUSH1 0x20 MSTORE PUSH1 0x40 DUP2 KECCAK256 SLOAD PUSH1 0x1 PUSH1 0x1 PUSH1 0xA0 SHL SUB AND PUSH3 0x4C4 JUMPI PUSH1 0x40 MLOAD PUSH3 0x461BCD PUSH1 0xE5 SHL DUP2 MSTORE PUSH1 0x20 PUSH1 0x4 DUP3 ADD MSTORE PUSH1 0x19 PUSH1 0x24 DUP3 ADD MSTORE PUSH25 0x14D95CDCDA5BDB88125108191BD95CC81B9BDD08195E1A5CDD PUSH1 0x3A SHL PUSH1 0x44 DUP3 ADD MSTORE PUSH1 0x64 ADD PUSH3 0x3DA JUMP JUMPDEST POP PUSH1 0x0 SWAP1 DUP2 MSTORE PUSH1 0x2 PUSH1 0x20 MSTORE PUSH1 0x40 SWAP1 KECCAK256 SLOAD PUSH1 0x1 PUSH1 0x1 PUSH1 0xA0 SHL SUB AND SWAP1 JUMP JUMPDEST PUSH3 0x4EA PUSH3 0x55F JUMP JUMPDEST PUSH1 0x1 PUSH1 0x1 PUSH1 0xA0 SHL SUB DUP2 AND PUSH3 0x551 JUMPI PUSH1 0x40 MLOAD PUSH3 0x461BCD PUSH1 0xE5 SHL DUP2 MSTORE PUSH1 0x20 PUSH1 0x4 DUP3 ADD MSTORE PUSH1 0x26 PUSH1 0x24 DUP3 ADD MSTORE PUSH32 0x4F776E61626C653A206E6577206F776E657220697320746865207A65726F2061 PUSH1 0x44 DUP3 ADD MSTORE PUSH6 0x646472657373 PUSH1 0xD0 SHL PUSH1 0x64 DUP3 ADD MSTORE PUSH1 0x84 ADD PUSH3 0x3DA JUMP JUMPDEST PUSH3 0x55C DUP2 PUSH3 0x5BB JUMP JUMPDEST POP JUMP JUMPDEST PUSH1 0x0 SLOAD PUSH1 0x1 PUSH1 0x1 PUSH1 0xA0 SHL SUB AND CALLER EQ PUSH3 0x37A JUMPI PUSH1 0x40 MLOAD PUSH3 0x461BCD PUSH1 0xE5 SHL DUP2 MSTORE PUSH1 0x20 PUSH1 0x4 DUP3 ADD DUP2 SWAP1 MSTORE PUSH1 0x24 DUP3 ADD MSTORE PUSH32 0x4F776E61626C653A2063616C6C6572206973206E6F7420746865206F776E6572 PUSH1 0x44 DUP3 ADD MSTORE PUSH1 0x64 ADD PUSH3 0x3DA JUMP JUMPDEST PUSH1 0x0 DUP1 SLOAD PUSH1 0x1 PUSH1 0x1 PUSH1 0xA0 SHL SUB DUP4 DUP2 AND PUSH1 0x1 PUSH1 0x1 PUSH1 0xA0 SHL SUB NOT DUP4 AND DUP2 OR DUP5 SSTORE PUSH1 0x40 MLOAD SWAP2 SWAP1 SWAP3 AND SWAP3 DUP4 SWAP2 PUSH32 0x8BE0079C531659141344CD1FD0A4F28419497F9722A3DAAFE3B4186F6B6457E0 SWAP2 SWAP1 LOG3 POP POP JUMP JUMPDEST PUSH2 0x1C89 DUP1 PUSH3 0xC78 DUP4 CODECOPY ADD SWAP1 JUMP JUMPDEST PUSH1 0x0 DUP2 MLOAD DUP1 DUP5 MSTORE PUSH1 0x20 DUP1 DUP6 ADD SWAP5 POP DUP1 DUP5 ADD PUSH1 0x0 JUMPDEST DUP4 DUP2 LT ISZERO PUSH3 0x64B JUMPI DUP2 MLOAD DUP8 MSTORE SWAP6 DUP3 ADD SWAP6 SWAP1 DUP3 ADD SWAP1 PUSH1 0x1 ADD PUSH3 0x62D JUMP JUMPDEST POP SWAP5 SWAP6 SWAP5 POP POP POP POP POP JUMP JUMPDEST PUSH1 0x20 DUP2 MSTORE PUSH1 0x0 PUSH3 0x45B PUSH1 0x20 DUP4 ADD DUP5 PUSH3 0x619 JUMP JUMPDEST PUSH1 0x1 PUSH1 0x1 PUSH1 0xA0 SHL SUB DUP2 AND DUP2 EQ PUSH3 0x55C JUMPI PUSH1 0x0 DUP1 REVERT JUMPDEST DUP1 CALLDATALOAD PUSH3 0x68E DUP2 PUSH3 0x66B JUMP JUMPDEST SWAP2 SWAP1 POP JUMP JUMPDEST PUSH4 0x4E487B71 PUSH1 0xE0 SHL PUSH1 0x0 MSTORE PUSH1 0x41 PUSH1 0x4 MSTORE PUSH1 0x24 PUSH1 0x0 REVERT JUMPDEST PUSH1 0x40 MLOAD PUSH1 0x1F DUP3 ADD PUSH1 0x1F NOT AND DUP2 ADD PUSH8 0xFFFFFFFFFFFFFFFF DUP2 GT DUP3 DUP3 LT OR ISZERO PUSH3 0x6D5 JUMPI PUSH3 0x6D5 PUSH3 0x693 JUMP JUMPDEST PUSH1 0x40 MSTORE SWAP2 SWAP1 POP JUMP JUMPDEST PUSH1 0x0 PUSH8 0xFFFFFFFFFFFFFFFF DUP3 GT ISZERO PUSH3 0x6FA JUMPI PUSH3 0x6FA PUSH3 0x693 JUMP JUMPDEST POP PUSH1 0x5 SHL PUSH1 0x20 ADD SWAP1 JUMP JUMPDEST PUSH1 0x0 DUP3 PUSH1 0x1F DUP4 ADD SLT PUSH3 0x716 JUMPI PUSH1 0x0 DUP1 REVERT JUMPDEST DUP2 CALLDATALOAD PUSH1 0x20 PUSH3 0x72F PUSH3 0x729 DUP4 PUSH3 0x6DD JUMP JUMPDEST PUSH3 0x6A9 JUMP JUMPDEST DUP3 DUP2 MSTORE PUSH1 0x5 SWAP3 SWAP1 SWAP3 SHL DUP5 ADD DUP2 ADD SWAP2 DUP2 DUP2 ADD SWAP1 DUP7 DUP5 GT ISZERO PUSH3 0x74F JUMPI PUSH1 0x0 DUP1 REVERT JUMPDEST DUP3 DUP7 ADD JUMPDEST DUP5 DUP2 LT ISZERO PUSH3 0x76C JUMPI DUP1 CALLDATALOAD DUP4 MSTORE SWAP2 DUP4 ADD SWAP2 DUP4 ADD PUSH3 0x753 JUMP JUMPDEST POP SWAP7 SWAP6 POP POP POP POP POP POP JUMP JUMPDEST PUSH1 0x0 PUSH1 0x1F DUP4 DUP2 DUP5 ADD SLT PUSH3 0x78A JUMPI PUSH1 0x0 DUP1 REVERT JUMPDEST DUP3 CALLDATALOAD PUSH1 0x20 PUSH3 0x79D PUSH3 0x729 DUP4 PUSH3 0x6DD JUMP JUMPDEST DUP3 DUP2 MSTORE PUSH1 0x5 SWAP3 SWAP1 SWAP3 SHL DUP6 ADD DUP2 ADD SWAP2 DUP2 DUP2 ADD SWAP1 DUP8 DUP5 GT ISZERO PUSH3 0x7BD JUMPI PUSH1 0x0 DUP1 REVERT JUMPDEST DUP3 DUP8 ADD JUMPDEST DUP5 DUP2 LT ISZERO PUSH3 0x85E JUMPI DUP1 CALLDATALOAD PUSH8 0xFFFFFFFFFFFFFFFF DUP1 DUP3 GT ISZERO PUSH3 0x7E4 JUMPI PUSH1 0x0 DUP1 DUP2 REVERT JUMPDEST DUP2 DUP11 ADD SWAP2 POP DUP11 PUSH1 0x3F DUP4 ADD SLT PUSH3 0x7FA JUMPI PUSH1 0x0 DUP1 DUP2 REVERT JUMPDEST DUP6 DUP3 ADD CALLDATALOAD PUSH1 0x40 DUP3 DUP3 GT ISZERO PUSH3 0x813 JUMPI PUSH3 0x813 PUSH3 0x693 JUMP JUMPDEST PUSH3 0x826 DUP3 DUP12 ADD PUSH1 0x1F NOT AND DUP10 ADD PUSH3 0x6A9 JUMP JUMPDEST SWAP3 POP DUP2 DUP4 MSTORE DUP13 DUP2 DUP4 DUP7 ADD ADD GT ISZERO PUSH3 0x83E JUMPI PUSH1 0x0 DUP1 DUP2 REVERT JUMPDEST DUP2 DUP2 DUP6 ADD DUP10 DUP6 ADD CALLDATACOPY POP PUSH1 0x0 SWAP1 DUP3 ADD DUP8 ADD MSTORE DUP5 MSTORE POP SWAP2 DUP4 ADD SWAP2 DUP4 ADD PUSH3 0x7C1 JUMP JUMPDEST POP SWAP8 SWAP7 POP POP POP POP POP POP POP JUMP JUMPDEST PUSH1 0x0 DUP1 PUSH1 0x0 DUP1 PUSH1 0x0 DUP1 PUSH1 0x0 DUP1 PUSH1 0x0 DUP1 PUSH1 0x0 PUSH2 0x160 DUP13 DUP15 SUB SLT ISZERO PUSH3 0x88D JUMPI PUSH1 0x0 DUP1 REVERT JUMPDEST PUSH3 0x898 DUP13 PUSH3 0x681 JUMP JUMPDEST SWAP11 POP PUSH3 0x8A8 PUSH1 0x20 DUP14 ADD PUSH3 0x681 JUMP JUMPDEST SWAP10 POP PUSH3 0x8B8 PUSH1 0x40 DUP14 ADD PUSH3 0x681 JUMP JUMPDEST SWAP9 POP PUSH1 0x60 DUP13 ADD CALLDATALOAD SWAP8 POP PUSH8 0xFFFFFFFFFFFFFFFF DUP1 PUSH1 0x80 DUP15 ADD CALLDATALOAD GT ISZERO PUSH3 0x8DC JUMPI PUSH1 0x0 DUP1 REVERT JUMPDEST PUSH3 0x8EE DUP15 PUSH1 0x80 DUP16 ADD CALLDATALOAD DUP16 ADD PUSH3 0x704 JUMP JUMPDEST SWAP8 POP DUP1 PUSH1 0xA0 DUP15 ADD CALLDATALOAD GT ISZERO PUSH3 0x902 JUMPI PUSH1 0x0 DUP1 REVERT JUMPDEST PUSH3 0x914 DUP15 PUSH1 0xA0 DUP16 ADD CALLDATALOAD DUP16 ADD PUSH3 0x777 JUMP JUMPDEST SWAP7 POP DUP1 PUSH1 0xC0 DUP15 ADD CALLDATALOAD GT ISZERO PUSH3 0x928 JUMPI PUSH1 0x0 DUP1 REVERT JUMPDEST PUSH3 0x93A DUP15 PUSH1 0xC0 DUP16 ADD CALLDATALOAD DUP16 ADD PUSH3 0x704 JUMP JUMPDEST SWAP6 POP DUP1 PUSH1 0xE0 DUP15 ADD CALLDATALOAD GT ISZERO PUSH3 0x94E JUMPI PUSH1 0x0 DUP1 REVERT JUMPDEST PUSH3 0x960 DUP15 PUSH1 0xE0 DUP16 ADD CALLDATALOAD DUP16 ADD PUSH3 0x704 JUMP JUMPDEST SWAP5 POP PUSH2 0x100 DUP14 ADD CALLDATALOAD SWAP4 POP DUP1 PUSH2 0x120 DUP15 ADD CALLDATALOAD GT ISZERO PUSH3 0x97D JUMPI PUSH1 0x0 DUP1 REVERT JUMPDEST PUSH3 0x990 DUP15 PUSH2 0x120 DUP16 ADD CALLDATALOAD DUP16 ADD PUSH3 0x704 JUMP JUMPDEST SWAP3 POP DUP1 PUSH2 0x140 DUP15 ADD CALLDATALOAD GT ISZERO PUSH3 0x9A5 JUMPI PUSH1 0x0 DUP1 REVERT JUMPDEST POP PUSH3 0x9B9 DUP14 PUSH2 0x140 DUP15 ADD CALLDATALOAD DUP15 ADD PUSH3 0x777 JUMP JUMPDEST SWAP1 POP SWAP3 SWAP6 SWAP9 SWAP12 POP SWAP3 SWAP6 SWAP9 SWAP12 SWAP1 SWAP4 SWAP7 SWAP10 POP JUMP JUMPDEST PUSH1 0x0 PUSH1 0x20 DUP3 DUP5 SUB SLT ISZERO PUSH3 0x9DE JUMPI PUSH1 0x0 DUP1 REVERT JUMPDEST POP CALLDATALOAD SWAP2 SWAP1 POP JUMP JUMPDEST PUSH1 0x20 DUP1 DUP3 MSTORE DUP3 MLOAD DUP3 DUP3 ADD DUP2 SWAP1 MSTORE PUSH1 0x0 SWAP2 SWAP1 DUP5 DUP3 ADD SWAP1 PUSH1 0x40 DUP6 ADD SWAP1 DUP5 JUMPDEST DUP2 DUP2 LT ISZERO PUSH3 0xA28 JUMPI DUP4 MLOAD PUSH1 0x1 PUSH1 0x1 PUSH1 0xA0 SHL SUB AND DUP4 MSTORE SWAP3 DUP5 ADD SWAP3 SWAP2 DUP5 ADD SWAP2 PUSH1 0x1 ADD PUSH3 0xA01 JUMP JUMPDEST POP SWAP1 SWAP7 SWAP6 POP POP POP POP POP POP JUMP JUMPDEST PUSH1 0x0 PUSH1 0x20 DUP3 DUP5 SUB SLT ISZERO PUSH3 0xA47 JUMPI PUSH1 0x0 DUP1 REVERT JUMPDEST DUP2 CALLDATALOAD PUSH3 0x45B DUP2 PUSH3 0x66B JUMP JUMPDEST PUSH4 0x4E487B71 PUSH1 0xE0 SHL PUSH1 0x0 MSTORE PUSH1 0x32 PUSH1 0x4 MSTORE PUSH1 0x24 PUSH1 0x0 REVERT JUMPDEST PUSH1 0x0 DUP2 MLOAD DUP1 DUP5 MSTORE PUSH1 0x20 DUP1 DUP6 ADD DUP1 DUP2 SWAP7 POP DUP4 PUSH1 0x5 SHL DUP2 ADD SWAP2 POP DUP3 DUP7 ADD PUSH1 0x0 DUP1 JUMPDEST DUP7 DUP2 LT ISZERO PUSH3 0xAE5 JUMPI DUP4 DUP6 SUB DUP11 MSTORE DUP3 MLOAD DUP1 MLOAD DUP1 DUP8 MSTORE DUP4 JUMPDEST DUP2 DUP2 LT ISZERO PUSH3 0xABD JUMPI DUP3 DUP2 ADD DUP10 ADD MLOAD DUP9 DUP3 ADD DUP11 ADD MSTORE DUP9 ADD PUSH3 0xAA0 JUMP JUMPDEST POP DUP7 DUP2 ADD DUP9 ADD DUP5 SWAP1 MSTORE SWAP11 DUP8 ADD SWAP11 PUSH1 0x1F ADD PUSH1 0x1F NOT AND SWAP1 SWAP6 ADD DUP7 ADD SWAP5 POP SWAP2 DUP6 ADD SWAP2 PUSH1 0x1 ADD PUSH3 0xA89 JUMP JUMPDEST POP SWAP3 SWAP9 SWAP8 POP POP POP POP POP POP POP POP JUMP JUMPDEST PUSH1 0x1 PUSH1 0x1 PUSH1 0xA0 SHL SUB DUP13 DUP2 AND DUP3 MSTORE DUP12 DUP2 AND PUSH1 0x20 DUP4 ADD MSTORE DUP11 AND PUSH1 0x40 DUP3 ADD MSTORE PUSH1 0x60 DUP2 ADD DUP10 SWAP1 MSTORE PUSH2 0x160 PUSH1 0x80 DUP3 ADD DUP2 SWAP1 MSTORE PUSH1 0x0 SWAP1 PUSH3 0xB31 DUP4 DUP3 ADD DUP12 PUSH3 0x619 JUMP JUMPDEST SWAP1 POP DUP3 DUP2 SUB PUSH1 0xA0 DUP5 ADD MSTORE PUSH3 0xB47 DUP2 DUP11 PUSH3 0xA6A JUMP JUMPDEST SWAP1 POP DUP3 DUP2 SUB PUSH1 0xC0 DUP5 ADD MSTORE PUSH3 0xB5D DUP2 DUP10 PUSH3 0x619 JUMP JUMPDEST SWAP1 POP DUP7 PUSH1 0xE0 DUP5 ADD MSTORE DUP6 PUSH2 0x100 DUP5 ADD MSTORE DUP3 DUP2 SUB PUSH2 0x120 DUP5 ADD MSTORE PUSH3 0xB81 DUP2 DUP7 PUSH3 0x619 JUMP JUMPDEST SWAP1 POP DUP3 DUP2 SUB PUSH2 0x140 DUP5 ADD MSTORE PUSH3 0xB98 DUP2 DUP6 PUSH3 0xA6A JUMP JUMPDEST SWAP15 SWAP14 POP POP POP POP POP POP POP POP POP POP POP POP POP POP JUMP JUMPDEST PUSH1 0x0 PUSH1 0x1 DUP3 ADD PUSH3 0xBCB JUMPI PUSH4 0x4E487B71 PUSH1 0xE0 SHL PUSH1 0x0 MSTORE PUSH1 0x11 PUSH1 0x4 MSTORE PUSH1 0x24 PUSH1 0x0 REVERT JUMPDEST POP PUSH1 0x1 ADD SWAP1 JUMP JUMPDEST PUSH1 0x0 PUSH1 0x20 DUP1 DUP4 DUP6 SUB SLT ISZERO PUSH3 0xBE6 JUMPI PUSH1 0x0 DUP1 REVERT JUMPDEST DUP3 MLOAD PUSH8 0xFFFFFFFFFFFFFFFF DUP2 GT ISZERO PUSH3 0xBFE JUMPI PUSH1 0x0 DUP1 REVERT JUMPDEST DUP4 ADD PUSH1 0x1F DUP2 ADD DUP6 SGT PUSH3 0xC10 JUMPI PUSH1 0x0 DUP1 REVERT JUMPDEST DUP1 MLOAD PUSH3 0xC21 PUSH3 0x729 DUP3 PUSH3 0x6DD JUMP JUMPDEST DUP2 DUP2 MSTORE PUSH1 0x5 SWAP2 SWAP1 SWAP2 SHL DUP3 ADD DUP4 ADD SWAP1 DUP4 DUP2 ADD SWAP1 DUP8 DUP4 GT ISZERO PUSH3 0xC41 JUMPI PUSH1 0x0 DUP1 REVERT JUMPDEST SWAP3 DUP5 ADD SWAP3 JUMPDEST DUP3 DUP5 LT ISZERO PUSH3 0xC6C JUMPI DUP4 MLOAD PUSH3 0xC5C DUP2 PUSH3 0x66B JUMP JUMPDEST DUP3 MSTORE SWAP3 DUP5 ADD SWAP3 SWAP1 DUP5 ADD SWAP1 PUSH3 0xC46 JUMP JUMPDEST SWAP8 SWAP7 POP POP POP POP POP POP POP JUMP INVALID PUSH1 0x80 PUSH1 0x40 MSTORE CALLVALUE DUP1 ISZERO PUSH3 0x11 JUMPI PUSH1 0x0 DUP1 REVERT JUMPDEST POP PUSH1 0x40 MLOAD PUSH3 0x1C89 CODESIZE SUB DUP1 PUSH3 0x1C89 DUP4 CODECOPY DUP2 ADD PUSH1 0x40 DUP2 SWAP1 MSTORE PUSH3 0x34 SWAP2 PUSH3 0x7FE JUMP JUMPDEST PUSH3 0x3F CALLER PUSH3 0x163 JUMP JUMPDEST PUSH1 0x3 DUP1 SLOAD PUSH1 0x1 PUSH1 0x1 PUSH1 0xA0 SHL SUB DUP1 DUP15 AND PUSH1 0x1 PUSH1 0x1 PUSH1 0xA0 SHL SUB NOT SWAP3 DUP4 AND OR SWAP1 SWAP3 SSTORE PUSH1 0x4 DUP1 SLOAD DUP14 DUP5 AND SWAP1 DUP4 AND OR SWAP1 SSTORE PUSH1 0x5 DUP1 SLOAD SWAP3 DUP13 AND SWAP3 SWAP1 SWAP2 AND SWAP2 SWAP1 SWAP2 OR SWAP1 SSTORE DUP1 MLOAD PUSH3 0x91 SWAP1 PUSH1 0x6 SWAP1 PUSH1 0x20 DUP5 ADD SWAP1 PUSH3 0x50E JUMP JUMPDEST POP PUSH3 0x11D DUP9 DUP6 DUP9 PUSH1 0x0 DUP2 MLOAD DUP2 LT PUSH3 0xAE JUMPI PUSH3 0xAE PUSH3 0x953 JUMP JUMPDEST PUSH1 0x20 MUL PUSH1 0x20 ADD ADD MLOAD DUP11 PUSH1 0x0 DUP2 MLOAD DUP2 LT PUSH3 0xCC JUMPI PUSH3 0xCC PUSH3 0x953 JUMP JUMPDEST PUSH1 0x20 MUL PUSH1 0x20 ADD ADD MLOAD DUP10 PUSH1 0x0 DUP2 MLOAD DUP2 LT PUSH3 0xEA JUMPI PUSH3 0xEA PUSH3 0x953 JUMP JUMPDEST PUSH1 0x20 MUL PUSH1 0x20 ADD ADD MLOAD DUP9 DUP8 PUSH1 0x0 DUP2 MLOAD DUP2 LT PUSH3 0x109 JUMPI PUSH3 0x109 PUSH3 0x953 JUMP JUMPDEST PUSH1 0x20 MUL PUSH1 0x20 ADD ADD MLOAD PUSH3 0x1B3 PUSH1 0x20 SHL PUSH1 0x20 SHR JUMP JUMPDEST PUSH3 0x152 DUP9 DUP6 DUP9 DUP11 DUP10 DUP9 DUP9 DUP9 PUSH1 0x1 DUP2 MLOAD DUP2 LT PUSH3 0x13E JUMPI PUSH3 0x13E PUSH3 0x953 JUMP JUMPDEST PUSH1 0x20 MUL PUSH1 0x20 ADD ADD MLOAD PUSH3 0x2CF PUSH1 0x20 SHL PUSH1 0x20 SHR JUMP JUMPDEST POP POP POP POP POP POP POP POP POP POP POP PUSH3 0xC11 JUMP JUMPDEST PUSH1 0x0 DUP1 SLOAD PUSH1 0x1 PUSH1 0x1 PUSH1 0xA0 SHL SUB DUP4 DUP2 AND PUSH1 0x1 PUSH1 0x1 PUSH1 0xA0 SHL SUB NOT DUP4 AND DUP2 OR DUP5 SSTORE PUSH1 0x40 MLOAD SWAP2 SWAP1 SWAP3 AND SWAP3 DUP4 SWAP2 PUSH32 0x8BE0079C531659141344CD1FD0A4F28419497F9722A3DAAFE3B4186F6B6457E0 SWAP2 SWAP1 LOG3 POP POP JUMP JUMPDEST PUSH3 0x1BD PUSH3 0x4AD JUMP JUMPDEST PUSH1 0x3 SLOAD PUSH1 0x40 MLOAD PUSH4 0x3E50E267 PUSH1 0xE2 SHL DUP2 MSTORE PUSH1 0x0 SWAP2 PUSH1 0x1 PUSH1 0x1 PUSH1 0xA0 SHL SUB AND SWAP1 PUSH4 0xF943899C SWAP1 PUSH3 0x1FC SWAP1 DUP12 SWAP1 DUP12 SWAP1 DUP12 SWAP1 DUP12 SWAP1 DUP12 SWAP1 DUP12 SWAP1 DUP12 SWAP1 PUSH1 0x4 ADD PUSH3 0x997 JUMP JUMPDEST PUSH1 0x20 PUSH1 0x40 MLOAD DUP1 DUP4 SUB DUP2 PUSH1 0x0 DUP8 GAS CALL ISZERO DUP1 ISZERO PUSH3 0x21C JUMPI RETURNDATASIZE PUSH1 0x0 DUP1 RETURNDATACOPY RETURNDATASIZE PUSH1 0x0 REVERT JUMPDEST POP POP POP POP PUSH1 0x40 MLOAD RETURNDATASIZE PUSH1 0x1F NOT PUSH1 0x1F DUP3 ADD AND DUP3 ADD DUP1 PUSH1 0x40 MSTORE POP DUP2 ADD SWAP1 PUSH3 0x242 SWAP2 SWAP1 PUSH3 0x9EC JUMP JUMPDEST SWAP1 POP DUP1 PUSH1 0x1 DUP8 PUSH1 0x40 MLOAD PUSH3 0x257 SWAP2 SWAP1 PUSH3 0xA11 JUMP JUMPDEST SWAP1 DUP2 MSTORE PUSH1 0x40 MLOAD SWAP1 DUP2 SWAP1 SUB PUSH1 0x20 ADD SWAP1 KECCAK256 DUP1 SLOAD PUSH1 0x1 PUSH1 0x1 PUSH1 0xA0 SHL SUB SWAP3 SWAP1 SWAP3 AND PUSH1 0x1 PUSH1 0x1 PUSH1 0xA0 SHL SUB NOT SWAP1 SWAP3 AND SWAP2 SWAP1 SWAP2 OR SWAP1 SSTORE PUSH1 0x2 DUP1 SLOAD PUSH1 0x1 DUP2 ADD DUP3 SSTORE PUSH1 0x0 SWAP2 SWAP1 SWAP2 MSTORE PUSH32 0x405787FA12A823E0F2B7631CC41B3BA8828B3321CA811111FA75CD3AA3BB5ACE ADD PUSH3 0x2C4 DUP8 DUP3 PUSH3 0xABE JUMP JUMPDEST POP POP POP POP POP POP POP POP POP JUMP JUMPDEST PUSH3 0x2D9 PUSH3 0x4AD JUMP JUMPDEST DUP6 MLOAD PUSH1 0x1 JUMPDEST DUP2 DUP2 LT ISZERO PUSH3 0x4A1 JUMPI PUSH1 0x4 SLOAD DUP9 MLOAD PUSH1 0x0 SWAP2 PUSH1 0x1 PUSH1 0x1 PUSH1 0xA0 SHL SUB AND SWAP1 PUSH4 0x5C2D70CE SWAP1 DUP14 SWAP1 DUP14 SWAP1 DUP14 SWAP1 DUP8 SWAP1 DUP2 LT PUSH3 0x318 JUMPI PUSH3 0x318 PUSH3 0x953 JUMP JUMPDEST PUSH1 0x20 MUL PUSH1 0x20 ADD ADD MLOAD DUP13 DUP8 DUP2 MLOAD DUP2 LT PUSH3 0x335 JUMPI PUSH3 0x335 PUSH3 0x953 JUMP JUMPDEST PUSH1 0x20 MUL PUSH1 0x20 ADD ADD MLOAD DUP13 DUP9 DUP2 MLOAD DUP2 LT PUSH3 0x352 JUMPI PUSH3 0x352 PUSH3 0x953 JUMP JUMPDEST PUSH1 0x20 MUL PUSH1 0x20 ADD ADD MLOAD DUP13 DUP13 DUP11 DUP2 MLOAD DUP2 LT PUSH3 0x370 JUMPI PUSH3 0x370 PUSH3 0x953 JUMP JUMPDEST PUSH1 0x20 MUL PUSH1 0x20 ADD ADD MLOAD DUP13 PUSH1 0x40 MLOAD DUP10 PUSH4 0xFFFFFFFF AND PUSH1 0xE0 SHL DUP2 MSTORE PUSH1 0x4 ADD PUSH3 0x39E SWAP9 SWAP8 SWAP7 SWAP6 SWAP5 SWAP4 SWAP3 SWAP2 SWAP1 PUSH3 0xB8A JUMP JUMPDEST PUSH1 0x20 PUSH1 0x40 MLOAD DUP1 DUP4 SUB DUP2 PUSH1 0x0 DUP8 GAS CALL ISZERO DUP1 ISZERO PUSH3 0x3BE JUMPI RETURNDATASIZE PUSH1 0x0 DUP1 RETURNDATACOPY RETURNDATASIZE PUSH1 0x0 REVERT JUMPDEST POP POP POP POP PUSH1 0x40 MLOAD RETURNDATASIZE PUSH1 0x1F NOT PUSH1 0x1F DUP3 ADD AND DUP3 ADD DUP1 PUSH1 0x40 MSTORE POP DUP2 ADD SWAP1 PUSH3 0x3E4 SWAP2 SWAP1 PUSH3 0x9EC JUMP JUMPDEST SWAP1 POP DUP1 PUSH1 0x1 DUP11 DUP5 DUP2 MLOAD DUP2 LT PUSH3 0x3FE JUMPI PUSH3 0x3FE PUSH3 0x953 JUMP JUMPDEST PUSH1 0x20 MUL PUSH1 0x20 ADD ADD MLOAD PUSH1 0x40 MLOAD PUSH3 0x415 SWAP2 SWAP1 PUSH3 0xA11 JUMP JUMPDEST SWAP1 DUP2 MSTORE PUSH1 0x20 ADD PUSH1 0x40 MLOAD DUP1 SWAP2 SUB SWAP1 KECCAK256 PUSH1 0x0 PUSH2 0x100 EXP DUP2 SLOAD DUP2 PUSH1 0x1 PUSH1 0x1 PUSH1 0xA0 SHL SUB MUL NOT AND SWAP1 DUP4 PUSH1 0x1 PUSH1 0x1 PUSH1 0xA0 SHL SUB AND MUL OR SWAP1 SSTORE POP PUSH1 0x2 DUP10 DUP4 DUP2 MLOAD DUP2 LT PUSH3 0x45E JUMPI PUSH3 0x45E PUSH3 0x953 JUMP JUMPDEST PUSH1 0x20 SWAP1 DUP2 MUL SWAP2 SWAP1 SWAP2 ADD DUP2 ADD MLOAD DUP3 SLOAD PUSH1 0x1 DUP2 ADD DUP5 SSTORE PUSH1 0x0 SWAP4 DUP5 MSTORE SWAP2 SWAP1 SWAP3 KECCAK256 ADD SWAP1 PUSH3 0x489 SWAP1 DUP3 PUSH3 0xABE JUMP JUMPDEST POP POP DUP1 DUP1 PUSH3 0x498 SWAP1 PUSH3 0xBE9 JUMP JUMPDEST SWAP2 POP POP PUSH3 0x2DE JUMP JUMPDEST POP POP POP POP POP POP POP POP POP POP JUMP JUMPDEST PUSH1 0x0 SLOAD PUSH1 0x1 PUSH1 0x1 PUSH1 0xA0 SHL SUB AND CALLER EQ PUSH3 0x50C JUMPI PUSH1 0x40 MLOAD PUSH3 0x461BCD PUSH1 0xE5 SHL DUP2 MSTORE PUSH1 0x20 PUSH1 0x4 DUP3 ADD DUP2 SWAP1 MSTORE PUSH1 0x24 DUP3 ADD MSTORE PUSH32 0x4F776E61626C653A2063616C6C6572206973206E6F7420746865206F776E6572 PUSH1 0x44 DUP3 ADD MSTORE PUSH1 0x64 ADD PUSH1 0x40 MLOAD DUP1 SWAP2 SUB SWAP1 REVERT JUMPDEST JUMP JUMPDEST DUP3 DUP1 SLOAD DUP3 DUP3 SSTORE SWAP1 PUSH1 0x0 MSTORE PUSH1 0x20 PUSH1 0x0 KECCAK256 SWAP1 DUP2 ADD SWAP3 DUP3 ISZERO PUSH3 0x559 JUMPI SWAP2 PUSH1 0x20 MUL DUP3 ADD JUMPDEST DUP3 DUP2 GT ISZERO PUSH3 0x559 JUMPI DUP3 MLOAD DUP3 SWAP1 PUSH3 0x548 SWAP1 DUP3 PUSH3 0xABE JUMP JUMPDEST POP SWAP2 PUSH1 0x20 ADD SWAP2 SWAP1 PUSH1 0x1 ADD SWAP1 PUSH3 0x52F JUMP JUMPDEST POP PUSH3 0x567 SWAP3 SWAP2 POP PUSH3 0x56B JUMP JUMPDEST POP SWAP1 JUMP JUMPDEST DUP1 DUP3 GT ISZERO PUSH3 0x567 JUMPI PUSH1 0x0 PUSH3 0x582 DUP3 DUP3 PUSH3 0x58C JUMP JUMPDEST POP PUSH1 0x1 ADD PUSH3 0x56B JUMP JUMPDEST POP DUP1 SLOAD PUSH3 0x59A SWAP1 PUSH3 0xA2F JUMP JUMPDEST PUSH1 0x0 DUP3 SSTORE DUP1 PUSH1 0x1F LT PUSH3 0x5AB JUMPI POP POP JUMP JUMPDEST PUSH1 0x1F ADD PUSH1 0x20 SWAP1 DIV SWAP1 PUSH1 0x0 MSTORE PUSH1 0x20 PUSH1 0x0 KECCAK256 SWAP1 DUP2 ADD SWAP1 PUSH3 0x5CB SWAP2 SWAP1 PUSH3 0x5CE JUMP JUMPDEST POP JUMP JUMPDEST JUMPDEST DUP1 DUP3 GT ISZERO PUSH3 0x567 JUMPI PUSH1 0x0 DUP2 SSTORE PUSH1 0x1 ADD PUSH3 0x5CF JUMP JUMPDEST DUP1 MLOAD PUSH1 0x1 PUSH1 0x1 PUSH1 0xA0 SHL SUB DUP2 AND DUP2 EQ PUSH3 0x5FD JUMPI PUSH1 0x0 DUP1 REVERT JUMPDEST SWAP2 SWAP1 POP JUMP JUMPDEST PUSH4 0x4E487B71 PUSH1 0xE0 SHL PUSH1 0x0 MSTORE PUSH1 0x41 PUSH1 0x4 MSTORE PUSH1 0x24 PUSH1 0x0 REVERT JUMPDEST PUSH1 0x40 MLOAD PUSH1 0x1F DUP3 ADD PUSH1 0x1F NOT AND DUP2 ADD PUSH1 0x1 PUSH1 0x1 PUSH1 0x40 SHL SUB DUP2 GT DUP3 DUP3 LT OR ISZERO PUSH3 0x643 JUMPI PUSH3 0x643 PUSH3 0x602 JUMP JUMPDEST PUSH1 0x40 MSTORE SWAP2 SWAP1 POP JUMP JUMPDEST PUSH1 0x0 PUSH1 0x1 PUSH1 0x1 PUSH1 0x40 SHL SUB DUP3 GT ISZERO PUSH3 0x667 JUMPI PUSH3 0x667 PUSH3 0x602 JUMP JUMPDEST POP PUSH1 0x5 SHL PUSH1 0x20 ADD SWAP1 JUMP JUMPDEST PUSH1 0x0 DUP3 PUSH1 0x1F DUP4 ADD SLT PUSH3 0x683 JUMPI PUSH1 0x0 DUP1 REVERT JUMPDEST DUP2 MLOAD PUSH1 0x20 PUSH3 0x69C PUSH3 0x696 DUP4 PUSH3 0x64B JUMP JUMPDEST PUSH3 0x618 JUMP JUMPDEST DUP3 DUP2 MSTORE PUSH1 0x5 SWAP3 SWAP1 SWAP3 SHL DUP5 ADD DUP2 ADD SWAP2 DUP2 DUP2 ADD SWAP1 DUP7 DUP5 GT ISZERO PUSH3 0x6BC JUMPI PUSH1 0x0 DUP1 REVERT JUMPDEST DUP3 DUP7 ADD JUMPDEST DUP5 DUP2 LT ISZERO PUSH3 0x6D9 JUMPI DUP1 MLOAD DUP4 MSTORE SWAP2 DUP4 ADD SWAP2 DUP4 ADD PUSH3 0x6C0 JUMP JUMPDEST POP SWAP7 SWAP6 POP POP POP POP POP POP JUMP JUMPDEST PUSH1 0x0 JUMPDEST DUP4 DUP2 LT ISZERO PUSH3 0x701 JUMPI DUP2 DUP2 ADD MLOAD DUP4 DUP3 ADD MSTORE PUSH1 0x20 ADD PUSH3 0x6E7 JUMP JUMPDEST POP POP PUSH1 0x0 SWAP2 ADD MSTORE JUMP JUMPDEST PUSH1 0x0 PUSH1 0x1F DUP4 DUP2 DUP5 ADD SLT PUSH3 0x71D JUMPI PUSH1 0x0 DUP1 REVERT JUMPDEST DUP3 MLOAD PUSH1 0x20 PUSH3 0x730 PUSH3 0x696 DUP4 PUSH3 0x64B JUMP JUMPDEST DUP3 DUP2 MSTORE PUSH1 0x5 SWAP3 SWAP1 SWAP3 SHL DUP6 ADD DUP2 ADD SWAP2 DUP2 DUP2 ADD SWAP1 DUP8 DUP5 GT ISZERO PUSH3 0x750 JUMPI PUSH1 0x0 DUP1 REVERT JUMPDEST DUP3 DUP8 ADD JUMPDEST DUP5 DUP2 LT ISZERO PUSH3 0x7F2 JUMPI DUP1 MLOAD PUSH1 0x1 PUSH1 0x1 PUSH1 0x40 SHL SUB DUP1 DUP3 GT ISZERO PUSH3 0x776 JUMPI PUSH1 0x0 DUP1 DUP2 REVERT JUMPDEST DUP2 DUP11 ADD SWAP2 POP DUP11 PUSH1 0x3F DUP4 ADD SLT PUSH3 0x78C JUMPI PUSH1 0x0 DUP1 DUP2 REVERT JUMPDEST DUP6 DUP3 ADD MLOAD PUSH1 0x40 DUP3 DUP3 GT ISZERO PUSH3 0x7A5 JUMPI PUSH3 0x7A5 PUSH3 0x602 JUMP JUMPDEST PUSH3 0x7B8 DUP3 DUP12 ADD PUSH1 0x1F NOT AND DUP10 ADD PUSH3 0x618 JUMP JUMPDEST SWAP3 POP DUP2 DUP4 MSTORE DUP13 DUP2 DUP4 DUP7 ADD ADD GT ISZERO PUSH3 0x7D0 JUMPI PUSH1 0x0 DUP1 DUP2 REVERT JUMPDEST PUSH3 0x7E1 DUP3 DUP10 DUP6 ADD DUP4 DUP8 ADD PUSH3 0x6E4 JUMP JUMPDEST POP POP DUP5 MSTORE POP SWAP2 DUP4 ADD SWAP2 DUP4 ADD PUSH3 0x754 JUMP JUMPDEST POP SWAP8 SWAP7 POP POP POP POP POP POP POP JUMP JUMPDEST PUSH1 0x0 DUP1 PUSH1 0x0 DUP1 PUSH1 0x0 DUP1 PUSH1 0x0 DUP1 PUSH1 0x0 DUP1 PUSH1 0x0 PUSH2 0x160 DUP13 DUP15 SUB SLT ISZERO PUSH3 0x821 JUMPI PUSH1 0x0 DUP1 REVERT JUMPDEST PUSH3 0x82C DUP13 PUSH3 0x5E5 JUMP JUMPDEST SWAP11 POP PUSH3 0x83C PUSH1 0x20 DUP14 ADD PUSH3 0x5E5 JUMP JUMPDEST SWAP10 POP PUSH3 0x84C PUSH1 0x40 DUP14 ADD PUSH3 0x5E5 JUMP JUMPDEST PUSH1 0x60 DUP14 ADD MLOAD PUSH1 0x80 DUP15 ADD MLOAD SWAP2 SWAP11 POP SWAP9 POP PUSH1 0x1 PUSH1 0x1 PUSH1 0x40 SHL SUB DUP2 GT ISZERO PUSH3 0x870 JUMPI PUSH1 0x0 DUP1 REVERT JUMPDEST PUSH3 0x87E DUP15 DUP3 DUP16 ADD PUSH3 0x671 JUMP JUMPDEST PUSH1 0xA0 DUP15 ADD MLOAD SWAP1 SWAP9 POP SWAP1 POP PUSH1 0x1 PUSH1 0x1 PUSH1 0x40 SHL SUB DUP2 GT ISZERO PUSH3 0x89D JUMPI PUSH1 0x0 DUP1 REVERT JUMPDEST PUSH3 0x8AB DUP15 DUP3 DUP16 ADD PUSH3 0x70A JUMP JUMPDEST PUSH1 0xC0 DUP15 ADD MLOAD SWAP1 SWAP8 POP SWAP1 POP PUSH1 0x1 PUSH1 0x1 PUSH1 0x40 SHL SUB DUP2 GT ISZERO PUSH3 0x8CA JUMPI PUSH1 0x0 DUP1 REVERT JUMPDEST PUSH3 0x8D8 DUP15 DUP3 DUP16 ADD PUSH3 0x671 JUMP JUMPDEST SWAP6 POP POP PUSH1 0xE0 DUP13 ADD MLOAD SWAP4 POP PUSH2 0x100 DUP13 ADD MLOAD SWAP3 POP PUSH2 0x120 DUP13 ADD MLOAD PUSH1 0x1 DUP1 PUSH1 0x40 SHL SUB DUP2 GT ISZERO PUSH3 0x904 JUMPI PUSH1 0x0 DUP1 REVERT JUMPDEST PUSH3 0x912 DUP15 DUP3 DUP16 ADD PUSH3 0x671 JUMP JUMPDEST PUSH2 0x140 DUP15 ADD MLOAD SWAP1 SWAP4 POP SWAP1 POP PUSH1 0x1 PUSH1 0x1 PUSH1 0x40 SHL SUB DUP2 GT ISZERO PUSH3 0x932 JUMPI PUSH1 0x0 DUP1 REVERT JUMPDEST PUSH3 0x940 DUP15 DUP3 DUP16 ADD PUSH3 0x70A JUMP JUMPDEST SWAP2 POP POP SWAP3 SWAP6 SWAP9 SWAP12 POP SWAP3 SWAP6 SWAP9 SWAP12 SWAP1 SWAP4 SWAP7 SWAP10 POP JUMP JUMPDEST PUSH4 0x4E487B71 PUSH1 0xE0 SHL PUSH1 0x0 MSTORE PUSH1 0x32 PUSH1 0x4 MSTORE PUSH1 0x24 PUSH1 0x0 REVERT JUMPDEST PUSH1 0x0 DUP2 MLOAD DUP1 DUP5 MSTORE PUSH3 0x983 DUP2 PUSH1 0x20 DUP7 ADD PUSH1 0x20 DUP7 ADD PUSH3 0x6E4 JUMP JUMPDEST PUSH1 0x1F ADD PUSH1 0x1F NOT AND SWAP3 SWAP1 SWAP3 ADD PUSH1 0x20 ADD SWAP3 SWAP2 POP POP JUMP JUMPDEST DUP8 DUP2 MSTORE DUP7 PUSH1 0x20 DUP3 ADD MSTORE PUSH1 0xE0 PUSH1 0x40 DUP3 ADD MSTORE PUSH1 0x0 PUSH3 0x9B8 PUSH1 0xE0 DUP4 ADD DUP9 PUSH3 0x969 JUMP JUMPDEST DUP7 PUSH1 0x60 DUP5 ADD MSTORE DUP6 PUSH1 0x80 DUP5 ADD MSTORE DUP5 PUSH1 0xA0 DUP5 ADD MSTORE DUP3 DUP2 SUB PUSH1 0xC0 DUP5 ADD MSTORE PUSH3 0x9DE DUP2 DUP6 PUSH3 0x969 JUMP JUMPDEST SWAP11 SWAP10 POP POP POP POP POP POP POP POP POP POP JUMP JUMPDEST PUSH1 0x0 PUSH1 0x20 DUP3 DUP5 SUB SLT ISZERO PUSH3 0x9FF JUMPI PUSH1 0x0 DUP1 REVERT JUMPDEST PUSH3 0xA0A DUP3 PUSH3 0x5E5 JUMP JUMPDEST SWAP4 SWAP3 POP POP POP JUMP JUMPDEST PUSH1 0x0 DUP3 MLOAD PUSH3 0xA25 DUP2 DUP5 PUSH1 0x20 DUP8 ADD PUSH3 0x6E4 JUMP JUMPDEST SWAP2 SWAP1 SWAP2 ADD SWAP3 SWAP2 POP POP JUMP JUMPDEST PUSH1 0x1 DUP2 DUP2 SHR SWAP1 DUP3 AND DUP1 PUSH3 0xA44 JUMPI PUSH1 0x7F DUP3 AND SWAP2 POP JUMPDEST PUSH1 0x20 DUP3 LT DUP2 SUB PUSH3 0xA65 JUMPI PUSH4 0x4E487B71 PUSH1 0xE0 SHL PUSH1 0x0 MSTORE PUSH1 0x22 PUSH1 0x4 MSTORE PUSH1 0x24 PUSH1 0x0 REVERT JUMPDEST POP SWAP2 SWAP1 POP JUMP JUMPDEST PUSH1 0x1F DUP3 GT ISZERO PUSH3 0xAB9 JUMPI PUSH1 0x0 DUP2 DUP2 MSTORE PUSH1 0x20 DUP2 KECCAK256 PUSH1 0x1F DUP6 ADD PUSH1 0x5 SHR DUP2 ADD PUSH1 0x20 DUP7 LT ISZERO PUSH3 0xA94 JUMPI POP DUP1 JUMPDEST PUSH1 0x1F DUP6 ADD PUSH1 0x5 SHR DUP3 ADD SWAP2 POP JUMPDEST DUP2 DUP2 LT ISZERO PUSH3 0xAB5 JUMPI DUP3 DUP2 SSTORE PUSH1 0x1 ADD PUSH3 0xAA0 JUMP JUMPDEST POP POP POP JUMPDEST POP POP POP JUMP JUMPDEST DUP2 MLOAD PUSH1 0x1 PUSH1 0x1 PUSH1 0x40 SHL SUB DUP2 GT ISZERO PUSH3 0xADA JUMPI PUSH3 0xADA PUSH3 0x602 JUMP JUMPDEST PUSH3 0xAF2 DUP2 PUSH3 0xAEB DUP5 SLOAD PUSH3 0xA2F JUMP JUMPDEST DUP5 PUSH3 0xA6B JUMP JUMPDEST PUSH1 0x20 DUP1 PUSH1 0x1F DUP4 GT PUSH1 0x1 DUP2 EQ PUSH3 0xB2A JUMPI PUSH1 0x0 DUP5 ISZERO PUSH3 0xB11 JUMPI POP DUP6 DUP4 ADD MLOAD JUMPDEST PUSH1 0x0 NOT PUSH1 0x3 DUP7 SWAP1 SHL SHR NOT AND PUSH1 0x1 DUP6 SWAP1 SHL OR DUP6 SSTORE PUSH3 0xAB5 JUMP JUMPDEST PUSH1 0x0 DUP6 DUP2 MSTORE PUSH1 0x20 DUP2 KECCAK256 PUSH1 0x1F NOT DUP7 AND SWAP2 JUMPDEST DUP3 DUP2 LT ISZERO PUSH3 0xB5B JUMPI DUP9 DUP7 ADD MLOAD DUP3 SSTORE SWAP5 DUP5 ADD SWAP5 PUSH1 0x1 SWAP1 SWAP2 ADD SWAP1 DUP5 ADD PUSH3 0xB3A JUMP JUMPDEST POP DUP6 DUP3 LT ISZERO PUSH3 0xB7A JUMPI DUP8 DUP6 ADD MLOAD PUSH1 0x0 NOT PUSH1 0x3 DUP9 SWAP1 SHL PUSH1 0xF8 AND SHR NOT AND DUP2 SSTORE JUMPDEST POP POP POP POP POP PUSH1 0x1 SWAP1 DUP2 SHL ADD SWAP1 SSTORE POP JUMP JUMPDEST PUSH1 0x0 PUSH2 0x100 DUP11 DUP4 MSTORE DUP10 PUSH1 0x20 DUP5 ADD MSTORE DUP1 PUSH1 0x40 DUP5 ADD MSTORE PUSH3 0xBAC DUP2 DUP5 ADD DUP11 PUSH3 0x969 JUMP JUMPDEST SWAP1 POP DUP8 PUSH1 0x60 DUP5 ADD MSTORE DUP7 PUSH1 0x80 DUP5 ADD MSTORE DUP6 PUSH1 0xA0 DUP5 ADD MSTORE DUP5 PUSH1 0xC0 DUP5 ADD MSTORE DUP3 DUP2 SUB PUSH1 0xE0 DUP5 ADD MSTORE PUSH3 0xBDA DUP2 DUP6 PUSH3 0x969 JUMP JUMPDEST SWAP12 SWAP11 POP POP POP POP POP POP POP POP POP POP POP JUMP JUMPDEST PUSH1 0x0 PUSH1 0x1 DUP3 ADD PUSH3 0xC0A JUMPI PUSH4 0x4E487B71 PUSH1 0xE0 SHL PUSH1 0x0 MSTORE PUSH1 0x11 PUSH1 0x4 MSTORE PUSH1 0x24 PUSH1 0x0 REVERT JUMPDEST POP PUSH1 0x1 ADD SWAP1 JUMP JUMPDEST PUSH2 0x1068 DUP1 PUSH3 0xC21 PUSH1 0x0 CODECOPY PUSH1 0x0 RETURN INVALID PUSH1 0x80 PUSH1 0x40 MSTORE CALLVALUE DUP1 ISZERO PUSH2 0x10 JUMPI PUSH1 0x0 DUP1 REVERT JUMPDEST POP PUSH1 0x4 CALLDATASIZE LT PUSH2 0xA9 JUMPI PUSH1 0x0 CALLDATALOAD PUSH1 0xE0 SHR DUP1 PUSH4 0x7580916B GT PUSH2 0x71 JUMPI DUP1 PUSH4 0x7580916B EQ PUSH2 0x130 JUMPI DUP1 PUSH4 0x849DB6BF EQ PUSH2 0x164 JUMPI DUP1 PUSH4 0x8DA5CB5B EQ PUSH2 0x177 JUMPI DUP1 PUSH4 0x9648C9F4 EQ PUSH2 0x188 JUMPI DUP1 PUSH4 0xCC437008 EQ PUSH2 0x19F JUMPI DUP1 PUSH4 0xF2FDE38B EQ PUSH2 0x1B4 JUMPI PUSH1 0x0 DUP1 REVERT JUMPDEST DUP1 PUSH4 0x183A471C EQ PUSH2 0xAE JUMPI DUP1 PUSH4 0x290F3094 EQ PUSH2 0xDE JUMPI DUP1 PUSH4 0x35603440 EQ PUSH2 0xF3 JUMPI DUP1 PUSH4 0x48A4F2E9 EQ PUSH2 0x113 JUMPI DUP1 PUSH4 0x715018A6 EQ PUSH2 0x128 JUMPI JUMPDEST PUSH1 0x0 DUP1 REVERT JUMPDEST PUSH2 0xC1 PUSH2 0xBC CALLDATASIZE PUSH1 0x4 PUSH2 0x924 JUMP JUMPDEST PUSH2 0x1C7 JUMP JUMPDEST PUSH1 0x40 MLOAD PUSH1 0x1 PUSH1 0x1 PUSH1 0xA0 SHL SUB SWAP1 SWAP2 AND DUP2 MSTORE PUSH1 0x20 ADD JUMPDEST PUSH1 0x40 MLOAD DUP1 SWAP2 SUB SWAP1 RETURN JUMPDEST PUSH2 0xF1 PUSH2 0xEC CALLDATASIZE PUSH1 0x4 PUSH2 0x961 JUMP JUMPDEST PUSH2 0x1F8 JUMP JUMPDEST STOP JUMPDEST PUSH2 0x106 PUSH2 0x101 CALLDATASIZE PUSH1 0x4 PUSH2 0x9F5 JUMP JUMPDEST PUSH2 0x309 JUMP JUMPDEST PUSH1 0x40 MLOAD PUSH2 0xD5 SWAP2 SWAP1 PUSH2 0xA5E JUMP JUMPDEST PUSH2 0x11B PUSH2 0x3B5 JUMP JUMPDEST PUSH1 0x40 MLOAD PUSH2 0xD5 SWAP2 SWAP1 PUSH2 0xA78 JUMP JUMPDEST PUSH2 0xF1 PUSH2 0x48E JUMP JUMPDEST PUSH2 0xC1 PUSH2 0x13E CALLDATASIZE PUSH1 0x4 PUSH2 0x924 JUMP JUMPDEST DUP1 MLOAD PUSH1 0x20 DUP2 DUP4 ADD DUP2 ADD DUP1 MLOAD PUSH1 0x1 DUP3 MSTORE SWAP3 DUP3 ADD SWAP2 SWAP1 SWAP4 ADD KECCAK256 SWAP2 MSTORE SLOAD PUSH1 0x1 PUSH1 0x1 PUSH1 0xA0 SHL SUB AND DUP2 JUMP JUMPDEST PUSH2 0xF1 PUSH2 0x172 CALLDATASIZE PUSH1 0x4 PUSH2 0xBE9 JUMP JUMPDEST PUSH2 0x4A2 JUMP JUMPDEST PUSH1 0x0 SLOAD PUSH1 0x1 PUSH1 0x1 PUSH1 0xA0 SHL SUB AND PUSH2 0xC1 JUMP JUMPDEST PUSH2 0x191 PUSH1 0x7 SLOAD DUP2 JUMP JUMPDEST PUSH1 0x40 MLOAD SWAP1 DUP2 MSTORE PUSH1 0x20 ADD PUSH2 0xD5 JUMP JUMPDEST PUSH2 0x1A7 PUSH2 0x65F JUMP JUMPDEST PUSH1 0x40 MLOAD PUSH2 0xD5 SWAP2 SWAP1 PUSH2 0xCD8 JUMP JUMPDEST PUSH2 0xF1 PUSH2 0x1C2 CALLDATASIZE PUSH1 0x4 PUSH2 0xD3A JUMP JUMPDEST PUSH2 0x745 JUMP JUMPDEST PUSH1 0x0 PUSH1 0x1 DUP3 PUSH1 0x40 MLOAD PUSH2 0x1D9 SWAP2 SWAP1 PUSH2 0xD57 JUMP JUMPDEST SWAP1 DUP2 MSTORE PUSH1 0x40 MLOAD SWAP1 DUP2 SWAP1 SUB PUSH1 0x20 ADD SWAP1 KECCAK256 SLOAD PUSH1 0x1 PUSH1 0x1 PUSH1 0xA0 SHL SUB AND SWAP3 SWAP2 POP POP JUMP JUMPDEST PUSH2 0x200 PUSH2 0x7C3 JUMP JUMPDEST PUSH1 0x3 SLOAD PUSH1 0x40 MLOAD PUSH4 0x3E50E267 PUSH1 0xE2 SHL DUP2 MSTORE PUSH1 0x0 SWAP2 PUSH1 0x1 PUSH1 0x1 PUSH1 0xA0 SHL SUB AND SWAP1 PUSH4 0xF943899C SWAP1 PUSH2 0x23D SWAP1 DUP12 SWAP1 DUP12 SWAP1 DUP12 SWAP1 DUP12 SWAP1 DUP12 SWAP1 DUP12 SWAP1 DUP12 SWAP1 PUSH1 0x4 ADD PUSH2 0xD73 JUMP JUMPDEST PUSH1 0x20 PUSH1 0x40 MLOAD DUP1 DUP4 SUB DUP2 PUSH1 0x0 DUP8 GAS CALL ISZERO DUP1 ISZERO PUSH2 0x25C JUMPI RETURNDATASIZE PUSH1 0x0 DUP1 RETURNDATACOPY RETURNDATASIZE PUSH1 0x0 REVERT JUMPDEST POP POP POP POP PUSH1 0x40 MLOAD RETURNDATASIZE PUSH1 0x1F NOT PUSH1 0x1F DUP3 ADD AND DUP3 ADD DUP1 PUSH1 0x40 MSTORE POP DUP2 ADD SWAP1 PUSH2 0x280 SWAP2 SWAP1 PUSH2 0xDC4 JUMP JUMPDEST SWAP1 POP DUP1 PUSH1 0x1 DUP8 PUSH1 0x40 MLOAD PUSH2 0x293 SWAP2 SWAP1 PUSH2 0xD57 JUMP JUMPDEST SWAP1 DUP2 MSTORE PUSH1 0x40 MLOAD SWAP1 DUP2 SWAP1 SUB PUSH1 0x20 ADD SWAP1 KECCAK256 DUP1 SLOAD PUSH1 0x1 PUSH1 0x1 PUSH1 0xA0 SHL SUB SWAP3 SWAP1 SWAP3 AND PUSH1 0x1 PUSH1 0x1 PUSH1 0xA0 SHL SUB NOT SWAP1 SWAP3 AND SWAP2 SWAP1 SWAP2 OR SWAP1 SSTORE PUSH1 0x2 DUP1 SLOAD PUSH1 0x1 DUP2 ADD DUP3 SSTORE PUSH1 0x0 SWAP2 SWAP1 SWAP2 MSTORE PUSH32 0x405787FA12A823E0F2B7631CC41B3BA8828B3321CA811111FA75CD3AA3BB5ACE ADD PUSH2 0x2FE DUP8 DUP3 PUSH2 0xE64 JUMP JUMPDEST POP POP POP POP POP POP POP POP POP JUMP JUMPDEST PUSH1 0x2 DUP2 DUP2 SLOAD DUP2 LT PUSH2 0x319 JUMPI PUSH1 0x0 DUP1 REVERT JUMPDEST SWAP1 PUSH1 0x0 MSTORE PUSH1 0x20 PUSH1 0x0 KECCAK256 ADD PUSH1 0x0 SWAP2 POP SWAP1 POP DUP1 SLOAD PUSH2 0x334 SWAP1 PUSH2 0xDE1 JUMP JUMPDEST DUP1 PUSH1 0x1F ADD PUSH1 0x20 DUP1 SWAP2 DIV MUL PUSH1 0x20 ADD PUSH1 0x40 MLOAD SWAP1 DUP2 ADD PUSH1 0x40 MSTORE DUP1 SWAP3 SWAP2 SWAP1 DUP2 DUP2 MSTORE PUSH1 0x20 ADD DUP3 DUP1 SLOAD PUSH2 0x360 SWAP1 PUSH2 0xDE1 JUMP JUMPDEST DUP1 ISZERO PUSH2 0x3AD JUMPI DUP1 PUSH1 0x1F LT PUSH2 0x382 JUMPI PUSH2 0x100 DUP1 DUP4 SLOAD DIV MUL DUP4 MSTORE SWAP2 PUSH1 0x20 ADD SWAP2 PUSH2 0x3AD JUMP JUMPDEST DUP3 ADD SWAP2 SWAP1 PUSH1 0x0 MSTORE PUSH1 0x20 PUSH1 0x0 KECCAK256 SWAP1 JUMPDEST DUP2 SLOAD DUP2 MSTORE SWAP1 PUSH1 0x1 ADD SWAP1 PUSH1 0x20 ADD DUP1 DUP4 GT PUSH2 0x390 JUMPI DUP3 SWAP1 SUB PUSH1 0x1F AND DUP3 ADD SWAP2 JUMPDEST POP POP POP POP POP DUP2 JUMP JUMPDEST PUSH1 0x60 PUSH1 0x2 DUP1 SLOAD DUP1 PUSH1 0x20 MUL PUSH1 0x20 ADD PUSH1 0x40 MLOAD SWAP1 DUP2 ADD PUSH1 0x40 MSTORE DUP1 SWAP3 SWAP2 SWAP1 DUP2 DUP2 MSTORE PUSH1 0x20 ADD PUSH1 0x0 SWAP1 JUMPDEST DUP3 DUP3 LT ISZERO PUSH2 0x485 JUMPI DUP4 DUP3 SWAP1 PUSH1 0x0 MSTORE PUSH1 0x20 PUSH1 0x0 KECCAK256 ADD DUP1 SLOAD PUSH2 0x3F8 SWAP1 PUSH2 0xDE1 JUMP JUMPDEST DUP1 PUSH1 0x1F ADD PUSH1 0x20 DUP1 SWAP2 DIV MUL PUSH1 0x20 ADD PUSH1 0x40 MLOAD SWAP1 DUP2 ADD PUSH1 0x40 MSTORE DUP1 SWAP3 SWAP2 SWAP1 DUP2 DUP2 MSTORE PUSH1 0x20 ADD DUP3 DUP1 SLOAD PUSH2 0x424 SWAP1 PUSH2 0xDE1 JUMP JUMPDEST DUP1 ISZERO PUSH2 0x471 JUMPI DUP1 PUSH1 0x1F LT PUSH2 0x446 JUMPI PUSH2 0x100 DUP1 DUP4 SLOAD DIV MUL DUP4 MSTORE SWAP2 PUSH1 0x20 ADD SWAP2 PUSH2 0x471 JUMP JUMPDEST DUP3 ADD SWAP2 SWAP1 PUSH1 0x0 MSTORE PUSH1 0x20 PUSH1 0x0 KECCAK256 SWAP1 JUMPDEST DUP2 SLOAD DUP2 MSTORE SWAP1 PUSH1 0x1 ADD SWAP1 PUSH1 0x20 ADD DUP1 DUP4 GT PUSH2 0x454 JUMPI DUP3 SWAP1 SUB PUSH1 0x1F AND DUP3 ADD SWAP2 JUMPDEST POP POP POP POP POP DUP2 MSTORE PUSH1 0x20 ADD SWAP1 PUSH1 0x1 ADD SWAP1 PUSH2 0x3D9 JUMP JUMPDEST POP POP POP POP SWAP1 POP SWAP1 JUMP JUMPDEST PUSH2 0x496 PUSH2 0x7C3 JUMP JUMPDEST PUSH2 0x4A0 PUSH1 0x0 PUSH2 0x81D JUMP JUMPDEST JUMP JUMPDEST PUSH2 0x4AA PUSH2 0x7C3 JUMP JUMPDEST DUP6 MLOAD PUSH1 0x1 JUMPDEST DUP2 DUP2 LT ISZERO PUSH2 0x653 JUMPI PUSH1 0x4 SLOAD DUP9 MLOAD PUSH1 0x0 SWAP2 PUSH1 0x1 PUSH1 0x1 PUSH1 0xA0 SHL SUB AND SWAP1 PUSH4 0x5C2D70CE SWAP1 DUP14 SWAP1 DUP14 SWAP1 DUP14 SWAP1 DUP8 SWAP1 DUP2 LT PUSH2 0x4E5 JUMPI PUSH2 0x4E5 PUSH2 0xF24 JUMP JUMPDEST PUSH1 0x20 MUL PUSH1 0x20 ADD ADD MLOAD DUP13 DUP8 DUP2 MLOAD DUP2 LT PUSH2 0x4FF JUMPI PUSH2 0x4FF PUSH2 0xF24 JUMP JUMPDEST PUSH1 0x20 MUL PUSH1 0x20 ADD ADD MLOAD DUP13 DUP9 DUP2 MLOAD DUP2 LT PUSH2 0x519 JUMPI PUSH2 0x519 PUSH2 0xF24 JUMP JUMPDEST PUSH1 0x20 MUL PUSH1 0x20 ADD ADD MLOAD DUP13 DUP13 DUP11 DUP2 MLOAD DUP2 LT PUSH2 0x534 JUMPI PUSH2 0x534 PUSH2 0xF24 JUMP JUMPDEST PUSH1 0x20 MUL PUSH1 0x20 ADD ADD MLOAD DUP13 PUSH1 0x40 MLOAD DUP10 PUSH4 0xFFFFFFFF AND PUSH1 0xE0 SHL DUP2 MSTORE PUSH1 0x4 ADD PUSH2 0x560 SWAP9 SWAP8 SWAP7 SWAP6 SWAP5 SWAP4 SWAP3 SWAP2 SWAP1 PUSH2 0xF3A JUMP JUMPDEST PUSH1 0x20 PUSH1 0x40 MLOAD DUP1 DUP4 SUB DUP2 PUSH1 0x0 DUP8 GAS CALL ISZERO DUP1 ISZERO PUSH2 0x57F JUMPI RETURNDATASIZE PUSH1 0x0 DUP1 RETURNDATACOPY RETURNDATASIZE PUSH1 0x0 REVERT JUMPDEST POP POP POP POP PUSH1 0x40 MLOAD RETURNDATASIZE PUSH1 0x1F NOT PUSH1 0x1F DUP3 ADD AND DUP3 ADD DUP1 PUSH1 0x40 MSTORE POP DUP2 ADD SWAP1 PUSH2 0x5A3 SWAP2 SWAP1 PUSH2 0xDC4 JUMP JUMPDEST SWAP1 POP DUP1 PUSH1 0x1 DUP11 DUP5 DUP2 MLOAD DUP2 LT PUSH2 0x5BA JUMPI PUSH2 0x5BA PUSH2 0xF24 JUMP JUMPDEST PUSH1 0x20 MUL PUSH1 0x20 ADD ADD MLOAD PUSH1 0x40 MLOAD PUSH2 0x5CF SWAP2 SWAP1 PUSH2 0xD57 JUMP JUMPDEST SWAP1 DUP2 MSTORE PUSH1 0x20 ADD PUSH1 0x40 MLOAD DUP1 SWAP2 SUB SWAP1 KECCAK256 PUSH1 0x0 PUSH2 0x100 EXP DUP2 SLOAD DUP2 PUSH1 0x1 PUSH1 0x1 PUSH1 0xA0 SHL SUB MUL NOT AND SWAP1 DUP4 PUSH1 0x1 PUSH1 0x1 PUSH1 0xA0 SHL SUB AND MUL OR SWAP1 SSTORE POP PUSH1 0x2 DUP10 DUP4 DUP2 MLOAD DUP2 LT PUSH2 0x615 JUMPI PUSH2 0x615 PUSH2 0xF24 JUMP JUMPDEST PUSH1 0x20 SWAP1 DUP2 MUL SWAP2 SWAP1 SWAP2 ADD DUP2 ADD MLOAD DUP3 SLOAD PUSH1 0x1 DUP2 ADD DUP5 SSTORE PUSH1 0x0 SWAP4 DUP5 MSTORE SWAP2 SWAP1 SWAP3 KECCAK256 ADD SWAP1 PUSH2 0x63E SWAP1 DUP3 PUSH2 0xE64 JUMP JUMPDEST POP POP DUP1 DUP1 PUSH2 0x64B SWAP1 PUSH2 0xF95 JUMP JUMPDEST SWAP2 POP POP PUSH2 0x4AF JUMP JUMPDEST POP POP POP POP POP POP POP POP POP POP JUMP JUMPDEST PUSH1 0x2 SLOAD PUSH1 0x60 SWAP1 PUSH1 0x0 SWAP1 PUSH8 0xFFFFFFFFFFFFFFFF DUP2 GT ISZERO PUSH2 0x680 JUMPI PUSH2 0x680 PUSH2 0x86D JUMP JUMPDEST PUSH1 0x40 MLOAD SWAP1 DUP1 DUP3 MSTORE DUP1 PUSH1 0x20 MUL PUSH1 0x20 ADD DUP3 ADD PUSH1 0x40 MSTORE DUP1 ISZERO PUSH2 0x6A9 JUMPI DUP2 PUSH1 0x20 ADD PUSH1 0x20 DUP3 MUL DUP1 CALLDATASIZE DUP4 CALLDATACOPY ADD SWAP1 POP JUMPDEST POP SWAP1 POP PUSH1 0x0 JUMPDEST PUSH1 0x2 SLOAD DUP2 LT ISZERO PUSH2 0x73F JUMPI PUSH1 0x1 PUSH1 0x2 DUP3 DUP2 SLOAD DUP2 LT PUSH2 0x6CE JUMPI PUSH2 0x6CE PUSH2 0xF24 JUMP JUMPDEST SWAP1 PUSH1 0x0 MSTORE PUSH1 0x20 PUSH1 0x0 KECCAK256 ADD PUSH1 0x40 MLOAD PUSH2 0x6E5 SWAP2 SWAP1 PUSH2 0xFBC JUMP JUMPDEST SWAP1 DUP2 MSTORE PUSH1 0x40 MLOAD SWAP1 DUP2 SWAP1 SUB PUSH1 0x20 ADD SWAP1 KECCAK256 SLOAD DUP3 MLOAD PUSH1 0x1 PUSH1 0x1 PUSH1 0xA0 SHL SUB SWAP1 SWAP2 AND SWAP1 DUP4 SWAP1 DUP4 SWAP1 DUP2 LT PUSH2 0x715 JUMPI PUSH2 0x715 PUSH2 0xF24 JUMP JUMPDEST PUSH1 0x1 PUSH1 0x1 PUSH1 0xA0 SHL SUB SWAP1 SWAP3 AND PUSH1 0x20 SWAP3 DUP4 MUL SWAP2 SWAP1 SWAP2 ADD SWAP1 SWAP2 ADD MSTORE DUP1 PUSH2 0x737 DUP2 PUSH2 0xF95 JUMP JUMPDEST SWAP2 POP POP PUSH2 0x6AF JUMP JUMPDEST POP SWAP2 SWAP1 POP JUMP JUMPDEST PUSH2 0x74D PUSH2 0x7C3 JUMP JUMPDEST PUSH1 0x1 PUSH1 0x1 PUSH1 0xA0 SHL SUB DUP2 AND PUSH2 0x7B7 JUMPI PUSH1 0x40 MLOAD PUSH3 0x461BCD PUSH1 0xE5 SHL DUP2 MSTORE PUSH1 0x20 PUSH1 0x4 DUP3 ADD MSTORE PUSH1 0x26 PUSH1 0x24 DUP3 ADD MSTORE PUSH32 0x4F776E61626C653A206E6577206F776E657220697320746865207A65726F2061 PUSH1 0x44 DUP3 ADD MSTORE PUSH6 0x646472657373 PUSH1 0xD0 SHL PUSH1 0x64 DUP3 ADD MSTORE PUSH1 0x84 ADD JUMPDEST PUSH1 0x40 MLOAD DUP1 SWAP2 SUB SWAP1 REVERT JUMPDEST PUSH2 0x7C0 DUP2 PUSH2 0x81D JUMP JUMPDEST POP JUMP JUMPDEST PUSH1 0x0 SLOAD PUSH1 0x1 PUSH1 0x1 PUSH1 0xA0 SHL SUB AND CALLER EQ PUSH2 0x4A0 JUMPI PUSH1 0x40 MLOAD PUSH3 0x461BCD PUSH1 0xE5 SHL DUP2 MSTORE PUSH1 0x20 PUSH1 0x4 DUP3 ADD DUP2 SWAP1 MSTORE PUSH1 0x24 DUP3 ADD MSTORE PUSH32 0x4F776E61626C653A2063616C6C6572206973206E6F7420746865206F776E6572 PUSH1 0x44 DUP3 ADD MSTORE PUSH1 0x64 ADD PUSH2 0x7AE JUMP JUMPDEST PUSH1 0x0 DUP1 SLOAD PUSH1 0x1 PUSH1 0x1 PUSH1 0xA0 SHL SUB DUP4 DUP2 AND PUSH1 0x1 PUSH1 0x1 PUSH1 0xA0 SHL SUB NOT DUP4 AND DUP2 OR DUP5 SSTORE PUSH1 0x40 MLOAD SWAP2 SWAP1 SWAP3 AND SWAP3 DUP4 SWAP2 PUSH32 0x8BE0079C531659141344CD1FD0A4F28419497F9722A3DAAFE3B4186F6B6457E0 SWAP2 SWAP1 LOG3 POP POP JUMP JUMPDEST PUSH4 0x4E487B71 PUSH1 0xE0 SHL PUSH1 0x0 MSTORE PUSH1 0x41 PUSH1 0x4 MSTORE PUSH1 0x24 PUSH1 0x0 REVERT JUMPDEST PUSH1 0x40 MLOAD PUSH1 0x1F DUP3 ADD PUSH1 0x1F NOT AND DUP2 ADD PUSH8 0xFFFFFFFFFFFFFFFF DUP2 GT DUP3 DUP3 LT OR ISZERO PUSH2 0x8AC JUMPI PUSH2 0x8AC PUSH2 0x86D JUMP JUMPDEST PUSH1 0x40 MSTORE SWAP2 SWAP1 POP JUMP JUMPDEST PUSH1 0x0 DUP3 PUSH1 0x1F DUP4 ADD SLT PUSH2 0x8C5 JUMPI PUSH1 0x0 DUP1 REVERT JUMPDEST DUP2 CALLDATALOAD PUSH8 0xFFFFFFFFFFFFFFFF DUP2 GT ISZERO PUSH2 0x8DF JUMPI PUSH2 0x8DF PUSH2 0x86D JUMP JUMPDEST PUSH2 0x8F2 PUSH1 0x1F DUP3 ADD PUSH1 0x1F NOT AND PUSH1 0x20 ADD PUSH2 0x883 JUMP JUMPDEST DUP2 DUP2 MSTORE DUP5 PUSH1 0x20 DUP4 DUP7 ADD ADD GT ISZERO PUSH2 0x907 JUMPI PUSH1 0x0 DUP1 REVERT JUMPDEST DUP2 PUSH1 0x20 DUP6 ADD PUSH1 0x20 DUP4 ADD CALLDATACOPY PUSH1 0x0 SWAP2 DUP2 ADD PUSH1 0x20 ADD SWAP2 SWAP1 SWAP2 MSTORE SWAP4 SWAP3 POP POP POP JUMP JUMPDEST PUSH1 0x0 PUSH1 0x20 DUP3 DUP5 SUB SLT ISZERO PUSH2 0x936 JUMPI PUSH1 0x0 DUP1 REVERT JUMPDEST DUP2 CALLDATALOAD PUSH8 0xFFFFFFFFFFFFFFFF DUP2 GT ISZERO PUSH2 0x94D JUMPI PUSH1 0x0 DUP1 REVERT JUMPDEST PUSH2 0x959 DUP5 DUP3 DUP6 ADD PUSH2 0x8B4 JUMP JUMPDEST SWAP5 SWAP4 POP POP POP POP JUMP JUMPDEST PUSH1 0x0 DUP1 PUSH1 0x0 DUP1 PUSH1 0x0 DUP1 PUSH1 0x0 PUSH1 0xE0 DUP9 DUP11 SUB SLT ISZERO PUSH2 0x97C JUMPI PUSH1 0x0 DUP1 REVERT JUMPDEST DUP8 CALLDATALOAD SWAP7 POP PUSH1 0x20 DUP9 ADD CALLDATALOAD SWAP6 POP PUSH1 0x40 DUP9 ADD CALLDATALOAD PUSH8 0xFFFFFFFFFFFFFFFF DUP1 DUP3 GT ISZERO PUSH2 0x9A2 JUMPI PUSH1 0x0 DUP1 REVERT JUMPDEST PUSH2 0x9AE DUP12 DUP4 DUP13 ADD PUSH2 0x8B4 JUMP JUMPDEST SWAP7 POP PUSH1 0x60 DUP11 ADD CALLDATALOAD SWAP6 POP PUSH1 0x80 DUP11 ADD CALLDATALOAD SWAP5 POP PUSH1 0xA0 DUP11 ADD CALLDATALOAD SWAP4 POP PUSH1 0xC0 DUP11 ADD CALLDATALOAD SWAP2 POP DUP1 DUP3 GT ISZERO PUSH2 0x9D9 JUMPI PUSH1 0x0 DUP1 REVERT JUMPDEST POP PUSH2 0x9E6 DUP11 DUP3 DUP12 ADD PUSH2 0x8B4 JUMP JUMPDEST SWAP2 POP POP SWAP3 SWAP6 SWAP9 SWAP2 SWAP5 SWAP8 POP SWAP3 SWAP6 POP JUMP JUMPDEST PUSH1 0x0 PUSH1 0x20 DUP3 DUP5 SUB SLT ISZERO PUSH2 0xA07 JUMPI PUSH1 0x0 DUP1 REVERT JUMPDEST POP CALLDATALOAD SWAP2 SWAP1 POP JUMP JUMPDEST PUSH1 0x0 JUMPDEST DUP4 DUP2 LT ISZERO PUSH2 0xA29 JUMPI DUP2 DUP2 ADD MLOAD DUP4 DUP3 ADD MSTORE PUSH1 0x20 ADD PUSH2 0xA11 JUMP JUMPDEST POP POP PUSH1 0x0 SWAP2 ADD MSTORE JUMP JUMPDEST PUSH1 0x0 DUP2 MLOAD DUP1 DUP5 MSTORE PUSH2 0xA4A DUP2 PUSH1 0x20 DUP7 ADD PUSH1 0x20 DUP7 ADD PUSH2 0xA0E JUMP JUMPDEST PUSH1 0x1F ADD PUSH1 0x1F NOT AND SWAP3 SWAP1 SWAP3 ADD PUSH1 0x20 ADD SWAP3 SWAP2 POP POP JUMP JUMPDEST PUSH1 0x20 DUP2 MSTORE PUSH1 0x0 PUSH2 0xA71 PUSH1 0x20 DUP4 ADD DUP5 PUSH2 0xA32 JUMP JUMPDEST SWAP4 SWAP3 POP POP POP JUMP JUMPDEST PUSH1 0x0 PUSH1 0x20 DUP1 DUP4 ADD DUP2 DUP5 MSTORE DUP1 DUP6 MLOAD DUP1 DUP4 MSTORE PUSH1 0x40 DUP7 ADD SWAP2 POP PUSH1 0x40 DUP2 PUSH1 0x5 SHL DUP8 ADD ADD SWAP3 POP DUP4 DUP8 ADD PUSH1 0x0 JUMPDEST DUP3 DUP2 LT ISZERO PUSH2 0xACD JUMPI PUSH1 0x3F NOT DUP9 DUP7 SUB ADD DUP5 MSTORE PUSH2 0xABB DUP6 DUP4 MLOAD PUSH2 0xA32 JUMP JUMPDEST SWAP5 POP SWAP3 DUP6 ADD SWAP3 SWAP1 DUP6 ADD SWAP1 PUSH1 0x1 ADD PUSH2 0xA9F JUMP JUMPDEST POP SWAP3 SWAP8 SWAP7 POP POP POP POP POP POP POP JUMP JUMPDEST PUSH1 0x0 PUSH8 0xFFFFFFFFFFFFFFFF DUP3 GT ISZERO PUSH2 0xAF4 JUMPI PUSH2 0xAF4 PUSH2 0x86D JUMP JUMPDEST POP PUSH1 0x5 SHL PUSH1 0x20 ADD SWAP1 JUMP JUMPDEST PUSH1 0x0 DUP3 PUSH1 0x1F DUP4 ADD SLT PUSH2 0xB0F JUMPI PUSH1 0x0 DUP1 REVERT JUMPDEST DUP2 CALLDATALOAD PUSH1 0x20 PUSH2 0xB24 PUSH2 0xB1F DUP4 PUSH2 0xADA JUMP JUMPDEST PUSH2 0x883 JUMP JUMPDEST DUP3 DUP2 MSTORE PUSH1 0x5 SWAP3 SWAP1 SWAP3 SHL DUP5 ADD DUP2 ADD SWAP2 DUP2 DUP2 ADD SWAP1 DUP7 DUP5 GT ISZERO PUSH2 0xB43 JUMPI PUSH1 0x0 DUP1 REVERT JUMPDEST DUP3 DUP7 ADD JUMPDEST DUP5 DUP2 LT ISZERO PUSH2 0xB83 JUMPI DUP1 CALLDATALOAD PUSH8 0xFFFFFFFFFFFFFFFF DUP2 GT ISZERO PUSH2 0xB67 JUMPI PUSH1 0x0 DUP1 DUP2 REVERT JUMPDEST PUSH2 0xB75 DUP10 DUP7 DUP4 DUP12 ADD ADD PUSH2 0x8B4 JUMP JUMPDEST DUP5 MSTORE POP SWAP2 DUP4 ADD SWAP2 DUP4 ADD PUSH2 0xB47 JUMP JUMPDEST POP SWAP7 SWAP6 POP POP POP POP POP POP JUMP JUMPDEST PUSH1 0x0 DUP3 PUSH1 0x1F DUP4 ADD SLT PUSH2 0xB9F JUMPI PUSH1 0x0 DUP1 REVERT JUMPDEST DUP2 CALLDATALOAD PUSH1 0x20 PUSH2 0xBAF PUSH2 0xB1F DUP4 PUSH2 0xADA JUMP JUMPDEST DUP3 DUP2 MSTORE PUSH1 0x5 SWAP3 SWAP1 SWAP3 SHL DUP5 ADD DUP2 ADD SWAP2 DUP2 DUP2 ADD SWAP1 DUP7 DUP5 GT ISZERO PUSH2 0xBCE JUMPI PUSH1 0x0 DUP1 REVERT JUMPDEST DUP3 DUP7 ADD JUMPDEST DUP5 DUP2 LT ISZERO PUSH2 0xB83 JUMPI DUP1 CALLDATALOAD DUP4 MSTORE SWAP2 DUP4 ADD SWAP2 DUP4 ADD PUSH2 0xBD2 JUMP JUMPDEST PUSH1 0x0 DUP1 PUSH1 0x0 DUP1 PUSH1 0x0 DUP1 PUSH1 0x0 DUP1 PUSH2 0x100 DUP10 DUP12 SUB SLT ISZERO PUSH2 0xC06 JUMPI PUSH1 0x0 DUP1 REVERT JUMPDEST DUP9 CALLDATALOAD SWAP8 POP PUSH1 0x20 DUP10 ADD CALLDATALOAD SWAP7 POP PUSH1 0x40 DUP10 ADD CALLDATALOAD PUSH8 0xFFFFFFFFFFFFFFFF DUP1 DUP3 GT ISZERO PUSH2 0xC2C JUMPI PUSH1 0x0 DUP1 REVERT JUMPDEST PUSH2 0xC38 DUP13 DUP4 DUP14 ADD PUSH2 0xAFE JUMP JUMPDEST SWAP8 POP PUSH1 0x60 DUP12 ADD CALLDATALOAD SWAP2 POP DUP1 DUP3 GT ISZERO PUSH2 0xC4E JUMPI PUSH1 0x0 DUP1 REVERT JUMPDEST PUSH2 0xC5A DUP13 DUP4 DUP14 ADD PUSH2 0xB8E JUMP JUMPDEST SWAP7 POP PUSH1 0x80 DUP12 ADD CALLDATALOAD SWAP2 POP DUP1 DUP3 GT ISZERO PUSH2 0xC70 JUMPI PUSH1 0x0 DUP1 REVERT JUMPDEST PUSH2 0xC7C DUP13 DUP4 DUP14 ADD PUSH2 0xB8E JUMP JUMPDEST SWAP6 POP PUSH1 0xA0 DUP12 ADD CALLDATALOAD SWAP5 POP PUSH1 0xC0 DUP12 ADD CALLDATALOAD SWAP2 POP DUP1 DUP3 GT ISZERO PUSH2 0xC99 JUMPI PUSH1 0x0 DUP1 REVERT JUMPDEST PUSH2 0xCA5 DUP13 DUP4 DUP14 ADD PUSH2 0xB8E JUMP JUMPDEST SWAP4 POP PUSH1 0xE0 DUP12 ADD CALLDATALOAD SWAP2 POP DUP1 DUP3 GT ISZERO PUSH2 0xCBB JUMPI PUSH1 0x0 DUP1 REVERT JUMPDEST POP PUSH2 0xCC8 DUP12 DUP3 DUP13 ADD PUSH2 0x8B4 JUMP JUMPDEST SWAP2 POP POP SWAP3 SWAP6 SWAP9 POP SWAP3 SWAP6 SWAP9 SWAP1 SWAP4 SWAP7 POP JUMP JUMPDEST PUSH1 0x20 DUP1 DUP3 MSTORE DUP3 MLOAD DUP3 DUP3 ADD DUP2 SWAP1 MSTORE PUSH1 0x0 SWAP2 SWAP1 DUP5 DUP3 ADD SWAP1 PUSH1 0x40 DUP6 ADD SWAP1 DUP5 JUMPDEST DUP2 DUP2 LT ISZERO PUSH2 0xD19 JUMPI DUP4 MLOAD PUSH1 0x1 PUSH1 0x1 PUSH1 0xA0 SHL SUB AND DUP4 MSTORE SWAP3 DUP5 ADD SWAP3 SWAP2 DUP5 ADD SWAP2 PUSH1 0x1 ADD PUSH2 0xCF4 JUMP JUMPDEST POP SWAP1 SWAP7 SWAP6 POP POP POP POP POP POP JUMP JUMPDEST PUSH1 0x1 PUSH1 0x1 PUSH1 0xA0 SHL SUB DUP2 AND DUP2 EQ PUSH2 0x7C0 JUMPI PUSH1 0x0 DUP1 REVERT JUMPDEST PUSH1 0x0 PUSH1 0x20 DUP3 DUP5 SUB SLT ISZERO PUSH2 0xD4C JUMPI PUSH1 0x0 DUP1 REVERT JUMPDEST DUP2 CALLDATALOAD PUSH2 0xA71 DUP2 PUSH2 0xD25 JUMP JUMPDEST PUSH1 0x0 DUP3 MLOAD PUSH2 0xD69 DUP2 DUP5 PUSH1 0x20 DUP8 ADD PUSH2 0xA0E JUMP JUMPDEST SWAP2 SWAP1 SWAP2 ADD SWAP3 SWAP2 POP POP JUMP JUMPDEST DUP8 DUP2 MSTORE DUP7 PUSH1 0x20 DUP3 ADD MSTORE PUSH1 0xE0 PUSH1 0x40 DUP3 ADD MSTORE PUSH1 0x0 PUSH2 0xD92 PUSH1 0xE0 DUP4 ADD DUP9 PUSH2 0xA32 JUMP JUMPDEST DUP7 PUSH1 0x60 DUP5 ADD MSTORE DUP6 PUSH1 0x80 DUP5 ADD MSTORE DUP5 PUSH1 0xA0 DUP5 ADD MSTORE DUP3 DUP2 SUB PUSH1 0xC0 DUP5 ADD MSTORE PUSH2 0xDB6 DUP2 DUP6 PUSH2 0xA32 JUMP JUMPDEST SWAP11 SWAP10 POP POP POP POP POP POP POP POP POP POP JUMP JUMPDEST PUSH1 0x0 PUSH1 0x20 DUP3 DUP5 SUB SLT ISZERO PUSH2 0xDD6 JUMPI PUSH1 0x0 DUP1 REVERT JUMPDEST DUP2 MLOAD PUSH2 0xA71 DUP2 PUSH2 0xD25 JUMP JUMPDEST PUSH1 0x1 DUP2 DUP2 SHR SWAP1 DUP3 AND DUP1 PUSH2 0xDF5 JUMPI PUSH1 0x7F DUP3 AND SWAP2 POP JUMPDEST PUSH1 0x20 DUP3 LT DUP2 SUB PUSH2 0x73F JUMPI PUSH4 0x4E487B71 PUSH1 0xE0 SHL PUSH1 0x0 MSTORE PUSH1 0x22 PUSH1 0x4 MSTORE PUSH1 0x24 PUSH1 0x0 REVERT JUMPDEST PUSH1 0x1F DUP3 GT ISZERO PUSH2 0xE5F JUMPI PUSH1 0x0 DUP2 DUP2 MSTORE PUSH1 0x20 DUP2 KECCAK256 PUSH1 0x1F DUP6 ADD PUSH1 0x5 SHR DUP2 ADD PUSH1 0x20 DUP7 LT ISZERO PUSH2 0xE3C JUMPI POP DUP1 JUMPDEST PUSH1 0x1F DUP6 ADD PUSH1 0x5 SHR DUP3 ADD SWAP2 POP JUMPDEST DUP2 DUP2 LT ISZERO PUSH2 0xE5B JUMPI DUP3 DUP2 SSTORE PUSH1 0x1 ADD PUSH2 0xE48 JUMP JUMPDEST POP POP POP JUMPDEST POP POP POP JUMP JUMPDEST DUP2 MLOAD PUSH8 0xFFFFFFFFFFFFFFFF DUP2 GT ISZERO PUSH2 0xE7E JUMPI PUSH2 0xE7E PUSH2 0x86D JUMP JUMPDEST PUSH2 0xE92 DUP2 PUSH2 0xE8C DUP5 SLOAD PUSH2 0xDE1 JUMP JUMPDEST DUP5 PUSH2 0xE15 JUMP JUMPDEST PUSH1 0x20 DUP1 PUSH1 0x1F DUP4 GT PUSH1 0x1 DUP2 EQ PUSH2 0xEC7 JUMPI PUSH1 0x0 DUP5 ISZERO PUSH2 0xEAF JUMPI POP DUP6 DUP4 ADD MLOAD JUMPDEST PUSH1 0x0 NOT PUSH1 0x3 DUP7 SWAP1 SHL SHR NOT AND PUSH1 0x1 DUP6 SWAP1 SHL OR DUP6 SSTORE PUSH2 0xE5B JUMP JUMPDEST PUSH1 0x0 DUP6 DUP2 MSTORE PUSH1 0x20 DUP2 KECCAK256 PUSH1 0x1F NOT DUP7 AND SWAP2 JUMPDEST DUP3 DUP2 LT ISZERO PUSH2 0xEF6 JUMPI DUP9 DUP7 ADD MLOAD DUP3 SSTORE SWAP5 DUP5 ADD SWAP5 PUSH1 0x1 SWAP1 SWAP2 ADD SWAP1 DUP5 ADD PUSH2 0xED7 JUMP JUMPDEST POP DUP6 DUP3 LT ISZERO PUSH2 0xF14 JUMPI DUP8 DUP6 ADD MLOAD PUSH1 0x0 NOT PUSH1 0x3 DUP9 SWAP1 SHL PUSH1 0xF8 AND SHR NOT AND DUP2 SSTORE JUMPDEST POP POP POP POP POP PUSH1 0x1 SWAP1 DUP2 SHL ADD SWAP1 SSTORE POP JUMP JUMPDEST PUSH4 0x4E487B71 PUSH1 0xE0 SHL PUSH1 0x0 MSTORE PUSH1 0x32 PUSH1 0x4 MSTORE PUSH1 0x24 PUSH1 0x0 REVERT JUMPDEST PUSH1 0x0 PUSH2 0x100 DUP11 DUP4 MSTORE DUP10 PUSH1 0x20 DUP5 ADD MSTORE DUP1 PUSH1 0x40 DUP5 ADD MSTORE PUSH2 0xF5A DUP2 DUP5 ADD DUP11 PUSH2 0xA32 JUMP JUMPDEST SWAP1 POP DUP8 PUSH1 0x60 DUP5 ADD MSTORE DUP7 PUSH1 0x80 DUP5 ADD MSTORE DUP6 PUSH1 0xA0 DUP5 ADD MSTORE DUP5 PUSH1 0xC0 DUP5 ADD MSTORE DUP3 DUP2 SUB PUSH1 0xE0 DUP5 ADD MSTORE PUSH2 0xF86 DUP2 DUP6 PUSH2 0xA32 JUMP JUMPDEST SWAP12 SWAP11 POP POP POP POP POP POP POP POP POP POP POP JUMP JUMPDEST PUSH1 0x0 PUSH1 0x1 DUP3 ADD PUSH2 0xFB5 JUMPI PUSH4 0x4E487B71 PUSH1 0xE0 SHL PUSH1 0x0 MSTORE PUSH1 0x11 PUSH1 0x4 MSTORE PUSH1 0x24 PUSH1 0x0 REVERT JUMPDEST POP PUSH1 0x1 ADD SWAP1 JUMP JUMPDEST PUSH1 0x0 DUP1 DUP4 SLOAD PUSH2 0xFCA DUP2 PUSH2 0xDE1 JUMP JUMPDEST PUSH1 0x1 DUP3 DUP2 AND DUP1 ISZERO PUSH2 0xFE2 JUMPI PUSH1 0x1 DUP2 EQ PUSH2 0xFF7 JUMPI PUSH2 0x1026 JUMP JUMPDEST PUSH1 0xFF NOT DUP5 AND DUP8 MSTORE DUP3 ISZERO ISZERO DUP4 MUL DUP8 ADD SWAP5 POP PUSH2 0x1026 JUMP JUMPDEST DUP8 PUSH1 0x0 MSTORE PUSH1 0x20 DUP1 PUSH1 0x0 KECCAK256 PUSH1 0x0 JUMPDEST DUP6 DUP2 LT ISZERO PUSH2 0x101D JUMPI DUP2 SLOAD DUP11 DUP3 ADD MSTORE SWAP1 DUP5 ADD SWAP1 DUP3 ADD PUSH2 0x1004 JUMP JUMPDEST POP POP POP DUP3 DUP8 ADD SWAP5 POP JUMPDEST POP SWAP3 SWAP7 SWAP6 POP POP POP POP POP POP JUMP INVALID LOG2 PUSH5 0x6970667358 0x22 SLT KECCAK256 SWAP2 0xB1 DUP16 CODESIZE 0xE 0xE8 0xD4 CALLDATALOAD 0xAD 0xC5 EQ AND JUMP SUB 0xA5 LOG0 LT PUSH29 0x191EF4FC7096C277975072B0E50C64736F6C63430008130033A2646970 PUSH7 0x73582212202709 SWAP7 0x27 0xAB AND 0xFB DUP11 0xB4 0x2F 0xDA PUSH13 0xAA3E8EE529B160B71EC24AEA8F MUL 0xC9 PUSH17 0x3B72740564736F6C634300081300336080 PUSH1 0x40 MSTORE CALLVALUE DUP1 ISZERO PUSH3 0x11 JUMPI PUSH1 0x0 DUP1 REVERT JUMPDEST POP PUSH1 0x40 MLOAD PUSH3 0x1C89 CODESIZE SUB DUP1 PUSH3 0x1C89 DUP4 CODECOPY DUP2 ADD PUSH1 0x40 DUP2 SWAP1 MSTORE PUSH3 0x34 SWAP2 PUSH3 0x7FE JUMP JUMPDEST PUSH3 0x3F CALLER PUSH3 0x163 JUMP JUMPDEST PUSH1 0x3 DUP1 SLOAD PUSH1 0x1 PUSH1 0x1 PUSH1 0xA0 SHL SUB DUP1 DUP15 AND PUSH1 0x1 PUSH1 0x1 PUSH1 0xA0 SHL SUB NOT SWAP3 DUP4 AND OR SWAP1 SWAP3 SSTORE PUSH1 0x4 DUP1 SLOAD DUP14 DUP5 AND SWAP1 DUP4 AND OR SWAP1 SSTORE PUSH1 0x5 DUP1 SLOAD SWAP3 DUP13 AND SWAP3 SWAP1 SWAP2 AND SWAP2 SWAP1 SWAP2 OR SWAP1 SSTORE DUP1 MLOAD PUSH3 0x91 SWAP1 PUSH1 0x6 SWAP1 PUSH1 0x20 DUP5 ADD SWAP1 PUSH3 0x50E JUMP JUMPDEST POP PUSH3 0x11D DUP9 DUP6 DUP9 PUSH1 0x0 DUP2 MLOAD DUP2 LT PUSH3 0xAE JUMPI PUSH3 0xAE PUSH3 0x953 JUMP JUMPDEST PUSH1 0x20 MUL PUSH1 0x20 ADD ADD MLOAD DUP11 PUSH1 0x0 DUP2 MLOAD DUP2 LT PUSH3 0xCC JUMPI PUSH3 0xCC PUSH3 0x953 JUMP JUMPDEST PUSH1 0x20 MUL PUSH1 0x20 ADD ADD MLOAD DUP10 PUSH1 0x0 DUP2 MLOAD DUP2 LT PUSH3 0xEA JUMPI PUSH3 0xEA PUSH3 0x953 JUMP JUMPDEST PUSH1 0x20 MUL PUSH1 0x20 ADD ADD MLOAD DUP9 DUP8 PUSH1 0x0 DUP2 MLOAD DUP2 LT PUSH3 0x109 JUMPI PUSH3 0x109 PUSH3 0x953 JUMP JUMPDEST PUSH1 0x20 MUL PUSH1 0x20 ADD ADD MLOAD PUSH3 0x1B3 PUSH1 0x20 SHL PUSH1 0x20 SHR JUMP JUMPDEST PUSH3 0x152 DUP9 DUP6 DUP9 DUP11 DUP10 DUP9 DUP9 DUP9 PUSH1 0x1 DUP2 MLOAD DUP2 LT PUSH3 0x13E JUMPI PUSH3 0x13E PUSH3 0x953 JUMP JUMPDEST PUSH1 0x20 MUL PUSH1 0x20 ADD ADD MLOAD PUSH3 0x2CF PUSH1 0x20 SHL PUSH1 0x20 SHR JUMP JUMPDEST POP POP POP POP POP POP POP POP POP POP POP PUSH3 0xC11 JUMP JUMPDEST PUSH1 0x0 DUP1 SLOAD PUSH1 0x1 PUSH1 0x1 PUSH1 0xA0 SHL SUB DUP4 DUP2 AND PUSH1 0x1 PUSH1 0x1 PUSH1 0xA0 SHL SUB NOT DUP4 AND DUP2 OR DUP5 SSTORE PUSH1 0x40 MLOAD SWAP2 SWAP1 SWAP3 AND SWAP3 DUP4 SWAP2 PUSH32 0x8BE0079C531659141344CD1FD0A4F28419497F9722A3DAAFE3B4186F6B6457E0 SWAP2 SWAP1 LOG3 POP POP JUMP JUMPDEST PUSH3 0x1BD PUSH3 0x4AD JUMP JUMPDEST PUSH1 0x3 SLOAD PUSH1 0x40 MLOAD PUSH4 0x3E50E267 PUSH1 0xE2 SHL DUP2 MSTORE PUSH1 0x0 SWAP2 PUSH1 0x1 PUSH1 0x1 PUSH1 0xA0 SHL SUB AND SWAP1 PUSH4 0xF943899C SWAP1 PUSH3 0x1FC SWAP1 DUP12 SWAP1 DUP12 SWAP1 DUP12 SWAP1 DUP12 SWAP1 DUP12 SWAP1 DUP12 SWAP1 DUP12 SWAP1 PUSH1 0x4 ADD PUSH3 0x997 JUMP JUMPDEST PUSH1 0x20 PUSH1 0x40 MLOAD DUP1 DUP4 SUB DUP2 PUSH1 0x0 DUP8 GAS CALL ISZERO DUP1 ISZERO PUSH3 0x21C JUMPI RETURNDATASIZE PUSH1 0x0 DUP1 RETURNDATACOPY RETURNDATASIZE PUSH1 0x0 REVERT JUMPDEST POP POP POP POP PUSH1 0x40 MLOAD RETURNDATASIZE PUSH1 0x1F NOT PUSH1 0x1F DUP3 ADD AND DUP3 ADD DUP1 PUSH1 0x40 MSTORE POP DUP2 ADD SWAP1 PUSH3 0x242 SWAP2 SWAP1 PUSH3 0x9EC JUMP JUMPDEST SWAP1 POP DUP1 PUSH1 0x1 DUP8 PUSH1 0x40 MLOAD PUSH3 0x257 SWAP2 SWAP1 PUSH3 0xA11 JUMP JUMPDEST SWAP1 DUP2 MSTORE PUSH1 0x40 MLOAD SWAP1 DUP2 SWAP1 SUB PUSH1 0x20 ADD SWAP1 KECCAK256 DUP1 SLOAD PUSH1 0x1 PUSH1 0x1 PUSH1 0xA0 SHL SUB SWAP3 SWAP1 SWAP3 AND PUSH1 0x1 PUSH1 0x1 PUSH1 0xA0 SHL SUB NOT SWAP1 SWAP3 AND SWAP2 SWAP1 SWAP2 OR SWAP1 SSTORE PUSH1 0x2 DUP1 SLOAD PUSH1 0x1 DUP2 ADD DUP3 SSTORE PUSH1 0x0 SWAP2 SWAP1 SWAP2 MSTORE PUSH32 0x405787FA12A823E0F2B7631CC41B3BA8828B3321CA811111FA75CD3AA3BB5ACE ADD PUSH3 0x2C4 DUP8 DUP3 PUSH3 0xABE JUMP JUMPDEST POP POP POP POP POP POP POP POP POP JUMP JUMPDEST PUSH3 0x2D9 PUSH3 0x4AD JUMP JUMPDEST DUP6 MLOAD PUSH1 0x1 JUMPDEST DUP2 DUP2 LT ISZERO PUSH3 0x4A1 JUMPI PUSH1 0x4 SLOAD DUP9 MLOAD PUSH1 0x0 SWAP2 PUSH1 0x1 PUSH1 0x1 PUSH1 0xA0 SHL SUB AND SWAP1 PUSH4 0x5C2D70CE SWAP1 DUP14 SWAP1 DUP14 SWAP1 DUP14 SWAP1 DUP8 SWAP1 DUP2 LT PUSH3 0x318 JUMPI PUSH3 0x318 PUSH3 0x953 JUMP JUMPDEST PUSH1 0x20 MUL PUSH1 0x20 ADD ADD MLOAD DUP13 DUP8 DUP2 MLOAD DUP2 LT PUSH3 0x335 JUMPI PUSH3 0x335 PUSH3 0x953 JUMP JUMPDEST PUSH1 0x20 MUL PUSH1 0x20 ADD ADD MLOAD DUP13 DUP9 DUP2 MLOAD DUP2 LT PUSH3 0x352 JUMPI PUSH3 0x352 PUSH3 0x953 JUMP JUMPDEST PUSH1 0x20 MUL PUSH1 0x20 ADD ADD MLOAD DUP13 DUP13 DUP11 DUP2 MLOAD DUP2 LT PUSH3 0x370 JUMPI PUSH3 0x370 PUSH3 0x953 JUMP JUMPDEST PUSH1 0x20 MUL PUSH1 0x20 ADD ADD MLOAD DUP13 PUSH1 0x40 MLOAD DUP10 PUSH4 0xFFFFFFFF AND PUSH1 0xE0 SHL DUP2 MSTORE PUSH1 0x4 ADD PUSH3 0x39E SWAP9 SWAP8 SWAP7 SWAP6 SWAP5 SWAP4 SWAP3 SWAP2 SWAP1 PUSH3 0xB8A JUMP JUMPDEST PUSH1 0x20 PUSH1 0x40 MLOAD DUP1 DUP4 SUB DUP2 PUSH1 0x0 DUP8 GAS CALL ISZERO DUP1 ISZERO PUSH3 0x3BE JUMPI RETURNDATASIZE PUSH1 0x0 DUP1 RETURNDATACOPY RETURNDATASIZE PUSH1 0x0 REVERT JUMPDEST POP POP POP POP PUSH1 0x40 MLOAD RETURNDATASIZE PUSH1 0x1F NOT PUSH1 0x1F DUP3 ADD AND DUP3 ADD DUP1 PUSH1 0x40 MSTORE POP DUP2 ADD SWAP1 PUSH3 0x3E4 SWAP2 SWAP1 PUSH3 0x9EC JUMP JUMPDEST SWAP1 POP DUP1 PUSH1 0x1 DUP11 DUP5 DUP2 MLOAD DUP2 LT PUSH3 0x3FE JUMPI PUSH3 0x3FE PUSH3 0x953 JUMP JUMPDEST PUSH1 0x20 MUL PUSH1 0x20 ADD ADD MLOAD PUSH1 0x40 MLOAD PUSH3 0x415 SWAP2 SWAP1 PUSH3 0xA11 JUMP JUMPDEST SWAP1 DUP2 MSTORE PUSH1 0x20 ADD PUSH1 0x40 MLOAD DUP1 SWAP2 SUB SWAP1 KECCAK256 PUSH1 0x0 PUSH2 0x100 EXP DUP2 SLOAD DUP2 PUSH1 0x1 PUSH1 0x1 PUSH1 0xA0 SHL SUB MUL NOT AND SWAP1 DUP4 PUSH1 0x1 PUSH1 0x1 PUSH1 0xA0 SHL SUB AND MUL OR SWAP1 SSTORE POP PUSH1 0x2 DUP10 DUP4 DUP2 MLOAD DUP2 LT PUSH3 0x45E JUMPI PUSH3 0x45E PUSH3 0x953 JUMP JUMPDEST PUSH1 0x20 SWAP1 DUP2 MUL SWAP2 SWAP1 SWAP2 ADD DUP2 ADD MLOAD DUP3 SLOAD PUSH1 0x1 DUP2 ADD DUP5 SSTORE PUSH1 0x0 SWAP4 DUP5 MSTORE SWAP2 SWAP1 SWAP3 KECCAK256 ADD SWAP1 PUSH3 0x489 SWAP1 DUP3 PUSH3 0xABE JUMP JUMPDEST POP POP DUP1 DUP1 PUSH3 0x498 SWAP1 PUSH3 0xBE9 JUMP JUMPDEST SWAP2 POP POP PUSH3 0x2DE JUMP JUMPDEST POP POP POP POP POP POP POP POP POP POP JUMP JUMPDEST PUSH1 0x0 SLOAD PUSH1 0x1 PUSH1 0x1 PUSH1 0xA0 SHL SUB AND CALLER EQ PUSH3 0x50C JUMPI PUSH1 0x40 MLOAD PUSH3 0x461BCD PUSH1 0xE5 SHL DUP2 MSTORE PUSH1 0x20 PUSH1 0x4 DUP3 ADD DUP2 SWAP1 MSTORE PUSH1 0x24 DUP3 ADD MSTORE PUSH32 0x4F776E61626C653A2063616C6C6572206973206E6F7420746865206F776E6572 PUSH1 0x44 DUP3 ADD MSTORE PUSH1 0x64 ADD PUSH1 0x40 MLOAD DUP1 SWAP2 SUB SWAP1 REVERT JUMPDEST JUMP JUMPDEST DUP3 DUP1 SLOAD DUP3 DUP3 SSTORE SWAP1 PUSH1 0x0 MSTORE PUSH1 0x20 PUSH1 0x0 KECCAK256 SWAP1 DUP2 ADD SWAP3 DUP3 ISZERO PUSH3 0x559 JUMPI SWAP2 PUSH1 0x20 MUL DUP3 ADD JUMPDEST DUP3 DUP2 GT ISZERO PUSH3 0x559 JUMPI DUP3 MLOAD DUP3 SWAP1 PUSH3 0x548 SWAP1 DUP3 PUSH3 0xABE JUMP JUMPDEST POP SWAP2 PUSH1 0x20 ADD SWAP2 SWAP1 PUSH1 0x1 ADD SWAP1 PUSH3 0x52F JUMP JUMPDEST POP PUSH3 0x567 SWAP3 SWAP2 POP PUSH3 0x56B JUMP JUMPDEST POP SWAP1 JUMP JUMPDEST DUP1 DUP3 GT ISZERO PUSH3 0x567 JUMPI PUSH1 0x0 PUSH3 0x582 DUP3 DUP3 PUSH3 0x58C JUMP JUMPDEST POP PUSH1 0x1 ADD PUSH3 0x56B JUMP JUMPDEST POP DUP1 SLOAD PUSH3 0x59A SWAP1 PUSH3 0xA2F JUMP JUMPDEST PUSH1 0x0 DUP3 SSTORE DUP1 PUSH1 0x1F LT PUSH3 0x5AB JUMPI POP POP JUMP JUMPDEST PUSH1 0x1F ADD PUSH1 0x20 SWAP1 DIV SWAP1 PUSH1 0x0 MSTORE PUSH1 0x20 PUSH1 0x0 KECCAK256 SWAP1 DUP2 ADD SWAP1 PUSH3 0x5CB SWAP2 SWAP1 PUSH3 0x5CE JUMP JUMPDEST POP JUMP JUMPDEST JUMPDEST DUP1 DUP3 GT ISZERO PUSH3 0x567 JUMPI PUSH1 0x0 DUP2 SSTORE PUSH1 0x1 ADD PUSH3 0x5CF JUMP JUMPDEST DUP1 MLOAD PUSH1 0x1 PUSH1 0x1 PUSH1 0xA0 SHL SUB DUP2 AND DUP2 EQ PUSH3 0x5FD JUMPI PUSH1 0x0 DUP1 REVERT JUMPDEST SWAP2 SWAP1 POP JUMP JUMPDEST PUSH4 0x4E487B71 PUSH1 0xE0 SHL PUSH1 0x0 MSTORE PUSH1 0x41 PUSH1 0x4 MSTORE PUSH1 0x24 PUSH1 0x0 REVERT JUMPDEST PUSH1 0x40 MLOAD PUSH1 0x1F DUP3 ADD PUSH1 0x1F NOT AND DUP2 ADD PUSH1 0x1 PUSH1 0x1 PUSH1 0x40 SHL SUB DUP2 GT DUP3 DUP3 LT OR ISZERO PUSH3 0x643 JUMPI PUSH3 0x643 PUSH3 0x602 JUMP JUMPDEST PUSH1 0x40 MSTORE SWAP2 SWAP1 POP JUMP JUMPDEST PUSH1 0x0 PUSH1 0x1 PUSH1 0x1 PUSH1 0x40 SHL SUB DUP3 GT ISZERO PUSH3 0x667 JUMPI PUSH3 0x667 PUSH3 0x602 JUMP JUMPDEST POP PUSH1 0x5 SHL PUSH1 0x20 ADD SWAP1 JUMP JUMPDEST PUSH1 0x0 DUP3 PUSH1 0x1F DUP4 ADD SLT PUSH3 0x683 JUMPI PUSH1 0x0 DUP1 REVERT JUMPDEST DUP2 MLOAD PUSH1 0x20 PUSH3 0x69C PUSH3 0x696 DUP4 PUSH3 0x64B JUMP JUMPDEST PUSH3 0x618 JUMP JUMPDEST DUP3 DUP2 MSTORE PUSH1 0x5 SWAP3 SWAP1 SWAP3 SHL DUP5 ADD DUP2 ADD SWAP2 DUP2 DUP2 ADD SWAP1 DUP7 DUP5 GT ISZERO PUSH3 0x6BC JUMPI PUSH1 0x0 DUP1 REVERT JUMPDEST DUP3 DUP7 ADD JUMPDEST DUP5 DUP2 LT ISZERO PUSH3 0x6D9 JUMPI DUP1 MLOAD DUP4 MSTORE SWAP2 DUP4 ADD SWAP2 DUP4 ADD PUSH3 0x6C0 JUMP JUMPDEST POP SWAP7 SWAP6 POP POP POP POP POP POP JUMP JUMPDEST PUSH1 0x0 JUMPDEST DUP4 DUP2 LT ISZERO PUSH3 0x701 JUMPI DUP2 DUP2 ADD MLOAD DUP4 DUP3 ADD MSTORE PUSH1 0x20 ADD PUSH3 0x6E7 JUMP JUMPDEST POP POP PUSH1 0x0 SWAP2 ADD MSTORE JUMP JUMPDEST PUSH1 0x0 PUSH1 0x1F DUP4 DUP2 DUP5 ADD SLT PUSH3 0x71D JUMPI PUSH1 0x0 DUP1 REVERT JUMPDEST DUP3 MLOAD PUSH1 0x20 PUSH3 0x730 PUSH3 0x696 DUP4 PUSH3 0x64B JUMP JUMPDEST DUP3 DUP2 MSTORE PUSH1 0x5 SWAP3 SWAP1 SWAP3 SHL DUP6 ADD DUP2 ADD SWAP2 DUP2 DUP2 ADD SWAP1 DUP8 DUP5 GT ISZERO PUSH3 0x750 JUMPI PUSH1 0x0 DUP1 REVERT JUMPDEST DUP3 DUP8 ADD JUMPDEST DUP5 DUP2 LT ISZERO PUSH3 0x7F2 JUMPI DUP1 MLOAD PUSH1 0x1 PUSH1 0x1 PUSH1 0x40 SHL SUB DUP1 DUP3 GT ISZERO PUSH3 0x776 JUMPI PUSH1 0x0 DUP1 DUP2 REVERT JUMPDEST DUP2 DUP11 ADD SWAP2 POP DUP11 PUSH1 0x3F DUP4 ADD SLT PUSH3 0x78C JUMPI PUSH1 0x0 DUP1 DUP2 REVERT JUMPDEST DUP6 DUP3 ADD MLOAD PUSH1 0x40 DUP3 DUP3 GT ISZERO PUSH3 0x7A5 JUMPI PUSH3 0x7A5 PUSH3 0x602 JUMP JUMPDEST PUSH3 0x7B8 DUP3 DUP12 ADD PUSH1 0x1F NOT AND DUP10 ADD PUSH3 0x618 JUMP JUMPDEST SWAP3 POP DUP2 DUP4 MSTORE DUP13 DUP2 DUP4 DUP7 ADD ADD GT ISZERO PUSH3 0x7D0 JUMPI PUSH1 0x0 DUP1 DUP2 REVERT JUMPDEST PUSH3 0x7E1 DUP3 DUP10 DUP6 ADD DUP4 DUP8 ADD PUSH3 0x6E4 JUMP JUMPDEST POP POP DUP5 MSTORE POP SWAP2 DUP4 ADD SWAP2 DUP4 ADD PUSH3 0x754 JUMP JUMPDEST POP SWAP8 SWAP7 POP POP POP POP POP POP POP JUMP JUMPDEST PUSH1 0x0 DUP1 PUSH1 0x0 DUP1 PUSH1 0x0 DUP1 PUSH1 0x0 DUP1 PUSH1 0x0 DUP1 PUSH1 0x0 PUSH2 0x160 DUP13 DUP15 SUB SLT ISZERO PUSH3 0x821 JUMPI PUSH1 0x0 DUP1 REVERT JUMPDEST PUSH3 0x82C DUP13 PUSH3 0x5E5 JUMP JUMPDEST SWAP11 POP PUSH3 0x83C PUSH1 0x20 DUP14 ADD PUSH3 0x5E5 JUMP JUMPDEST SWAP10 POP PUSH3 0x84C PUSH1 0x40 DUP14 ADD PUSH3 0x5E5 JUMP JUMPDEST PUSH1 0x60 DUP14 ADD MLOAD PUSH1 0x80 DUP15 ADD MLOAD SWAP2 SWAP11 POP SWAP9 POP PUSH1 0x1 PUSH1 0x1 PUSH1 0x40 SHL SUB DUP2 GT ISZERO PUSH3 0x870 JUMPI PUSH1 0x0 DUP1 REVERT JUMPDEST PUSH3 0x87E DUP15 DUP3 DUP16 ADD PUSH3 0x671 JUMP JUMPDEST PUSH1 0xA0 DUP15 ADD MLOAD SWAP1 SWAP9 POP SWAP1 POP PUSH1 0x1 PUSH1 0x1 PUSH1 0x40 SHL SUB DUP2 GT ISZERO PUSH3 0x89D JUMPI PUSH1 0x0 DUP1 REVERT JUMPDEST PUSH3 0x8AB DUP15 DUP3 DUP16 ADD PUSH3 0x70A JUMP JUMPDEST PUSH1 0xC0 DUP15 ADD MLOAD SWAP1 SWAP8 POP SWAP1 POP PUSH1 0x1 PUSH1 0x1 PUSH1 0x40 SHL SUB DUP2 GT ISZERO PUSH3 0x8CA JUMPI PUSH1 0x0 DUP1 REVERT JUMPDEST PUSH3 0x8D8 DUP15 DUP3 DUP16 ADD PUSH3 0x671 JUMP JUMPDEST SWAP6 POP POP PUSH1 0xE0 DUP13 ADD MLOAD SWAP4 POP PUSH2 0x100 DUP13 ADD MLOAD SWAP3 POP PUSH2 0x120 DUP13 ADD MLOAD PUSH1 0x1 DUP1 PUSH1 0x40 SHL SUB DUP2 GT ISZERO PUSH3 0x904 JUMPI PUSH1 0x0 DUP1 REVERT JUMPDEST PUSH3 0x912 DUP15 DUP3 DUP16 ADD PUSH3 0x671 JUMP JUMPDEST PUSH2 0x140 DUP15 ADD MLOAD SWAP1 SWAP4 POP SWAP1 POP PUSH1 0x1 PUSH1 0x1 PUSH1 0x40 SHL SUB DUP2 GT ISZERO PUSH3 0x932 JUMPI PUSH1 0x0 DUP1 REVERT JUMPDEST PUSH3 0x940 DUP15 DUP3 DUP16 ADD PUSH3 0x70A JUMP JUMPDEST SWAP2 POP POP SWAP3 SWAP6 SWAP9 SWAP12 POP SWAP3 SWAP6 SWAP9 SWAP12 SWAP1 SWAP4 SWAP7 SWAP10 POP JUMP JUMPDEST PUSH4 0x4E487B71 PUSH1 0xE0 SHL PUSH1 0x0 MSTORE PUSH1 0x32 PUSH1 0x4 MSTORE PUSH1 0x24 PUSH1 0x0 REVERT JUMPDEST PUSH1 0x0 DUP2 MLOAD DUP1 DUP5 MSTORE PUSH3 0x983 DUP2 PUSH1 0x20 DUP7 ADD PUSH1 0x20 DUP7 ADD PUSH3 0x6E4 JUMP JUMPDEST PUSH1 0x1F ADD PUSH1 0x1F NOT AND SWAP3 SWAP1 SWAP3 ADD PUSH1 0x20 ADD SWAP3 SWAP2 POP POP JUMP JUMPDEST DUP8 DUP2 MSTORE DUP7 PUSH1 0x20 DUP3 ADD MSTORE PUSH1 0xE0 PUSH1 0x40 DUP3 ADD MSTORE PUSH1 0x0 PUSH3 0x9B8 PUSH1 0xE0 DUP4 ADD DUP9 PUSH3 0x969 JUMP JUMPDEST DUP7 PUSH1 0x60 DUP5 ADD MSTORE DUP6 PUSH1 0x80 DUP5 ADD MSTORE DUP5 PUSH1 0xA0 DUP5 ADD MSTORE DUP3 DUP2 SUB PUSH1 0xC0 DUP5 ADD MSTORE PUSH3 0x9DE DUP2 DUP6 PUSH3 0x969 JUMP JUMPDEST SWAP11 SWAP10 POP POP POP POP POP POP POP POP POP POP JUMP JUMPDEST PUSH1 0x0 PUSH1 0x20 DUP3 DUP5 SUB SLT ISZERO PUSH3 0x9FF JUMPI PUSH1 0x0 DUP1 REVERT JUMPDEST PUSH3 0xA0A DUP3 PUSH3 0x5E5 JUMP JUMPDEST SWAP4 SWAP3 POP POP POP JUMP JUMPDEST PUSH1 0x0 DUP3 MLOAD PUSH3 0xA25 DUP2 DUP5 PUSH1 0x20 DUP8 ADD PUSH3 0x6E4 JUMP JUMPDEST SWAP2 SWAP1 SWAP2 ADD SWAP3 SWAP2 POP POP JUMP JUMPDEST PUSH1 0x1 DUP2 DUP2 SHR SWAP1 DUP3 AND DUP1 PUSH3 0xA44 JUMPI PUSH1 0x7F DUP3 AND SWAP2 POP JUMPDEST PUSH1 0x20 DUP3 LT DUP2 SUB PUSH3 0xA65 JUMPI PUSH4 0x4E487B71 PUSH1 0xE0 SHL PUSH1 0x0 MSTORE PUSH1 0x22 PUSH1 0x4 MSTORE PUSH1 0x24 PUSH1 0x0 REVERT JUMPDEST POP SWAP2 SWAP1 POP JUMP JUMPDEST PUSH1 0x1F DUP3 GT ISZERO PUSH3 0xAB9 JUMPI PUSH1 0x0 DUP2 DUP2 MSTORE PUSH1 0x20 DUP2 KECCAK256 PUSH1 0x1F DUP6 ADD PUSH1 0x5 SHR DUP2 ADD PUSH1 0x20 DUP7 LT ISZERO PUSH3 0xA94 JUMPI POP DUP1 JUMPDEST PUSH1 0x1F DUP6 ADD PUSH1 0x5 SHR DUP3 ADD SWAP2 POP JUMPDEST DUP2 DUP2 LT ISZERO PUSH3 0xAB5 JUMPI DUP3 DUP2 SSTORE PUSH1 0x1 ADD PUSH3 0xAA0 JUMP JUMPDEST POP POP POP JUMPDEST POP POP POP JUMP JUMPDEST DUP2 MLOAD PUSH1 0x1 PUSH1 0x1 PUSH1 0x40 SHL SUB DUP2 GT ISZERO PUSH3 0xADA JUMPI PUSH3 0xADA PUSH3 0x602 JUMP JUMPDEST PUSH3 0xAF2 DUP2 PUSH3 0xAEB DUP5 SLOAD PUSH3 0xA2F JUMP JUMPDEST DUP5 PUSH3 0xA6B JUMP JUMPDEST PUSH1 0x20 DUP1 PUSH1 0x1F DUP4 GT PUSH1 0x1 DUP2 EQ PUSH3 0xB2A JUMPI PUSH1 0x0 DUP5 ISZERO PUSH3 0xB11 JUMPI POP DUP6 DUP4 ADD MLOAD JUMPDEST PUSH1 0x0 NOT PUSH1 0x3 DUP7 SWAP1 SHL SHR NOT AND PUSH1 0x1 DUP6 SWAP1 SHL OR DUP6 SSTORE PUSH3 0xAB5 JUMP JUMPDEST PUSH1 0x0 DUP6 DUP2 MSTORE PUSH1 0x20 DUP2 KECCAK256 PUSH1 0x1F NOT DUP7 AND SWAP2 JUMPDEST DUP3 DUP2 LT ISZERO PUSH3 0xB5B JUMPI DUP9 DUP7 ADD MLOAD DUP3 SSTORE SWAP5 DUP5 ADD SWAP5 PUSH1 0x1 SWAP1 SWAP2 ADD SWAP1 DUP5 ADD PUSH3 0xB3A JUMP JUMPDEST POP DUP6 DUP3 LT ISZERO PUSH3 0xB7A JUMPI DUP8 DUP6 ADD MLOAD PUSH1 0x0 NOT PUSH1 0x3 DUP9 SWAP1 SHL PUSH1 0xF8 AND SHR NOT AND DUP2 SSTORE JUMPDEST POP POP POP POP POP PUSH1 0x1 SWAP1 DUP2 SHL ADD SWAP1 SSTORE POP JUMP JUMPDEST PUSH1 0x0 PUSH2 0x100 DUP11 DUP4 MSTORE DUP10 PUSH1 0x20 DUP5 ADD MSTORE DUP1 PUSH1 0x40 DUP5 ADD MSTORE PUSH3 0xBAC DUP2 DUP5 ADD DUP11 PUSH3 0x969 JUMP JUMPDEST SWAP1 POP DUP8 PUSH1 0x60 DUP5 ADD MSTORE DUP7 PUSH1 0x80 DUP5 ADD MSTORE DUP6 PUSH1 0xA0 DUP5 ADD MSTORE DUP5 PUSH1 0xC0 DUP5 ADD MSTORE DUP3 DUP2 SUB PUSH1 0xE0 DUP5 ADD MSTORE PUSH3 0xBDA DUP2 DUP6 PUSH3 0x969 JUMP JUMPDEST SWAP12 SWAP11 POP POP POP POP POP POP POP POP POP POP POP JUMP JUMPDEST PUSH1 0x0 PUSH1 0x1 DUP3 ADD PUSH3 0xC0A JUMPI PUSH4 0x4E487B71 PUSH1 0xE0 SHL PUSH1 0x0 MSTORE PUSH1 0x11 PUSH1 0x4 MSTORE PUSH1 0x24 PUSH1 0x0 REVERT JUMPDEST POP PUSH1 0x1 ADD SWAP1 JUMP JUMPDEST PUSH2 0x1068 DUP1 PUSH3 0xC21 PUSH1 0x0 CODECOPY PUSH1 0x0 RETURN INVALID PUSH1 0x80 PUSH1 0x40 MSTORE CALLVALUE DUP1 ISZERO PUSH2 0x10 JUMPI PUSH1 0x0 DUP1 REVERT JUMPDEST POP PUSH1 0x4 CALLDATASIZE LT PUSH2 0xA9 JUMPI PUSH1 0x0 CALLDATALOAD PUSH1 0xE0 SHR DUP1 PUSH4 0x7580916B GT PUSH2 0x71 JUMPI DUP1 PUSH4 0x7580916B EQ PUSH2 0x130 JUMPI DUP1 PUSH4 0x849DB6BF EQ PUSH2 0x164 JUMPI DUP1 PUSH4 0x8DA5CB5B EQ PUSH2 0x177 JUMPI DUP1 PUSH4 0x9648C9F4 EQ PUSH2 0x188 JUMPI DUP1 PUSH4 0xCC437008 EQ PUSH2 0x19F JUMPI DUP1 PUSH4 0xF2FDE38B EQ PUSH2 0x1B4 JUMPI PUSH1 0x0 DUP1 REVERT JUMPDEST DUP1 PUSH4 0x183A471C EQ PUSH2 0xAE JUMPI DUP1 PUSH4 0x290F3094 EQ PUSH2 0xDE JUMPI DUP1 PUSH4 0x35603440 EQ PUSH2 0xF3 JUMPI DUP1 PUSH4 0x48A4F2E9 EQ PUSH2 0x113 JUMPI DUP1 PUSH4 0x715018A6 EQ PUSH2 0x128 JUMPI JUMPDEST PUSH1 0x0 DUP1 REVERT JUMPDEST PUSH2 0xC1 PUSH2 0xBC CALLDATASIZE PUSH1 0x4 PUSH2 0x924 JUMP JUMPDEST PUSH2 0x1C7 JUMP JUMPDEST PUSH1 0x40 MLOAD PUSH1 0x1 PUSH1 0x1 PUSH1 0xA0 SHL SUB SWAP1 SWAP2 AND DUP2 MSTORE PUSH1 0x20 ADD JUMPDEST PUSH1 0x40 MLOAD DUP1 SWAP2 SUB SWAP1 RETURN JUMPDEST PUSH2 0xF1 PUSH2 0xEC CALLDATASIZE PUSH1 0x4 PUSH2 0x961 JUMP JUMPDEST PUSH2 0x1F8 JUMP JUMPDEST STOP JUMPDEST PUSH2 0x106 PUSH2 0x101 CALLDATASIZE PUSH1 0x4 PUSH2 0x9F5 JUMP JUMPDEST PUSH2 0x309 JUMP JUMPDEST PUSH1 0x40 MLOAD PUSH2 0xD5 SWAP2 SWAP1 PUSH2 0xA5E JUMP JUMPDEST PUSH2 0x11B PUSH2 0x3B5 JUMP JUMPDEST PUSH1 0x40 MLOAD PUSH2 0xD5 SWAP2 SWAP1 PUSH2 0xA78 JUMP JUMPDEST PUSH2 0xF1 PUSH2 0x48E JUMP JUMPDEST PUSH2 0xC1 PUSH2 0x13E CALLDATASIZE PUSH1 0x4 PUSH2 0x924 JUMP JUMPDEST DUP1 MLOAD PUSH1 0x20 DUP2 DUP4 ADD DUP2 ADD DUP1 MLOAD PUSH1 0x1 DUP3 MSTORE SWAP3 DUP3 ADD SWAP2 SWAP1 SWAP4 ADD KECCAK256 SWAP2 MSTORE SLOAD PUSH1 0x1 PUSH1 0x1 PUSH1 0xA0 SHL SUB AND DUP2 JUMP JUMPDEST PUSH2 0xF1 PUSH2 0x172 CALLDATASIZE PUSH1 0x4 PUSH2 0xBE9 JUMP JUMPDEST PUSH2 0x4A2 JUMP JUMPDEST PUSH1 0x0 SLOAD PUSH1 0x1 PUSH1 0x1 PUSH1 0xA0 SHL SUB AND PUSH2 0xC1 JUMP JUMPDEST PUSH2 0x191 PUSH1 0x7 SLOAD DUP2 JUMP JUMPDEST PUSH1 0x40 MLOAD SWAP1 DUP2 MSTORE PUSH1 0x20 ADD PUSH2 0xD5 JUMP JUMPDEST PUSH2 0x1A7 PUSH2 0x65F JUMP JUMPDEST PUSH1 0x40 MLOAD PUSH2 0xD5 SWAP2 SWAP1 PUSH2 0xCD8 JUMP JUMPDEST PUSH2 0xF1 PUSH2 0x1C2 CALLDATASIZE PUSH1 0x4 PUSH2 0xD3A JUMP JUMPDEST PUSH2 0x745 JUMP JUMPDEST PUSH1 0x0 PUSH1 0x1 DUP3 PUSH1 0x40 MLOAD PUSH2 0x1D9 SWAP2 SWAP1 PUSH2 0xD57 JUMP JUMPDEST SWAP1 DUP2 MSTORE PUSH1 0x40 MLOAD SWAP1 DUP2 SWAP1 SUB PUSH1 0x20 ADD SWAP1 KECCAK256 SLOAD PUSH1 0x1 PUSH1 0x1 PUSH1 0xA0 SHL SUB AND SWAP3 SWAP2 POP POP JUMP JUMPDEST PUSH2 0x200 PUSH2 0x7C3 JUMP JUMPDEST PUSH1 0x3 SLOAD PUSH1 0x40 MLOAD PUSH4 0x3E50E267 PUSH1 0xE2 SHL DUP2 MSTORE PUSH1 0x0 SWAP2 PUSH1 0x1 PUSH1 0x1 PUSH1 0xA0 SHL SUB AND SWAP1 PUSH4 0xF943899C SWAP1 PUSH2 0x23D SWAP1 DUP12 SWAP1 DUP12 SWAP1 DUP12 SWAP1 DUP12 SWAP1 DUP12 SWAP1 DUP12 SWAP1 DUP12 SWAP1 PUSH1 0x4 ADD PUSH2 0xD73 JUMP JUMPDEST PUSH1 0x20 PUSH1 0x40 MLOAD DUP1 DUP4 SUB DUP2 PUSH1 0x0 DUP8 GAS CALL ISZERO DUP1 ISZERO PUSH2 0x25C JUMPI RETURNDATASIZE PUSH1 0x0 DUP1 RETURNDATACOPY RETURNDATASIZE PUSH1 0x0 REVERT JUMPDEST POP POP POP POP PUSH1 0x40 MLOAD RETURNDATASIZE PUSH1 0x1F NOT PUSH1 0x1F DUP3 ADD AND DUP3 ADD DUP1 PUSH1 0x40 MSTORE POP DUP2 ADD SWAP1 PUSH2 0x280 SWAP2 SWAP1 PUSH2 0xDC4 JUMP JUMPDEST SWAP1 POP DUP1 PUSH1 0x1 DUP8 PUSH1 0x40 MLOAD PUSH2 0x293 SWAP2 SWAP1 PUSH2 0xD57 JUMP JUMPDEST SWAP1 DUP2 MSTORE PUSH1 0x40 MLOAD SWAP1 DUP2 SWAP1 SUB PUSH1 0x20 ADD SWAP1 KECCAK256 DUP1 SLOAD PUSH1 0x1 PUSH1 0x1 PUSH1 0xA0 SHL SUB SWAP3 SWAP1 SWAP3 AND PUSH1 0x1 PUSH1 0x1 PUSH1 0xA0 SHL SUB NOT SWAP1 SWAP3 AND SWAP2 SWAP1 SWAP2 OR SWAP1 SSTORE PUSH1 0x2 DUP1 SLOAD PUSH1 0x1 DUP2 ADD DUP3 SSTORE PUSH1 0x0 SWAP2 SWAP1 SWAP2 MSTORE PUSH32 0x405787FA12A823E0F2B7631CC41B3BA8828B3321CA811111FA75CD3AA3BB5ACE ADD PUSH2 0x2FE DUP8 DUP3 PUSH2 0xE64 JUMP JUMPDEST POP POP POP POP POP POP POP POP POP JUMP JUMPDEST PUSH1 0x2 DUP2 DUP2 SLOAD DUP2 LT PUSH2 0x319 JUMPI PUSH1 0x0 DUP1 REVERT JUMPDEST SWAP1 PUSH1 0x0 MSTORE PUSH1 0x20 PUSH1 0x0 KECCAK256 ADD PUSH1 0x0 SWAP2 POP SWAP1 POP DUP1 SLOAD PUSH2 0x334 SWAP1 PUSH2 0xDE1 JUMP JUMPDEST DUP1 PUSH1 0x1F ADD PUSH1 0x20 DUP1 SWAP2 DIV MUL PUSH1 0x20 ADD PUSH1 0x40 MLOAD SWAP1 DUP2 ADD PUSH1 0x40 MSTORE DUP1 SWAP3 SWAP2 SWAP1 DUP2 DUP2 MSTORE PUSH1 0x20 ADD DUP3 DUP1 SLOAD PUSH2 0x360 SWAP1 PUSH2 0xDE1 JUMP JUMPDEST DUP1 ISZERO PUSH2 0x3AD JUMPI DUP1 PUSH1 0x1F LT PUSH2 0x382 JUMPI PUSH2 0x100 DUP1 DUP4 SLOAD DIV MUL DUP4 MSTORE SWAP2 PUSH1 0x20 ADD SWAP2 PUSH2 0x3AD JUMP JUMPDEST DUP3 ADD SWAP2 SWAP1 PUSH1 0x0 MSTORE PUSH1 0x20 PUSH1 0x0 KECCAK256 SWAP1 JUMPDEST DUP2 SLOAD DUP2 MSTORE SWAP1 PUSH1 0x1 ADD SWAP1 PUSH1 0x20 ADD DUP1 DUP4 GT PUSH2 0x390 JUMPI DUP3 SWAP1 SUB PUSH1 0x1F AND DUP3 ADD SWAP2 JUMPDEST POP POP POP POP POP DUP2 JUMP JUMPDEST PUSH1 0x60 PUSH1 0x2 DUP1 SLOAD DUP1 PUSH1 0x20 MUL PUSH1 0x20 ADD PUSH1 0x40 MLOAD SWAP1 DUP2 ADD PUSH1 0x40 MSTORE DUP1 SWAP3 SWAP2 SWAP1 DUP2 DUP2 MSTORE PUSH1 0x20 ADD PUSH1 0x0 SWAP1 JUMPDEST DUP3 DUP3 LT ISZERO PUSH2 0x485 JUMPI DUP4 DUP3 SWAP1 PUSH1 0x0 MSTORE PUSH1 0x20 PUSH1 0x0 KECCAK256 ADD DUP1 SLOAD PUSH2 0x3F8 SWAP1 PUSH2 0xDE1 JUMP JUMPDEST DUP1 PUSH1 0x1F ADD PUSH1 0x20 DUP1 SWAP2 DIV MUL PUSH1 0x20 ADD PUSH1 0x40 MLOAD SWAP1 DUP2 ADD PUSH1 0x40 MSTORE DUP1 SWAP3 SWAP2 SWAP1 DUP2 DUP2 MSTORE PUSH1 0x20 ADD DUP3 DUP1 SLOAD PUSH2 0x424 SWAP1 PUSH2 0xDE1 JUMP JUMPDEST DUP1 ISZERO PUSH2 0x471 JUMPI DUP1 PUSH1 0x1F LT PUSH2 0x446 JUMPI PUSH2 0x100 DUP1 DUP4 SLOAD DIV MUL DUP4 MSTORE SWAP2 PUSH1 0x20 ADD SWAP2 PUSH2 0x471 JUMP JUMPDEST DUP3 ADD SWAP2 SWAP1 PUSH1 0x0 MSTORE PUSH1 0x20 PUSH1 0x0 KECCAK256 SWAP1 JUMPDEST DUP2 SLOAD DUP2 MSTORE SWAP1 PUSH1 0x1 ADD SWAP1 PUSH1 0x20 ADD DUP1 DUP4 GT PUSH2 0x454 JUMPI DUP3 SWAP1 SUB PUSH1 0x1F AND DUP3 ADD SWAP2 JUMPDEST POP POP POP POP POP DUP2 MSTORE PUSH1 0x20 ADD SWAP1 PUSH1 0x1 ADD SWAP1 PUSH2 0x3D9 JUMP JUMPDEST POP POP POP POP SWAP1 POP SWAP1 JUMP JUMPDEST PUSH2 0x496 PUSH2 0x7C3 JUMP JUMPDEST PUSH2 0x4A0 PUSH1 0x0 PUSH2 0x81D JUMP JUMPDEST JUMP JUMPDEST PUSH2 0x4AA PUSH2 0x7C3 JUMP JUMPDEST DUP6 MLOAD PUSH1 0x1 JUMPDEST DUP2 DUP2 LT ISZERO PUSH2 0x653 JUMPI PUSH1 0x4 SLOAD DUP9 MLOAD PUSH1 0x0 SWAP2 PUSH1 0x1 PUSH1 0x1 PUSH1 0xA0 SHL SUB AND SWAP1 PUSH4 0x5C2D70CE SWAP1 DUP14 SWAP1 DUP14 SWAP1 DUP14 SWAP1 DUP8 SWAP1 DUP2 LT PUSH2 0x4E5 JUMPI PUSH2 0x4E5 PUSH2 0xF24 JUMP JUMPDEST PUSH1 0x20 MUL PUSH1 0x20 ADD ADD MLOAD DUP13 DUP8 DUP2 MLOAD DUP2 LT PUSH2 0x4FF JUMPI PUSH2 0x4FF PUSH2 0xF24 JUMP JUMPDEST PUSH1 0x20 MUL PUSH1 0x20 ADD ADD MLOAD DUP13 DUP9 DUP2 MLOAD DUP2 LT PUSH2 0x519 JUMPI PUSH2 0x519 PUSH2 0xF24 JUMP JUMPDEST PUSH1 0x20 MUL PUSH1 0x20 ADD ADD MLOAD DUP13 DUP13 DUP11 DUP2 MLOAD DUP2 LT PUSH2 0x534 JUMPI PUSH2 0x534 PUSH2 0xF24 JUMP JUMPDEST PUSH1 0x20 MUL PUSH1 0x20 ADD ADD MLOAD DUP13 PUSH1 0x40 MLOAD DUP10 PUSH4 0xFFFFFFFF AND PUSH1 0xE0 SHL DUP2 MSTORE PUSH1 0x4 ADD PUSH2 0x560 SWAP9 SWAP8 SWAP7 SWAP6 SWAP5 SWAP4 SWAP3 SWAP2 SWAP1 PUSH2 0xF3A JUMP JUMPDEST PUSH1 0x20 PUSH1 0x40 MLOAD DUP1 DUP4 SUB DUP2 PUSH1 0x0 DUP8 GAS CALL ISZERO DUP1 ISZERO PUSH2 0x57F JUMPI RETURNDATASIZE PUSH1 0x0 DUP1 RETURNDATACOPY RETURNDATASIZE PUSH1 0x0 REVERT JUMPDEST POP POP POP POP PUSH1 0x40 MLOAD RETURNDATASIZE PUSH1 0x1F NOT PUSH1 0x1F DUP3 ADD AND DUP3 ADD DUP1 PUSH1 0x40 MSTORE POP DUP2 ADD SWAP1 PUSH2 0x5A3 SWAP2 SWAP1 PUSH2 0xDC4 JUMP JUMPDEST SWAP1 POP DUP1 PUSH1 0x1 DUP11 DUP5 DUP2 MLOAD DUP2 LT PUSH2 0x5BA JUMPI PUSH2 0x5BA PUSH2 0xF24 JUMP JUMPDEST PUSH1 0x20 MUL PUSH1 0x20 ADD ADD MLOAD PUSH1 0x40 MLOAD PUSH2 0x5CF SWAP2 SWAP1 PUSH2 0xD57 JUMP JUMPDEST SWAP1 DUP2 MSTORE PUSH1 0x20 ADD PUSH1 0x40 MLOAD DUP1 SWAP2 SUB SWAP1 KECCAK256 PUSH1 0x0 PUSH2 0x100 EXP DUP2 SLOAD DUP2 PUSH1 0x1 PUSH1 0x1 PUSH1 0xA0 SHL SUB MUL NOT AND SWAP1 DUP4 PUSH1 0x1 PUSH1 0x1 PUSH1 0xA0 SHL SUB AND MUL OR SWAP1 SSTORE POP PUSH1 0x2 DUP10 DUP4 DUP2 MLOAD DUP2 LT PUSH2 0x615 JUMPI PUSH2 0x615 PUSH2 0xF24 JUMP JUMPDEST PUSH1 0x20 SWAP1 DUP2 MUL SWAP2 SWAP1 SWAP2 ADD DUP2 ADD MLOAD DUP3 SLOAD PUSH1 0x1 DUP2 ADD DUP5 SSTORE PUSH1 0x0 SWAP4 DUP5 MSTORE SWAP2 SWAP1 SWAP3 KECCAK256 ADD SWAP1 PUSH2 0x63E SWAP1 DUP3 PUSH2 0xE64 JUMP JUMPDEST POP POP DUP1 DUP1 PUSH2 0x64B SWAP1 PUSH2 0xF95 JUMP JUMPDEST SWAP2 POP POP PUSH2 0x4AF JUMP JUMPDEST POP POP POP POP POP POP POP POP POP POP JUMP JUMPDEST PUSH1 0x2 SLOAD PUSH1 0x60 SWAP1 PUSH1 0x0 SWAP1 PUSH8 0xFFFFFFFFFFFFFFFF DUP2 GT ISZERO PUSH2 0x680 JUMPI PUSH2 0x680 PUSH2 0x86D JUMP JUMPDEST PUSH1 0x40 MLOAD SWAP1 DUP1 DUP3 MSTORE DUP1 PUSH1 0x20 MUL PUSH1 0x20 ADD DUP3 ADD PUSH1 0x40 MSTORE DUP1 ISZERO PUSH2 0x6A9 JUMPI DUP2 PUSH1 0x20 ADD PUSH1 0x20 DUP3 MUL DUP1 CALLDATASIZE DUP4 CALLDATACOPY ADD SWAP1 POP JUMPDEST POP SWAP1 POP PUSH1 0x0 JUMPDEST PUSH1 0x2 SLOAD DUP2 LT ISZERO PUSH2 0x73F JUMPI PUSH1 0x1 PUSH1 0x2 DUP3 DUP2 SLOAD DUP2 LT PUSH2 0x6CE JUMPI PUSH2 0x6CE PUSH2 0xF24 JUMP JUMPDEST SWAP1 PUSH1 0x0 MSTORE PUSH1 0x20 PUSH1 0x0 KECCAK256 ADD PUSH1 0x40 MLOAD PUSH2 0x6E5 SWAP2 SWAP1 PUSH2 0xFBC JUMP JUMPDEST SWAP1 DUP2 MSTORE PUSH1 0x40 MLOAD SWAP1 DUP2 SWAP1 SUB PUSH1 0x20 ADD SWAP1 KECCAK256 SLOAD DUP3 MLOAD PUSH1 0x1 PUSH1 0x1 PUSH1 0xA0 SHL SUB SWAP1 SWAP2 AND SWAP1 DUP4 SWAP1 DUP4 SWAP1 DUP2 LT PUSH2 0x715 JUMPI PUSH2 0x715 PUSH2 0xF24 JUMP JUMPDEST PUSH1 0x1 PUSH1 0x1 PUSH1 0xA0 SHL SUB SWAP1 SWAP3 AND PUSH1 0x20 SWAP3 DUP4 MUL SWAP2 SWAP1 SWAP2 ADD SWAP1 SWAP2 ADD MSTORE DUP1 PUSH2 0x737 DUP2 PUSH2 0xF95 JUMP JUMPDEST SWAP2 POP POP PUSH2 0x6AF JUMP JUMPDEST POP SWAP2 SWAP1 POP JUMP JUMPDEST PUSH2 0x74D PUSH2 0x7C3 JUMP JUMPDEST PUSH1 0x1 PUSH1 0x1 PUSH1 0xA0 SHL SUB DUP2 AND PUSH2 0x7B7 JUMPI PUSH1 0x40 MLOAD PUSH3 0x461BCD PUSH1 0xE5 SHL DUP2 MSTORE PUSH1 0x20 PUSH1 0x4 DUP3 ADD MSTORE PUSH1 0x26 PUSH1 0x24 DUP3 ADD MSTORE PUSH32 0x4F776E61626C653A206E6577206F776E657220697320746865207A65726F2061 PUSH1 0x44 DUP3 ADD MSTORE PUSH6 0x646472657373 PUSH1 0xD0 SHL PUSH1 0x64 DUP3 ADD MSTORE PUSH1 0x84 ADD JUMPDEST PUSH1 0x40 MLOAD DUP1 SWAP2 SUB SWAP1 REVERT JUMPDEST PUSH2 0x7C0 DUP2 PUSH2 0x81D JUMP JUMPDEST POP JUMP JUMPDEST PUSH1 0x0 SLOAD PUSH1 0x1 PUSH1 0x1 PUSH1 0xA0 SHL SUB AND CALLER EQ PUSH2 0x4A0 JUMPI PUSH1 0x40 MLOAD PUSH3 0x461BCD PUSH1 0xE5 SHL DUP2 MSTORE PUSH1 0x20 PUSH1 0x4 DUP3 ADD DUP2 SWAP1 MSTORE PUSH1 0x24 DUP3 ADD MSTORE PUSH32 0x4F776E61626C653A2063616C6C6572206973206E6F7420746865206F776E6572 PUSH1 0x44 DUP3 ADD MSTORE PUSH1 0x64 ADD PUSH2 0x7AE JUMP JUMPDEST PUSH1 0x0 DUP1 SLOAD PUSH1 0x1 PUSH1 0x1 PUSH1 0xA0 SHL SUB DUP4 DUP2 AND PUSH1 0x1 PUSH1 0x1 PUSH1 0xA0 SHL SUB NOT DUP4 AND DUP2 OR DUP5 SSTORE PUSH1 0x40 MLOAD SWAP2 SWAP1 SWAP3 AND SWAP3 DUP4 SWAP2 PUSH32 0x8BE0079C531659141344CD1FD0A4F28419497F9722A3DAAFE3B4186F6B6457E0 SWAP2 SWAP1 LOG3 POP POP JUMP JUMPDEST PUSH4 0x4E487B71 PUSH1 0xE0 SHL PUSH1 0x0 MSTORE PUSH1 0x41 PUSH1 0x4 MSTORE PUSH1 0x24 PUSH1 0x0 REVERT JUMPDEST PUSH1 0x40 MLOAD PUSH1 0x1F DUP3 ADD PUSH1 0x1F NOT AND DUP2 ADD PUSH8 0xFFFFFFFFFFFFFFFF DUP2 GT DUP3 DUP3 LT OR ISZERO PUSH2 0x8AC JUMPI PUSH2 0x8AC PUSH2 0x86D JUMP JUMPDEST PUSH1 0x40 MSTORE SWAP2 SWAP1 POP JUMP JUMPDEST PUSH1 0x0 DUP3 PUSH1 0x1F DUP4 ADD SLT PUSH2 0x8C5 JUMPI PUSH1 0x0 DUP1 REVERT JUMPDEST DUP2 CALLDATALOAD PUSH8 0xFFFFFFFFFFFFFFFF DUP2 GT ISZERO PUSH2 0x8DF JUMPI PUSH2 0x8DF PUSH2 0x86D JUMP JUMPDEST PUSH2 0x8F2 PUSH1 0x1F DUP3 ADD PUSH1 0x1F NOT AND PUSH1 0x20 ADD PUSH2 0x883 JUMP JUMPDEST DUP2 DUP2 MSTORE DUP5 PUSH1 0x20 DUP4 DUP7 ADD ADD GT ISZERO PUSH2 0x907 JUMPI PUSH1 0x0 DUP1 REVERT JUMPDEST DUP2 PUSH1 0x20 DUP6 ADD PUSH1 0x20 DUP4 ADD CALLDATACOPY PUSH1 0x0 SWAP2 DUP2 ADD PUSH1 0x20 ADD SWAP2 SWAP1 SWAP2 MSTORE SWAP4 SWAP3 POP POP POP JUMP JUMPDEST PUSH1 0x0 PUSH1 0x20 DUP3 DUP5 SUB SLT ISZERO PUSH2 0x936 JUMPI PUSH1 0x0 DUP1 REVERT JUMPDEST DUP2 CALLDATALOAD PUSH8 0xFFFFFFFFFFFFFFFF DUP2 GT ISZERO PUSH2 0x94D JUMPI PUSH1 0x0 DUP1 REVERT JUMPDEST PUSH2 0x959 DUP5 DUP3 DUP6 ADD PUSH2 0x8B4 JUMP JUMPDEST SWAP5 SWAP4 POP POP POP POP JUMP JUMPDEST PUSH1 0x0 DUP1 PUSH1 0x0 DUP1 PUSH1 0x0 DUP1 PUSH1 0x0 PUSH1 0xE0 DUP9 DUP11 SUB SLT ISZERO PUSH2 0x97C JUMPI PUSH1 0x0 DUP1 REVERT JUMPDEST DUP8 CALLDATALOAD SWAP7 POP PUSH1 0x20 DUP9 ADD CALLDATALOAD SWAP6 POP PUSH1 0x40 DUP9 ADD CALLDATALOAD PUSH8 0xFFFFFFFFFFFFFFFF DUP1 DUP3 GT ISZERO PUSH2 0x9A2 JUMPI PUSH1 0x0 DUP1 REVERT JUMPDEST PUSH2 0x9AE DUP12 DUP4 DUP13 ADD PUSH2 0x8B4 JUMP JUMPDEST SWAP7 POP PUSH1 0x60 DUP11 ADD CALLDATALOAD SWAP6 POP PUSH1 0x80 DUP11 ADD CALLDATALOAD SWAP5 POP PUSH1 0xA0 DUP11 ADD CALLDATALOAD SWAP4 POP PUSH1 0xC0 DUP11 ADD CALLDATALOAD SWAP2 POP DUP1 DUP3 GT ISZERO PUSH2 0x9D9 JUMPI PUSH1 0x0 DUP1 REVERT JUMPDEST POP PUSH2 0x9E6 DUP11 DUP3 DUP12 ADD PUSH2 0x8B4 JUMP JUMPDEST SWAP2 POP POP SWAP3 SWAP6 SWAP9 SWAP2 SWAP5 SWAP8 POP SWAP3 SWAP6 POP JUMP JUMPDEST PUSH1 0x0 PUSH1 0x20 DUP3 DUP5 SUB SLT ISZERO PUSH2 0xA07 JUMPI PUSH1 0x0 DUP1 REVERT JUMPDEST POP CALLDATALOAD SWAP2 SWAP1 POP JUMP JUMPDEST PUSH1 0x0 JUMPDEST DUP4 DUP2 LT ISZERO PUSH2 0xA29 JUMPI DUP2 DUP2 ADD MLOAD DUP4 DUP3 ADD MSTORE PUSH1 0x20 ADD PUSH2 0xA11 JUMP JUMPDEST POP POP PUSH1 0x0 SWAP2 ADD MSTORE JUMP JUMPDEST PUSH1 0x0 DUP2 MLOAD DUP1 DUP5 MSTORE PUSH2 0xA4A DUP2 PUSH1 0x20 DUP7 ADD PUSH1 0x20 DUP7 ADD PUSH2 0xA0E JUMP JUMPDEST PUSH1 0x1F ADD PUSH1 0x1F NOT AND SWAP3 SWAP1 SWAP3 ADD PUSH1 0x20 ADD SWAP3 SWAP2 POP POP JUMP JUMPDEST PUSH1 0x20 DUP2 MSTORE PUSH1 0x0 PUSH2 0xA71 PUSH1 0x20 DUP4 ADD DUP5 PUSH2 0xA32 JUMP JUMPDEST SWAP4 SWAP3 POP POP POP JUMP JUMPDEST PUSH1 0x0 PUSH1 0x20 DUP1 DUP4 ADD DUP2 DUP5 MSTORE DUP1 DUP6 MLOAD DUP1 DUP4 MSTORE PUSH1 0x40 DUP7 ADD SWAP2 POP PUSH1 0x40 DUP2 PUSH1 0x5 SHL DUP8 ADD ADD SWAP3 POP DUP4 DUP8 ADD PUSH1 0x0 JUMPDEST DUP3 DUP2 LT ISZERO PUSH2 0xACD JUMPI PUSH1 0x3F NOT DUP9 DUP7 SUB ADD DUP5 MSTORE PUSH2 0xABB DUP6 DUP4 MLOAD PUSH2 0xA32 JUMP JUMPDEST SWAP5 POP SWAP3 DUP6 ADD SWAP3 SWAP1 DUP6 ADD SWAP1 PUSH1 0x1 ADD PUSH2 0xA9F JUMP JUMPDEST POP SWAP3 SWAP8 SWAP7 POP POP POP POP POP POP POP JUMP JUMPDEST PUSH1 0x0 PUSH8 0xFFFFFFFFFFFFFFFF DUP3 GT ISZERO PUSH2 0xAF4 JUMPI PUSH2 0xAF4 PUSH2 0x86D JUMP JUMPDEST POP PUSH1 0x5 SHL PUSH1 0x20 ADD SWAP1 JUMP JUMPDEST PUSH1 0x0 DUP3 PUSH1 0x1F DUP4 ADD SLT PUSH2 0xB0F JUMPI PUSH1 0x0 DUP1 REVERT JUMPDEST DUP2 CALLDATALOAD PUSH1 0x20 PUSH2 0xB24 PUSH2 0xB1F DUP4 PUSH2 0xADA JUMP JUMPDEST PUSH2 0x883 JUMP JUMPDEST DUP3 DUP2 MSTORE PUSH1 0x5 SWAP3 SWAP1 SWAP3 SHL DUP5 ADD DUP2 ADD SWAP2 DUP2 DUP2 ADD SWAP1 DUP7 DUP5 GT ISZERO PUSH2 0xB43 JUMPI PUSH1 0x0 DUP1 REVERT JUMPDEST DUP3 DUP7 ADD JUMPDEST DUP5 DUP2 LT ISZERO PUSH2 0xB83 JUMPI DUP1 CALLDATALOAD PUSH8 0xFFFFFFFFFFFFFFFF DUP2 GT ISZERO PUSH2 0xB67 JUMPI PUSH1 0x0 DUP1 DUP2 REVERT JUMPDEST PUSH2 0xB75 DUP10 DUP7 DUP4 DUP12 ADD ADD PUSH2 0x8B4 JUMP JUMPDEST DUP5 MSTORE POP SWAP2 DUP4 ADD SWAP2 DUP4 ADD PUSH2 0xB47 JUMP JUMPDEST POP SWAP7 SWAP6 POP POP POP POP POP POP JUMP JUMPDEST PUSH1 0x0 DUP3 PUSH1 0x1F DUP4 ADD SLT PUSH2 0xB9F JUMPI PUSH1 0x0 DUP1 REVERT JUMPDEST DUP2 CALLDATALOAD PUSH1 0x20 PUSH2 0xBAF PUSH2 0xB1F DUP4 PUSH2 0xADA JUMP JUMPDEST DUP3 DUP2 MSTORE PUSH1 0x5 SWAP3 SWAP1 SWAP3 SHL DUP5 ADD DUP2 ADD SWAP2 DUP2 DUP2 ADD SWAP1 DUP7 DUP5 GT ISZERO PUSH2 0xBCE JUMPI PUSH1 0x0 DUP1 REVERT JUMPDEST DUP3 DUP7 ADD JUMPDEST DUP5 DUP2 LT ISZERO PUSH2 0xB83 JUMPI DUP1 CALLDATALOAD DUP4 MSTORE SWAP2 DUP4 ADD SWAP2 DUP4 ADD PUSH2 0xBD2 JUMP JUMPDEST PUSH1 0x0 DUP1 PUSH1 0x0 DUP1 PUSH1 0x0 DUP1 PUSH1 0x0 DUP1 PUSH2 0x100 DUP10 DUP12 SUB SLT ISZERO PUSH2 0xC06 JUMPI PUSH1 0x0 DUP1 REVERT JUMPDEST DUP9 CALLDATALOAD SWAP8 POP PUSH1 0x20 DUP10 ADD CALLDATALOAD SWAP7 POP PUSH1 0x40 DUP10 ADD CALLDATALOAD PUSH8 0xFFFFFFFFFFFFFFFF DUP1 DUP3 GT ISZERO PUSH2 0xC2C JUMPI PUSH1 0x0 DUP1 REVERT JUMPDEST PUSH2 0xC38 DUP13 DUP4 DUP14 ADD PUSH2 0xAFE JUMP JUMPDEST SWAP8 POP PUSH1 0x60 DUP12 ADD CALLDATALOAD SWAP2 POP DUP1 DUP3 GT ISZERO PUSH2 0xC4E JUMPI PUSH1 0x0 DUP1 REVERT JUMPDEST PUSH2 0xC5A DUP13 DUP4 DUP14 ADD PUSH2 0xB8E JUMP JUMPDEST SWAP7 POP PUSH1 0x80 DUP12 ADD CALLDATALOAD SWAP2 POP DUP1 DUP3 GT ISZERO PUSH2 0xC70 JUMPI PUSH1 0x0 DUP1 REVERT JUMPDEST PUSH2 0xC7C DUP13 DUP4 DUP14 ADD PUSH2 0xB8E JUMP JUMPDEST SWAP6 POP PUSH1 0xA0 DUP12 ADD CALLDATALOAD SWAP5 POP PUSH1 0xC0 DUP12 ADD CALLDATALOAD SWAP2 POP DUP1 DUP3 GT ISZERO PUSH2 0xC99 JUMPI PUSH1 0x0 DUP1 REVERT JUMPDEST PUSH2 0xCA5 DUP13 DUP4 DUP14 ADD PUSH2 0xB8E JUMP JUMPDEST SWAP4 POP PUSH1 0xE0 DUP12 ADD CALLDATALOAD SWAP2 POP DUP1 DUP3 GT ISZERO PUSH2 0xCBB JUMPI PUSH1 0x0 DUP1 REVERT JUMPDEST POP PUSH2 0xCC8 DUP12 DUP3 DUP13 ADD PUSH2 0x8B4 JUMP JUMPDEST SWAP2 POP POP SWAP3 SWAP6 SWAP9 POP SWAP3 SWAP6 SWAP9 SWAP1 SWAP4 SWAP7 POP JUMP JUMPDEST PUSH1 0x20 DUP1 DUP3 MSTORE DUP3 MLOAD DUP3 DUP3 ADD DUP2 SWAP1 MSTORE PUSH1 0x0 SWAP2 SWAP1 DUP5 DUP3 ADD SWAP1 PUSH1 0x40 DUP6 ADD SWAP1 DUP5 JUMPDEST DUP2 DUP2 LT ISZERO PUSH2 0xD19 JUMPI DUP4 MLOAD PUSH1 0x1 PUSH1 0x1 PUSH1 0xA0 SHL SUB AND DUP4 MSTORE SWAP3 DUP5 ADD SWAP3 SWAP2 DUP5 ADD SWAP2 PUSH1 0x1 ADD PUSH2 0xCF4 JUMP JUMPDEST POP SWAP1 SWAP7 SWAP6 POP POP POP POP POP POP JUMP JUMPDEST PUSH1 0x1 PUSH1 0x1 PUSH1 0xA0 SHL SUB DUP2 AND DUP2 EQ PUSH2 0x7C0 JUMPI PUSH1 0x0 DUP1 REVERT JUMPDEST PUSH1 0x0 PUSH1 0x20 DUP3 DUP5 SUB SLT ISZERO PUSH2 0xD4C JUMPI PUSH1 0x0 DUP1 REVERT JUMPDEST DUP2 CALLDATALOAD PUSH2 0xA71 DUP2 PUSH2 0xD25 JUMP JUMPDEST PUSH1 0x0 DUP3 MLOAD PUSH2 0xD69 DUP2 DUP5 PUSH1 0x20 DUP8 ADD PUSH2 0xA0E JUMP JUMPDEST SWAP2 SWAP1 SWAP2 ADD SWAP3 SWAP2 POP POP JUMP JUMPDEST DUP8 DUP2 MSTORE DUP7 PUSH1 0x20 DUP3 ADD MSTORE PUSH1 0xE0 PUSH1 0x40 DUP3 ADD MSTORE PUSH1 0x0 PUSH2 0xD92 PUSH1 0xE0 DUP4 ADD DUP9 PUSH2 0xA32 JUMP JUMPDEST DUP7 PUSH1 0x60 DUP5 ADD MSTORE DUP6 PUSH1 0x80 DUP5 ADD MSTORE DUP5 PUSH1 0xA0 DUP5 ADD MSTORE DUP3 DUP2 SUB PUSH1 0xC0 DUP5 ADD MSTORE PUSH2 0xDB6 DUP2 DUP6 PUSH2 0xA32 JUMP JUMPDEST SWAP11 SWAP10 POP POP POP POP POP POP POP POP POP POP JUMP JUMPDEST PUSH1 0x0 PUSH1 0x20 DUP3 DUP5 SUB SLT ISZERO PUSH2 0xDD6 JUMPI PUSH1 0x0 DUP1 REVERT JUMPDEST DUP2 MLOAD PUSH2 0xA71 DUP2 PUSH2 0xD25 JUMP JUMPDEST PUSH1 0x1 DUP2 DUP2 SHR SWAP1 DUP3 AND DUP1 PUSH2 0xDF5 JUMPI PUSH1 0x7F DUP3 AND SWAP2 POP JUMPDEST PUSH1 0x20 DUP3 LT DUP2 SUB PUSH2 0x73F JUMPI PUSH4 0x4E487B71 PUSH1 0xE0 SHL PUSH1 0x0 MSTORE PUSH1 0x22 PUSH1 0x4 MSTORE PUSH1 0x24 PUSH1 0x0 REVERT JUMPDEST PUSH1 0x1F DUP3 GT ISZERO PUSH2 0xE5F JUMPI PUSH1 0x0 DUP2 DUP2 MSTORE PUSH1 0x20 DUP2 KECCAK256 PUSH1 0x1F DUP6 ADD PUSH1 0x5 SHR DUP2 ADD PUSH1 0x20 DUP7 LT ISZERO PUSH2 0xE3C JUMPI POP DUP1 JUMPDEST PUSH1 0x1F DUP6 ADD PUSH1 0x5 SHR DUP3 ADD SWAP2 POP JUMPDEST DUP2 DUP2 LT ISZERO PUSH2 0xE5B JUMPI DUP3 DUP2 SSTORE PUSH1 0x1 ADD PUSH2 0xE48 JUMP JUMPDEST POP POP POP JUMPDEST POP POP POP JUMP JUMPDEST DUP2 MLOAD PUSH8 0xFFFFFFFFFFFFFFFF DUP2 GT ISZERO PUSH2 0xE7E JUMPI PUSH2 0xE7E PUSH2 0x86D JUMP JUMPDEST PUSH2 0xE92 DUP2 PUSH2 0xE8C DUP5 SLOAD PUSH2 0xDE1 JUMP JUMPDEST DUP5 PUSH2 0xE15 JUMP JUMPDEST PUSH1 0x20 DUP1 PUSH1 0x1F DUP4 GT PUSH1 0x1 DUP2 EQ PUSH2 0xEC7 JUMPI PUSH1 0x0 DUP5 ISZERO PUSH2 0xEAF JUMPI POP DUP6 DUP4 ADD MLOAD JUMPDEST PUSH1 0x0 NOT PUSH1 0x3 DUP7 SWAP1 SHL SHR NOT AND PUSH1 0x1 DUP6 SWAP1 SHL OR DUP6 SSTORE PUSH2 0xE5B JUMP JUMPDEST PUSH1 0x0 DUP6 DUP2 MSTORE PUSH1 0x20 DUP2 KECCAK256 PUSH1 0x1F NOT DUP7 AND SWAP2 JUMPDEST DUP3 DUP2 LT ISZERO PUSH2 0xEF6 JUMPI DUP9 DUP7 ADD MLOAD DUP3 SSTORE SWAP5 DUP5 ADD SWAP5 PUSH1 0x1 SWAP1 SWAP2 ADD SWAP1 DUP5 ADD PUSH2 0xED7 JUMP JUMPDEST POP DUP6 DUP3 LT ISZERO PUSH2 0xF14 JUMPI DUP8 DUP6 ADD MLOAD PUSH1 0x0 NOT PUSH1 0x3 DUP9 SWAP1 SHL PUSH1 0xF8 AND SHR NOT AND DUP2 SSTORE JUMPDEST POP POP POP POP POP PUSH1 0x1 SWAP1 DUP2 SHL ADD SWAP1 SSTORE POP JUMP JUMPDEST PUSH4 0x4E487B71 PUSH1 0xE0 SHL PUSH1 0x0 MSTORE PUSH1 0x32 PUSH1 0x4 MSTORE PUSH1 0x24 PUSH1 0x0 REVERT JUMPDEST PUSH1 0x0 PUSH2 0x100 DUP11 DUP4 MSTORE DUP10 PUSH1 0x20 DUP5 ADD MSTORE DUP1 PUSH1 0x40 DUP5 ADD MSTORE PUSH2 0xF5A DUP2 DUP5 ADD DUP11 PUSH2 0xA32 JUMP JUMPDEST SWAP1 POP DUP8 PUSH1 0x60 DUP5 ADD MSTORE DUP7 PUSH1 0x80 DUP5 ADD MSTORE DUP6 PUSH1 0xA0 DUP5 ADD MSTORE DUP5 PUSH1 0xC0 DUP5 ADD MSTORE DUP3 DUP2 SUB PUSH1 0xE0 DUP5 ADD MSTORE PUSH2 0xF86 DUP2 DUP6 PUSH2 0xA32 JUMP JUMPDEST SWAP12 SWAP11 POP POP POP POP POP POP POP POP POP POP POP JUMP JUMPDEST PUSH1 0x0 PUSH1 0x1 DUP3 ADD PUSH2 0xFB5 JUMPI PUSH4 0x4E487B71 PUSH1 0xE0 SHL PUSH1 0x0 MSTORE PUSH1 0x11 PUSH1 0x4 MSTORE PUSH1 0x24 PUSH1 0x0 REVERT JUMPDEST POP PUSH1 0x1 ADD SWAP1 JUMP JUMPDEST PUSH1 0x0 DUP1 DUP4 SLOAD PUSH2 0xFCA DUP2 PUSH2 0xDE1 JUMP JUMPDEST PUSH1 0x1 DUP3 DUP2 AND DUP1 ISZERO PUSH2 0xFE2 JUMPI PUSH1 0x1 DUP2 EQ PUSH2 0xFF7 JUMPI PUSH2 0x1026 JUMP JUMPDEST PUSH1 0xFF NOT DUP5 AND DUP8 MSTORE DUP3 ISZERO ISZERO DUP4 MUL DUP8 ADD SWAP5 POP PUSH2 0x1026 JUMP JUMPDEST DUP8 PUSH1 0x0 MSTORE PUSH1 0x20 DUP1 PUSH1 0x0 KECCAK256 PUSH1 0x0 JUMPDEST DUP6 DUP2 LT ISZERO PUSH2 0x101D JUMPI DUP2 SLOAD DUP11 DUP3 ADD MSTORE SWAP1 DUP5 ADD SWAP1 DUP3 ADD PUSH2 0x1004 JUMP JUMPDEST POP POP POP DUP3 DUP8 ADD SWAP5 POP JUMPDEST POP SWAP3 SWAP7 SWAP6 POP POP POP POP POP POP JUMP INVALID LOG2 PUSH5 0x6970667358 0x22 SLT KECCAK256 SWAP2 0xB1 DUP16 CODESIZE 0xE 0xE8 0xD4 CALLDATALOAD 0xAD 0xC5 EQ AND JUMP SUB 0xA5 LOG0 LT PUSH29 0x191EF4FC7096C277975072B0E50C64736F6C6343000813003300000000 "},"methodIdentifiers":{"createSession(address,address,address,uint256,uint256[],string[],uint256[],uint256[],uint256,uint256[],string[])":"2f4fc725","getSectionAddressesFromSession(uint256)":"7fa10508","getSessionAddresses(uint256)":"bb6fe0f4","getSessionsId()":"12848ab9","owner()":"8da5cb5b","renounceOwnership()":"715018a6","sessionToAddress(uint256)":"fcc6e567","sessionsId(uint256)":"4fe40a59","transferOwnership(address)":"f2fde38b"}}}}}