{
  "_format": "hh-sol-artifact-1",
  "contractName": "testNft",
  "sourceName": "contracts/testNFT.sol",
  "abi": [
    {
      "inputs": [],
      "stateMutability": "nonpayable",
      "type": "constructor"
    },
    {
      "anonymous": false,
      "inputs": [
        {
          "indexed": true,
          "internalType": "address",
          "name": "account",
          "type": "address"
        },
        {
          "indexed": true,
          "internalType": "address",
          "name": "operator",
          "type": "address"
        },
        {
          "indexed": false,
          "internalType": "bool",
          "name": "approved",
          "type": "bool"
        }
      ],
      "name": "ApprovalForAll",
      "type": "event"
    },
    {
      "anonymous": false,
      "inputs": [
        {
          "indexed": true,
          "internalType": "address",
          "name": "operator",
          "type": "address"
        },
        {
          "indexed": true,
          "internalType": "address",
          "name": "from",
          "type": "address"
        },
        {
          "indexed": true,
          "internalType": "address",
          "name": "to",
          "type": "address"
        },
        {
          "indexed": false,
          "internalType": "uint256[]",
          "name": "ids",
          "type": "uint256[]"
        },
        {
          "indexed": false,
          "internalType": "uint256[]",
          "name": "values",
          "type": "uint256[]"
        }
      ],
      "name": "TransferBatch",
      "type": "event"
    },
    {
      "anonymous": false,
      "inputs": [
        {
          "indexed": true,
          "internalType": "address",
          "name": "operator",
          "type": "address"
        },
        {
          "indexed": true,
          "internalType": "address",
          "name": "from",
          "type": "address"
        },
        {
          "indexed": true,
          "internalType": "address",
          "name": "to",
          "type": "address"
        },
        {
          "indexed": false,
          "internalType": "uint256",
          "name": "id",
          "type": "uint256"
        },
        {
          "indexed": false,
          "internalType": "uint256",
          "name": "value",
          "type": "uint256"
        }
      ],
      "name": "TransferSingle",
      "type": "event"
    },
    {
      "anonymous": false,
      "inputs": [
        {
          "indexed": false,
          "internalType": "string",
          "name": "value",
          "type": "string"
        },
        {
          "indexed": true,
          "internalType": "uint256",
          "name": "id",
          "type": "uint256"
        }
      ],
      "name": "URI",
      "type": "event"
    },
    {
      "inputs": [],
      "name": "TRAVIS",
      "outputs": [
        {
          "internalType": "uint256",
          "name": "",
          "type": "uint256"
        }
      ],
      "stateMutability": "view",
      "type": "function"
    },
    {
      "inputs": [
        {
          "internalType": "address",
          "name": "account",
          "type": "address"
        },
        {
          "internalType": "uint256",
          "name": "id",
          "type": "uint256"
        }
      ],
      "name": "balanceOf",
      "outputs": [
        {
          "internalType": "uint256",
          "name": "",
          "type": "uint256"
        }
      ],
      "stateMutability": "view",
      "type": "function"
    },
    {
      "inputs": [
        {
          "internalType": "address[]",
          "name": "accounts",
          "type": "address[]"
        },
        {
          "internalType": "uint256[]",
          "name": "ids",
          "type": "uint256[]"
        }
      ],
      "name": "balanceOfBatch",
      "outputs": [
        {
          "internalType": "uint256[]",
          "name": "",
          "type": "uint256[]"
        }
      ],
      "stateMutability": "view",
      "type": "function"
    },
    {
      "inputs": [
        {
          "internalType": "address",
          "name": "account",
          "type": "address"
        },
        {
          "internalType": "address",
          "name": "operator",
          "type": "address"
        }
      ],
      "name": "isApprovedForAll",
      "outputs": [
        {
          "internalType": "bool",
          "name": "",
          "type": "bool"
        }
      ],
      "stateMutability": "view",
      "type": "function"
    },
    {
      "inputs": [
        {
          "internalType": "address",
          "name": "_userwallet",
          "type": "address"
        }
      ],
      "name": "mint",
      "outputs": [],
      "stateMutability": "payable",
      "type": "function"
    },
    {
      "inputs": [
        {
          "internalType": "address",
          "name": "from",
          "type": "address"
        },
        {
          "internalType": "address",
          "name": "to",
          "type": "address"
        },
        {
          "internalType": "uint256[]",
          "name": "ids",
          "type": "uint256[]"
        },
        {
          "internalType": "uint256[]",
          "name": "amounts",
          "type": "uint256[]"
        },
        {
          "internalType": "bytes",
          "name": "data",
          "type": "bytes"
        }
      ],
      "name": "safeBatchTransferFrom",
      "outputs": [],
      "stateMutability": "nonpayable",
      "type": "function"
    },
    {
      "inputs": [
        {
          "internalType": "address",
          "name": "from",
          "type": "address"
        },
        {
          "internalType": "address",
          "name": "to",
          "type": "address"
        },
        {
          "internalType": "uint256",
          "name": "id",
          "type": "uint256"
        },
        {
          "internalType": "uint256",
          "name": "amount",
          "type": "uint256"
        },
        {
          "internalType": "bytes",
          "name": "data",
          "type": "bytes"
        }
      ],
      "name": "safeTransferFrom",
      "outputs": [],
      "stateMutability": "nonpayable",
      "type": "function"
    },
    {
      "inputs": [
        {
          "internalType": "address",
          "name": "operator",
          "type": "address"
        },
        {
          "internalType": "bool",
          "name": "approved",
          "type": "bool"
        }
      ],
      "name": "setApprovalForAll",
      "outputs": [],
      "stateMutability": "nonpayable",
      "type": "function"
    },
    {
      "inputs": [
        {
          "internalType": "bytes4",
          "name": "interfaceId",
          "type": "bytes4"
        }
      ],
      "name": "supportsInterface",
      "outputs": [
        {
          "internalType": "bool",
          "name": "",
          "type": "bool"
        }
      ],
      "stateMutability": "view",
      "type": "function"
    },
    {
      "inputs": [
        {
          "internalType": "uint256",
          "name": "_tokenid",
          "type": "uint256"
        }
      ],
      "name": "uri",
      "outputs": [
        {
          "internalType": "string",
          "name": "",
          "type": "string"
        }
      ],
      "stateMutability": "pure",
      "type": "function"
    }
  ],
  "bytecode": "0x60a06040523480156200001157600080fd5b5060405180608001604052806059815260200162002ccc605991396200003d816200005560201b60201c565b50600060808181525050600a600381905550620003cb565b8060029081620000669190620002e4565b5050565b600081519050919050565b7f4e487b7100000000000000000000000000000000000000000000000000000000600052604160045260246000fd5b7f4e487b7100000000000000000000000000000000000000000000000000000000600052602260045260246000fd5b60006002820490506001821680620000ec57607f821691505b602082108103620001025762000101620000a4565b5b50919050565b60008190508160005260206000209050919050565b60006020601f8301049050919050565b600082821b905092915050565b6000600883026200016c7fffffffffffffffffffffffffffffffffffffffffffffffffffffffffffffffff826200012d565b6200017886836200012d565b95508019841693508086168417925050509392505050565b6000819050919050565b6000819050919050565b6000620001c5620001bf620001b98462000190565b6200019a565b62000190565b9050919050565b6000819050919050565b620001e183620001a4565b620001f9620001f082620001cc565b8484546200013a565b825550505050565b600090565b6200021062000201565b6200021d818484620001d6565b505050565b5b8181101562000245576200023960008262000206565b60018101905062000223565b5050565b601f82111562000294576200025e8162000108565b62000269846200011d565b8101602085101562000279578190505b6200029162000288856200011d565b83018262000222565b50505b505050565b600082821c905092915050565b6000620002b96000198460080262000299565b1980831691505092915050565b6000620002d48383620002a6565b9150826002028217905092915050565b620002ef826200006a565b67ffffffffffffffff8111156200030b576200030a62000075565b5b620003178254620000d3565b6200032482828562000249565b600060209050601f8311600181146200035c576000841562000347578287015190505b620003538582620002c6565b865550620003c3565b601f1984166200036c8662000108565b60005b8281101562000396578489015182556001820191506020850194506020810190506200036f565b86831015620003b65784890151620003b2601f891682620002a6565b8355505b6001600288020188555050505b505050505050565b6080516128de620003ee6000396000818161065801526106a901526128de6000f3fe6080604052600436106100905760003560e01c80636a627842116100595780636a627842146101b2578063a22cb465146101ce578063ba2b692a146101f7578063e985e9c514610222578063f242432a1461025f57610090565b8062fdd58e1461009557806301ffc9a7146100d25780630e89341c1461010f5780632eb2c2d61461014c5780634e1273f414610175575b600080fd5b3480156100a157600080fd5b506100bc60048036038101906100b7919061164d565b610288565b6040516100c9919061169c565b60405180910390f35b3480156100de57600080fd5b506100f960048036038101906100f4919061170f565b610350565b6040516101069190611757565b60405180910390f35b34801561011b57600080fd5b5061013660048036038101906101319190611772565b610432565b604051610143919061182f565b60405180910390f35b34801561015857600080fd5b50610173600480360381019061016e9190611a4e565b610454565b005b34801561018157600080fd5b5061019c60048036038101906101979190611be0565b6104f5565b6040516101a99190611d16565b60405180910390f35b6101cc60048036038101906101c79190611d38565b61060e565b005b3480156101da57600080fd5b506101f560048036038101906101f09190611d91565b610691565b005b34801561020357600080fd5b5061020c6106a7565b604051610219919061169c565b60405180910390f35b34801561022e57600080fd5b5061024960048036038101906102449190611dd1565b6106cb565b6040516102569190611757565b60405180910390f35b34801561026b57600080fd5b5061028660048036038101906102819190611e11565b61075f565b005b60008073ffffffffffffffffffffffffffffffffffffffff168373ffffffffffffffffffffffffffffffffffffffff16036102f8576040517f08c379a00000000000000000000000000000000000000000000000000000000081526004016102ef90611f1a565b60405180910390fd5b60008083815260200190815260200160002060008473ffffffffffffffffffffffffffffffffffffffff1673ffffffffffffffffffffffffffffffffffffffff16815260200190815260200160002054905092915050565b60007fd9b67a26000000000000000000000000000000000000000000000000000000007bffffffffffffffffffffffffffffffffffffffffffffffffffffffff1916827bffffffffffffffffffffffffffffffffffffffffffffffffffffffff1916148061041b57507f0e89341c000000000000000000000000000000000000000000000000000000007bffffffffffffffffffffffffffffffffffffffffffffffffffffffff1916827bffffffffffffffffffffffffffffffffffffffffffffffffffffffff1916145b8061042b575061042a82610800565b5b9050919050565b6060604051806080016040528060598152602001612850605991399050919050565b61045c61086a565b73ffffffffffffffffffffffffffffffffffffffff168573ffffffffffffffffffffffffffffffffffffffff1614806104a257506104a18561049c61086a565b6106cb565b5b6104e1576040517f08c379a00000000000000000000000000000000000000000000000000000000081526004016104d890611fac565b60405180910390fd5b6104ee8585858585610872565b5050505050565b6060815183511461053b576040517f08c379a00000000000000000000000000000000000000000000000000000000081526004016105329061203e565b60405180910390fd5b6000835167ffffffffffffffff81111561055857610557611856565b5b6040519080825280602002602001820160405280156105865781602001602082028036833780820191505090505b50905060005b8451811015610603576105d38582815181106105ab576105aa61205e565b5b60200260200101518583815181106105c6576105c561205e565b5b6020026020010151610288565b8282815181106105e6576105e561205e565b5b602002602001018181525050806105fc906120bc565b905061058c565b508091505092915050565b6003543414610652576040517f08c379a000000000000000000000000000000000000000000000000000000000815260040161064990612176565b60405180910390fd5b61068e817f0000000000000000000000000000000000000000000000000000000000000000600160405180602001604052806000815250610b93565b50565b6106a361069c61086a565b8383610d43565b5050565b7f000000000000000000000000000000000000000000000000000000000000000081565b6000600160008473ffffffffffffffffffffffffffffffffffffffff1673ffffffffffffffffffffffffffffffffffffffff16815260200190815260200160002060008373ffffffffffffffffffffffffffffffffffffffff1673ffffffffffffffffffffffffffffffffffffffff16815260200190815260200160002060009054906101000a900460ff16905092915050565b61076761086a565b73ffffffffffffffffffffffffffffffffffffffff168573ffffffffffffffffffffffffffffffffffffffff1614806107ad57506107ac856107a761086a565b6106cb565b5b6107ec576040517f08c379a00000000000000000000000000000000000000000000000000000000081526004016107e390611fac565b60405180910390fd5b6107f98585858585610eaf565b5050505050565b60007f01ffc9a7000000000000000000000000000000000000000000000000000000007bffffffffffffffffffffffffffffffffffffffffffffffffffffffff1916827bffffffffffffffffffffffffffffffffffffffffffffffffffffffff1916149050919050565b600033905090565b81518351146108b6576040517f08c379a00000000000000000000000000000000000000000000000000000000081526004016108ad90612208565b60405180910390fd5b600073ffffffffffffffffffffffffffffffffffffffff168473ffffffffffffffffffffffffffffffffffffffff1603610925576040517f08c379a000000000000000000000000000000000000000000000000000000000815260040161091c9061229a565b60405180910390fd5b600061092f61086a565b905061093f81878787878761114a565b60005b8451811015610af05760008582815181106109605761095f61205e565b5b60200260200101519050600085838151811061097f5761097e61205e565b5b60200260200101519050600080600084815260200190815260200160002060008b73ffffffffffffffffffffffffffffffffffffffff1673ffffffffffffffffffffffffffffffffffffffff16815260200190815260200160002054905081811015610a20576040517f08c379a0000000000000000000000000000000000000000000000000000000008152600401610a179061232c565b60405180910390fd5b81810360008085815260200190815260200160002060008c73ffffffffffffffffffffffffffffffffffffffff1673ffffffffffffffffffffffffffffffffffffffff168152602001908152602001600020819055508160008085815260200190815260200160002060008b73ffffffffffffffffffffffffffffffffffffffff1673ffffffffffffffffffffffffffffffffffffffff1681526020019081526020016000206000828254610ad5919061234c565b9250508190555050505080610ae9906120bc565b9050610942565b508473ffffffffffffffffffffffffffffffffffffffff168673ffffffffffffffffffffffffffffffffffffffff168273ffffffffffffffffffffffffffffffffffffffff167f4a39dc06d4c0dbc64b70af90fd698a233a518aa5d07e595d983b8c0526c8f7fb8787604051610b67929190612380565b60405180910390a4610b7d818787878787611152565b610b8b81878787878761115a565b505050505050565b600073ffffffffffffffffffffffffffffffffffffffff168473ffffffffffffffffffffffffffffffffffffffff1603610c02576040517f08c379a0000000000000000000000000000000000000000000000000000000008152600401610bf990612429565b60405180910390fd5b6000610c0c61086a565b90506000610c1985611331565b90506000610c2685611331565b9050610c378360008985858961114a565b8460008088815260200190815260200160002060008973ffffffffffffffffffffffffffffffffffffffff1673ffffffffffffffffffffffffffffffffffffffff1681526020019081526020016000206000828254610c96919061234c565b925050819055508673ffffffffffffffffffffffffffffffffffffffff16600073ffffffffffffffffffffffffffffffffffffffff168473ffffffffffffffffffffffffffffffffffffffff167fc3d58168c5ae7397731d063d5bbf3d657854427343f4c083240f7aacaa2d0f628989604051610d14929190612449565b60405180910390a4610d2b83600089858589611152565b610d3a836000898989896113ab565b50505050505050565b8173ffffffffffffffffffffffffffffffffffffffff168373ffffffffffffffffffffffffffffffffffffffff1603610db1576040517f08c379a0000000000000000000000000000000000000000000000000000000008152600401610da8906124e4565b60405180910390fd5b80600160008573ffffffffffffffffffffffffffffffffffffffff1673ffffffffffffffffffffffffffffffffffffffff16815260200190815260200160002060008473ffffffffffffffffffffffffffffffffffffffff1673ffffffffffffffffffffffffffffffffffffffff16815260200190815260200160002060006101000a81548160ff0219169083151502179055508173ffffffffffffffffffffffffffffffffffffffff168373ffffffffffffffffffffffffffffffffffffffff167f17307eab39ab6107e8899845ad3d59bd9653f200f220920489ca2b5937696c3183604051610ea29190611757565b60405180910390a3505050565b600073ffffffffffffffffffffffffffffffffffffffff168473ffffffffffffffffffffffffffffffffffffffff1603610f1e576040517f08c379a0000000000000000000000000000000000000000000000000000000008152600401610f159061229a565b60405180910390fd5b6000610f2861086a565b90506000610f3585611331565b90506000610f4285611331565b9050610f5283898985858961114a565b600080600088815260200190815260200160002060008a73ffffffffffffffffffffffffffffffffffffffff1673ffffffffffffffffffffffffffffffffffffffff16815260200190815260200160002054905085811015610fe9576040517f08c379a0000000000000000000000000000000000000000000000000000000008152600401610fe09061232c565b60405180910390fd5b85810360008089815260200190815260200160002060008b73ffffffffffffffffffffffffffffffffffffffff1673ffffffffffffffffffffffffffffffffffffffff168152602001908152602001600020819055508560008089815260200190815260200160002060008a73ffffffffffffffffffffffffffffffffffffffff1673ffffffffffffffffffffffffffffffffffffffff168152602001908152602001600020600082825461109e919061234c565b925050819055508773ffffffffffffffffffffffffffffffffffffffff168973ffffffffffffffffffffffffffffffffffffffff168573ffffffffffffffffffffffffffffffffffffffff167fc3d58168c5ae7397731d063d5bbf3d657854427343f4c083240f7aacaa2d0f628a8a60405161111b929190612449565b60405180910390a4611131848a8a86868a611152565b61113f848a8a8a8a8a6113ab565b505050505050505050565b505050505050565b505050505050565b6111798473ffffffffffffffffffffffffffffffffffffffff16611582565b15611329578373ffffffffffffffffffffffffffffffffffffffff1663bc197c8187878686866040518663ffffffff1660e01b81526004016111bf959493929190612568565b6020604051808303816000875af19250505080156111fb57506040513d601f19601f820116820180604052508101906111f891906125e5565b60015b6112a05761120761261f565b806308c379a003611263575061121b612641565b806112265750611265565b806040517f08c379a000000000000000000000000000000000000000000000000000000000815260040161125a919061182f565b60405180910390fd5b505b6040517f08c379a000000000000000000000000000000000000000000000000000000000815260040161129790612743565b60405180910390fd5b63bc197c8160e01b7bffffffffffffffffffffffffffffffffffffffffffffffffffffffff1916817bffffffffffffffffffffffffffffffffffffffffffffffffffffffff191614611327576040517f08c379a000000000000000000000000000000000000000000000000000000000815260040161131e906127d5565b60405180910390fd5b505b505050505050565b60606000600167ffffffffffffffff8111156113505761134f611856565b5b60405190808252806020026020018201604052801561137e5781602001602082028036833780820191505090505b50905082816000815181106113965761139561205e565b5b60200260200101818152505080915050919050565b6113ca8473ffffffffffffffffffffffffffffffffffffffff16611582565b1561157a578373ffffffffffffffffffffffffffffffffffffffff1663f23a6e6187878686866040518663ffffffff1660e01b81526004016114109594939291906127f5565b6020604051808303816000875af192505050801561144c57506040513d601f19601f8201168201806040525081019061144991906125e5565b60015b6114f15761145861261f565b806308c379a0036114b4575061146c612641565b8061147757506114b6565b806040517f08c379a00000000000000000000000000000000000000000000000000000000081526004016114ab919061182f565b60405180910390fd5b505b6040517f08c379a00000000000000000000000000000000000000000000000000000000081526004016114e890612743565b60405180910390fd5b63f23a6e6160e01b7bffffffffffffffffffffffffffffffffffffffffffffffffffffffff1916817bffffffffffffffffffffffffffffffffffffffffffffffffffffffff191614611578576040517f08c379a000000000000000000000000000000000000000000000000000000000815260040161156f906127d5565b60405180910390fd5b505b505050505050565b6000808273ffffffffffffffffffffffffffffffffffffffff163b119050919050565b6000604051905090565b600080fd5b600080fd5b600073ffffffffffffffffffffffffffffffffffffffff82169050919050565b60006115e4826115b9565b9050919050565b6115f4816115d9565b81146115ff57600080fd5b50565b600081359050611611816115eb565b92915050565b6000819050919050565b61162a81611617565b811461163557600080fd5b50565b60008135905061164781611621565b92915050565b60008060408385031215611664576116636115af565b5b600061167285828601611602565b925050602061168385828601611638565b9150509250929050565b61169681611617565b82525050565b60006020820190506116b1600083018461168d565b92915050565b60007fffffffff0000000000000000000000000000000000000000000000000000000082169050919050565b6116ec816116b7565b81146116f757600080fd5b50565b600081359050611709816116e3565b92915050565b600060208284031215611725576117246115af565b5b6000611733848285016116fa565b91505092915050565b60008115159050919050565b6117518161173c565b82525050565b600060208201905061176c6000830184611748565b92915050565b600060208284031215611788576117876115af565b5b600061179684828501611638565b91505092915050565b600081519050919050565b600082825260208201905092915050565b60005b838110156117d95780820151818401526020810190506117be565b60008484015250505050565b6000601f19601f8301169050919050565b60006118018261179f565b61180b81856117aa565b935061181b8185602086016117bb565b611824816117e5565b840191505092915050565b6000602082019050818103600083015261184981846117f6565b905092915050565b600080fd5b7f4e487b7100000000000000000000000000000000000000000000000000000000600052604160045260246000fd5b61188e826117e5565b810181811067ffffffffffffffff821117156118ad576118ac611856565b5b80604052505050565b60006118c06115a5565b90506118cc8282611885565b919050565b600067ffffffffffffffff8211156118ec576118eb611856565b5b602082029050602081019050919050565b600080fd5b6000611915611910846118d1565b6118b6565b90508083825260208201905060208402830185811115611938576119376118fd565b5b835b81811015611961578061194d8882611638565b84526020840193505060208101905061193a565b5050509392505050565b600082601f8301126119805761197f611851565b5b8135611990848260208601611902565b91505092915050565b600080fd5b600067ffffffffffffffff8211156119b9576119b8611856565b5b6119c2826117e5565b9050602081019050919050565b82818337600083830152505050565b60006119f16119ec8461199e565b6118b6565b905082815260208101848484011115611a0d57611a0c611999565b5b611a188482856119cf565b509392505050565b600082601f830112611a3557611a34611851565b5b8135611a458482602086016119de565b91505092915050565b600080600080600060a08688031215611a6a57611a696115af565b5b6000611a7888828901611602565b9550506020611a8988828901611602565b945050604086013567ffffffffffffffff811115611aaa57611aa96115b4565b5b611ab68882890161196b565b935050606086013567ffffffffffffffff811115611ad757611ad66115b4565b5b611ae38882890161196b565b925050608086013567ffffffffffffffff811115611b0457611b036115b4565b5b611b1088828901611a20565b9150509295509295909350565b600067ffffffffffffffff821115611b3857611b37611856565b5b602082029050602081019050919050565b6000611b5c611b5784611b1d565b6118b6565b90508083825260208201905060208402830185811115611b7f57611b7e6118fd565b5b835b81811015611ba85780611b948882611602565b845260208401935050602081019050611b81565b5050509392505050565b600082601f830112611bc757611bc6611851565b5b8135611bd7848260208601611b49565b91505092915050565b60008060408385031215611bf757611bf66115af565b5b600083013567ffffffffffffffff811115611c1557611c146115b4565b5b611c2185828601611bb2565b925050602083013567ffffffffffffffff811115611c4257611c416115b4565b5b611c4e8582860161196b565b9150509250929050565b600081519050919050565b600082825260208201905092915050565b6000819050602082019050919050565b611c8d81611617565b82525050565b6000611c9f8383611c84565b60208301905092915050565b6000602082019050919050565b6000611cc382611c58565b611ccd8185611c63565b9350611cd883611c74565b8060005b83811015611d09578151611cf08882611c93565b9750611cfb83611cab565b925050600181019050611cdc565b5085935050505092915050565b60006020820190508181036000830152611d308184611cb8565b905092915050565b600060208284031215611d4e57611d4d6115af565b5b6000611d5c84828501611602565b91505092915050565b611d6e8161173c565b8114611d7957600080fd5b50565b600081359050611d8b81611d65565b92915050565b60008060408385031215611da857611da76115af565b5b6000611db685828601611602565b9250506020611dc785828601611d7c565b9150509250929050565b60008060408385031215611de857611de76115af565b5b6000611df685828601611602565b9250506020611e0785828601611602565b9150509250929050565b600080600080600060a08688031215611e2d57611e2c6115af565b5b6000611e3b88828901611602565b9550506020611e4c88828901611602565b9450506040611e5d88828901611638565b9350506060611e6e88828901611638565b925050608086013567ffffffffffffffff811115611e8f57611e8e6115b4565b5b611e9b88828901611a20565b9150509295509295909350565b7f455243313135353a2061646472657373207a65726f206973206e6f742061207660008201527f616c6964206f776e657200000000000000000000000000000000000000000000602082015250565b6000611f04602a836117aa565b9150611f0f82611ea8565b604082019050919050565b60006020820190508181036000830152611f3381611ef7565b9050919050565b7f455243313135353a2063616c6c6572206973206e6f7420746f6b656e206f776e60008201527f6572206f7220617070726f766564000000000000000000000000000000000000602082015250565b6000611f96602e836117aa565b9150611fa182611f3a565b604082019050919050565b60006020820190508181036000830152611fc581611f89565b9050919050565b7f455243313135353a206163636f756e747320616e6420696473206c656e67746860008201527f206d69736d617463680000000000000000000000000000000000000000000000602082015250565b60006120286029836117aa565b915061203382611fcc565b604082019050919050565b600060208201905081810360008301526120578161201b565b9050919050565b7f4e487b7100000000000000000000000000000000000000000000000000000000600052603260045260246000fd5b7f4e487b7100000000000000000000000000000000000000000000000000000000600052601160045260246000fd5b60006120c782611617565b91507fffffffffffffffffffffffffffffffffffffffffffffffffffffffffffffffff82036120f9576120f861208d565b5b600182019050919050565b7f416d6f756e742073656e74206d75737420626520657175616c20746f2074686560008201527f2072657175697265642070726963650000000000000000000000000000000000602082015250565b6000612160602f836117aa565b915061216b82612104565b604082019050919050565b6000602082019050818103600083015261218f81612153565b9050919050565b7f455243313135353a2069647320616e6420616d6f756e7473206c656e6774682060008201527f6d69736d61746368000000000000000000000000000000000000000000000000602082015250565b60006121f26028836117aa565b91506121fd82612196565b604082019050919050565b60006020820190508181036000830152612221816121e5565b9050919050565b7f455243313135353a207472616e7366657220746f20746865207a65726f20616460008201527f6472657373000000000000000000000000000000000000000000000000000000602082015250565b60006122846025836117aa565b915061228f82612228565b604082019050919050565b600060208201905081810360008301526122b381612277565b9050919050565b7f455243313135353a20696e73756666696369656e742062616c616e636520666f60008201527f72207472616e7366657200000000000000000000000000000000000000000000602082015250565b6000612316602a836117aa565b9150612321826122ba565b604082019050919050565b6000602082019050818103600083015261234581612309565b9050919050565b600061235782611617565b915061236283611617565b925082820190508082111561237a5761237961208d565b5b92915050565b6000604082019050818103600083015261239a8185611cb8565b905081810360208301526123ae8184611cb8565b90509392505050565b7f455243313135353a206d696e7420746f20746865207a65726f2061646472657360008201527f7300000000000000000000000000000000000000000000000000000000000000602082015250565b60006124136021836117aa565b915061241e826123b7565b604082019050919050565b6000602082019050818103600083015261244281612406565b9050919050565b600060408201905061245e600083018561168d565b61246b602083018461168d565b9392505050565b7f455243313135353a2073657474696e6720617070726f76616c2073746174757360008201527f20666f722073656c660000000000000000000000000000000000000000000000602082015250565b60006124ce6029836117aa565b91506124d982612472565b604082019050919050565b600060208201905081810360008301526124fd816124c1565b9050919050565b61250d816115d9565b82525050565b600081519050919050565b600082825260208201905092915050565b600061253a82612513565b612544818561251e565b93506125548185602086016117bb565b61255d816117e5565b840191505092915050565b600060a08201905061257d6000830188612504565b61258a6020830187612504565b818103604083015261259c8186611cb8565b905081810360608301526125b08185611cb8565b905081810360808301526125c4818461252f565b90509695505050505050565b6000815190506125df816116e3565b92915050565b6000602082840312156125fb576125fa6115af565b5b6000612609848285016125d0565b91505092915050565b60008160e01c9050919050565b600060033d111561263e5760046000803e61263b600051612612565b90505b90565b600060443d106126ce576126536115a5565b60043d036004823e80513d602482011167ffffffffffffffff8211171561267b5750506126ce565b808201805167ffffffffffffffff81111561269957505050506126ce565b80602083010160043d0385018111156126b65750505050506126ce565b6126c582602001850186611885565b82955050505050505b90565b7f455243313135353a207472616e7366657220746f206e6f6e2d4552433131353560008201527f526563656976657220696d706c656d656e746572000000000000000000000000602082015250565b600061272d6034836117aa565b9150612738826126d1565b604082019050919050565b6000602082019050818103600083015261275c81612720565b9050919050565b7f455243313135353a204552433131353552656365697665722072656a6563746560008201527f6420746f6b656e73000000000000000000000000000000000000000000000000602082015250565b60006127bf6028836117aa565b91506127ca82612763565b604082019050919050565b600060208201905081810360008301526127ee816127b2565b9050919050565b600060a08201905061280a6000830188612504565b6128176020830187612504565b612824604083018661168d565b612831606083018561168d565b8181036080830152612843818461252f565b9050969550505050505056fe68747470733a2f2f6261666b72656967747333627061617232696c686a6e756f36656f6677643779336c376d786b35686a6874727837656a6f627273683373646961692e697066732e6e667473746f726167652e6c696e6b2fa264697066735822122023df4db16b5478ec4e8fe42dca7068708dcaf92216acc259fa43fb0f1efaf50e64736f6c6343000813003368747470733a2f2f6261666b72656967747333627061617232696c686a6e756f36656f6677643779336c376d786b35686a6874727837656a6f627273683373646961692e697066732e6e667473746f726167652e6c696e6b2f",
  "linkReferences": {},
  "deployedLinkReferences": {}
}