{
  "_format": "hh-sol-artifact-1",
  "contractName": "testNFT",
  "sourceName": "contracts/testNFT.sol",
  "abi": [
    {
      "inputs": [
        {
          "internalType": "string",
          "name": "_section",
          "type": "string"
        },
        {
          "internalType": "uint256",
          "name": "_supply",
          "type": "uint256"
        },
        {
          "internalType": "uint256",
          "name": "_startPrice",
          "type": "uint256"
        },
        {
          "internalType": "uint256",
          "name": "_priceCap",
          "type": "uint256"
        },
        {
          "internalType": "uint256",
          "name": "_startSeat",
          "type": "uint256"
        },
        {
          "internalType": "string",
          "name": "_event",
          "type": "string"
        },
        {
          "internalType": "address",
          "name": "_usdc",
          "type": "address"
        }
      ],
      "stateMutability": "nonpayable",
      "type": "constructor"
    },
    {
      "anonymous": false,
      "inputs": [
        {
          "indexed": true,
          "internalType": "address",
          "name": "account",
          "type": "address"
        },
        {
          "indexed": true,
          "internalType": "address",
          "name": "operator",
          "type": "address"
        },
        {
          "indexed": false,
          "internalType": "bool",
          "name": "approved",
          "type": "bool"
        }
      ],
      "name": "ApprovalForAll",
      "type": "event"
    },
    {
      "anonymous": false,
      "inputs": [
        {
          "indexed": true,
          "internalType": "address",
          "name": "previousOwner",
          "type": "address"
        },
        {
          "indexed": true,
          "internalType": "address",
          "name": "newOwner",
          "type": "address"
        }
      ],
      "name": "OwnershipTransferred",
      "type": "event"
    },
    {
      "anonymous": false,
      "inputs": [
        {
          "indexed": true,
          "internalType": "address",
          "name": "operator",
          "type": "address"
        },
        {
          "indexed": true,
          "internalType": "address",
          "name": "from",
          "type": "address"
        },
        {
          "indexed": true,
          "internalType": "address",
          "name": "to",
          "type": "address"
        },
        {
          "indexed": false,
          "internalType": "uint256[]",
          "name": "ids",
          "type": "uint256[]"
        },
        {
          "indexed": false,
          "internalType": "uint256[]",
          "name": "values",
          "type": "uint256[]"
        }
      ],
      "name": "TransferBatch",
      "type": "event"
    },
    {
      "anonymous": false,
      "inputs": [
        {
          "indexed": true,
          "internalType": "address",
          "name": "operator",
          "type": "address"
        },
        {
          "indexed": true,
          "internalType": "address",
          "name": "from",
          "type": "address"
        },
        {
          "indexed": true,
          "internalType": "address",
          "name": "to",
          "type": "address"
        },
        {
          "indexed": false,
          "internalType": "uint256",
          "name": "id",
          "type": "uint256"
        },
        {
          "indexed": false,
          "internalType": "uint256",
          "name": "value",
          "type": "uint256"
        }
      ],
      "name": "TransferSingle",
      "type": "event"
    },
    {
      "anonymous": false,
      "inputs": [
        {
          "indexed": false,
          "internalType": "string",
          "name": "value",
          "type": "string"
        },
        {
          "indexed": true,
          "internalType": "uint256",
          "name": "id",
          "type": "uint256"
        }
      ],
      "name": "URI",
      "type": "event"
    },
    {
      "anonymous": false,
      "inputs": [
        {
          "indexed": true,
          "internalType": "address",
          "name": "minter",
          "type": "address"
        },
        {
          "indexed": false,
          "internalType": "uint256",
          "name": "amount",
          "type": "uint256"
        }
      ],
      "name": "minted",
      "type": "event"
    },
    {
      "inputs": [],
      "name": "approveMarket",
      "outputs": [],
      "stateMutability": "nonpayable",
      "type": "function"
    },
    {
      "inputs": [
        {
          "internalType": "address",
          "name": "account",
          "type": "address"
        },
        {
          "internalType": "uint256",
          "name": "id",
          "type": "uint256"
        }
      ],
      "name": "balanceOf",
      "outputs": [
        {
          "internalType": "uint256",
          "name": "",
          "type": "uint256"
        }
      ],
      "stateMutability": "view",
      "type": "function"
    },
    {
      "inputs": [
        {
          "internalType": "address[]",
          "name": "accounts",
          "type": "address[]"
        },
        {
          "internalType": "uint256[]",
          "name": "ids",
          "type": "uint256[]"
        }
      ],
      "name": "balanceOfBatch",
      "outputs": [
        {
          "internalType": "uint256[]",
          "name": "",
          "type": "uint256[]"
        }
      ],
      "stateMutability": "view",
      "type": "function"
    },
    {
      "inputs": [],
      "name": "eventName",
      "outputs": [
        {
          "internalType": "string",
          "name": "",
          "type": "string"
        }
      ],
      "stateMutability": "view",
      "type": "function"
    },
    {
      "inputs": [],
      "name": "getEventName",
      "outputs": [
        {
          "internalType": "string",
          "name": "",
          "type": "string"
        }
      ],
      "stateMutability": "view",
      "type": "function"
    },
    {
      "inputs": [],
      "name": "getOwner",
      "outputs": [
        {
          "internalType": "address",
          "name": "",
          "type": "address"
        }
      ],
      "stateMutability": "view",
      "type": "function"
    },
    {
      "inputs": [],
      "name": "getSection",
      "outputs": [
        {
          "internalType": "string",
          "name": "",
          "type": "string"
        }
      ],
      "stateMutability": "view",
      "type": "function"
    },
    {
      "inputs": [],
      "name": "getStartPrice",
      "outputs": [
        {
          "internalType": "uint256",
          "name": "",
          "type": "uint256"
        }
      ],
      "stateMutability": "view",
      "type": "function"
    },
    {
      "inputs": [],
      "name": "getStartSeat",
      "outputs": [
        {
          "internalType": "uint256",
          "name": "",
          "type": "uint256"
        }
      ],
      "stateMutability": "view",
      "type": "function"
    },
    {
      "inputs": [],
      "name": "getSupply",
      "outputs": [
        {
          "internalType": "uint256",
          "name": "",
          "type": "uint256"
        }
      ],
      "stateMutability": "view",
      "type": "function"
    },
    {
      "inputs": [],
      "name": "getTicketsLeft",
      "outputs": [
        {
          "internalType": "uint256",
          "name": "",
          "type": "uint256"
        }
      ],
      "stateMutability": "view",
      "type": "function"
    },
    {
      "inputs": [
        {
          "internalType": "uint256",
          "name": "_tokenId",
          "type": "uint256"
        }
      ],
      "name": "getTokenURI",
      "outputs": [
        {
          "internalType": "string",
          "name": "",
          "type": "string"
        }
      ],
      "stateMutability": "view",
      "type": "function"
    },
    {
      "inputs": [
        {
          "internalType": "address",
          "name": "account",
          "type": "address"
        },
        {
          "internalType": "address",
          "name": "operator",
          "type": "address"
        }
      ],
      "name": "isApprovedForAll",
      "outputs": [
        {
          "internalType": "bool",
          "name": "",
          "type": "bool"
        }
      ],
      "stateMutability": "view",
      "type": "function"
    },
    {
      "inputs": [],
      "name": "marketPlaceAddress",
      "outputs": [
        {
          "internalType": "address",
          "name": "",
          "type": "address"
        }
      ],
      "stateMutability": "view",
      "type": "function"
    },
    {
      "inputs": [
        {
          "internalType": "address",
          "name": "_userwallet",
          "type": "address"
        }
      ],
      "name": "mint",
      "outputs": [],
      "stateMutability": "nonpayable",
      "type": "function"
    },
    {
      "inputs": [
        {
          "internalType": "address",
          "name": "to",
          "type": "address"
        },
        {
          "internalType": "uint256",
          "name": "_amounts",
          "type": "uint256"
        }
      ],
      "name": "mintBatch",
      "outputs": [],
      "stateMutability": "nonpayable",
      "type": "function"
    },
    {
      "inputs": [],
      "name": "owner",
      "outputs": [
        {
          "internalType": "address",
          "name": "",
          "type": "address"
        }
      ],
      "stateMutability": "view",
      "type": "function"
    },
    {
      "inputs": [],
      "name": "priceCap",
      "outputs": [
        {
          "internalType": "uint256",
          "name": "",
          "type": "uint256"
        }
      ],
      "stateMutability": "view",
      "type": "function"
    },
    {
      "inputs": [],
      "name": "renounceOwnership",
      "outputs": [],
      "stateMutability": "nonpayable",
      "type": "function"
    },
    {
      "inputs": [
        {
          "internalType": "address",
          "name": "from",
          "type": "address"
        },
        {
          "internalType": "address",
          "name": "to",
          "type": "address"
        },
        {
          "internalType": "uint256[]",
          "name": "ids",
          "type": "uint256[]"
        },
        {
          "internalType": "uint256[]",
          "name": "amounts",
          "type": "uint256[]"
        },
        {
          "internalType": "bytes",
          "name": "data",
          "type": "bytes"
        }
      ],
      "name": "safeBatchTransferFrom",
      "outputs": [],
      "stateMutability": "nonpayable",
      "type": "function"
    },
    {
      "inputs": [
        {
          "internalType": "address",
          "name": "from",
          "type": "address"
        },
        {
          "internalType": "address",
          "name": "to",
          "type": "address"
        },
        {
          "internalType": "uint256",
          "name": "id",
          "type": "uint256"
        },
        {
          "internalType": "uint256",
          "name": "amount",
          "type": "uint256"
        },
        {
          "internalType": "bytes",
          "name": "data",
          "type": "bytes"
        }
      ],
      "name": "safeTransferFrom",
      "outputs": [],
      "stateMutability": "nonpayable",
      "type": "function"
    },
    {
      "inputs": [],
      "name": "section",
      "outputs": [
        {
          "internalType": "string",
          "name": "",
          "type": "string"
        }
      ],
      "stateMutability": "view",
      "type": "function"
    },
    {
      "inputs": [
        {
          "internalType": "address",
          "name": "operator",
          "type": "address"
        },
        {
          "internalType": "bool",
          "name": "approved",
          "type": "bool"
        }
      ],
      "name": "setApprovalForAll",
      "outputs": [],
      "stateMutability": "nonpayable",
      "type": "function"
    },
    {
      "inputs": [
        {
          "internalType": "address",
          "name": "_marketPlaceAddress",
          "type": "address"
        }
      ],
      "name": "setMarketPlaceAddress",
      "outputs": [],
      "stateMutability": "nonpayable",
      "type": "function"
    },
    {
      "inputs": [],
      "name": "startPrice",
      "outputs": [
        {
          "internalType": "uint256",
          "name": "",
          "type": "uint256"
        }
      ],
      "stateMutability": "view",
      "type": "function"
    },
    {
      "inputs": [],
      "name": "startSeat",
      "outputs": [
        {
          "internalType": "uint256",
          "name": "",
          "type": "uint256"
        }
      ],
      "stateMutability": "view",
      "type": "function"
    },
    {
      "inputs": [],
      "name": "supply",
      "outputs": [
        {
          "internalType": "uint256",
          "name": "",
          "type": "uint256"
        }
      ],
      "stateMutability": "view",
      "type": "function"
    },
    {
      "inputs": [
        {
          "internalType": "bytes4",
          "name": "interfaceId",
          "type": "bytes4"
        }
      ],
      "name": "supportsInterface",
      "outputs": [
        {
          "internalType": "bool",
          "name": "",
          "type": "bool"
        }
      ],
      "stateMutability": "view",
      "type": "function"
    },
    {
      "inputs": [
        {
          "internalType": "uint256",
          "name": "",
          "type": "uint256"
        }
      ],
      "name": "tokenOwner",
      "outputs": [
        {
          "internalType": "address",
          "name": "",
          "type": "address"
        }
      ],
      "stateMutability": "view",
      "type": "function"
    },
    {
      "inputs": [
        {
          "internalType": "address",
          "name": "newOwner",
          "type": "address"
        }
      ],
      "name": "transferOwnership",
      "outputs": [],
      "stateMutability": "nonpayable",
      "type": "function"
    },
    {
      "inputs": [
        {
          "internalType": "uint256",
          "name": "_tokenid",
          "type": "uint256"
        }
      ],
      "name": "uri",
      "outputs": [
        {
          "internalType": "string",
          "name": "",
          "type": "string"
        }
      ],
      "stateMutability": "view",
      "type": "function"
    },
    {
      "inputs": [],
      "name": "usdcToken",
      "outputs": [
        {
          "internalType": "contract IERC20",
          "name": "",
          "type": "address"
        }
      ],
      "stateMutability": "view",
      "type": "function"
    }
  ],
  "bytecode": "0x60806040523480156200001157600080fd5b5060405162004c8538038062004c85833981810160405281019062000037919062000437565b816040516020016200004a919062000665565b6040516020818303038152906040526200006a816200012160201b60201c565b506200008b6200007f6200013660201b60201c565b6200013e60201b60201c565b60016004819055508660069081620000a49190620008db565b50856007819055508360088190555082600a819055508460098190555081600b9081620000d29190620008db565b5080600c60006101000a81548173ffffffffffffffffffffffffffffffffffffffff021916908373ffffffffffffffffffffffffffffffffffffffff16021790555050505050505050620009c2565b8060029081620001329190620008db565b5050565b600033905090565b6000600360009054906101000a900473ffffffffffffffffffffffffffffffffffffffff16905081600360006101000a81548173ffffffffffffffffffffffffffffffffffffffff021916908373ffffffffffffffffffffffffffffffffffffffff1602179055508173ffffffffffffffffffffffffffffffffffffffff168173ffffffffffffffffffffffffffffffffffffffff167f8be0079c531659141344cd1fd0a4f28419497f9722a3daafe3b4186f6b6457e060405160405180910390a35050565b6000604051905090565b600080fd5b600080fd5b600080fd5b600080fd5b6000601f19601f8301169050919050565b7f4e487b7100000000000000000000000000000000000000000000000000000000600052604160045260246000fd5b6200026d8262000222565b810181811067ffffffffffffffff821117156200028f576200028e62000233565b5b80604052505050565b6000620002a462000204565b9050620002b2828262000262565b919050565b600067ffffffffffffffff821115620002d557620002d462000233565b5b620002e08262000222565b9050602081019050919050565b60005b838110156200030d578082015181840152602081019050620002f0565b60008484015250505050565b6000620003306200032a84620002b7565b62000298565b9050828152602081018484840111156200034f576200034e6200021d565b5b6200035c848285620002ed565b509392505050565b600082601f8301126200037c576200037b62000218565b5b81516200038e84826020860162000319565b91505092915050565b6000819050919050565b620003ac8162000397565b8114620003b857600080fd5b50565b600081519050620003cc81620003a1565b92915050565b600073ffffffffffffffffffffffffffffffffffffffff82169050919050565b6000620003ff82620003d2565b9050919050565b6200041181620003f2565b81146200041d57600080fd5b50565b600081519050620004318162000406565b92915050565b600080600080600080600060e0888a0312156200045957620004586200020e565b5b600088015167ffffffffffffffff8111156200047a576200047962000213565b5b620004888a828b0162000364565b97505060206200049b8a828b01620003bb565b9650506040620004ae8a828b01620003bb565b9550506060620004c18a828b01620003bb565b9450506080620004d48a828b01620003bb565b93505060a088015167ffffffffffffffff811115620004f857620004f762000213565b5b620005068a828b0162000364565b92505060c0620005198a828b0162000420565b91505092959891949750929550565b600081905092915050565b7f68747470733a2f2f6d796170692e636f6d2f6170692f4e46542f000000000000600082015250565b60006200056b601a8362000528565b9150620005788262000533565b601a82019050919050565b600081519050919050565b60006200059b8262000583565b620005a7818562000528565b9350620005b9818560208601620002ed565b80840191505092915050565b7f2f00000000000000000000000000000000000000000000000000000000000000600082015250565b6000620005fd60018362000528565b91506200060a82620005c5565b600182019050919050565b7f7b69647d2e6a736f6e0000000000000000000000000000000000000000000000600082015250565b60006200064d60098362000528565b91506200065a8262000615565b600982019050919050565b600062000672826200055c565b91506200068082846200058e565b91506200068d82620005ee565b91506200069a826200063e565b915081905092915050565b7f4e487b7100000000000000000000000000000000000000000000000000000000600052602260045260246000fd5b60006002820490506001821680620006ed57607f821691505b602082108103620007035762000702620006a5565b5b50919050565b60008190508160005260206000209050919050565b60006020601f8301049050919050565b600082821b905092915050565b6000600883026200076d7fffffffffffffffffffffffffffffffffffffffffffffffffffffffffffffffff826200072e565b6200077986836200072e565b95508019841693508086168417925050509392505050565b6000819050919050565b6000620007bc620007b6620007b08462000397565b62000791565b62000397565b9050919050565b6000819050919050565b620007d8836200079b565b620007f0620007e782620007c3565b8484546200073b565b825550505050565b600090565b62000807620007f8565b62000814818484620007cd565b505050565b5b818110156200083c5762000830600082620007fd565b6001810190506200081a565b5050565b601f8211156200088b57620008558162000709565b62000860846200071e565b8101602085101562000870578190505b620008886200087f856200071e565b83018262000819565b50505b505050565b600082821c905092915050565b6000620008b06000198460080262000890565b1980831691505092915050565b6000620008cb83836200089d565b9150826002028217905092915050565b620008e68262000583565b67ffffffffffffffff81111562000902576200090162000233565b5b6200090e8254620006d4565b6200091b82828562000840565b600060209050601f8311600181146200095357600084156200093e578287015190505b6200094a8582620008bd565b865550620009ba565b601f198416620009638662000709565b60005b828110156200098d5784890151825560018201915060208501945060208101905062000966565b86831015620009ad5784890151620009a9601f8916826200089d565b8355505b6001600288020188555050505b505050505050565b6142b380620009d26000396000f3fe608060405234801561001057600080fd5b50600436106101ef5760003560e01c80636a6278421161010f578063baffa903116100a2578063ed27107b11610071578063ed27107b14610588578063f1a9af89146105a6578063f242432a146105c4578063f2fde38b146105e0576101ef565b8063baffa90314610514578063c2560f2a14610532578063cc98ef961461053c578063e985e9c514610558576101ef565b8063893d20e8116100de578063893d20e81461049e5780638da5cb5b146104bc578063a22cb465146104da578063b81e43fc146104f6576101ef565b80636a6278421461043c5780636c9c2faf14610458578063715018a6146104765780638043c9c014610480576101ef565b8063248b71fc116101875780633bb3a24d116101565780633bb3a24d146103a05780634e1273f4146103d05780635a7bddbf14610400578063646f22c51461041e576101ef565b8063248b71fc1461032c578063278a262f146103485780632c9cf352146103665780632eb2c2d614610384576101ef565b80630e89341c116101c35780630e89341c1461029057806311eac855146102c057806318df458d146102de5780631caaa487146102fc576101ef565b8062fdd58e146101f457806301ffc9a71461022457806302b7847c14610254578063047fc9aa14610272575b600080fd5b61020e600480360381019061020991906129d3565b6105fc565b60405161021b9190612a22565b60405180910390f35b61023e60048036038101906102399190612a95565b6106c4565b60405161024b9190612add565b60405180910390f35b61025c6107a6565b6040516102699190612a22565b60405180910390f35b61027a6107ac565b6040516102879190612a22565b60405180910390f35b6102aa60048036038101906102a59190612af8565b6107b2565b6040516102b79190612bb5565b60405180910390f35b6102c86107e6565b6040516102d59190612c36565b60405180910390f35b6102e661080c565b6040516102f39190612a22565b60405180910390f35b61031660048036038101906103119190612af8565b610812565b6040516103239190612c60565b60405180910390f35b610346600480360381019061034191906129d3565b610845565b005b610350610b88565b60405161035d9190612bb5565b60405180910390f35b61036e610c16565b60405161037b9190612a22565b60405180910390f35b61039e60048036038101906103999190612e78565b610c20565b005b6103ba60048036038101906103b59190612af8565b610cc1565b6040516103c79190612bb5565b60405180910390f35b6103ea60048036038101906103e5919061300a565b610cf5565b6040516103f79190613140565b60405180910390f35b610408610e0e565b6040516104159190612bb5565b60405180910390f35b610426610ea0565b6040516104339190612a22565b60405180910390f35b61045660048036038101906104519190613162565b610ebe565b005b6104606110d4565b60405161046d9190612a22565b60405180910390f35b61047e6110de565b005b6104886110f2565b6040516104959190612bb5565b60405180910390f35b6104a6611180565b6040516104b39190612c60565b60405180910390f35b6104c461118f565b6040516104d19190612c60565b60405180910390f35b6104f460048036038101906104ef91906131bb565b6111b9565b005b6104fe6111cf565b60405161050b9190612bb5565b60405180910390f35b61051c611261565b6040516105299190612a22565b60405180910390f35b61053a61126b565b005b61055660048036038101906105519190613162565b611306565b005b610572600480360381019061056d91906131fb565b6113c1565b60405161057f9190612add565b60405180910390f35b610590611455565b60405161059d9190612c60565b60405180910390f35b6105ae61147b565b6040516105bb9190612a22565b60405180910390f35b6105de60048036038101906105d9919061323b565b611481565b005b6105fa60048036038101906105f59190613162565b611522565b005b60008073ffffffffffffffffffffffffffffffffffffffff168373ffffffffffffffffffffffffffffffffffffffff160361066c576040517f08c379a000000000000000000000000000000000000000000000000000000000815260040161066390613344565b60405180910390fd5b60008083815260200190815260200160002060008473ffffffffffffffffffffffffffffffffffffffff1673ffffffffffffffffffffffffffffffffffffffff16815260200190815260200160002054905092915050565b60007fd9b67a26000000000000000000000000000000000000000000000000000000007bffffffffffffffffffffffffffffffffffffffffffffffffffffffff1916827bffffffffffffffffffffffffffffffffffffffffffffffffffffffff1916148061078f57507f0e89341c000000000000000000000000000000000000000000000000000000007bffffffffffffffffffffffffffffffffffffffffffffffffffffffff1916827bffffffffffffffffffffffffffffffffffffffffffffffffffffffff1916145b8061079f575061079e826115a5565b5b9050919050565b60085481565b60075481565b6060600b6107bf8361160f565b6040516020016107d092919061357c565b6040516020818303038152906040529050919050565b600c60009054906101000a900473ffffffffffffffffffffffffffffffffffffffff1681565b600a5481565b600e6020528060005260406000206000915054906101000a900473ffffffffffffffffffffffffffffffffffffffff1681565b60075461086482610856600d6116dd565b6116eb90919063ffffffff16565b11156108a5576040517f08c379a000000000000000000000000000000000000000000000000000000000815260040161089c9061360d565b60405180910390fd5b60006108bc6009548361170190919063ffffffff16565b9050600c60009054906101000a900473ffffffffffffffffffffffffffffffffffffffff1673ffffffffffffffffffffffffffffffffffffffff166323b872dd3330846040518463ffffffff1660e01b815260040161091d9392919061362d565b6020604051808303816000875af115801561093c573d6000803e3d6000fd5b505050506040513d601f19601f820116820180604052508101906109609190613679565b61099f576040517f08c379a0000000000000000000000000000000000000000000000000000000008152600401610996906136f2565b60405180910390fd5b60008267ffffffffffffffff8111156109bb576109ba612c80565b5b6040519080825280602002602001820160405280156109e95781602001602082028036833780820191505090505b50905060008367ffffffffffffffff811115610a0857610a07612c80565b5b604051908082528060200260200182016040528015610a365781602001602082028036833780820191505090505b50905060005b84811015610b17576000610a64610a53600d6116dd565b600a546116eb90919063ffffffff16565b905080848381518110610a7a57610a79613712565b5b60200260200101818152505033600e600083815260200190815260200160002060006101000a81548173ffffffffffffffffffffffffffffffffffffffff021916908373ffffffffffffffffffffffffffffffffffffffff160217905550610ae2600d611717565b6001838381518110610af757610af6613712565b5b602002602001018181525050508080610b0f90613770565b915050610a3c565b50610b338583836040518060200160405280600081525061172d565b3373ffffffffffffffffffffffffffffffffffffffff167fb7656808f0e04b4af7a20f7ef1caa7669f0d781f1ca4cba31a3ba467880766c985604051610b799190612a22565b60405180910390a25050505050565b60068054610b95906133ea565b80601f0160208091040260200160405190810160405280929190818152602001828054610bc1906133ea565b8015610c0e5780601f10610be357610100808354040283529160200191610c0e565b820191906000526020600020905b815481529060010190602001808311610bf157829003601f168201915b505050505081565b6000600a54905090565b610c28611959565b73ffffffffffffffffffffffffffffffffffffffff168573ffffffffffffffffffffffffffffffffffffffff161480610c6e5750610c6d85610c68611959565b6113c1565b5b610cad576040517f08c379a0000000000000000000000000000000000000000000000000000000008152600401610ca49061382a565b60405180910390fd5b610cba8585858585611961565b5050505050565b6060600b610cce8361160f565b604051602001610cdf92919061357c565b6040516020818303038152906040529050919050565b60608151835114610d3b576040517f08c379a0000000000000000000000000000000000000000000000000000000008152600401610d32906138bc565b60405180910390fd5b6000835167ffffffffffffffff811115610d5857610d57612c80565b5b604051908082528060200260200182016040528015610d865781602001602082028036833780820191505090505b50905060005b8451811015610e0357610dd3858281518110610dab57610daa613712565b5b6020026020010151858381518110610dc657610dc5613712565b5b60200260200101516105fc565b828281518110610de657610de5613712565b5b60200260200101818152505080610dfc90613770565b9050610d8c565b508091505092915050565b606060068054610e1d906133ea565b80601f0160208091040260200160405190810160405280929190818152602001828054610e49906133ea565b8015610e965780601f10610e6b57610100808354040283529160200191610e96565b820191906000526020600020905b815481529060010190602001808311610e7957829003601f168201915b5050505050905090565b6000610eac600d6116dd565b600754610eb991906138dc565b905090565b600754610ecb600d6116dd565b10610f0b576040517f08c379a0000000000000000000000000000000000000000000000000000000008152600401610f029061360d565b60405180910390fd5b600c60009054906101000a900473ffffffffffffffffffffffffffffffffffffffff1673ffffffffffffffffffffffffffffffffffffffff166323b872dd33306009546040518463ffffffff1660e01b8152600401610f6c9392919061362d565b6020604051808303816000875af1158015610f8b573d6000803e3d6000fd5b505050506040513d601f19601f82011682018060405250810190610faf9190613679565b610fee576040517f08c379a0000000000000000000000000000000000000000000000000000000008152600401610fe5906136f2565b60405180910390fd5b6000610ffa600d6116dd565b600a546110079190613910565b90506110258282600160405180602001604052806000815250611c82565b33600e600083815260200190815260200160002060006101000a81548173ffffffffffffffffffffffffffffffffffffffff021916908373ffffffffffffffffffffffffffffffffffffffff160217905550611081600d611717565b3373ffffffffffffffffffffffffffffffffffffffff167fb7656808f0e04b4af7a20f7ef1caa7669f0d781f1ca4cba31a3ba467880766c960016040516110c8919061397f565b60405180910390a25050565b6000600754905090565b6110e6611e32565b6110f06000611eb0565b565b600b80546110ff906133ea565b80601f016020809104026020016040519081016040528092919081815260200182805461112b906133ea565b80156111785780601f1061114d57610100808354040283529160200191611178565b820191906000526020600020905b81548152906001019060200180831161115b57829003601f168201915b505050505081565b600061118a61118f565b905090565b6000600360009054906101000a900473ffffffffffffffffffffffffffffffffffffffff16905090565b6111cb6111c4611959565b8383611f76565b5050565b6060600b80546111de906133ea565b80601f016020809104026020016040519081016040528092919081815260200182805461120a906133ea565b80156112575780601f1061122c57610100808354040283529160200191611257565b820191906000526020600020905b81548152906001019060200180831161123a57829003601f168201915b5050505050905090565b6000600954905090565b61129733600560009054906101000a900473ffffffffffffffffffffffffffffffffffffffff166113c1565b156112d7576040517f08c379a00000000000000000000000000000000000000000000000000000000081526004016112ce90613a0c565b60405180910390fd5b611304600560009054906101000a900473ffffffffffffffffffffffffffffffffffffffff1660016111b9565b565b61130e611e32565b600073ffffffffffffffffffffffffffffffffffffffff168173ffffffffffffffffffffffffffffffffffffffff160361137d576040517f08c379a000000000000000000000000000000000000000000000000000000000815260040161137490613a78565b60405180910390fd5b80600560006101000a81548173ffffffffffffffffffffffffffffffffffffffff021916908373ffffffffffffffffffffffffffffffffffffffff16021790555050565b6000600160008473ffffffffffffffffffffffffffffffffffffffff1673ffffffffffffffffffffffffffffffffffffffff16815260200190815260200160002060008373ffffffffffffffffffffffffffffffffffffffff1673ffffffffffffffffffffffffffffffffffffffff16815260200190815260200160002060009054906101000a900460ff16905092915050565b600560009054906101000a900473ffffffffffffffffffffffffffffffffffffffff1681565b60095481565b611489611959565b73ffffffffffffffffffffffffffffffffffffffff168573ffffffffffffffffffffffffffffffffffffffff1614806114cf57506114ce856114c9611959565b6113c1565b5b61150e576040517f08c379a00000000000000000000000000000000000000000000000000000000081526004016115059061382a565b60405180910390fd5b61151b85858585856120e2565b5050505050565b61152a611e32565b600073ffffffffffffffffffffffffffffffffffffffff168173ffffffffffffffffffffffffffffffffffffffff1603611599576040517f08c379a000000000000000000000000000000000000000000000000000000000815260040161159090613b0a565b60405180910390fd5b6115a281611eb0565b50565b60007f01ffc9a7000000000000000000000000000000000000000000000000000000007bffffffffffffffffffffffffffffffffffffffffffffffffffffffff1916827bffffffffffffffffffffffffffffffffffffffffffffffffffffffff1916149050919050565b60606000600161161e8461237d565b01905060008167ffffffffffffffff81111561163d5761163c612c80565b5b6040519080825280601f01601f19166020018201604052801561166f5781602001600182028036833780820191505090505b509050600082602001820190505b6001156116d2578080600190039150507f3031323334353637383961626364656600000000000000000000000000000000600a86061a8153600a85816116c6576116c5613b2a565b5b0494506000850361167d575b819350505050919050565b600081600001549050919050565b600081836116f99190613910565b905092915050565b6000818361170f9190613b59565b905092915050565b6001816000016000828254019250508190555050565b600073ffffffffffffffffffffffffffffffffffffffff168473ffffffffffffffffffffffffffffffffffffffff160361179c576040517f08c379a000000000000000000000000000000000000000000000000000000000815260040161179390613c0d565b60405180910390fd5b81518351146117e0576040517f08c379a00000000000000000000000000000000000000000000000000000000081526004016117d790613c9f565b60405180910390fd5b60006117ea611959565b90506117fb816000878787876124d0565b60005b84518110156118b45783818151811061181a57611819613712565b5b602002602001015160008087848151811061183857611837613712565b5b6020026020010151815260200190815260200160002060008873ffffffffffffffffffffffffffffffffffffffff1673ffffffffffffffffffffffffffffffffffffffff168152602001908152602001600020600082825461189a9190613910565b9250508190555080806118ac90613770565b9150506117fe565b508473ffffffffffffffffffffffffffffffffffffffff16600073ffffffffffffffffffffffffffffffffffffffff168273ffffffffffffffffffffffffffffffffffffffff167f4a39dc06d4c0dbc64b70af90fd698a233a518aa5d07e595d983b8c0526c8f7fb878760405161192c929190613cbf565b60405180910390a4611943816000878787876124d8565b611952816000878787876124e0565b5050505050565b600033905090565b81518351146119a5576040517f08c379a000000000000000000000000000000000000000000000000000000000815260040161199c90613c9f565b60405180910390fd5b600073ffffffffffffffffffffffffffffffffffffffff168473ffffffffffffffffffffffffffffffffffffffff1603611a14576040517f08c379a0000000000000000000000000000000000000000000000000000000008152600401611a0b90613d68565b60405180910390fd5b6000611a1e611959565b9050611a2e8187878787876124d0565b60005b8451811015611bdf576000858281518110611a4f57611a4e613712565b5b602002602001015190506000858381518110611a6e57611a6d613712565b5b60200260200101519050600080600084815260200190815260200160002060008b73ffffffffffffffffffffffffffffffffffffffff1673ffffffffffffffffffffffffffffffffffffffff16815260200190815260200160002054905081811015611b0f576040517f08c379a0000000000000000000000000000000000000000000000000000000008152600401611b0690613dfa565b60405180910390fd5b81810360008085815260200190815260200160002060008c73ffffffffffffffffffffffffffffffffffffffff1673ffffffffffffffffffffffffffffffffffffffff168152602001908152602001600020819055508160008085815260200190815260200160002060008b73ffffffffffffffffffffffffffffffffffffffff1673ffffffffffffffffffffffffffffffffffffffff1681526020019081526020016000206000828254611bc49190613910565b9250508190555050505080611bd890613770565b9050611a31565b508473ffffffffffffffffffffffffffffffffffffffff168673ffffffffffffffffffffffffffffffffffffffff168273ffffffffffffffffffffffffffffffffffffffff167f4a39dc06d4c0dbc64b70af90fd698a233a518aa5d07e595d983b8c0526c8f7fb8787604051611c56929190613cbf565b60405180910390a4611c6c8187878787876124d8565b611c7a8187878787876124e0565b505050505050565b600073ffffffffffffffffffffffffffffffffffffffff168473ffffffffffffffffffffffffffffffffffffffff1603611cf1576040517f08c379a0000000000000000000000000000000000000000000000000000000008152600401611ce890613c0d565b60405180910390fd5b6000611cfb611959565b90506000611d08856126b7565b90506000611d15856126b7565b9050611d26836000898585896124d0565b8460008088815260200190815260200160002060008973ffffffffffffffffffffffffffffffffffffffff1673ffffffffffffffffffffffffffffffffffffffff1681526020019081526020016000206000828254611d859190613910565b925050819055508673ffffffffffffffffffffffffffffffffffffffff16600073ffffffffffffffffffffffffffffffffffffffff168473ffffffffffffffffffffffffffffffffffffffff167fc3d58168c5ae7397731d063d5bbf3d657854427343f4c083240f7aacaa2d0f628989604051611e03929190613e1a565b60405180910390a4611e1a836000898585896124d8565b611e2983600089898989612731565b50505050505050565b611e3a611959565b73ffffffffffffffffffffffffffffffffffffffff16611e5861118f565b73ffffffffffffffffffffffffffffffffffffffff1614611eae576040517f08c379a0000000000000000000000000000000000000000000000000000000008152600401611ea590613e8f565b60405180910390fd5b565b6000600360009054906101000a900473ffffffffffffffffffffffffffffffffffffffff16905081600360006101000a81548173ffffffffffffffffffffffffffffffffffffffff021916908373ffffffffffffffffffffffffffffffffffffffff1602179055508173ffffffffffffffffffffffffffffffffffffffff168173ffffffffffffffffffffffffffffffffffffffff167f8be0079c531659141344cd1fd0a4f28419497f9722a3daafe3b4186f6b6457e060405160405180910390a35050565b8173ffffffffffffffffffffffffffffffffffffffff168373ffffffffffffffffffffffffffffffffffffffff1603611fe4576040517f08c379a0000000000000000000000000000000000000000000000000000000008152600401611fdb90613f21565b60405180910390fd5b80600160008573ffffffffffffffffffffffffffffffffffffffff1673ffffffffffffffffffffffffffffffffffffffff16815260200190815260200160002060008473ffffffffffffffffffffffffffffffffffffffff1673ffffffffffffffffffffffffffffffffffffffff16815260200190815260200160002060006101000a81548160ff0219169083151502179055508173ffffffffffffffffffffffffffffffffffffffff168373ffffffffffffffffffffffffffffffffffffffff167f17307eab39ab6107e8899845ad3d59bd9653f200f220920489ca2b5937696c31836040516120d59190612add565b60405180910390a3505050565b600073ffffffffffffffffffffffffffffffffffffffff168473ffffffffffffffffffffffffffffffffffffffff1603612151576040517f08c379a000000000000000000000000000000000000000000000000000000000815260040161214890613d68565b60405180910390fd5b600061215b611959565b90506000612168856126b7565b90506000612175856126b7565b90506121858389898585896124d0565b600080600088815260200190815260200160002060008a73ffffffffffffffffffffffffffffffffffffffff1673ffffffffffffffffffffffffffffffffffffffff1681526020019081526020016000205490508581101561221c576040517f08c379a000000000000000000000000000000000000000000000000000000000815260040161221390613dfa565b60405180910390fd5b85810360008089815260200190815260200160002060008b73ffffffffffffffffffffffffffffffffffffffff1673ffffffffffffffffffffffffffffffffffffffff168152602001908152602001600020819055508560008089815260200190815260200160002060008a73ffffffffffffffffffffffffffffffffffffffff1673ffffffffffffffffffffffffffffffffffffffff16815260200190815260200160002060008282546122d19190613910565b925050819055508773ffffffffffffffffffffffffffffffffffffffff168973ffffffffffffffffffffffffffffffffffffffff168573ffffffffffffffffffffffffffffffffffffffff167fc3d58168c5ae7397731d063d5bbf3d657854427343f4c083240f7aacaa2d0f628a8a60405161234e929190613e1a565b60405180910390a4612364848a8a86868a6124d8565b612372848a8a8a8a8a612731565b505050505050505050565b600080600090507a184f03e93ff9f4daa797ed6e38ed64bf6a1f01000000000000000083106123db577a184f03e93ff9f4daa797ed6e38ed64bf6a1f01000000000000000083816123d1576123d0613b2a565b5b0492506040810190505b6d04ee2d6d415b85acef81000000008310612418576d04ee2d6d415b85acef8100000000838161240e5761240d613b2a565b5b0492506020810190505b662386f26fc10000831061244757662386f26fc10000838161243d5761243c613b2a565b5b0492506010810190505b6305f5e1008310612470576305f5e100838161246657612465613b2a565b5b0492506008810190505b612710831061249557612710838161248b5761248a613b2a565b5b0492506004810190505b606483106124b857606483816124ae576124ad613b2a565b5b0492506002810190505b600a83106124c7576001810190505b80915050919050565b505050505050565b505050505050565b6124ff8473ffffffffffffffffffffffffffffffffffffffff16612908565b156126af578373ffffffffffffffffffffffffffffffffffffffff1663bc197c8187878686866040518663ffffffff1660e01b8152600401612545959493929190613f96565b6020604051808303816000875af192505050801561258157506040513d601f19601f8201168201806040525081019061257e9190614013565b60015b6126265761258d61404d565b806308c379a0036125e957506125a161406f565b806125ac57506125eb565b806040517f08c379a00000000000000000000000000000000000000000000000000000000081526004016125e09190612bb5565b60405180910390fd5b505b6040517f08c379a000000000000000000000000000000000000000000000000000000000815260040161261d90614171565b60405180910390fd5b63bc197c8160e01b7bffffffffffffffffffffffffffffffffffffffffffffffffffffffff1916817bffffffffffffffffffffffffffffffffffffffffffffffffffffffff1916146126ad576040517f08c379a00000000000000000000000000000000000000000000000000000000081526004016126a490614203565b60405180910390fd5b505b505050505050565b60606000600167ffffffffffffffff8111156126d6576126d5612c80565b5b6040519080825280602002602001820160405280156127045781602001602082028036833780820191505090505b509050828160008151811061271c5761271b613712565b5b60200260200101818152505080915050919050565b6127508473ffffffffffffffffffffffffffffffffffffffff16612908565b15612900578373ffffffffffffffffffffffffffffffffffffffff1663f23a6e6187878686866040518663ffffffff1660e01b8152600401612796959493929190614223565b6020604051808303816000875af19250505080156127d257506040513d601f19601f820116820180604052508101906127cf9190614013565b60015b612877576127de61404d565b806308c379a00361283a57506127f261406f565b806127fd575061283c565b806040517f08c379a00000000000000000000000000000000000000000000000000000000081526004016128319190612bb5565b60405180910390fd5b505b6040517f08c379a000000000000000000000000000000000000000000000000000000000815260040161286e90614171565b60405180910390fd5b63f23a6e6160e01b7bffffffffffffffffffffffffffffffffffffffffffffffffffffffff1916817bffffffffffffffffffffffffffffffffffffffffffffffffffffffff1916146128fe576040517f08c379a00000000000000000000000000000000000000000000000000000000081526004016128f590614203565b60405180910390fd5b505b505050505050565b6000808273ffffffffffffffffffffffffffffffffffffffff163b119050919050565b6000604051905090565b600080fd5b600080fd5b600073ffffffffffffffffffffffffffffffffffffffff82169050919050565b600061296a8261293f565b9050919050565b61297a8161295f565b811461298557600080fd5b50565b60008135905061299781612971565b92915050565b6000819050919050565b6129b08161299d565b81146129bb57600080fd5b50565b6000813590506129cd816129a7565b92915050565b600080604083850312156129ea576129e9612935565b5b60006129f885828601612988565b9250506020612a09858286016129be565b9150509250929050565b612a1c8161299d565b82525050565b6000602082019050612a376000830184612a13565b92915050565b60007fffffffff0000000000000000000000000000000000000000000000000000000082169050919050565b612a7281612a3d565b8114612a7d57600080fd5b50565b600081359050612a8f81612a69565b92915050565b600060208284031215612aab57612aaa612935565b5b6000612ab984828501612a80565b91505092915050565b60008115159050919050565b612ad781612ac2565b82525050565b6000602082019050612af26000830184612ace565b92915050565b600060208284031215612b0e57612b0d612935565b5b6000612b1c848285016129be565b91505092915050565b600081519050919050565b600082825260208201905092915050565b60005b83811015612b5f578082015181840152602081019050612b44565b60008484015250505050565b6000601f19601f8301169050919050565b6000612b8782612b25565b612b918185612b30565b9350612ba1818560208601612b41565b612baa81612b6b565b840191505092915050565b60006020820190508181036000830152612bcf8184612b7c565b905092915050565b6000819050919050565b6000612bfc612bf7612bf28461293f565b612bd7565b61293f565b9050919050565b6000612c0e82612be1565b9050919050565b6000612c2082612c03565b9050919050565b612c3081612c15565b82525050565b6000602082019050612c4b6000830184612c27565b92915050565b612c5a8161295f565b82525050565b6000602082019050612c756000830184612c51565b92915050565b600080fd5b7f4e487b7100000000000000000000000000000000000000000000000000000000600052604160045260246000fd5b612cb882612b6b565b810181811067ffffffffffffffff82111715612cd757612cd6612c80565b5b80604052505050565b6000612cea61292b565b9050612cf68282612caf565b919050565b600067ffffffffffffffff821115612d1657612d15612c80565b5b602082029050602081019050919050565b600080fd5b6000612d3f612d3a84612cfb565b612ce0565b90508083825260208201905060208402830185811115612d6257612d61612d27565b5b835b81811015612d8b5780612d7788826129be565b845260208401935050602081019050612d64565b5050509392505050565b600082601f830112612daa57612da9612c7b565b5b8135612dba848260208601612d2c565b91505092915050565b600080fd5b600067ffffffffffffffff821115612de357612de2612c80565b5b612dec82612b6b565b9050602081019050919050565b82818337600083830152505050565b6000612e1b612e1684612dc8565b612ce0565b905082815260208101848484011115612e3757612e36612dc3565b5b612e42848285612df9565b509392505050565b600082601f830112612e5f57612e5e612c7b565b5b8135612e6f848260208601612e08565b91505092915050565b600080600080600060a08688031215612e9457612e93612935565b5b6000612ea288828901612988565b9550506020612eb388828901612988565b945050604086013567ffffffffffffffff811115612ed457612ed361293a565b5b612ee088828901612d95565b935050606086013567ffffffffffffffff811115612f0157612f0061293a565b5b612f0d88828901612d95565b925050608086013567ffffffffffffffff811115612f2e57612f2d61293a565b5b612f3a88828901612e4a565b9150509295509295909350565b600067ffffffffffffffff821115612f6257612f61612c80565b5b602082029050602081019050919050565b6000612f86612f8184612f47565b612ce0565b90508083825260208201905060208402830185811115612fa957612fa8612d27565b5b835b81811015612fd25780612fbe8882612988565b845260208401935050602081019050612fab565b5050509392505050565b600082601f830112612ff157612ff0612c7b565b5b8135613001848260208601612f73565b91505092915050565b6000806040838503121561302157613020612935565b5b600083013567ffffffffffffffff81111561303f5761303e61293a565b5b61304b85828601612fdc565b925050602083013567ffffffffffffffff81111561306c5761306b61293a565b5b61307885828601612d95565b9150509250929050565b600081519050919050565b600082825260208201905092915050565b6000819050602082019050919050565b6130b78161299d565b82525050565b60006130c983836130ae565b60208301905092915050565b6000602082019050919050565b60006130ed82613082565b6130f7818561308d565b93506131028361309e565b8060005b8381101561313357815161311a88826130bd565b9750613125836130d5565b925050600181019050613106565b5085935050505092915050565b6000602082019050818103600083015261315a81846130e2565b905092915050565b60006020828403121561317857613177612935565b5b600061318684828501612988565b91505092915050565b61319881612ac2565b81146131a357600080fd5b50565b6000813590506131b58161318f565b92915050565b600080604083850312156131d2576131d1612935565b5b60006131e085828601612988565b92505060206131f1858286016131a6565b9150509250929050565b6000806040838503121561321257613211612935565b5b600061322085828601612988565b925050602061323185828601612988565b9150509250929050565b600080600080600060a0868803121561325757613256612935565b5b600061326588828901612988565b955050602061327688828901612988565b9450506040613287888289016129be565b9350506060613298888289016129be565b925050608086013567ffffffffffffffff8111156132b9576132b861293a565b5b6132c588828901612e4a565b9150509295509295909350565b7f455243313135353a2061646472657373207a65726f206973206e6f742061207660008201527f616c6964206f776e657200000000000000000000000000000000000000000000602082015250565b600061332e602a83612b30565b9150613339826132d2565b604082019050919050565b6000602082019050818103600083015261335d81613321565b9050919050565b600081905092915050565b7f68747470733a2f2f6d796170692e636f6d2f6170692f4e46542f000000000000600082015250565b60006133a5601a83613364565b91506133b08261336f565b601a82019050919050565b7f4e487b7100000000000000000000000000000000000000000000000000000000600052602260045260246000fd5b6000600282049050600182168061340257607f821691505b602082108103613415576134146133bb565b5b50919050565b60008190508160005260206000209050919050565b6000815461343d816133ea565b6134478186613364565b945060018216600081146134625760018114613477576134aa565b60ff19831686528115158202860193506134aa565b6134808561341b565b60005b838110156134a257815481890152600182019150602081019050613483565b838801955050505b50505092915050565b7f2f00000000000000000000000000000000000000000000000000000000000000600082015250565b60006134e9600183613364565b91506134f4826134b3565b600182019050919050565b600061350a82612b25565b6135148185613364565b9350613524818560208601612b41565b80840191505092915050565b7f2e6a736f6e000000000000000000000000000000000000000000000000000000600082015250565b6000613566600583613364565b915061357182613530565b600582019050919050565b600061358782613398565b91506135938285613430565b915061359e826134dc565b91506135aa82846134ff565b91506135b582613559565b91508190509392505050565b7f536f7272792c20776527726520736f6c64206f75740000000000000000000000600082015250565b60006135f7601583612b30565b9150613602826135c1565b602082019050919050565b60006020820190508181036000830152613626816135ea565b9050919050565b60006060820190506136426000830186612c51565b61364f6020830185612c51565b61365c6040830184612a13565b949350505050565b6000815190506136738161318f565b92915050565b60006020828403121561368f5761368e612935565b5b600061369d84828501613664565b91505092915050565b7f55534443207472616e73666572206661696c6564000000000000000000000000600082015250565b60006136dc601483612b30565b91506136e7826136a6565b602082019050919050565b6000602082019050818103600083015261370b816136cf565b9050919050565b7f4e487b7100000000000000000000000000000000000000000000000000000000600052603260045260246000fd5b7f4e487b7100000000000000000000000000000000000000000000000000000000600052601160045260246000fd5b600061377b8261299d565b91507fffffffffffffffffffffffffffffffffffffffffffffffffffffffffffffffff82036137ad576137ac613741565b5b600182019050919050565b7f455243313135353a2063616c6c6572206973206e6f7420746f6b656e206f776e60008201527f6572206f7220617070726f766564000000000000000000000000000000000000602082015250565b6000613814602e83612b30565b915061381f826137b8565b604082019050919050565b6000602082019050818103600083015261384381613807565b9050919050565b7f455243313135353a206163636f756e747320616e6420696473206c656e67746860008201527f206d69736d617463680000000000000000000000000000000000000000000000602082015250565b60006138a6602983612b30565b91506138b18261384a565b604082019050919050565b600060208201905081810360008301526138d581613899565b9050919050565b60006138e78261299d565b91506138f28361299d565b925082820390508181111561390a57613909613741565b5b92915050565b600061391b8261299d565b91506139268361299d565b925082820190508082111561393e5761393d613741565b5b92915050565b6000819050919050565b600061396961396461395f84613944565b612bd7565b61299d565b9050919050565b6139798161394e565b82525050565b60006020820190506139946000830184613970565b92915050565b7f596f75206861766520616c726561647920617070726f76656420746865206d6160008201527f726b6574706c6163650000000000000000000000000000000000000000000000602082015250565b60006139f6602983612b30565b9150613a018261399a565b604082019050919050565b60006020820190508181036000830152613a25816139e9565b9050919050565b7f496e76616c696420616464726573730000000000000000000000000000000000600082015250565b6000613a62600f83612b30565b9150613a6d82613a2c565b602082019050919050565b60006020820190508181036000830152613a9181613a55565b9050919050565b7f4f776e61626c653a206e6577206f776e657220697320746865207a65726f206160008201527f6464726573730000000000000000000000000000000000000000000000000000602082015250565b6000613af4602683612b30565b9150613aff82613a98565b604082019050919050565b60006020820190508181036000830152613b2381613ae7565b9050919050565b7f4e487b7100000000000000000000000000000000000000000000000000000000600052601260045260246000fd5b6000613b648261299d565b9150613b6f8361299d565b9250828202613b7d8161299d565b91508282048414831517613b9457613b93613741565b5b5092915050565b7f455243313135353a206d696e7420746f20746865207a65726f2061646472657360008201527f7300000000000000000000000000000000000000000000000000000000000000602082015250565b6000613bf7602183612b30565b9150613c0282613b9b565b604082019050919050565b60006020820190508181036000830152613c2681613bea565b9050919050565b7f455243313135353a2069647320616e6420616d6f756e7473206c656e6774682060008201527f6d69736d61746368000000000000000000000000000000000000000000000000602082015250565b6000613c89602883612b30565b9150613c9482613c2d565b604082019050919050565b60006020820190508181036000830152613cb881613c7c565b9050919050565b60006040820190508181036000830152613cd981856130e2565b90508181036020830152613ced81846130e2565b90509392505050565b7f455243313135353a207472616e7366657220746f20746865207a65726f20616460008201527f6472657373000000000000000000000000000000000000000000000000000000602082015250565b6000613d52602583612b30565b9150613d5d82613cf6565b604082019050919050565b60006020820190508181036000830152613d8181613d45565b9050919050565b7f455243313135353a20696e73756666696369656e742062616c616e636520666f60008201527f72207472616e7366657200000000000000000000000000000000000000000000602082015250565b6000613de4602a83612b30565b9150613def82613d88565b604082019050919050565b60006020820190508181036000830152613e1381613dd7565b9050919050565b6000604082019050613e2f6000830185612a13565b613e3c6020830184612a13565b9392505050565b7f4f776e61626c653a2063616c6c6572206973206e6f7420746865206f776e6572600082015250565b6000613e79602083612b30565b9150613e8482613e43565b602082019050919050565b60006020820190508181036000830152613ea881613e6c565b9050919050565b7f455243313135353a2073657474696e6720617070726f76616c2073746174757360008201527f20666f722073656c660000000000000000000000000000000000000000000000602082015250565b6000613f0b602983612b30565b9150613f1682613eaf565b604082019050919050565b60006020820190508181036000830152613f3a81613efe565b9050919050565b600081519050919050565b600082825260208201905092915050565b6000613f6882613f41565b613f728185613f4c565b9350613f82818560208601612b41565b613f8b81612b6b565b840191505092915050565b600060a082019050613fab6000830188612c51565b613fb86020830187612c51565b8181036040830152613fca81866130e2565b90508181036060830152613fde81856130e2565b90508181036080830152613ff28184613f5d565b90509695505050505050565b60008151905061400d81612a69565b92915050565b60006020828403121561402957614028612935565b5b600061403784828501613ffe565b91505092915050565b60008160e01c9050919050565b600060033d111561406c5760046000803e614069600051614040565b90505b90565b600060443d106140fc5761408161292b565b60043d036004823e80513d602482011167ffffffffffffffff821117156140a95750506140fc565b808201805167ffffffffffffffff8111156140c757505050506140fc565b80602083010160043d0385018111156140e45750505050506140fc565b6140f382602001850186612caf565b82955050505050505b90565b7f455243313135353a207472616e7366657220746f206e6f6e2d4552433131353560008201527f526563656976657220696d706c656d656e746572000000000000000000000000602082015250565b600061415b603483612b30565b9150614166826140ff565b604082019050919050565b6000602082019050818103600083015261418a8161414e565b9050919050565b7f455243313135353a204552433131353552656365697665722072656a6563746560008201527f6420746f6b656e73000000000000000000000000000000000000000000000000602082015250565b60006141ed602883612b30565b91506141f882614191565b604082019050919050565b6000602082019050818103600083015261421c816141e0565b9050919050565b600060a0820190506142386000830188612c51565b6142456020830187612c51565b6142526040830186612a13565b61425f6060830185612a13565b81810360808301526142718184613f5d565b9050969550505050505056fea26469706673582212205b65d87506b2171b1674cb683dbc7a916f076f6ef16a8d8611ed4974016e720c64736f6c63430008130033",
  "linkReferences": {},
  "deployedLinkReferences": {}
}