{
  "_format": "hh-sol-artifact-1",
  "contractName": "SeatedFactory",
  "sourceName": "contracts/SeatedFactory.sol",
  "abi": [
    {
      "anonymous": false,
      "inputs": [
        {
          "indexed": true,
          "internalType": "uint256",
          "name": "eventId",
          "type": "uint256"
        },
        {
          "indexed": true,
          "internalType": "uint256",
          "name": "_sessionId",
          "type": "uint256"
        },
        {
          "indexed": true,
          "internalType": "string",
          "name": "section",
          "type": "string"
        },
        {
          "indexed": false,
          "internalType": "address",
          "name": "nftAddress",
          "type": "address"
        },
        {
          "indexed": false,
          "internalType": "uint256",
          "name": "supply",
          "type": "uint256"
        },
        {
          "indexed": false,
          "internalType": "uint256",
          "name": "startPrice",
          "type": "uint256"
        },
        {
          "indexed": false,
          "internalType": "uint256",
          "name": "startSeat",
          "type": "uint256"
        },
        {
          "indexed": false,
          "internalType": "string",
          "name": "nftMeta",
          "type": "string"
        }
      ],
      "name": "NFTAdded",
      "type": "event"
    },
    {
      "anonymous": false,
      "inputs": [
        {
          "indexed": true,
          "internalType": "address",
          "name": "previousOwner",
          "type": "address"
        },
        {
          "indexed": true,
          "internalType": "address",
          "name": "newOwner",
          "type": "address"
        }
      ],
      "name": "OwnershipTransferred",
      "type": "event"
    },
    {
      "inputs": [
        {
          "internalType": "uint256",
          "name": "_eventId",
          "type": "uint256"
        },
        {
          "internalType": "uint256",
          "name": "_sessionId",
          "type": "uint256"
        },
        {
          "internalType": "string",
          "name": "_section",
          "type": "string"
        },
        {
          "internalType": "uint256",
          "name": "_supply",
          "type": "uint256"
        },
        {
          "internalType": "uint256",
          "name": "_startPrice",
          "type": "uint256"
        },
        {
          "internalType": "uint256",
          "name": "_priceCap",
          "type": "uint256"
        },
        {
          "internalType": "uint256",
          "name": "_startSeat",
          "type": "uint256"
        },
        {
          "internalType": "string",
          "name": "_nftMeta",
          "type": "string"
        }
      ],
      "name": "addSeatedNft",
      "outputs": [
        {
          "internalType": "address",
          "name": "",
          "type": "address"
        }
      ],
      "stateMutability": "nonpayable",
      "type": "function"
    },
    {
      "inputs": [],
      "name": "owner",
      "outputs": [
        {
          "internalType": "address",
          "name": "",
          "type": "address"
        }
      ],
      "stateMutability": "view",
      "type": "function"
    },
    {
      "inputs": [],
      "name": "renounceOwnership",
      "outputs": [],
      "stateMutability": "nonpayable",
      "type": "function"
    },
    {
      "inputs": [
        {
          "internalType": "address",
          "name": "newOwner",
          "type": "address"
        }
      ],
      "name": "transferOwnership",
      "outputs": [],
      "stateMutability": "nonpayable",
      "type": "function"
    }
  ],
  "bytecode": "0x608060405234801561001057600080fd5b5061001a3361001f565b61006f565b600080546001600160a01b038381166001600160a01b0319831681178455604051919092169283917f8be0079c531659141344cd1fd0a4f28419497f9722a3daafe3b4186f6b6457e09190a35050565b612abc8061007e6000396000f3fe60806040523480156200001157600080fd5b5060043610620000525760003560e01c80635c2d70ce1462000057578063715018a6146200008a5780638da5cb5b1462000096578063f2fde38b14620000a8575b600080fd5b6200006e6200006836600462000377565b620000bf565b6040516001600160a01b03909116815260200160405180910390f35b6200009462000177565b005b6000546001600160a01b03166200006e565b62000094620000b93660046200041c565b6200018f565b6000808989898989898989604051620000d890620002be565b620000eb989796959493929190620004a2565b604051809103906000f08015801562000108573d6000803e3d6000fd5b5060405190915081906200011e908a9062000501565b60405180910390208a8c7f7c92bff999110248d5f3d2ed5ebf9f107c30e28ea83d0d5354148025a0d4944b848c8c8b8b604051620001619594939291906200051f565b60405180910390a49a9950505050505050505050565b6200018162000212565b6200018d60006200026e565b565b6200019962000212565b6001600160a01b038116620002045760405162461bcd60e51b815260206004820152602660248201527f4f776e61626c653a206e6577206f776e657220697320746865207a65726f206160448201526564647265737360d01b60648201526084015b60405180910390fd5b6200020f816200026e565b50565b6000546001600160a01b031633146200018d5760405162461bcd60e51b815260206004820181905260248201527f4f776e61626c653a2063616c6c6572206973206e6f7420746865206f776e65726044820152606401620001fb565b600080546001600160a01b038381166001600160a01b0319831681178455604051919092169283917f8be0079c531659141344cd1fd0a4f28419497f9722a3daafe3b4186f6b6457e09190a35050565b612527806200056083390190565b634e487b7160e01b600052604160045260246000fd5b600082601f830112620002f457600080fd5b813567ffffffffffffffff80821115620003125762000312620002cc565b604051601f8301601f19908116603f011681019082821181831017156200033d576200033d620002cc565b816040528381528660208588010111156200035757600080fd5b836020870160208301376000602085830101528094505050505092915050565b600080600080600080600080610100898b0312156200039557600080fd5b8835975060208901359650604089013567ffffffffffffffff80821115620003bc57600080fd5b620003ca8c838d01620002e2565b975060608b0135965060808b0135955060a08b0135945060c08b0135935060e08b0135915080821115620003fd57600080fd5b506200040c8b828c01620002e2565b9150509295985092959890939650565b6000602082840312156200042f57600080fd5b81356001600160a01b03811681146200044757600080fd5b9392505050565b60005b838110156200046b57818101518382015260200162000451565b50506000910152565b600081518084526200048e8160208601602086016200044e565b601f01601f19169290920160200192915050565b60006101008a8352896020840152806040840152620004c48184018a62000474565b90508760608401528660808401528560a08401528460c084015282810360e0840152620004f2818562000474565b9b9a5050505050505050505050565b60008251620005158184602087016200044e565b9190910192915050565b60018060a01b038616815284602082015283604082015282606082015260a0608082015260006200055460a083018462000474565b97965050505050505056fe60806040523480156200001157600080fd5b5060405162002527380380620025278339810160408190526200003491620001c4565b8062000040816200009b565b506200004c33620000ad565b6001600455600588905560068790556008620000698782620002f8565b506009859055600a839055600c829055600b849055600d6200008c8282620002f8565b505050505050505050620003c4565b6002620000a98282620002f8565b5050565b600380546001600160a01b038381166001600160a01b0319831681179093556040519116919082907f8be0079c531659141344cd1fd0a4f28419497f9722a3daafe3b4186f6b6457e090600090a35050565b634e487b7160e01b600052604160045260246000fd5b600082601f8301126200012757600080fd5b81516001600160401b0380821115620001445762000144620000ff565b604051601f8301601f19908116603f011681019082821181831017156200016f576200016f620000ff565b816040528381526020925086838588010111156200018c57600080fd5b600091505b83821015620001b0578582018301518183018401529082019062000191565b600093810190920192909252949350505050565b600080600080600080600080610100898b031215620001e257600080fd5b885160208a015160408b015191995097506001600160401b03808211156200020957600080fd5b620002178c838d0162000115565b975060608b0151965060808b0151955060a08b0151945060c08b0151935060e08b01519150808211156200024a57600080fd5b50620002598b828c0162000115565b9150509295985092959890939650565b600181811c908216806200027e57607f821691505b6020821081036200029f57634e487b7160e01b600052602260045260246000fd5b50919050565b601f821115620002f357600081815260208120601f850160051c81016020861015620002ce5750805b601f850160051c820191505b81811015620002ef57828155600101620002da565b5050505b505050565b81516001600160401b03811115620003145762000314620000ff565b6200032c8162000325845462000269565b84620002a5565b602080601f8311600181146200036457600084156200034b5750858301515b600019600386901b1c1916600185901b178555620002ef565b600085815260208120601f198616915b82811015620003955788860151825594840194600190910190840162000374565b5085821015620003b45787850151600019600388901b60f8161c191681555b5050505050600190811b01905550565b61215380620003d46000396000f3fe6080604052600436106101c15760003560e01c80635a7bddbf116100f7578063baffa90311610095578063ed27107b11610064578063ed27107b146104d4578063f1a9af89146104f4578063f242432a1461050a578063f2fde38b1461052a57600080fd5b8063baffa90314610441578063c2560f2a14610456578063cc98ef961461046b578063e985e9c51461048b57600080fd5b8063715018a6116100d1578063715018a6146103d9578063893d20e8146103ee5780638da5cb5b14610403578063a22cb4651461042157600080fd5b80635a7bddbf1461039a578063646f22c5146103af5780636c9c2faf146103c457600080fd5b80631caaa487116101645780632c9cf3521161013e5780632c9cf352146103185780632eb2c2d61461032d5780633bb3a24d1461034d5780634e1273f41461036d57600080fd5b80631caaa487146102a257806320e409b4146102f0578063278a262f1461030357600080fd5b8063047fc9aa116101a0578063047fc9aa1461023f5780630e89341c146102555780631249c58b1461028257806318df458d1461028c57600080fd5b8062fdd58e146101c657806301ffc9a7146101f957806302b7847c14610229575b600080fd5b3480156101d257600080fd5b506101e66101e1366004611852565b61054a565b6040519081526020015b60405180910390f35b34801561020557600080fd5b50610219610214366004611892565b6105e3565b60405190151581526020016101f0565b34801561023557600080fd5b506101e6600a5481565b34801561024b57600080fd5b506101e660095481565b34801561026157600080fd5b506102756102703660046118af565b610633565b6040516101f0919061190e565b61028a61070d565b005b34801561029857600080fd5b506101e6600c5481565b3480156102ae57600080fd5b506102d86102bd3660046118af565b600f602052600090815260409020546001600160a01b031681565b6040516001600160a01b0390911681526020016101f0565b61028a6102fe3660046118af565b610836565b34801561030f57600080fd5b50610275610a7a565b34801561032457600080fd5b50600c546101e6565b34801561033957600080fd5b5061028a610348366004611a6d565b610b08565b34801561035957600080fd5b506102756103683660046118af565b610b54565b34801561037957600080fd5b5061038d610388366004611b17565b610b5f565b6040516101f09190611c1d565b3480156103a657600080fd5b50610275610c89565b3480156103bb57600080fd5b506101e6610d1b565b3480156103d057600080fd5b506009546101e6565b3480156103e557600080fd5b5061028a610d38565b3480156103fa57600080fd5b506102d8610d4c565b34801561040f57600080fd5b506003546001600160a01b03166102d8565b34801561042d57600080fd5b5061028a61043c366004611c30565b610d60565b34801561044d57600080fd5b50600b546101e6565b34801561046257600080fd5b5061028a610d6f565b34801561047757600080fd5b5061028a610486366004611c6c565b610e0f565b34801561049757600080fd5b506102196104a6366004611c87565b6001600160a01b03918216600090815260016020908152604080832093909416825291909152205460ff1690565b3480156104e057600080fd5b506007546102d8906001600160a01b031681565b34801561050057600080fd5b506101e6600b5481565b34801561051657600080fd5b5061028a610525366004611cba565b610e81565b34801561053657600080fd5b5061028a610545366004611c6c565b610ec6565b60006001600160a01b0383166105ba5760405162461bcd60e51b815260206004820152602a60248201527f455243313135353a2061646472657373207a65726f206973206e6f742061207660448201526930b634b21037bbb732b960b11b60648201526084015b60405180910390fd5b506000818152602081815260408083206001600160a01b03861684529091529020545b92915050565b60006001600160e01b03198216636cdb3d1360e11b148061061457506001600160e01b031982166303a24d0760e21b145b806105dd57506301ffc9a760e01b6001600160e01b03198316146105dd565b60608160000361067b5760405162461bcd60e51b81526020600482015260136024820152720546f6b656e49642063616e6e6f74206265203606c1b60448201526064016105b1565b600d805461068890611d1f565b80601f01602080910402602001604051908101604052809291908181526020018280546106b490611d1f565b80156107015780601f106106d657610100808354040283529160200191610701565b820191906000526020600020905b8154815290600101906020018083116106e457829003601f168201915b50505050509050919050565b600954600e54106107585760405162461bcd60e51b815260206004820152601560248201527414dbdc9c9e4b081dd949dc99481cdbdb19081bdd5d605a1b60448201526064016105b1565b600b54341461079b5760405162461bcd60e51b815260206004820152600f60248201526e1d1c985b9cd9995c8819985a5b1959608a1b60448201526064016105b1565b60006107a6600e5490565b600c546107b39190611d6f565b90506107d13382600160405180602001604052806000815250610f3f565b6000818152600f6020526040902080546001600160a01b031916331790556107fd600e80546001019055565b6040516001815233907fb7656808f0e04b4af7a20f7ef1caa7669f0d781f1ca4cba31a3ba467880766c99060200160405180910390a250565b60095461084c82610846600e5490565b90611019565b11156108925760405162461bcd60e51b815260206004820152601560248201527414dbdc9c9e4b081dd949dc99481cdbdb19081bdd5d605a1b60448201526064016105b1565b60006108a9600b548361102c90919063ffffffff16565b90508034146108f15760405162461bcd60e51b81526020600482015260146024820152731554d110c81d1c985b9cd9995c8819985a5b195960621b60448201526064016105b1565b60008267ffffffffffffffff81111561090c5761090c611921565b604051908082528060200260200182016040528015610935578160200160208202803683370190505b50905060008367ffffffffffffffff81111561095357610953611921565b60405190808252806020026020018201604052801561097c578160200160208202803683370190505b50905060005b84811015610a235760006109a1610998600e5490565b600c5490611019565b9050808483815181106109b6576109b6611d82565b6020908102919091018101919091526000828152600f9091526040902080546001600160a01b031916331790556109f1600e80546001019055565b6001838381518110610a0557610a05611d82565b60209081029190910101525080610a1b81611d98565b915050610982565b50610a3f33838360405180602001604052806000815250611038565b60405184815233907fb7656808f0e04b4af7a20f7ef1caa7669f0d781f1ca4cba31a3ba467880766c99060200160405180910390a250505050565b60088054610a8790611d1f565b80601f0160208091040260200160405190810160405280929190818152602001828054610ab390611d1f565b8015610b005780601f10610ad557610100808354040283529160200191610b00565b820191906000526020600020905b815481529060010190602001808311610ae357829003601f168201915b505050505081565b6001600160a01b038516331480610b245750610b2485336104a6565b610b405760405162461bcd60e51b81526004016105b190611db1565b610b4d8585858585611183565b5050505050565b60606105dd82610633565b60608151835114610bc45760405162461bcd60e51b815260206004820152602960248201527f455243313135353a206163636f756e747320616e6420696473206c656e677468604482015268040dad2e6dac2e8c6d60bb1b60648201526084016105b1565b6000835167ffffffffffffffff811115610be057610be0611921565b604051908082528060200260200182016040528015610c09578160200160208202803683370190505b50905060005b8451811015610c8157610c54858281518110610c2d57610c2d611d82565b6020026020010151858381518110610c4757610c47611d82565b602002602001015161054a565b828281518110610c6657610c66611d82565b6020908102919091010152610c7a81611d98565b9050610c0f565b509392505050565b606060088054610c9890611d1f565b80601f0160208091040260200160405190810160405280929190818152602001828054610cc490611d1f565b8015610d115780601f10610ce657610100808354040283529160200191610d11565b820191906000526020600020905b815481529060010190602001808311610cf457829003601f168201915b5050505050905090565b6000610d26600e5490565b600954610d339190611dff565b905090565b610d4061131f565b610d4a6000611379565b565b6000610d336003546001600160a01b031690565b610d6b3383836113cb565b5050565b6007543360009081526001602090815260408083206001600160a01b039094168352929052205460ff1615610df85760405162461bcd60e51b815260206004820152602960248201527f596f75206861766520616c726561647920617070726f76656420746865206d61604482015268726b6574706c61636560b81b60648201526084016105b1565b600754610d4a906001600160a01b03166001610d60565b610e1761131f565b6001600160a01b038116610e5f5760405162461bcd60e51b815260206004820152600f60248201526e496e76616c6964206164647265737360881b60448201526064016105b1565b600780546001600160a01b0319166001600160a01b0392909216919091179055565b6001600160a01b038516331480610e9d5750610e9d85336104a6565b610eb95760405162461bcd60e51b81526004016105b190611db1565b610b4d85858585856114ab565b610ece61131f565b6001600160a01b038116610f335760405162461bcd60e51b815260206004820152602660248201527f4f776e61626c653a206e6577206f776e657220697320746865207a65726f206160448201526564647265737360d01b60648201526084016105b1565b610f3c81611379565b50565b6001600160a01b038416610f655760405162461bcd60e51b81526004016105b190611e12565b336000610f71856115d5565b90506000610f7e856115d5565b90506000868152602081815260408083206001600160a01b038b16845290915281208054879290610fb0908490611d6f565b909155505060408051878152602081018790526001600160a01b03808a1692600092918716917fc3d58168c5ae7397731d063d5bbf3d657854427343f4c083240f7aacaa2d0f62910160405180910390a461101083600089898989611620565b50505050505050565b60006110258284611d6f565b9392505050565b60006110258284611e53565b6001600160a01b03841661105e5760405162461bcd60e51b81526004016105b190611e12565b815183511461107f5760405162461bcd60e51b81526004016105b190611e6a565b3360005b845181101561111b5783818151811061109e5761109e611d82565b60200260200101516000808784815181106110bb576110bb611d82565b602002602001015181526020019081526020016000206000886001600160a01b03166001600160a01b0316815260200190815260200160002060008282546111039190611d6f565b9091555081905061111381611d98565b915050611083565b50846001600160a01b031660006001600160a01b0316826001600160a01b03167f4a39dc06d4c0dbc64b70af90fd698a233a518aa5d07e595d983b8c0526c8f7fb878760405161116c929190611eb2565b60405180910390a4610b4d8160008787878761177b565b81518351146111a45760405162461bcd60e51b81526004016105b190611e6a565b6001600160a01b0384166111ca5760405162461bcd60e51b81526004016105b190611ee0565b3360005b84518110156112b15760008582815181106111eb576111eb611d82565b60200260200101519050600085838151811061120957611209611d82565b602090810291909101810151600084815280835260408082206001600160a01b038e1683529093529190912054909150818110156112595760405162461bcd60e51b81526004016105b190611f25565b6000838152602081815260408083206001600160a01b038e8116855292528083208585039055908b16825281208054849290611296908490611d6f565b92505081905550505050806112aa90611d98565b90506111ce565b50846001600160a01b0316866001600160a01b0316826001600160a01b03167f4a39dc06d4c0dbc64b70af90fd698a233a518aa5d07e595d983b8c0526c8f7fb8787604051611301929190611eb2565b60405180910390a461131781878787878761177b565b505050505050565b6003546001600160a01b03163314610d4a5760405162461bcd60e51b815260206004820181905260248201527f4f776e61626c653a2063616c6c6572206973206e6f7420746865206f776e657260448201526064016105b1565b600380546001600160a01b038381166001600160a01b0319831681179093556040519116919082907f8be0079c531659141344cd1fd0a4f28419497f9722a3daafe3b4186f6b6457e090600090a35050565b816001600160a01b0316836001600160a01b03160361143e5760405162461bcd60e51b815260206004820152602960248201527f455243313135353a2073657474696e6720617070726f76616c20737461747573604482015268103337b91039b2b63360b91b60648201526084016105b1565b6001600160a01b03838116600081815260016020908152604080832094871680845294825291829020805460ff191686151590811790915591519182527f17307eab39ab6107e8899845ad3d59bd9653f200f220920489ca2b5937696c31910160405180910390a3505050565b6001600160a01b0384166114d15760405162461bcd60e51b81526004016105b190611ee0565b3360006114dd856115d5565b905060006114ea856115d5565b90506000868152602081815260408083206001600160a01b038c1684529091529020548581101561152d5760405162461bcd60e51b81526004016105b190611f25565b6000878152602081815260408083206001600160a01b038d8116855292528083208985039055908a1682528120805488929061156a908490611d6f565b909155505060408051888152602081018890526001600160a01b03808b16928c821692918816917fc3d58168c5ae7397731d063d5bbf3d657854427343f4c083240f7aacaa2d0f62910160405180910390a46115ca848a8a8a8a8a611620565b505050505050505050565b6040805160018082528183019092526060916000919060208083019080368337019050509050828160008151811061160f5761160f611d82565b602090810291909101015292915050565b6001600160a01b0384163b156113175760405163f23a6e6160e01b81526001600160a01b0385169063f23a6e61906116649089908990889088908890600401611f6f565b6020604051808303816000875af192505050801561169f575060408051601f3d908101601f1916820190925261169c91810190611fb4565b60015b61174b576116ab611fd1565b806308c379a0036116e457506116bf611fed565b806116ca57506116e6565b8060405162461bcd60e51b81526004016105b1919061190e565b505b60405162461bcd60e51b815260206004820152603460248201527f455243313135353a207472616e7366657220746f206e6f6e2d455243313135356044820152732932b1b2b4bb32b91034b6b83632b6b2b73a32b960611b60648201526084016105b1565b6001600160e01b0319811663f23a6e6160e01b146110105760405162461bcd60e51b81526004016105b190612077565b6001600160a01b0384163b156113175760405163bc197c8160e01b81526001600160a01b0385169063bc197c81906117bf90899089908890889088906004016120bf565b6020604051808303816000875af19250505080156117fa575060408051601f3d908101601f191682019092526117f791810190611fb4565b60015b611806576116ab611fd1565b6001600160e01b0319811663bc197c8160e01b146110105760405162461bcd60e51b81526004016105b190612077565b80356001600160a01b038116811461184d57600080fd5b919050565b6000806040838503121561186557600080fd5b61186e83611836565b946020939093013593505050565b6001600160e01b031981168114610f3c57600080fd5b6000602082840312156118a457600080fd5b81356110258161187c565b6000602082840312156118c157600080fd5b5035919050565b6000815180845260005b818110156118ee576020818501810151868301820152016118d2565b506000602082860101526020601f19601f83011685010191505092915050565b60208152600061102560208301846118c8565b634e487b7160e01b600052604160045260246000fd5b601f8201601f1916810167ffffffffffffffff8111828210171561195d5761195d611921565b6040525050565b600067ffffffffffffffff82111561197e5761197e611921565b5060051b60200190565b600082601f83011261199957600080fd5b813560206119a682611964565b6040516119b38282611937565b83815260059390931b85018201928281019150868411156119d357600080fd5b8286015b848110156119ee57803583529183019183016119d7565b509695505050505050565b600082601f830112611a0a57600080fd5b813567ffffffffffffffff811115611a2457611a24611921565b604051611a3b601f8301601f191660200182611937565b818152846020838601011115611a5057600080fd5b816020850160208301376000918101602001919091529392505050565b600080600080600060a08688031215611a8557600080fd5b611a8e86611836565b9450611a9c60208701611836565b9350604086013567ffffffffffffffff80821115611ab957600080fd5b611ac589838a01611988565b94506060880135915080821115611adb57600080fd5b611ae789838a01611988565b93506080880135915080821115611afd57600080fd5b50611b0a888289016119f9565b9150509295509295909350565b60008060408385031215611b2a57600080fd5b823567ffffffffffffffff80821115611b4257600080fd5b818501915085601f830112611b5657600080fd5b81356020611b6382611964565b604051611b708282611937565b83815260059390931b8501820192828101915089841115611b9057600080fd5b948201945b83861015611bb557611ba686611836565b82529482019490820190611b95565b96505086013592505080821115611bcb57600080fd5b50611bd885828601611988565b9150509250929050565b600081518084526020808501945080840160005b83811015611c1257815187529582019590820190600101611bf6565b509495945050505050565b6020815260006110256020830184611be2565b60008060408385031215611c4357600080fd5b611c4c83611836565b915060208301358015158114611c6157600080fd5b809150509250929050565b600060208284031215611c7e57600080fd5b61102582611836565b60008060408385031215611c9a57600080fd5b611ca383611836565b9150611cb160208401611836565b90509250929050565b600080600080600060a08688031215611cd257600080fd5b611cdb86611836565b9450611ce960208701611836565b93506040860135925060608601359150608086013567ffffffffffffffff811115611d1357600080fd5b611b0a888289016119f9565b600181811c90821680611d3357607f821691505b602082108103611d5357634e487b7160e01b600052602260045260246000fd5b50919050565b634e487b7160e01b600052601160045260246000fd5b808201808211156105dd576105dd611d59565b634e487b7160e01b600052603260045260246000fd5b600060018201611daa57611daa611d59565b5060010190565b6020808252602e908201527f455243313135353a2063616c6c6572206973206e6f7420746f6b656e206f776e60408201526d195c881bdc88185c1c1c9bdd995960921b606082015260800190565b818103818111156105dd576105dd611d59565b60208082526021908201527f455243313135353a206d696e7420746f20746865207a65726f206164647265736040820152607360f81b606082015260800190565b80820281158282048414176105dd576105dd611d59565b60208082526028908201527f455243313135353a2069647320616e6420616d6f756e7473206c656e677468206040820152670dad2e6dac2e8c6d60c31b606082015260800190565b604081526000611ec56040830185611be2565b8281036020840152611ed78185611be2565b95945050505050565b60208082526025908201527f455243313135353a207472616e7366657220746f20746865207a65726f206164604082015264647265737360d81b606082015260800190565b6020808252602a908201527f455243313135353a20696e73756666696369656e742062616c616e636520666f60408201526939103a3930b739b332b960b11b606082015260800190565b6001600160a01b03868116825285166020820152604081018490526060810183905260a060808201819052600090611fa9908301846118c8565b979650505050505050565b600060208284031215611fc657600080fd5b81516110258161187c565b600060033d1115611fea5760046000803e5060005160e01c5b90565b600060443d1015611ffb5790565b6040516003193d81016004833e81513d67ffffffffffffffff816024840111818411171561202b57505050505090565b82850191508151818111156120435750505050505090565b843d870101602082850101111561205d5750505050505090565b61206c60208286010187611937565b509095945050505050565b60208082526028908201527f455243313135353a204552433131353552656365697665722072656a656374656040820152676420746f6b656e7360c01b606082015260800190565b6001600160a01b0386811682528516602082015260a0604082018190526000906120eb90830186611be2565b82810360608401526120fd8186611be2565b9050828103608084015261211181856118c8565b9897505050505050505056fea26469706673582212200864153c9398f4d573632627bada3e78aee96769edecd8025a409fd9265911b864736f6c63430008130033a2646970667358221220f7dfb8fb5eec7b0585b85ed961e22c67ff67e58a6c5b9d0b1c0feb86a830ddfd64736f6c63430008130033",
  "linkReferences": {},
  "deployedLinkReferences": {}
}