{
  "_format": "hh-sol-artifact-1",
  "contractName": "StandingNftContract",
  "sourceName": "contracts/StandingNftContract.sol",
  "abi": [
    {
      "inputs": [
        {
          "internalType": "uint256",
          "name": "_eventId",
          "type": "uint256"
        },
        {
          "internalType": "uint256",
          "name": "_session",
          "type": "uint256"
        },
        {
          "internalType": "string",
          "name": "_section",
          "type": "string"
        },
        {
          "internalType": "uint256",
          "name": "_supply",
          "type": "uint256"
        },
        {
          "internalType": "uint256",
          "name": "_startPrice",
          "type": "uint256"
        },
        {
          "internalType": "uint256",
          "name": "_priceCap",
          "type": "uint256"
        },
        {
          "internalType": "string",
          "name": "_nftMeta",
          "type": "string"
        }
      ],
      "stateMutability": "nonpayable",
      "type": "constructor"
    },
    {
      "anonymous": false,
      "inputs": [
        {
          "indexed": true,
          "internalType": "address",
          "name": "account",
          "type": "address"
        },
        {
          "indexed": true,
          "internalType": "address",
          "name": "operator",
          "type": "address"
        },
        {
          "indexed": false,
          "internalType": "bool",
          "name": "approved",
          "type": "bool"
        }
      ],
      "name": "ApprovalForAll",
      "type": "event"
    },
    {
      "anonymous": false,
      "inputs": [
        {
          "indexed": true,
          "internalType": "address",
          "name": "previousOwner",
          "type": "address"
        },
        {
          "indexed": true,
          "internalType": "address",
          "name": "newOwner",
          "type": "address"
        }
      ],
      "name": "OwnershipTransferred",
      "type": "event"
    },
    {
      "anonymous": false,
      "inputs": [
        {
          "indexed": true,
          "internalType": "address",
          "name": "operator",
          "type": "address"
        },
        {
          "indexed": true,
          "internalType": "address",
          "name": "from",
          "type": "address"
        },
        {
          "indexed": true,
          "internalType": "address",
          "name": "to",
          "type": "address"
        },
        {
          "indexed": false,
          "internalType": "uint256[]",
          "name": "ids",
          "type": "uint256[]"
        },
        {
          "indexed": false,
          "internalType": "uint256[]",
          "name": "values",
          "type": "uint256[]"
        }
      ],
      "name": "TransferBatch",
      "type": "event"
    },
    {
      "anonymous": false,
      "inputs": [
        {
          "indexed": true,
          "internalType": "address",
          "name": "operator",
          "type": "address"
        },
        {
          "indexed": true,
          "internalType": "address",
          "name": "from",
          "type": "address"
        },
        {
          "indexed": true,
          "internalType": "address",
          "name": "to",
          "type": "address"
        },
        {
          "indexed": false,
          "internalType": "uint256",
          "name": "id",
          "type": "uint256"
        },
        {
          "indexed": false,
          "internalType": "uint256",
          "name": "value",
          "type": "uint256"
        }
      ],
      "name": "TransferSingle",
      "type": "event"
    },
    {
      "anonymous": false,
      "inputs": [
        {
          "indexed": false,
          "internalType": "string",
          "name": "value",
          "type": "string"
        },
        {
          "indexed": true,
          "internalType": "uint256",
          "name": "id",
          "type": "uint256"
        }
      ],
      "name": "URI",
      "type": "event"
    },
    {
      "inputs": [],
      "name": "approveMarket",
      "outputs": [],
      "stateMutability": "nonpayable",
      "type": "function"
    },
    {
      "inputs": [
        {
          "internalType": "address",
          "name": "account",
          "type": "address"
        },
        {
          "internalType": "uint256",
          "name": "id",
          "type": "uint256"
        }
      ],
      "name": "balanceOf",
      "outputs": [
        {
          "internalType": "uint256",
          "name": "",
          "type": "uint256"
        }
      ],
      "stateMutability": "view",
      "type": "function"
    },
    {
      "inputs": [
        {
          "internalType": "address[]",
          "name": "accounts",
          "type": "address[]"
        },
        {
          "internalType": "uint256[]",
          "name": "ids",
          "type": "uint256[]"
        }
      ],
      "name": "balanceOfBatch",
      "outputs": [
        {
          "internalType": "uint256[]",
          "name": "",
          "type": "uint256[]"
        }
      ],
      "stateMutability": "view",
      "type": "function"
    },
    {
      "inputs": [],
      "name": "getOwner",
      "outputs": [
        {
          "internalType": "address",
          "name": "",
          "type": "address"
        }
      ],
      "stateMutability": "view",
      "type": "function"
    },
    {
      "inputs": [],
      "name": "getPriceCap",
      "outputs": [
        {
          "internalType": "uint256",
          "name": "",
          "type": "uint256"
        }
      ],
      "stateMutability": "view",
      "type": "function"
    },
    {
      "inputs": [],
      "name": "getSection",
      "outputs": [
        {
          "internalType": "string",
          "name": "",
          "type": "string"
        }
      ],
      "stateMutability": "pure",
      "type": "function"
    },
    {
      "inputs": [],
      "name": "getStartPrice",
      "outputs": [
        {
          "internalType": "uint256",
          "name": "",
          "type": "uint256"
        }
      ],
      "stateMutability": "view",
      "type": "function"
    },
    {
      "inputs": [],
      "name": "getStartSeat",
      "outputs": [
        {
          "internalType": "uint256",
          "name": "",
          "type": "uint256"
        }
      ],
      "stateMutability": "pure",
      "type": "function"
    },
    {
      "inputs": [],
      "name": "getSupply",
      "outputs": [
        {
          "internalType": "uint256",
          "name": "",
          "type": "uint256"
        }
      ],
      "stateMutability": "view",
      "type": "function"
    },
    {
      "inputs": [],
      "name": "getTicketsLeft",
      "outputs": [
        {
          "internalType": "uint256",
          "name": "",
          "type": "uint256"
        }
      ],
      "stateMutability": "view",
      "type": "function"
    },
    {
      "inputs": [
        {
          "internalType": "uint256",
          "name": "_tokenid",
          "type": "uint256"
        }
      ],
      "name": "getTokenURI",
      "outputs": [
        {
          "internalType": "string",
          "name": "",
          "type": "string"
        }
      ],
      "stateMutability": "view",
      "type": "function"
    },
    {
      "inputs": [
        {
          "internalType": "address",
          "name": "account",
          "type": "address"
        },
        {
          "internalType": "address",
          "name": "operator",
          "type": "address"
        }
      ],
      "name": "isApprovedForAll",
      "outputs": [
        {
          "internalType": "bool",
          "name": "",
          "type": "bool"
        }
      ],
      "stateMutability": "view",
      "type": "function"
    },
    {
      "inputs": [],
      "name": "marketPlaceAddress",
      "outputs": [
        {
          "internalType": "address",
          "name": "",
          "type": "address"
        }
      ],
      "stateMutability": "view",
      "type": "function"
    },
    {
      "inputs": [],
      "name": "mint",
      "outputs": [],
      "stateMutability": "payable",
      "type": "function"
    },
    {
      "inputs": [
        {
          "internalType": "uint256",
          "name": "_amount",
          "type": "uint256"
        }
      ],
      "name": "mintBatch",
      "outputs": [],
      "stateMutability": "payable",
      "type": "function"
    },
    {
      "inputs": [],
      "name": "mintCount",
      "outputs": [
        {
          "internalType": "uint256",
          "name": "",
          "type": "uint256"
        }
      ],
      "stateMutability": "view",
      "type": "function"
    },
    {
      "inputs": [],
      "name": "owner",
      "outputs": [
        {
          "internalType": "address",
          "name": "",
          "type": "address"
        }
      ],
      "stateMutability": "view",
      "type": "function"
    },
    {
      "inputs": [],
      "name": "priceCap",
      "outputs": [
        {
          "internalType": "uint256",
          "name": "",
          "type": "uint256"
        }
      ],
      "stateMutability": "view",
      "type": "function"
    },
    {
      "inputs": [],
      "name": "renounceOwnership",
      "outputs": [],
      "stateMutability": "nonpayable",
      "type": "function"
    },
    {
      "inputs": [
        {
          "internalType": "address",
          "name": "from",
          "type": "address"
        },
        {
          "internalType": "address",
          "name": "to",
          "type": "address"
        },
        {
          "internalType": "uint256[]",
          "name": "ids",
          "type": "uint256[]"
        },
        {
          "internalType": "uint256[]",
          "name": "amounts",
          "type": "uint256[]"
        },
        {
          "internalType": "bytes",
          "name": "data",
          "type": "bytes"
        }
      ],
      "name": "safeBatchTransferFrom",
      "outputs": [],
      "stateMutability": "nonpayable",
      "type": "function"
    },
    {
      "inputs": [
        {
          "internalType": "address",
          "name": "from",
          "type": "address"
        },
        {
          "internalType": "address",
          "name": "to",
          "type": "address"
        },
        {
          "internalType": "uint256",
          "name": "id",
          "type": "uint256"
        },
        {
          "internalType": "uint256",
          "name": "amount",
          "type": "uint256"
        },
        {
          "internalType": "bytes",
          "name": "data",
          "type": "bytes"
        }
      ],
      "name": "safeTransferFrom",
      "outputs": [],
      "stateMutability": "nonpayable",
      "type": "function"
    },
    {
      "inputs": [],
      "name": "section",
      "outputs": [
        {
          "internalType": "string",
          "name": "",
          "type": "string"
        }
      ],
      "stateMutability": "view",
      "type": "function"
    },
    {
      "inputs": [],
      "name": "sessionId",
      "outputs": [
        {
          "internalType": "uint256",
          "name": "",
          "type": "uint256"
        }
      ],
      "stateMutability": "view",
      "type": "function"
    },
    {
      "inputs": [
        {
          "internalType": "address",
          "name": "operator",
          "type": "address"
        },
        {
          "internalType": "bool",
          "name": "approved",
          "type": "bool"
        }
      ],
      "name": "setApprovalForAll",
      "outputs": [],
      "stateMutability": "nonpayable",
      "type": "function"
    },
    {
      "inputs": [
        {
          "internalType": "address",
          "name": "_marketPlaceAddress",
          "type": "address"
        }
      ],
      "name": "setMarketPlaceAddress",
      "outputs": [],
      "stateMutability": "nonpayable",
      "type": "function"
    },
    {
      "inputs": [],
      "name": "startPrice",
      "outputs": [
        {
          "internalType": "uint256",
          "name": "",
          "type": "uint256"
        }
      ],
      "stateMutability": "view",
      "type": "function"
    },
    {
      "inputs": [],
      "name": "supply",
      "outputs": [
        {
          "internalType": "uint256",
          "name": "",
          "type": "uint256"
        }
      ],
      "stateMutability": "view",
      "type": "function"
    },
    {
      "inputs": [
        {
          "internalType": "bytes4",
          "name": "interfaceId",
          "type": "bytes4"
        }
      ],
      "name": "supportsInterface",
      "outputs": [
        {
          "internalType": "bool",
          "name": "",
          "type": "bool"
        }
      ],
      "stateMutability": "view",
      "type": "function"
    },
    {
      "inputs": [
        {
          "internalType": "address",
          "name": "newOwner",
          "type": "address"
        }
      ],
      "name": "transferOwnership",
      "outputs": [],
      "stateMutability": "nonpayable",
      "type": "function"
    },
    {
      "inputs": [
        {
          "internalType": "uint256",
          "name": "_tokenid",
          "type": "uint256"
        }
      ],
      "name": "uri",
      "outputs": [
        {
          "internalType": "string",
          "name": "",
          "type": "string"
        }
      ],
      "stateMutability": "view",
      "type": "function"
    }
  ],
  "bytecode": "0x60806040523480156200001157600080fd5b5060405162002374380380620023748339810160408190526200003491620001be565b80620000408162000095565b506200004c33620000a7565b600487905560078690556006620000648682620002e8565b506008849055600a83905560098290556000600b55600c620000878282620002e8565b5050505050505050620003b4565b6002620000a38282620002e8565b5050565b600380546001600160a01b038381166001600160a01b0319831681179093556040519116919082907f8be0079c531659141344cd1fd0a4f28419497f9722a3daafe3b4186f6b6457e090600090a35050565b634e487b7160e01b600052604160045260246000fd5b600082601f8301126200012157600080fd5b81516001600160401b03808211156200013e576200013e620000f9565b604051601f8301601f19908116603f01168101908282118183101715620001695762000169620000f9565b816040528381526020925086838588010111156200018657600080fd5b600091505b83821015620001aa57858201830151818301840152908201906200018b565b600093810190920192909252949350505050565b600080600080600080600060e0888a031215620001da57600080fd5b8751602089015160408a015191985096506001600160401b03808211156200020157600080fd5b6200020f8b838c016200010f565b965060608a0151955060808a0151945060a08a0151935060c08a01519150808211156200023b57600080fd5b506200024a8a828b016200010f565b91505092959891949750929550565b600181811c908216806200026e57607f821691505b6020821081036200028f57634e487b7160e01b600052602260045260246000fd5b50919050565b601f821115620002e357600081815260208120601f850160051c81016020861015620002be5750805b601f850160051c820191505b81811015620002df57828155600101620002ca565b5050505b505050565b81516001600160401b03811115620003045762000304620000f9565b6200031c8162000315845462000259565b8462000295565b602080601f8311600181146200035457600084156200033b5750858301515b600019600386901b1c1916600185901b178555620002df565b600085815260208120601f198616915b82811015620003855788860151825594840194600190910190840162000364565b5085821015620003a45787850151600019600388901b60f8161c191681555b5050505050600190811b01905550565b611fb080620003c46000396000f3fe60806040526004361061015c5760003560e01c8062fdd58e1461016157806301ffc9a71461019457806302b7847c146101c4578063047fc9aa146101da5780630e89341c146101f05780631249c58b1461021d57806320e409b414610227578063278a262f1461023a5780632c9cf3521461024f5780632eb2c2d6146102635780633bb3a24d146102835780634c7afe60146102a35780634e1273f4146102b85780635a7bddbf146102e5578063646f22c51461031e5780636c9c2faf14610333578063715018a614610348578063893d20e81461035d5780638da5cb5b1461038a5780639648c9f41461039f5780639659867e146103b5578063a22cb465146103cb578063baffa903146103eb578063c2560f2a14610400578063cc98ef9614610415578063e985e9c514610435578063ed27107b14610455578063f1a9af8914610475578063f242432a1461048b578063f2fde38b146104ab575b600080fd5b34801561016d57600080fd5b5061018161017c36600461166f565b6104cb565b6040519081526020015b60405180910390f35b3480156101a057600080fd5b506101b46101af3660046116af565b610564565b604051901515815260200161018b565b3480156101d057600080fd5b5061018160095481565b3480156101e657600080fd5b5061018160085481565b3480156101fc57600080fd5b5061021061020b3660046116d3565b6105b4565b60405161018b9190611732565b610225610686565b005b6102256102353660046116d3565b61074f565b34801561024657600080fd5b50610210610959565b34801561025b57600080fd5b506000610181565b34801561026f57600080fd5b5061022561027e36600461188e565b6109e7565b34801561028f57600080fd5b5061021061029e3660046116d3565b610a33565b3480156102af57600080fd5b50600954610181565b3480156102c457600080fd5b506102d86102d3366004611937565b610a3e565b60405161018b9190611a3c565b3480156102f157600080fd5b5060408051808201909152601081526f29ba30b73234b7339039b2b1ba34b7b760811b6020820152610210565b34801561032a57600080fd5b50610181610b67565b34801561033f57600080fd5b50600854610181565b34801561035457600080fd5b50610225610b7e565b34801561036957600080fd5b50610372610b92565b6040516001600160a01b03909116815260200161018b565b34801561039657600080fd5b50610372610b98565b3480156103ab57600080fd5b5061018160075481565b3480156103c157600080fd5b50610181600b5481565b3480156103d757600080fd5b506102256103e6366004611a4f565b610ba7565b3480156103f757600080fd5b50600a54610181565b34801561040c57600080fd5b50610225610bb6565b34801561042157600080fd5b50610225610430366004611a8b565b610c43565b34801561044157600080fd5b506101b4610450366004611aa6565b610cb5565b34801561046157600080fd5b50600554610372906001600160a01b031681565b34801561048157600080fd5b50610181600a5481565b34801561049757600080fd5b506102256104a6366004611ad9565b610ce3565b3480156104b757600080fd5b506102256104c6366004611a8b565b610d28565b60006001600160a01b03831661053b5760405162461bcd60e51b815260206004820152602a60248201527f455243313135353a2061646472657373207a65726f206973206e6f742061207660448201526930b634b21037bbb732b960b11b60648201526084015b60405180910390fd5b506000818152602081815260408083206001600160a01b03861684529091529020545b92915050565b60006001600160e01b03198216636cdb3d1360e11b148061059557506001600160e01b031982166303a24d0760e21b145b8061055e57506301ffc9a760e01b6001600160e01b031983161461055e565b606081156105f45760405162461bcd60e51b815260206004820152600d60248201526c0746f6b656e4964206e6f74203609c1b6044820152606401610532565b600c805461060190611b3d565b80601f016020809104026020016040519081016040528092919081815260200182805461062d90611b3d565b801561067a5780601f1061064f5761010080835404028352916020019161067a565b820191906000526020600020905b81548152906001019060200180831161065d57829003601f168201915b50505050509050919050565b600a5434146106d05760405162461bcd60e51b81526020600482015260166024820152751d1c985b9cd9995c88185b5bdd5b9d0819985a5b195960521b6044820152606401610532565b600854600b541061071b5760405162461bcd60e51b815260206004820152601560248201527414dbdc9c9e4b081dd949dc99481cdbdb19081bdd5d605a1b6044820152606401610532565b610738336000600160405180602001604052806000815250610da1565b600b805490600061074883611b8d565b9190505550565b600181116107be5760405162461bcd60e51b815260206004820152603660248201527f546f2075736520746869732066756e6374696f6e2c20746865726520686173206044820152751d1bc81899481b5bdc99481391951cc81b5a5b9d195960521b6064820152608401610532565b600854600b546107ce9083611ba6565b11156108425760405162461bcd60e51b815260206004820152603d60248201527f54686520616d6f756e7420796f75207769736820746f2070757263686173652060448201527f6973206d6f7265207468616e20746865207469636b657473206c6566740000006064820152608401610532565b6000600a54826108529190611bb9565b905080341461089b5760405162461bcd60e51b81526020600482015260156024820152747472616e7366657220616d6f756e742066616c736560581b6044820152606401610532565b60408051600180825281830190925260009160208083019080368337505060408051600180825281830190925292935060009291506020808301908036833701905050905083826000815181106108f4576108f4611bd0565b60200260200101818152505060008160008151811061091557610915611bd0565b60200260200101818152505061093c33828460405180602001604052806000815250610e69565b83600b600082825461094e9190611ba6565b909155505050505050565b6006805461096690611b3d565b80601f016020809104026020016040519081016040528092919081815260200182805461099290611b3d565b80156109df5780601f106109b4576101008083540402835291602001916109df565b820191906000526020600020905b8154815290600101906020018083116109c257829003601f168201915b505050505081565b6001600160a01b038516331480610a035750610a038533610cb5565b610a1f5760405162461bcd60e51b815260040161053290611be6565b610a2c8585858585610fa2565b5050505050565b606061055e826105b4565b60608151835114610aa35760405162461bcd60e51b815260206004820152602960248201527f455243313135353a206163636f756e747320616e6420696473206c656e677468604482015268040dad2e6dac2e8c6d60bb1b6064820152608401610532565b600083516001600160401b03811115610abe57610abe611745565b604051908082528060200260200182016040528015610ae7578160200160208202803683370190505b50905060005b8451811015610b5f57610b32858281518110610b0b57610b0b611bd0565b6020026020010151858381518110610b2557610b25611bd0565b60200260200101516104cb565b828281518110610b4457610b44611bd0565b6020908102919091010152610b5881611b8d565b9050610aed565b509392505050565b6000600b54600854610b799190611c34565b905090565b610b8661112c565b610b90600061118b565b565b6000610b795b6003546001600160a01b031690565b610bb23383836111dd565b5050565b600554610bcd9033906001600160a01b0316610cb5565b15610c2c5760405162461bcd60e51b815260206004820152602960248201527f596f75206861766520616c726561647920617070726f76656420746865206d61604482015268726b6574706c61636560b81b6064820152608401610532565b600554610b90906001600160a01b03166001610ba7565b610c4b61112c565b6001600160a01b038116610c935760405162461bcd60e51b815260206004820152600f60248201526e496e76616c6964206164647265737360881b6044820152606401610532565b600580546001600160a01b0319166001600160a01b0392909216919091179055565b6001600160a01b03918216600090815260016020908152604080832093909416825291909152205460ff1690565b6001600160a01b038516331480610cff5750610cff8533610cb5565b610d1b5760405162461bcd60e51b815260040161053290611be6565b610a2c85858585856112bd565b610d3061112c565b6001600160a01b038116610d955760405162461bcd60e51b815260206004820152602660248201527f4f776e61626c653a206e6577206f776e657220697320746865207a65726f206160448201526564647265737360d01b6064820152608401610532565b610d9e8161118b565b50565b6001600160a01b038416610dc75760405162461bcd60e51b815260040161053290611c47565b336000610dd3856113d5565b90506000610de0856113d5565b90506000868152602081815260408083206001600160a01b038b16845290915281208054879290610e12908490611ba6565b909155505060408051878152602081018790526001600160a01b03808a169260009291871691600080516020611f5b833981519152910160405180910390a4610e6083600089898989611420565b50505050505050565b6001600160a01b038416610e8f5760405162461bcd60e51b815260040161053290611c47565b8151835114610eb05760405162461bcd60e51b815260040161053290611c88565b3360005b8451811015610f4c57838181518110610ecf57610ecf611bd0565b6020026020010151600080878481518110610eec57610eec611bd0565b602002602001015181526020019081526020016000206000886001600160a01b03166001600160a01b031681526020019081526020016000206000828254610f349190611ba6565b90915550819050610f4481611b8d565b915050610eb4565b50846001600160a01b031660006001600160a01b0316826001600160a01b0316600080516020611f3b8339815191528787604051610f8b929190611cd0565b60405180910390a4610a2c81600087878787611582565b8151835114610fc35760405162461bcd60e51b815260040161053290611c88565b6001600160a01b038416610fe95760405162461bcd60e51b815260040161053290611cfe565b3360005b84518110156110d057600085828151811061100a5761100a611bd0565b60200260200101519050600085838151811061102857611028611bd0565b602090810291909101810151600084815280835260408082206001600160a01b038e1683529093529190912054909150818110156110785760405162461bcd60e51b815260040161053290611d43565b6000838152602081815260408083206001600160a01b038e8116855292528083208585039055908b168252812080548492906110b5908490611ba6565b92505081905550505050806110c990611b8d565b9050610fed565b50846001600160a01b0316866001600160a01b0316826001600160a01b0316600080516020611f3b833981519152878760405161110e929190611cd0565b60405180910390a4611124818787878787611582565b505050505050565b33611135610b98565b6001600160a01b031614610b905760405162461bcd60e51b815260206004820181905260248201527f4f776e61626c653a2063616c6c6572206973206e6f7420746865206f776e65726044820152606401610532565b600380546001600160a01b038381166001600160a01b0319831681179093556040519116919082907f8be0079c531659141344cd1fd0a4f28419497f9722a3daafe3b4186f6b6457e090600090a35050565b816001600160a01b0316836001600160a01b0316036112505760405162461bcd60e51b815260206004820152602960248201527f455243313135353a2073657474696e6720617070726f76616c20737461747573604482015268103337b91039b2b63360b91b6064820152608401610532565b6001600160a01b03838116600081815260016020908152604080832094871680845294825291829020805460ff191686151590811790915591519182527f17307eab39ab6107e8899845ad3d59bd9653f200f220920489ca2b5937696c31910160405180910390a3505050565b6001600160a01b0384166112e35760405162461bcd60e51b815260040161053290611cfe565b3360006112ef856113d5565b905060006112fc856113d5565b90506000868152602081815260408083206001600160a01b038c1684529091529020548581101561133f5760405162461bcd60e51b815260040161053290611d43565b6000878152602081815260408083206001600160a01b038d8116855292528083208985039055908a1682528120805488929061137c908490611ba6565b909155505060408051888152602081018890526001600160a01b03808b16928c82169291881691600080516020611f5b833981519152910160405180910390a46113ca848a8a8a8a8a611420565b505050505050505050565b6040805160018082528183019092526060916000919060208083019080368337019050509050828160008151811061140f5761140f611bd0565b602090810291909101015292915050565b611432846001600160a01b0316611644565b156111245760405163f23a6e6160e01b81526001600160a01b0385169063f23a6e619061146b9089908990889088908890600401611d8d565b6020604051808303816000875af19250505080156114a6575060408051601f3d908101601f191682019092526114a391810190611dd2565b60015b611552576114b2611def565b806308c379a0036114eb57506114c6611e0b565b806114d157506114ed565b8060405162461bcd60e51b81526004016105329190611732565b505b60405162461bcd60e51b815260206004820152603460248201527f455243313135353a207472616e7366657220746f206e6f6e2d455243313135356044820152732932b1b2b4bb32b91034b6b83632b6b2b73a32b960611b6064820152608401610532565b6001600160e01b0319811663f23a6e6160e01b14610e605760405162461bcd60e51b815260040161053290611e94565b611594846001600160a01b0316611644565b156111245760405163bc197c8160e01b81526001600160a01b0385169063bc197c81906115cd9089908990889088908890600401611edc565b6020604051808303816000875af1925050508015611608575060408051601f3d908101601f1916820190925261160591810190611dd2565b60015b611614576114b2611def565b6001600160e01b0319811663bc197c8160e01b14610e605760405162461bcd60e51b815260040161053290611e94565b6001600160a01b03163b151590565b80356001600160a01b038116811461166a57600080fd5b919050565b6000806040838503121561168257600080fd5b61168b83611653565b946020939093013593505050565b6001600160e01b031981168114610d9e57600080fd5b6000602082840312156116c157600080fd5b81356116cc81611699565b9392505050565b6000602082840312156116e557600080fd5b5035919050565b6000815180845260005b81811015611712576020818501810151868301820152016116f6565b506000602082860101526020601f19601f83011685010191505092915050565b6020815260006116cc60208301846116ec565b634e487b7160e01b600052604160045260246000fd5b601f8201601f191681016001600160401b038111828210171561178057611780611745565b6040525050565b60006001600160401b038211156117a0576117a0611745565b5060051b60200190565b600082601f8301126117bb57600080fd5b813560206117c882611787565b6040516117d5828261175b565b83815260059390931b85018201928281019150868411156117f557600080fd5b8286015b8481101561181057803583529183019183016117f9565b509695505050505050565b600082601f83011261182c57600080fd5b81356001600160401b0381111561184557611845611745565b60405161185c601f8301601f19166020018261175b565b81815284602083860101111561187157600080fd5b816020850160208301376000918101602001919091529392505050565b600080600080600060a086880312156118a657600080fd5b6118af86611653565b94506118bd60208701611653565b935060408601356001600160401b03808211156118d957600080fd5b6118e589838a016117aa565b945060608801359150808211156118fb57600080fd5b61190789838a016117aa565b9350608088013591508082111561191d57600080fd5b5061192a8882890161181b565b9150509295509295909350565b6000806040838503121561194a57600080fd5b82356001600160401b038082111561196157600080fd5b818501915085601f83011261197557600080fd5b8135602061198282611787565b60405161198f828261175b565b83815260059390931b85018201928281019150898411156119af57600080fd5b948201945b838610156119d4576119c586611653565b825294820194908201906119b4565b965050860135925050808211156119ea57600080fd5b506119f7858286016117aa565b9150509250929050565b600081518084526020808501945080840160005b83811015611a3157815187529582019590820190600101611a15565b509495945050505050565b6020815260006116cc6020830184611a01565b60008060408385031215611a6257600080fd5b611a6b83611653565b915060208301358015158114611a8057600080fd5b809150509250929050565b600060208284031215611a9d57600080fd5b6116cc82611653565b60008060408385031215611ab957600080fd5b611ac283611653565b9150611ad060208401611653565b90509250929050565b600080600080600060a08688031215611af157600080fd5b611afa86611653565b9450611b0860208701611653565b9350604086013592506060860135915060808601356001600160401b03811115611b3157600080fd5b61192a8882890161181b565b600181811c90821680611b5157607f821691505b602082108103611b7157634e487b7160e01b600052602260045260246000fd5b50919050565b634e487b7160e01b600052601160045260246000fd5b600060018201611b9f57611b9f611b77565b5060010190565b8082018082111561055e5761055e611b77565b808202811582820484141761055e5761055e611b77565b634e487b7160e01b600052603260045260246000fd5b6020808252602e908201527f455243313135353a2063616c6c6572206973206e6f7420746f6b656e206f776e60408201526d195c881bdc88185c1c1c9bdd995960921b606082015260800190565b8181038181111561055e5761055e611b77565b60208082526021908201527f455243313135353a206d696e7420746f20746865207a65726f206164647265736040820152607360f81b606082015260800190565b60208082526028908201527f455243313135353a2069647320616e6420616d6f756e7473206c656e677468206040820152670dad2e6dac2e8c6d60c31b606082015260800190565b604081526000611ce36040830185611a01565b8281036020840152611cf58185611a01565b95945050505050565b60208082526025908201527f455243313135353a207472616e7366657220746f20746865207a65726f206164604082015264647265737360d81b606082015260800190565b6020808252602a908201527f455243313135353a20696e73756666696369656e742062616c616e636520666f60408201526939103a3930b739b332b960b11b606082015260800190565b6001600160a01b03868116825285166020820152604081018490526060810183905260a060808201819052600090611dc7908301846116ec565b979650505050505050565b600060208284031215611de457600080fd5b81516116cc81611699565b600060033d1115611e085760046000803e5060005160e01c5b90565b600060443d1015611e195790565b6040516003193d81016004833e81513d6001600160401b038083116024840183101715611e4857505050505090565b8285019150815181811115611e605750505050505090565b843d8701016020828501011115611e7a5750505050505090565b611e896020828601018761175b565b509095945050505050565b60208082526028908201527f455243313135353a204552433131353552656365697665722072656a656374656040820152676420746f6b656e7360c01b606082015260800190565b6001600160a01b0386811682528516602082015260a060408201819052600090611f0890830186611a01565b8281036060840152611f1a8186611a01565b90508281036080840152611f2e81856116ec565b9897505050505050505056fe4a39dc06d4c0dbc64b70af90fd698a233a518aa5d07e595d983b8c0526c8f7fbc3d58168c5ae7397731d063d5bbf3d657854427343f4c083240f7aacaa2d0f62a26469706673582212206e7de006ae41ac862a484c64663db32f4f3ae79ffed98bb3832ba8d6e899fdc164736f6c63430008130033",
  "linkReferences": {},
  "deployedLinkReferences": {}
}