{
  "_format": "hh-sol-artifact-1",
  "contractName": "StandingNftContract",
  "sourceName": "contracts/StandingNftContract.sol",
  "abi": [
    {
      "inputs": [
        {
          "internalType": "uint256",
          "name": "_eventId",
          "type": "uint256"
        },
        {
          "internalType": "uint256",
          "name": "_session",
          "type": "uint256"
        },
        {
          "internalType": "string",
          "name": "_section",
          "type": "string"
        },
        {
          "internalType": "uint256",
          "name": "_supply",
          "type": "uint256"
        },
        {
          "internalType": "uint256",
          "name": "_startPrice",
          "type": "uint256"
        },
        {
          "internalType": "uint256",
          "name": "_priceCap",
          "type": "uint256"
        },
        {
          "internalType": "string",
          "name": "_event",
          "type": "string"
        },
        {
          "internalType": "address",
          "name": "_usdc",
          "type": "address"
        }
      ],
      "stateMutability": "nonpayable",
      "type": "constructor"
    },
    {
      "anonymous": false,
      "inputs": [
        {
          "indexed": true,
          "internalType": "address",
          "name": "account",
          "type": "address"
        },
        {
          "indexed": true,
          "internalType": "address",
          "name": "operator",
          "type": "address"
        },
        {
          "indexed": false,
          "internalType": "bool",
          "name": "approved",
          "type": "bool"
        }
      ],
      "name": "ApprovalForAll",
      "type": "event"
    },
    {
      "anonymous": false,
      "inputs": [
        {
          "indexed": true,
          "internalType": "address",
          "name": "previousOwner",
          "type": "address"
        },
        {
          "indexed": true,
          "internalType": "address",
          "name": "newOwner",
          "type": "address"
        }
      ],
      "name": "OwnershipTransferred",
      "type": "event"
    },
    {
      "anonymous": false,
      "inputs": [
        {
          "indexed": true,
          "internalType": "address",
          "name": "operator",
          "type": "address"
        },
        {
          "indexed": true,
          "internalType": "address",
          "name": "from",
          "type": "address"
        },
        {
          "indexed": true,
          "internalType": "address",
          "name": "to",
          "type": "address"
        },
        {
          "indexed": false,
          "internalType": "uint256[]",
          "name": "ids",
          "type": "uint256[]"
        },
        {
          "indexed": false,
          "internalType": "uint256[]",
          "name": "values",
          "type": "uint256[]"
        }
      ],
      "name": "TransferBatch",
      "type": "event"
    },
    {
      "anonymous": false,
      "inputs": [
        {
          "indexed": true,
          "internalType": "address",
          "name": "operator",
          "type": "address"
        },
        {
          "indexed": true,
          "internalType": "address",
          "name": "from",
          "type": "address"
        },
        {
          "indexed": true,
          "internalType": "address",
          "name": "to",
          "type": "address"
        },
        {
          "indexed": false,
          "internalType": "uint256",
          "name": "id",
          "type": "uint256"
        },
        {
          "indexed": false,
          "internalType": "uint256",
          "name": "value",
          "type": "uint256"
        }
      ],
      "name": "TransferSingle",
      "type": "event"
    },
    {
      "anonymous": false,
      "inputs": [
        {
          "indexed": false,
          "internalType": "string",
          "name": "value",
          "type": "string"
        },
        {
          "indexed": true,
          "internalType": "uint256",
          "name": "id",
          "type": "uint256"
        }
      ],
      "name": "URI",
      "type": "event"
    },
    {
      "inputs": [],
      "name": "approveMarket",
      "outputs": [],
      "stateMutability": "nonpayable",
      "type": "function"
    },
    {
      "inputs": [
        {
          "internalType": "address",
          "name": "account",
          "type": "address"
        },
        {
          "internalType": "uint256",
          "name": "id",
          "type": "uint256"
        }
      ],
      "name": "balanceOf",
      "outputs": [
        {
          "internalType": "uint256",
          "name": "",
          "type": "uint256"
        }
      ],
      "stateMutability": "view",
      "type": "function"
    },
    {
      "inputs": [
        {
          "internalType": "address[]",
          "name": "accounts",
          "type": "address[]"
        },
        {
          "internalType": "uint256[]",
          "name": "ids",
          "type": "uint256[]"
        }
      ],
      "name": "balanceOfBatch",
      "outputs": [
        {
          "internalType": "uint256[]",
          "name": "",
          "type": "uint256[]"
        }
      ],
      "stateMutability": "view",
      "type": "function"
    },
    {
      "inputs": [],
      "name": "eventName",
      "outputs": [
        {
          "internalType": "string",
          "name": "",
          "type": "string"
        }
      ],
      "stateMutability": "view",
      "type": "function"
    },
    {
      "inputs": [],
      "name": "getEventName",
      "outputs": [
        {
          "internalType": "string",
          "name": "",
          "type": "string"
        }
      ],
      "stateMutability": "view",
      "type": "function"
    },
    {
      "inputs": [],
      "name": "getOwner",
      "outputs": [
        {
          "internalType": "address",
          "name": "",
          "type": "address"
        }
      ],
      "stateMutability": "view",
      "type": "function"
    },
    {
      "inputs": [],
      "name": "getPriceCap",
      "outputs": [
        {
          "internalType": "uint256",
          "name": "",
          "type": "uint256"
        }
      ],
      "stateMutability": "view",
      "type": "function"
    },
    {
      "inputs": [],
      "name": "getSection",
      "outputs": [
        {
          "internalType": "string",
          "name": "",
          "type": "string"
        }
      ],
      "stateMutability": "pure",
      "type": "function"
    },
    {
      "inputs": [],
      "name": "getStartPrice",
      "outputs": [
        {
          "internalType": "uint256",
          "name": "",
          "type": "uint256"
        }
      ],
      "stateMutability": "view",
      "type": "function"
    },
    {
      "inputs": [],
      "name": "getStartSeat",
      "outputs": [
        {
          "internalType": "uint256",
          "name": "",
          "type": "uint256"
        }
      ],
      "stateMutability": "pure",
      "type": "function"
    },
    {
      "inputs": [],
      "name": "getSupply",
      "outputs": [
        {
          "internalType": "uint256",
          "name": "",
          "type": "uint256"
        }
      ],
      "stateMutability": "view",
      "type": "function"
    },
    {
      "inputs": [],
      "name": "getTicketsLeft",
      "outputs": [
        {
          "internalType": "uint256",
          "name": "",
          "type": "uint256"
        }
      ],
      "stateMutability": "view",
      "type": "function"
    },
    {
      "inputs": [
        {
          "internalType": "uint256",
          "name": "_tokenid",
          "type": "uint256"
        }
      ],
      "name": "getTokenURI",
      "outputs": [
        {
          "internalType": "string",
          "name": "",
          "type": "string"
        }
      ],
      "stateMutability": "view",
      "type": "function"
    },
    {
      "inputs": [
        {
          "internalType": "address",
          "name": "account",
          "type": "address"
        },
        {
          "internalType": "address",
          "name": "operator",
          "type": "address"
        }
      ],
      "name": "isApprovedForAll",
      "outputs": [
        {
          "internalType": "bool",
          "name": "",
          "type": "bool"
        }
      ],
      "stateMutability": "view",
      "type": "function"
    },
    {
      "inputs": [],
      "name": "marketPlaceAddress",
      "outputs": [
        {
          "internalType": "address",
          "name": "",
          "type": "address"
        }
      ],
      "stateMutability": "view",
      "type": "function"
    },
    {
      "inputs": [],
      "name": "mint",
      "outputs": [],
      "stateMutability": "payable",
      "type": "function"
    },
    {
      "inputs": [
        {
          "internalType": "uint256",
          "name": "_amount",
          "type": "uint256"
        }
      ],
      "name": "mintBatch",
      "outputs": [],
      "stateMutability": "payable",
      "type": "function"
    },
    {
      "inputs": [],
      "name": "mintCount",
      "outputs": [
        {
          "internalType": "uint256",
          "name": "",
          "type": "uint256"
        }
      ],
      "stateMutability": "view",
      "type": "function"
    },
    {
      "inputs": [],
      "name": "owner",
      "outputs": [
        {
          "internalType": "address",
          "name": "",
          "type": "address"
        }
      ],
      "stateMutability": "view",
      "type": "function"
    },
    {
      "inputs": [],
      "name": "priceCap",
      "outputs": [
        {
          "internalType": "uint256",
          "name": "",
          "type": "uint256"
        }
      ],
      "stateMutability": "view",
      "type": "function"
    },
    {
      "inputs": [],
      "name": "renounceOwnership",
      "outputs": [],
      "stateMutability": "nonpayable",
      "type": "function"
    },
    {
      "inputs": [
        {
          "internalType": "address",
          "name": "from",
          "type": "address"
        },
        {
          "internalType": "address",
          "name": "to",
          "type": "address"
        },
        {
          "internalType": "uint256[]",
          "name": "ids",
          "type": "uint256[]"
        },
        {
          "internalType": "uint256[]",
          "name": "amounts",
          "type": "uint256[]"
        },
        {
          "internalType": "bytes",
          "name": "data",
          "type": "bytes"
        }
      ],
      "name": "safeBatchTransferFrom",
      "outputs": [],
      "stateMutability": "nonpayable",
      "type": "function"
    },
    {
      "inputs": [
        {
          "internalType": "address",
          "name": "from",
          "type": "address"
        },
        {
          "internalType": "address",
          "name": "to",
          "type": "address"
        },
        {
          "internalType": "uint256",
          "name": "id",
          "type": "uint256"
        },
        {
          "internalType": "uint256",
          "name": "amount",
          "type": "uint256"
        },
        {
          "internalType": "bytes",
          "name": "data",
          "type": "bytes"
        }
      ],
      "name": "safeTransferFrom",
      "outputs": [],
      "stateMutability": "nonpayable",
      "type": "function"
    },
    {
      "inputs": [],
      "name": "section",
      "outputs": [
        {
          "internalType": "string",
          "name": "",
          "type": "string"
        }
      ],
      "stateMutability": "view",
      "type": "function"
    },
    {
      "inputs": [],
      "name": "sessionId",
      "outputs": [
        {
          "internalType": "uint256",
          "name": "",
          "type": "uint256"
        }
      ],
      "stateMutability": "view",
      "type": "function"
    },
    {
      "inputs": [
        {
          "internalType": "address",
          "name": "operator",
          "type": "address"
        },
        {
          "internalType": "bool",
          "name": "approved",
          "type": "bool"
        }
      ],
      "name": "setApprovalForAll",
      "outputs": [],
      "stateMutability": "nonpayable",
      "type": "function"
    },
    {
      "inputs": [
        {
          "internalType": "address",
          "name": "_marketPlaceAddress",
          "type": "address"
        }
      ],
      "name": "setMarketPlaceAddress",
      "outputs": [],
      "stateMutability": "nonpayable",
      "type": "function"
    },
    {
      "inputs": [],
      "name": "startPrice",
      "outputs": [
        {
          "internalType": "uint256",
          "name": "",
          "type": "uint256"
        }
      ],
      "stateMutability": "view",
      "type": "function"
    },
    {
      "inputs": [],
      "name": "supply",
      "outputs": [
        {
          "internalType": "uint256",
          "name": "",
          "type": "uint256"
        }
      ],
      "stateMutability": "view",
      "type": "function"
    },
    {
      "inputs": [
        {
          "internalType": "bytes4",
          "name": "interfaceId",
          "type": "bytes4"
        }
      ],
      "name": "supportsInterface",
      "outputs": [
        {
          "internalType": "bool",
          "name": "",
          "type": "bool"
        }
      ],
      "stateMutability": "view",
      "type": "function"
    },
    {
      "inputs": [
        {
          "internalType": "address",
          "name": "newOwner",
          "type": "address"
        }
      ],
      "name": "transferOwnership",
      "outputs": [],
      "stateMutability": "nonpayable",
      "type": "function"
    },
    {
      "inputs": [
        {
          "internalType": "uint256",
          "name": "_tokenid",
          "type": "uint256"
        }
      ],
      "name": "uri",
      "outputs": [
        {
          "internalType": "string",
          "name": "",
          "type": "string"
        }
      ],
      "stateMutability": "view",
      "type": "function"
    },
    {
      "inputs": [],
      "name": "usdcToken",
      "outputs": [
        {
          "internalType": "contract IERC20",
          "name": "",
          "type": "address"
        }
      ],
      "stateMutability": "view",
      "type": "function"
    }
  ],
  "bytecode": "0x60806040523480156200001157600080fd5b506040516200284538038062002845833981016040819052620000349162000209565b81604051602001620000479190620002c8565b60408051601f198184030181529190526200006281620000d8565b506200006e33620000ea565b600488905560078790556006620000868782620003b8565b506008859055600a84905560098390556000600b55600c620000a98382620003b8565b50600d80546001600160a01b0319166001600160a01b0392909216919091179055506200048495505050505050565b6002620000e68282620003b8565b5050565b600380546001600160a01b038381166001600160a01b0319831681179093556040519116919082907f8be0079c531659141344cd1fd0a4f28419497f9722a3daafe3b4186f6b6457e090600090a35050565b634e487b7160e01b600052604160045260246000fd5b60005b838110156200016f57818101518382015260200162000155565b50506000910152565b600082601f8301126200018a57600080fd5b81516001600160401b0380821115620001a757620001a76200013c565b604051601f8301601f19908116603f01168101908282118183101715620001d257620001d26200013c565b81604052838152866020858801011115620001ec57600080fd5b620001ff84602083016020890162000152565b9695505050505050565b600080600080600080600080610100898b0312156200022757600080fd5b885160208a015160408b015191995097506001600160401b03808211156200024e57600080fd5b6200025c8c838d0162000178565b975060608b0151965060808b0151955060a08b0151945060c08b01519150808211156200028857600080fd5b50620002978b828c0162000178565b60e08b015190935090506001600160a01b0381168114620002b757600080fd5b809150509295985092959890939650565b7f68747470733a2f2f6d796170692e636f6d2f6170692f4e46542f0000000000008152600082516200030281601a85016020870162000152565b602f60f81b601a9390910192830152506518173539b7b760d11b601b820152602101919050565b600181811c908216806200033e57607f821691505b6020821081036200035f57634e487b7160e01b600052602260045260246000fd5b50919050565b601f821115620003b357600081815260208120601f850160051c810160208610156200038e5750805b601f850160051c820191505b81811015620003af578281556001016200039a565b5050505b505050565b81516001600160401b03811115620003d457620003d46200013c565b620003ec81620003e5845462000329565b8462000365565b602080601f8311600181146200042457600084156200040b5750858301515b600019600386901b1c1916600185901b178555620003af565b600085815260208120601f198616915b82811015620004555788860151825594840194600190910190840162000434565b5085821015620004745787850151600019600388901b60f8161c191681555b5050505050600190811b01905550565b6123b180620004946000396000f3fe60806040526004361061017d5760003560e01c8062fdd58e1461018257806301ffc9a7146101b557806302b7847c146101e5578063047fc9aa146101fb5780630e89341c1461021157806311eac8551461023e5780631249c58b1461027657806320e409b414610280578063278a262f146102935780632c9cf352146102a85780632eb2c2d6146102bc5780633bb3a24d146102dc5780634c7afe60146102fc5780634e1273f4146103115780635a7bddbf1461033e578063646f22c5146103775780636c9c2faf1461038c578063715018a6146103a15780638043c9c0146103b6578063893d20e8146103cb5780638da5cb5b146103e05780639648c9f4146103f55780639659867e1461040b578063a22cb46514610421578063b81e43fc14610441578063baffa90314610456578063c2560f2a1461046b578063cc98ef9614610480578063e985e9c5146104a0578063ed27107b146104c0578063f1a9af89146104e0578063f242432a146104f6578063f2fde38b14610516575b600080fd5b34801561018e57600080fd5b506101a261019d3660046118d8565b610536565b6040519081526020015b60405180910390f35b3480156101c157600080fd5b506101d56101d0366004611918565b6105cf565b60405190151581526020016101ac565b3480156101f157600080fd5b506101a260095481565b34801561020757600080fd5b506101a260085481565b34801561021d57600080fd5b5061023161022c36600461193c565b61061f565b6040516101ac91906119a5565b34801561024a57600080fd5b50600d5461025e906001600160a01b031681565b6040516001600160a01b0390911681526020016101ac565b61027e610653565b005b61027e61028e36600461193c565b610766565b34801561029f57600080fd5b506102316109bb565b3480156102b457600080fd5b5060006101a2565b3480156102c857600080fd5b5061027e6102d7366004611b01565b610a49565b3480156102e857600080fd5b506102316102f736600461193c565b610a95565b34801561030857600080fd5b506009546101a2565b34801561031d57600080fd5b5061033161032c366004611baa565b610aa0565b6040516101ac9190611caf565b34801561034a57600080fd5b5060408051808201909152601081526f29ba30b73234b7339039b2b1ba34b7b760811b6020820152610231565b34801561038357600080fd5b506101a2610bc9565b34801561039857600080fd5b506008546101a2565b3480156103ad57600080fd5b5061027e610be0565b3480156103c257600080fd5b50610231610bf4565b3480156103d757600080fd5b5061025e610c01565b3480156103ec57600080fd5b5061025e610c07565b34801561040157600080fd5b506101a260075481565b34801561041757600080fd5b506101a2600b5481565b34801561042d57600080fd5b5061027e61043c366004611cd0565b610c16565b34801561044d57600080fd5b50610231610c25565b34801561046257600080fd5b50600a546101a2565b34801561047757600080fd5b5061027e610cb7565b34801561048c57600080fd5b5061027e61049b366004611d07565b610d44565b3480156104ac57600080fd5b506101d56104bb366004611d22565b610db6565b3480156104cc57600080fd5b5060055461025e906001600160a01b031681565b3480156104ec57600080fd5b506101a2600a5481565b34801561050257600080fd5b5061027e610511366004611d55565b610de4565b34801561052257600080fd5b5061027e610531366004611d07565b610e29565b60006001600160a01b0383166105a65760405162461bcd60e51b815260206004820152602a60248201527f455243313135353a2061646472657373207a65726f206973206e6f742061207660448201526930b634b21037bbb732b960b11b60648201526084015b60405180910390fd5b506000818152602081815260408083206001600160a01b03861684529091529020545b92915050565b60006001600160e01b03198216636cdb3d1360e11b148061060057506001600160e01b031982166303a24d0760e21b145b806105c957506301ffc9a760e01b6001600160e01b03198316146105c9565b6060600c61062c83610ea2565b60405160200161063d929190611e0f565b6040516020818303038152906040529050919050565b600d54600a546040516323b872dd60e01b81526001600160a01b03909216916323b872dd916106889133913091600401611f09565b6020604051808303816000875af11580156106a7573d6000803e3d6000fd5b505050506040513d601f19601f820116820180604052508101906106cb9190611f2d565b6106e75760405162461bcd60e51b815260040161059d90611f4a565b600854600b54106107325760405162461bcd60e51b815260206004820152601560248201527414dbdc9c9e4b081dd949dc99481cdbdb19081bdd5d605a1b604482015260640161059d565b61074f336000600160405180602001604052806000815250610f34565b600b805490600061075f83611f8e565b9190505550565b600181116107d55760405162461bcd60e51b815260206004820152603660248201527f546f2075736520746869732066756e6374696f6e2c20746865726520686173206044820152751d1bc81899481b5bdc99481391951cc81b5a5b9d195960521b606482015260840161059d565b600854600b546107e59083611fa7565b11156108595760405162461bcd60e51b815260206004820152603d60248201527f54686520616d6f756e7420796f75207769736820746f2070757263686173652060448201527f6973206d6f7265207468616e20746865207469636b657473206c656674000000606482015260840161059d565b6000600a54826108699190611fba565b600d546040516323b872dd60e01b81529192506001600160a01b0316906323b872dd9061089e90339030908690600401611f09565b6020604051808303816000875af11580156108bd573d6000803e3d6000fd5b505050506040513d601f19601f820116820180604052508101906108e19190611f2d565b6108fd5760405162461bcd60e51b815260040161059d90611f4a565b604080516001808252818301909252600091602080830190803683375050604080516001808252818301909252929350600092915060208083019080368337019050509050838260008151811061095657610956611fd1565b60200260200101818152505060008160008151811061097757610977611fd1565b60200260200101818152505061099e33828460405180602001604052806000815250610ffc565b83600b60008282546109b09190611fa7565b909155505050505050565b600680546109c890611db9565b80601f01602080910402602001604051908101604052809291908181526020018280546109f490611db9565b8015610a415780601f10610a1657610100808354040283529160200191610a41565b820191906000526020600020905b815481529060010190602001808311610a2457829003601f168201915b505050505081565b6001600160a01b038516331480610a655750610a658533610db6565b610a815760405162461bcd60e51b815260040161059d90611fe7565b610a8e8585858585611135565b5050505050565b60606105c98261061f565b60608151835114610b055760405162461bcd60e51b815260206004820152602960248201527f455243313135353a206163636f756e747320616e6420696473206c656e677468604482015268040dad2e6dac2e8c6d60bb1b606482015260840161059d565b600083516001600160401b03811115610b2057610b206119b8565b604051908082528060200260200182016040528015610b49578160200160208202803683370190505b50905060005b8451811015610bc157610b94858281518110610b6d57610b6d611fd1565b6020026020010151858381518110610b8757610b87611fd1565b6020026020010151610536565b828281518110610ba657610ba6611fd1565b6020908102919091010152610bba81611f8e565b9050610b4f565b509392505050565b6000600b54600854610bdb9190612035565b905090565b610be86112bf565b610bf2600061131e565b565b600c80546109c890611db9565b6000610bdb5b6003546001600160a01b031690565b610c21338383611370565b5050565b6060600c8054610c3490611db9565b80601f0160208091040260200160405190810160405280929190818152602001828054610c6090611db9565b8015610cad5780601f10610c8257610100808354040283529160200191610cad565b820191906000526020600020905b815481529060010190602001808311610c9057829003601f168201915b5050505050905090565b600554610cce9033906001600160a01b0316610db6565b15610d2d5760405162461bcd60e51b815260206004820152602960248201527f596f75206861766520616c726561647920617070726f76656420746865206d61604482015268726b6574706c61636560b81b606482015260840161059d565b600554610bf2906001600160a01b03166001610c16565b610d4c6112bf565b6001600160a01b038116610d945760405162461bcd60e51b815260206004820152600f60248201526e496e76616c6964206164647265737360881b604482015260640161059d565b600580546001600160a01b0319166001600160a01b0392909216919091179055565b6001600160a01b03918216600090815260016020908152604080832093909416825291909152205460ff1690565b6001600160a01b038516331480610e005750610e008533610db6565b610e1c5760405162461bcd60e51b815260040161059d90611fe7565b610a8e8585858585611450565b610e316112bf565b6001600160a01b038116610e965760405162461bcd60e51b815260206004820152602660248201527f4f776e61626c653a206e6577206f776e657220697320746865207a65726f206160448201526564647265737360d01b606482015260840161059d565b610e9f8161131e565b50565b60606000610eaf83611568565b60010190506000816001600160401b03811115610ece57610ece6119b8565b6040519080825280601f01601f191660200182016040528015610ef8576020820181803683370190505b5090508181016020015b600019016f181899199a1a9b1b9c1cb0b131b232b360811b600a86061a8153600a8504945084610f0257509392505050565b6001600160a01b038416610f5a5760405162461bcd60e51b815260040161059d90612048565b336000610f668561163e565b90506000610f738561163e565b90506000868152602081815260408083206001600160a01b038b16845290915281208054879290610fa5908490611fa7565b909155505060408051878152602081018790526001600160a01b03808a16926000929187169160008051602061235c833981519152910160405180910390a4610ff383600089898989611689565b50505050505050565b6001600160a01b0384166110225760405162461bcd60e51b815260040161059d90612048565b81518351146110435760405162461bcd60e51b815260040161059d90612089565b3360005b84518110156110df5783818151811061106257611062611fd1565b602002602001015160008087848151811061107f5761107f611fd1565b602002602001015181526020019081526020016000206000886001600160a01b03166001600160a01b0316815260200190815260200160002060008282546110c79190611fa7565b909155508190506110d781611f8e565b915050611047565b50846001600160a01b031660006001600160a01b0316826001600160a01b031660008051602061233c833981519152878760405161111e9291906120d1565b60405180910390a4610a8e816000878787876117eb565b81518351146111565760405162461bcd60e51b815260040161059d90612089565b6001600160a01b03841661117c5760405162461bcd60e51b815260040161059d906120ff565b3360005b845181101561126357600085828151811061119d5761119d611fd1565b6020026020010151905060008583815181106111bb576111bb611fd1565b602090810291909101810151600084815280835260408082206001600160a01b038e16835290935291909120549091508181101561120b5760405162461bcd60e51b815260040161059d90612144565b6000838152602081815260408083206001600160a01b038e8116855292528083208585039055908b16825281208054849290611248908490611fa7565b925050819055505050508061125c90611f8e565b9050611180565b50846001600160a01b0316866001600160a01b0316826001600160a01b031660008051602061233c83398151915287876040516112a19291906120d1565b60405180910390a46112b78187878787876117eb565b505050505050565b336112c8610c07565b6001600160a01b031614610bf25760405162461bcd60e51b815260206004820181905260248201527f4f776e61626c653a2063616c6c6572206973206e6f7420746865206f776e6572604482015260640161059d565b600380546001600160a01b038381166001600160a01b0319831681179093556040519116919082907f8be0079c531659141344cd1fd0a4f28419497f9722a3daafe3b4186f6b6457e090600090a35050565b816001600160a01b0316836001600160a01b0316036113e35760405162461bcd60e51b815260206004820152602960248201527f455243313135353a2073657474696e6720617070726f76616c20737461747573604482015268103337b91039b2b63360b91b606482015260840161059d565b6001600160a01b03838116600081815260016020908152604080832094871680845294825291829020805460ff191686151590811790915591519182527f17307eab39ab6107e8899845ad3d59bd9653f200f220920489ca2b5937696c31910160405180910390a3505050565b6001600160a01b0384166114765760405162461bcd60e51b815260040161059d906120ff565b3360006114828561163e565b9050600061148f8561163e565b90506000868152602081815260408083206001600160a01b038c168452909152902054858110156114d25760405162461bcd60e51b815260040161059d90612144565b6000878152602081815260408083206001600160a01b038d8116855292528083208985039055908a1682528120805488929061150f908490611fa7565b909155505060408051888152602081018890526001600160a01b03808b16928c8216929188169160008051602061235c833981519152910160405180910390a461155d848a8a8a8a8a611689565b505050505050505050565b60008072184f03e93ff9f4daa797ed6e38ed64bf6a1f0160401b83106115a75772184f03e93ff9f4daa797ed6e38ed64bf6a1f0160401b830492506040015b6904ee2d6d415b85acef8160201b83106115d1576904ee2d6d415b85acef8160201b830492506020015b662386f26fc1000083106115ef57662386f26fc10000830492506010015b6305f5e1008310611607576305f5e100830492506008015b612710831061161b57612710830492506004015b6064831061162d576064830492506002015b600a83106105c95760010192915050565b6040805160018082528183019092526060916000919060208083019080368337019050509050828160008151811061167857611678611fd1565b602090810291909101015292915050565b61169b846001600160a01b03166118ad565b156112b75760405163f23a6e6160e01b81526001600160a01b0385169063f23a6e61906116d4908990899088908890889060040161218e565b6020604051808303816000875af192505050801561170f575060408051601f3d908101601f1916820190925261170c918101906121d3565b60015b6117bb5761171b6121f0565b806308c379a003611754575061172f61220c565b8061173a5750611756565b8060405162461bcd60e51b815260040161059d91906119a5565b505b60405162461bcd60e51b815260206004820152603460248201527f455243313135353a207472616e7366657220746f206e6f6e2d455243313135356044820152732932b1b2b4bb32b91034b6b83632b6b2b73a32b960611b606482015260840161059d565b6001600160e01b0319811663f23a6e6160e01b14610ff35760405162461bcd60e51b815260040161059d90612295565b6117fd846001600160a01b03166118ad565b156112b75760405163bc197c8160e01b81526001600160a01b0385169063bc197c819061183690899089908890889088906004016122dd565b6020604051808303816000875af1925050508015611871575060408051601f3d908101601f1916820190925261186e918101906121d3565b60015b61187d5761171b6121f0565b6001600160e01b0319811663bc197c8160e01b14610ff35760405162461bcd60e51b815260040161059d90612295565b6001600160a01b03163b151590565b80356001600160a01b03811681146118d357600080fd5b919050565b600080604083850312156118eb57600080fd5b6118f4836118bc565b946020939093013593505050565b6001600160e01b031981168114610e9f57600080fd5b60006020828403121561192a57600080fd5b813561193581611902565b9392505050565b60006020828403121561194e57600080fd5b5035919050565b60005b83811015611970578181015183820152602001611958565b50506000910152565b60008151808452611991816020860160208601611955565b601f01601f19169290920160200192915050565b6020815260006119356020830184611979565b634e487b7160e01b600052604160045260246000fd5b601f8201601f191681016001600160401b03811182821017156119f3576119f36119b8565b6040525050565b60006001600160401b03821115611a1357611a136119b8565b5060051b60200190565b600082601f830112611a2e57600080fd5b81356020611a3b826119fa565b604051611a4882826119ce565b83815260059390931b8501820192828101915086841115611a6857600080fd5b8286015b84811015611a835780358352918301918301611a6c565b509695505050505050565b600082601f830112611a9f57600080fd5b81356001600160401b03811115611ab857611ab86119b8565b604051611acf601f8301601f1916602001826119ce565b818152846020838601011115611ae457600080fd5b816020850160208301376000918101602001919091529392505050565b600080600080600060a08688031215611b1957600080fd5b611b22866118bc565b9450611b30602087016118bc565b935060408601356001600160401b0380821115611b4c57600080fd5b611b5889838a01611a1d565b94506060880135915080821115611b6e57600080fd5b611b7a89838a01611a1d565b93506080880135915080821115611b9057600080fd5b50611b9d88828901611a8e565b9150509295509295909350565b60008060408385031215611bbd57600080fd5b82356001600160401b0380821115611bd457600080fd5b818501915085601f830112611be857600080fd5b81356020611bf5826119fa565b604051611c0282826119ce565b83815260059390931b8501820192828101915089841115611c2257600080fd5b948201945b83861015611c4757611c38866118bc565b82529482019490820190611c27565b96505086013592505080821115611c5d57600080fd5b50611c6a85828601611a1d565b9150509250929050565b600081518084526020808501945080840160005b83811015611ca457815187529582019590820190600101611c88565b509495945050505050565b6020815260006119356020830184611c74565b8015158114610e9f57600080fd5b60008060408385031215611ce357600080fd5b611cec836118bc565b91506020830135611cfc81611cc2565b809150509250929050565b600060208284031215611d1957600080fd5b611935826118bc565b60008060408385031215611d3557600080fd5b611d3e836118bc565b9150611d4c602084016118bc565b90509250929050565b600080600080600060a08688031215611d6d57600080fd5b611d76866118bc565b9450611d84602087016118bc565b9350604086013592506060860135915060808601356001600160401b03811115611dad57600080fd5b611b9d88828901611a8e565b600181811c90821680611dcd57607f821691505b602082108103611ded57634e487b7160e01b600052602260045260246000fd5b50919050565b60008151611e05818560208601611955565b9290920192915050565b7968747470733a2f2f6d796170692e636f6d2f6170692f4e46542f60301b81526000601a6000855481600182811c915080831680611e4e57607f831692505b60208084108203611e6d57634e487b7160e01b86526022600452602486fd5b818015611e815760018114611e9a57611ecb565b60ff1986168a89015284151585028a0188019650611ecb565b60008c81526020902060005b86811015611ec15781548c82018b0152908501908301611ea6565b505087858b010196505b505050505050611eff611eee611ee883602f60f81b815260010190565b87611df3565b64173539b7b760d91b815260050190565b9695505050505050565b6001600160a01b039384168152919092166020820152604081019190915260600190565b600060208284031215611f3f57600080fd5b815161193581611cc2565b6020808252601490820152731554d110c81d1c985b9cd9995c8819985a5b195960621b604082015260600190565b634e487b7160e01b600052601160045260246000fd5b600060018201611fa057611fa0611f78565b5060010190565b808201808211156105c9576105c9611f78565b80820281158282048414176105c9576105c9611f78565b634e487b7160e01b600052603260045260246000fd5b6020808252602e908201527f455243313135353a2063616c6c6572206973206e6f7420746f6b656e206f776e60408201526d195c881bdc88185c1c1c9bdd995960921b606082015260800190565b818103818111156105c9576105c9611f78565b60208082526021908201527f455243313135353a206d696e7420746f20746865207a65726f206164647265736040820152607360f81b606082015260800190565b60208082526028908201527f455243313135353a2069647320616e6420616d6f756e7473206c656e677468206040820152670dad2e6dac2e8c6d60c31b606082015260800190565b6040815260006120e46040830185611c74565b82810360208401526120f68185611c74565b95945050505050565b60208082526025908201527f455243313135353a207472616e7366657220746f20746865207a65726f206164604082015264647265737360d81b606082015260800190565b6020808252602a908201527f455243313135353a20696e73756666696369656e742062616c616e636520666f60408201526939103a3930b739b332b960b11b606082015260800190565b6001600160a01b03868116825285166020820152604081018490526060810183905260a0608082018190526000906121c890830184611979565b979650505050505050565b6000602082840312156121e557600080fd5b815161193581611902565b600060033d11156122095760046000803e5060005160e01c5b90565b600060443d101561221a5790565b6040516003193d81016004833e81513d6001600160401b03808311602484018310171561224957505050505090565b82850191508151818111156122615750505050505090565b843d870101602082850101111561227b5750505050505090565b61228a602082860101876119ce565b509095945050505050565b60208082526028908201527f455243313135353a204552433131353552656365697665722072656a656374656040820152676420746f6b656e7360c01b606082015260800190565b6001600160a01b0386811682528516602082015260a06040820181905260009061230990830186611c74565b828103606084015261231b8186611c74565b9050828103608084015261232f8185611979565b9897505050505050505056fe4a39dc06d4c0dbc64b70af90fd698a233a518aa5d07e595d983b8c0526c8f7fbc3d58168c5ae7397731d063d5bbf3d657854427343f4c083240f7aacaa2d0f62a2646970667358221220059ba6be0634d2122522716fd4b868c0e7872797c8da375f1c6a510d8397c8cd64736f6c63430008130033",
  "linkReferences": {},
  "deployedLinkReferences": {}
}