{
  "_format": "hh-sol-artifact-1",
  "contractName": "SessionFactory",
  "sourceName": "contracts/SessionFactory.sol",
  "abi": [
    {
      "inputs": [
        {
          "internalType": "address",
          "name": "_standingFactory",
          "type": "address"
        },
        {
          "internalType": "address",
          "name": "_seatedFactory",
          "type": "address"
        },
        {
          "internalType": "uint256",
          "name": "_eventId",
          "type": "uint256"
        },
        {
          "internalType": "uint256",
          "name": "_numSessions",
          "type": "uint256"
        },
        {
          "internalType": "uint256[]",
          "name": "_sessionId",
          "type": "uint256[]"
        },
        {
          "internalType": "string[]",
          "name": "_section",
          "type": "string[]"
        },
        {
          "internalType": "uint256[]",
          "name": "_supplyPerSection",
          "type": "uint256[]"
        },
        {
          "internalType": "uint256[]",
          "name": "_startPrice",
          "type": "uint256[]"
        },
        {
          "internalType": "uint256",
          "name": "_priceCap",
          "type": "uint256"
        },
        {
          "internalType": "uint256[]",
          "name": "_startSeats",
          "type": "uint256[]"
        },
        {
          "internalType": "string",
          "name": "_eventName",
          "type": "string"
        }
      ],
      "stateMutability": "nonpayable",
      "type": "constructor"
    },
    {
      "anonymous": false,
      "inputs": [
        {
          "indexed": true,
          "internalType": "address",
          "name": "previousOwner",
          "type": "address"
        },
        {
          "indexed": true,
          "internalType": "address",
          "name": "newOwner",
          "type": "address"
        }
      ],
      "name": "OwnershipTransferred",
      "type": "event"
    },
    {
      "inputs": [
        {
          "internalType": "address",
          "name": "_standingFactory",
          "type": "address"
        },
        {
          "internalType": "address",
          "name": "_seatedFactory",
          "type": "address"
        },
        {
          "internalType": "address",
          "name": "_sessionFactory",
          "type": "address"
        },
        {
          "internalType": "uint256",
          "name": "_eventId",
          "type": "uint256"
        },
        {
          "internalType": "uint256[]",
          "name": "_supplyPerSection",
          "type": "uint256[]"
        },
        {
          "internalType": "string[]",
          "name": "_section",
          "type": "string[]"
        },
        {
          "internalType": "uint256[]",
          "name": "_startPrice",
          "type": "uint256[]"
        },
        {
          "internalType": "uint256[]",
          "name": "_sessionId",
          "type": "uint256[]"
        },
        {
          "internalType": "uint256",
          "name": "_priceCap",
          "type": "uint256"
        },
        {
          "internalType": "uint256[]",
          "name": "_startSeats",
          "type": "uint256[]"
        },
        {
          "internalType": "string",
          "name": "_eventName",
          "type": "string"
        }
      ],
      "name": "createSession",
      "outputs": [],
      "stateMutability": "nonpayable",
      "type": "function"
    },
    {
      "inputs": [
        {
          "internalType": "uint256",
          "name": "_sessionId",
          "type": "uint256"
        }
      ],
      "name": "getSectionAddressesFromSession",
      "outputs": [
        {
          "internalType": "address[]",
          "name": "",
          "type": "address[]"
        }
      ],
      "stateMutability": "view",
      "type": "function"
    },
    {
      "inputs": [
        {
          "internalType": "uint256",
          "name": "_sessionId",
          "type": "uint256"
        }
      ],
      "name": "getSessionAddresses",
      "outputs": [
        {
          "internalType": "address",
          "name": "",
          "type": "address"
        }
      ],
      "stateMutability": "view",
      "type": "function"
    },
    {
      "inputs": [],
      "name": "getSessionsId",
      "outputs": [
        {
          "internalType": "uint256[]",
          "name": "",
          "type": "uint256[]"
        }
      ],
      "stateMutability": "view",
      "type": "function"
    },
    {
      "inputs": [],
      "name": "owner",
      "outputs": [
        {
          "internalType": "address",
          "name": "",
          "type": "address"
        }
      ],
      "stateMutability": "view",
      "type": "function"
    },
    {
      "inputs": [],
      "name": "renounceOwnership",
      "outputs": [],
      "stateMutability": "nonpayable",
      "type": "function"
    },
    {
      "inputs": [
        {
          "internalType": "uint256",
          "name": "",
          "type": "uint256"
        }
      ],
      "name": "sessionToAddress",
      "outputs": [
        {
          "internalType": "address",
          "name": "",
          "type": "address"
        }
      ],
      "stateMutability": "view",
      "type": "function"
    },
    {
      "inputs": [
        {
          "internalType": "uint256",
          "name": "",
          "type": "uint256"
        }
      ],
      "name": "sessionsId",
      "outputs": [
        {
          "internalType": "uint256",
          "name": "",
          "type": "uint256"
        }
      ],
      "stateMutability": "view",
      "type": "function"
    },
    {
      "inputs": [
        {
          "internalType": "address",
          "name": "newOwner",
          "type": "address"
        }
      ],
      "name": "transferOwnership",
      "outputs": [],
      "stateMutability": "nonpayable",
      "type": "function"
    }
  ],
  "bytecode": "0x60806040523480156200001157600080fd5b5060405162004e7c38038062004e7c833981016040819052620000349162000628565b6200003f33620000f1565b6003899055600488905584516200005e906006906020880190620002d5565b5085516200007490600790602089019062000325565b5086516200008a9060089060208a0190620002d5565b508351620000a0906009906020870190620002d5565b50600a8390558151620000bb90600b906020850190620002d5565b506005620000ca82826200082d565b50620000e08b8b308c898b8a8e8b8b8b62000141565b505050505050505050505062000ab2565b600080546001600160a01b038381166001600160a01b0319831681178455604051919092169283917f8be0079c531659141344cd1fd0a4f28419497f9722a3daafe3b4186f6b6457e09190a35050565b6200014b62000274565b60005b600454811015620002665760008c8c8c8c8c8c8c8c8981518110620001775762000177620008f9565b60200260200101518c8c8c60405162000190906200037e565b620001a69b9a99989796959493929190620009d3565b604051809103906000f080158015620001c3573d6000803e3d6000fd5b5090508060026000888581518110620001e057620001e0620008f9565b6020026020010151815260200190815260200160002060006101000a8154816001600160a01b0302191690836001600160a01b031602179055506001868381518110620002315762000231620008f9565b6020908102919091018101518254600181018455600093845291909220015550806200025d8162000a8a565b9150506200014e565b505050505050505050505050565b6000546001600160a01b03163314620002d35760405162461bcd60e51b815260206004820181905260248201527f4f776e61626c653a2063616c6c6572206973206e6f7420746865206f776e6572604482015260640160405180910390fd5b565b82805482825590600052602060002090810192821562000313579160200282015b8281111562000313578251825591602001919060010190620002f6565b50620003219291506200038c565b5090565b82805482825590600052602060002090810192821562000370579160200282015b828111156200037057825182906200035f90826200082d565b509160200191906001019062000346565b5062000321929150620003a3565b611b8680620032f683390190565b5b808211156200032157600081556001016200038d565b8082111562000321576000620003ba8282620003c4565b50600101620003a3565b508054620003d2906200079e565b6000825580601f10620003e3575050565b601f0160209004906000526020600020908101906200040391906200038c565b50565b80516001600160a01b03811681146200041e57600080fd5b919050565b634e487b7160e01b600052604160045260246000fd5b604051601f8201601f191681016001600160401b038111828210171562000464576200046462000423565b604052919050565b60006001600160401b0382111562000488576200048862000423565b5060051b60200190565b600082601f830112620004a457600080fd5b81516020620004bd620004b7836200046c565b62000439565b82815260059290921b84018101918181019086841115620004dd57600080fd5b8286015b84811015620004fa5780518352918301918301620004e1565b509695505050505050565b60005b838110156200052257818101518382015260200162000508565b50506000910152565b600082601f8301126200053d57600080fd5b81516001600160401b0381111562000559576200055962000423565b6200056e601f8201601f191660200162000439565b8181528460208386010111156200058457600080fd5b6200059782602083016020870162000505565b949350505050565b600082601f830112620005b157600080fd5b81516020620005c4620004b7836200046c565b82815260059290921b84018101918181019086841115620005e457600080fd5b8286015b84811015620004fa5780516001600160401b03811115620006095760008081fd5b620006198986838b01016200052b565b845250918301918301620005e8565b60008060008060008060008060008060006101608c8e0312156200064b57600080fd5b620006568c62000406565b9a506200066660208d0162000406565b60408d015160608e015160808f0151929c50909a5098506001600160401b038111156200069257600080fd5b620006a08e828f0162000492565b60a08e015190985090506001600160401b03811115620006bf57600080fd5b620006cd8e828f016200059f565b60c08e015190975090506001600160401b03811115620006ec57600080fd5b620006fa8e828f0162000492565b60e08e015190965090506001600160401b038111156200071957600080fd5b620007278e828f0162000492565b6101008e01516101208f0151919650945090506001600160401b038111156200074f57600080fd5b6200075d8e828f0162000492565b6101408e015190935090506001600160401b038111156200077d57600080fd5b6200078b8e828f016200052b565b9150509295989b509295989b9093969950565b600181811c90821680620007b357607f821691505b602082108103620007d457634e487b7160e01b600052602260045260246000fd5b50919050565b601f8211156200082857600081815260208120601f850160051c81016020861015620008035750805b601f850160051c820191505b8181101562000824578281556001016200080f565b5050505b505050565b81516001600160401b0381111562000849576200084962000423565b62000861816200085a84546200079e565b84620007da565b602080601f831160018114620008995760008415620008805750858301515b600019600386901b1c1916600185901b17855562000824565b600085815260208120601f198616915b82811015620008ca57888601518255948401946001909101908401620008a9565b5085821015620008e95787850151600019600388901b60f8161c191681555b5050505050600190811b01905550565b634e487b7160e01b600052603260045260246000fd5b600081518084526020808501945080840160005b83811015620009415781518752958201959082019060010162000923565b509495945050505050565b600081518084526200096681602086016020860162000505565b601f01601f19169290920160200192915050565b600081518084526020808501808196508360051b8101915082860160005b85811015620009c6578284038952620009b38483516200094c565b9885019893509084019060010162000998565b5091979650505050505050565b6001600160a01b038c811682528b811660208301528a166040820152606081018990526101606080820181905260009062000a118382018b6200090f565b905082810360a084015262000a27818a6200097a565b905082810360c084015262000a3d81896200090f565b90508660e08401528561010084015282810361012084015262000a6181866200090f565b905082810361014084015262000a7881856200094c565b9e9d5050505050505050505050505050565b60006001820162000aab57634e487b7160e01b600052601160045260246000fd5b5060010190565b6128348062000ac26000396000f3fe60806040523480156200001157600080fd5b50600436106200008e5760003560e01c806312848ab914620000935780634fe40a5914620000b5578063715018a614620000db5780637fa1050814620000e75780638da5cb5b146200010d578063bb6fe0f41462000130578063f2fde38b1462000147578063f4082233146200015e578063fcc6e5671462000175575b600080fd5b6200009d620001a1565b604051620000ac919062000607565b60405180910390f35b620000cc620000c63660046200061c565b620001fb565b604051908152602001620000ac565b620000e56200021d565b005b620000fe620000f83660046200061c565b62000235565b604051620000ac919062000636565b62000117620002f5565b6040516001600160a01b039091168152602001620000ac565b62000117620001413660046200061c565b62000304565b620000e562000158366004620006ad565b62000357565b620000e56200016f366004620008ae565b620003d6565b62000117620001863660046200061c565b6002602052600090815260409020546001600160a01b031681565b60606001805480602002602001604051908101604052809291908181526020018280548015620001f157602002820191906000526020600020905b815481526020019060010190808311620001dc575b5050505050905090565b600181815481106200020c57600080fd5b600091825260209091200154905081565b6200022762000509565b6200023360006200056c565b565b60606000620002448362000304565b6001600160a01b031603620002765760405162461bcd60e51b81526004016200026d9062000a0e565b60405180910390fd5b6000620002838362000304565b9050806001600160a01b031663cc4370086040518163ffffffff1660e01b8152600401600060405180830381865afa158015620002c4573d6000803e3d6000fd5b505050506040513d6000823e601f3d908101601f19168201604052620002ee919081019062000a41565b9392505050565b6000546001600160a01b031690565b6000818152600260205260408120546001600160a01b03166200033b5760405162461bcd60e51b81526004016200026d9062000a0e565b506000908152600260205260409020546001600160a01b031690565b6200036162000509565b6001600160a01b038116620003c85760405162461bcd60e51b815260206004820152602660248201527f4f776e61626c653a206e6577206f776e657220697320746865207a65726f206160448201526564647265737360d01b60648201526084016200026d565b620003d3816200056c565b50565b620003e062000509565b60005b600454811015620004fb5760008c8c8c8c8c8c8c8c89815181106200040c576200040c62000ae5565b60200260200101518c8c8c6040516200042590620005bc565b6200043b9b9a9998979695949392919062000b99565b604051809103906000f08015801562000458573d6000803e3d6000fd5b509050806002600088858151811062000475576200047562000ae5565b6020026020010151815260200190815260200160002060006101000a8154816001600160a01b0302191690836001600160a01b031602179055506001868381518110620004c657620004c662000ae5565b602090810291909101810151825460018101845560009384529190922001555080620004f28162000c50565b915050620003e3565b505050505050505050505050565b3362000514620002f5565b6001600160a01b031614620002335760405162461bcd60e51b815260206004820181905260248201527f4f776e61626c653a2063616c6c6572206973206e6f7420746865206f776e657260448201526064016200026d565b600080546001600160a01b038381166001600160a01b0319831681178455604051919092169283917f8be0079c531659141344cd1fd0a4f28419497f9722a3daafe3b4186f6b6457e09190a35050565b611b868062000c7983390190565b600081518084526020808501945080840160005b83811015620005fc57815187529582019590820190600101620005de565b509495945050505050565b602081526000620002ee6020830184620005ca565b6000602082840312156200062f57600080fd5b5035919050565b6020808252825182820181905260009190848201906040850190845b81811015620006795783516001600160a01b03168352928401929184019160010162000652565b50909695505050505050565b6001600160a01b0381168114620003d357600080fd5b8035620006a88162000685565b919050565b600060208284031215620006c057600080fd5b8135620002ee8162000685565b634e487b7160e01b600052604160045260246000fd5b604051601f8201601f191681016001600160401b03811182821017156200070e576200070e620006cd565b604052919050565b60006001600160401b03821115620007325762000732620006cd565b5060051b60200190565b600082601f8301126200074e57600080fd5b8135602062000767620007618362000716565b620006e3565b82815260059290921b840181019181810190868411156200078757600080fd5b8286015b84811015620007a457803583529183019183016200078b565b509695505050505050565b600082601f830112620007c157600080fd5b81356001600160401b03811115620007dd57620007dd620006cd565b620007f2601f8201601f1916602001620006e3565b8181528460208386010111156200080857600080fd5b816020850160208301376000918101602001919091529392505050565b600082601f8301126200083757600080fd5b813560206200084a620007618362000716565b82815260059290921b840181019181810190868411156200086a57600080fd5b8286015b84811015620007a45780356001600160401b038111156200088f5760008081fd5b6200089f8986838b0101620007af565b8452509183019183016200086e565b60008060008060008060008060008060006101608c8e031215620008d157600080fd5b620008dc8c6200069b565b9a50620008ec60208d016200069b565b9950620008fc60408d016200069b565b985060608c013597506001600160401b0360808d01358110156200091f57600080fd5b620009318e60808f01358f016200073c565b97508060a08e013511156200094557600080fd5b620009578e60a08f01358f0162000825565b96508060c08e013511156200096b57600080fd5b6200097d8e60c08f01358f016200073c565b95508060e08e013511156200099157600080fd5b620009a38e60e08f01358f016200073c565b94506101008d01359350806101208e01351115620009c057600080fd5b620009d38e6101208f01358f016200073c565b9250806101408e01351115620009e857600080fd5b50620009fc8d6101408e01358e01620007af565b90509295989b509295989b9093969950565b60208082526019908201527814d95cdcda5bdb88125108191bd95cc81b9bdd08195e1a5cdd603a1b604082015260600190565b6000602080838503121562000a5557600080fd5b82516001600160401b0381111562000a6c57600080fd5b8301601f8101851362000a7e57600080fd5b805162000a8f620007618262000716565b81815260059190911b8201830190838101908783111562000aaf57600080fd5b928401925b8284101562000ada57835162000aca8162000685565b8252928401929084019062000ab4565b979650505050505050565b634e487b7160e01b600052603260045260246000fd5b6000815180845260005b8181101562000b235760208185018101518683018201520162000b05565b506000602082860101526020601f19601f83011685010191505092915050565b6000815180845260208085019450848260051b860182860160005b8581101562000b8c57838303895262000b7983835162000afb565b9885019892509084019060010162000b5e565b5090979650505050505050565b6001600160a01b038c811682528b811660208301528a166040820152606081018990526101606080820181905260009062000bd78382018b620005ca565b905082810360a084015262000bed818a62000b43565b905082810360c084015262000c038189620005ca565b90508660e08401528561010084015282810361012084015262000c278186620005ca565b905082810361014084015262000c3e818562000afb565b9e9d5050505050505050505050505050565b60006001820162000c7157634e487b7160e01b600052601160045260246000fd5b506001019056fe60806040523480156200001157600080fd5b5060405162001b8638038062001b868339810160408190526200003491620006e9565b6200003f336200011c565b600380546001600160a01b03808e166001600160a01b031992831617909255600480548d841690831617905560058054928c169290911691909117905560066200008a8282620008cd565b50620000f9888588600081518110620000a757620000a762000999565b60200260200101518a600081518110620000c557620000c562000999565b602002602001015189600081518110620000e357620000e362000999565b602002602001015188876200016c60201b60201c565b6200010b8885888a8988888862000288565b505050505050505050505062000afc565b600080546001600160a01b038381166001600160a01b0319831681178455604051919092169283917f8be0079c531659141344cd1fd0a4f28419497f9722a3daafe3b4186f6b6457e09190a35050565b6200017662000466565b600354604051633e50e26760e21b81526000916001600160a01b03169063f943899c90620001b5908b908b908b908b908b908b908b90600401620009dd565b6020604051808303816000875af1158015620001d5573d6000803e3d6000fd5b505050506040513d601f19601f82011682018060405250810190620001fb919062000a32565b90508060018760405162000210919062000a57565b90815260405190819003602001902080546001600160a01b03929092166001600160a01b0319909216919091179055600280546001810182556000919091527f405787fa12a823e0f2b7631cc41b3ba8828b3321ca811111fa75cd3aa3bb5ace016200027d8782620008cd565b505050505050505050565b6200029262000466565b855160015b818110156200045a5760045488516000916001600160a01b031690635c2d70ce908d908d908d9087908110620002d157620002d162000999565b60200260200101518c8781518110620002ee57620002ee62000999565b60200260200101518c88815181106200030b576200030b62000999565b60200260200101518c8c8a8151811062000329576200032962000999565b60200260200101518c6040518963ffffffff1660e01b81526004016200035798979695949392919062000a75565b6020604051808303816000875af115801562000377573d6000803e3d6000fd5b505050506040513d601f19601f820116820180604052508101906200039d919062000a32565b90508060018a8481518110620003b757620003b762000999565b6020026020010151604051620003ce919062000a57565b908152602001604051809103902060006101000a8154816001600160a01b0302191690836001600160a01b03160217905550600289838151811062000417576200041762000999565b60209081029190910181015182546001810184556000938452919092200190620004429082620008cd565b50508080620004519062000ad4565b91505062000297565b50505050505050505050565b6000546001600160a01b03163314620004c55760405162461bcd60e51b815260206004820181905260248201527f4f776e61626c653a2063616c6c6572206973206e6f7420746865206f776e6572604482015260640160405180910390fd5b565b80516001600160a01b0381168114620004df57600080fd5b919050565b634e487b7160e01b600052604160045260246000fd5b604051601f8201601f191681016001600160401b0381118282101715620005255762000525620004e4565b604052919050565b60006001600160401b03821115620005495762000549620004e4565b5060051b60200190565b600082601f8301126200056557600080fd5b815160206200057e62000578836200052d565b620004fa565b82815260059290921b840181019181810190868411156200059e57600080fd5b8286015b84811015620005bb5780518352918301918301620005a2565b509695505050505050565b60005b83811015620005e3578181015183820152602001620005c9565b50506000910152565b600082601f830112620005fe57600080fd5b81516001600160401b038111156200061a576200061a620004e4565b6200062f601f8201601f1916602001620004fa565b8181528460208386010111156200064557600080fd5b62000658826020830160208701620005c6565b949350505050565b600082601f8301126200067257600080fd5b815160206200068562000578836200052d565b82815260059290921b84018101918181019086841115620006a557600080fd5b8286015b84811015620005bb5780516001600160401b03811115620006ca5760008081fd5b620006da8986838b0101620005ec565b845250918301918301620006a9565b60008060008060008060008060008060006101608c8e0312156200070c57600080fd5b620007178c620004c7565b9a506200072760208d01620004c7565b99506200073760408d01620004c7565b60608d015160808e0151919a5098506001600160401b038111156200075b57600080fd5b620007698e828f0162000553565b60a08e015190985090506001600160401b038111156200078857600080fd5b620007968e828f0162000660565b60c08e015190975090506001600160401b03811115620007b557600080fd5b620007c38e828f0162000553565b95505060e08c015193506101008c015192506101208c015160018060401b03811115620007ef57600080fd5b620007fd8e828f0162000553565b6101408e015190935090506001600160401b038111156200081d57600080fd5b6200082b8e828f01620005ec565b9150509295989b509295989b9093969950565b600181811c908216806200085357607f821691505b6020821081036200087457634e487b7160e01b600052602260045260246000fd5b50919050565b601f821115620008c857600081815260208120601f850160051c81016020861015620008a35750805b601f850160051c820191505b81811015620008c457828155600101620008af565b5050505b505050565b81516001600160401b03811115620008e957620008e9620004e4565b6200090181620008fa84546200083e565b846200087a565b602080601f831160018114620009395760008415620009205750858301515b600019600386901b1c1916600185901b178555620008c4565b600085815260208120601f198616915b828110156200096a5788860151825594840194600190910190840162000949565b5085821015620009895787850151600019600388901b60f8161c191681555b5050505050600190811b01905550565b634e487b7160e01b600052603260045260246000fd5b60008151808452620009c9816020860160208601620005c6565b601f01601f19169290920160200192915050565b87815286602082015260e060408201526000620009fe60e0830188620009af565b8660608401528560808401528460a084015282810360c084015262000a248185620009af565b9a9950505050505050505050565b60006020828403121562000a4557600080fd5b62000a5082620004c7565b9392505050565b6000825162000a6b818460208701620005c6565b9190910192915050565b60006101008a835289602084015280604084015262000a978184018a620009af565b90508760608401528660808401528560a08401528460c084015282810360e084015262000ac58185620009af565b9b9a5050505050505050505050565b60006001820162000af557634e487b7160e01b600052601160045260246000fd5b5060010190565b61107a8062000b0c6000396000f3fe608060405234801561001057600080fd5b50600436106100a45760003560e01c8063183a471c146100a9578063290f3094146100d957806335603440146100ee57806348a4f2e91461010e578063715018a6146101235780637580916b1461012b5780638043c9c01461015f578063849db6bf146101675780638da5cb5b1461017a5780639648c9f414610182578063cc43700814610199578063f2fde38b146101ae575b600080fd5b6100bc6100b736600461093c565b6101c1565b6040516001600160a01b0390911681526020015b60405180910390f35b6100ec6100e7366004610978565b6101f2565b005b6101016100fc366004610a0b565b610303565b6040516100d09190610a74565b6101166103af565b6040516100d09190610a8e565b6100ec610488565b6100bc61013936600461093c565b80516020818301810180516001825292820191909301209152546001600160a01b031681565b61010161049c565b6100ec610175366004610bfd565b6104a9565b6100bc610666565b61018b60075481565b6040519081526020016100d0565b6101a1610675565b6040516100d09190610ceb565b6100ec6101bc366004610d4d565b61075a565b60006001826040516101d39190610d6a565b908152604051908190036020019020546001600160a01b031692915050565b6101fa6107d8565b600354604051633e50e26760e21b81526000916001600160a01b03169063f943899c90610237908b908b908b908b908b908b908b90600401610d86565b6020604051808303816000875af1158015610256573d6000803e3d6000fd5b505050506040513d601f19601f8201168201806040525081019061027a9190610dd7565b90508060018760405161028d9190610d6a565b90815260405190819003602001902080546001600160a01b03929092166001600160a01b0319909216919091179055600280546001810182556000919091527f405787fa12a823e0f2b7631cc41b3ba8828b3321ca811111fa75cd3aa3bb5ace016102f88782610e77565b505050505050505050565b6002818154811061031357600080fd5b90600052602060002001600091509050805461032e90610df4565b80601f016020809104026020016040519081016040528092919081815260200182805461035a90610df4565b80156103a75780601f1061037c576101008083540402835291602001916103a7565b820191906000526020600020905b81548152906001019060200180831161038a57829003601f168201915b505050505081565b60606002805480602002602001604051908101604052809291908181526020016000905b8282101561047f5783829060005260206000200180546103f290610df4565b80601f016020809104026020016040519081016040528092919081815260200182805461041e90610df4565b801561046b5780601f106104405761010080835404028352916020019161046b565b820191906000526020600020905b81548152906001019060200180831161044e57829003601f168201915b5050505050815260200190600101906103d3565b50505050905090565b6104906107d8565b61049a6000610837565b565b6006805461032e90610df4565b6104b16107d8565b855160015b8181101561065a5760045488516000916001600160a01b031690635c2d70ce908d908d908d90879081106104ec576104ec610f36565b60200260200101518c878151811061050657610506610f36565b60200260200101518c888151811061052057610520610f36565b60200260200101518c8c8a8151811061053b5761053b610f36565b60200260200101518c6040518963ffffffff1660e01b8152600401610567989796959493929190610f4c565b6020604051808303816000875af1158015610586573d6000803e3d6000fd5b505050506040513d601f19601f820116820180604052508101906105aa9190610dd7565b90508060018a84815181106105c1576105c1610f36565b60200260200101516040516105d69190610d6a565b908152602001604051809103902060006101000a8154816001600160a01b0302191690836001600160a01b03160217905550600289838151811061061c5761061c610f36565b602090810291909101810151825460018101845560009384529190922001906106459082610e77565b5050808061065290610fa7565b9150506104b6565b50505050505050505050565b6000546001600160a01b031690565b6002546060906000906001600160401b0381111561069557610695610887565b6040519080825280602002602001820160405280156106be578160200160208202803683370190505b50905060005b600254811015610754576001600282815481106106e3576106e3610f36565b906000526020600020016040516106fa9190610fce565b9081526040519081900360200190205482516001600160a01b039091169083908390811061072a5761072a610f36565b6001600160a01b03909216602092830291909101909101528061074c81610fa7565b9150506106c4565b50919050565b6107626107d8565b6001600160a01b0381166107cc5760405162461bcd60e51b815260206004820152602660248201527f4f776e61626c653a206e6577206f776e657220697320746865207a65726f206160448201526564647265737360d01b60648201526084015b60405180910390fd5b6107d581610837565b50565b336107e1610666565b6001600160a01b03161461049a5760405162461bcd60e51b815260206004820181905260248201527f4f776e61626c653a2063616c6c6572206973206e6f7420746865206f776e657260448201526064016107c3565b600080546001600160a01b038381166001600160a01b0319831681178455604051919092169283917f8be0079c531659141344cd1fd0a4f28419497f9722a3daafe3b4186f6b6457e09190a35050565b634e487b7160e01b600052604160045260246000fd5b604051601f8201601f191681016001600160401b03811182821017156108c5576108c5610887565b604052919050565b600082601f8301126108de57600080fd5b81356001600160401b038111156108f7576108f7610887565b61090a601f8201601f191660200161089d565b81815284602083860101111561091f57600080fd5b816020850160208301376000918101602001919091529392505050565b60006020828403121561094e57600080fd5b81356001600160401b0381111561096457600080fd5b610970848285016108cd565b949350505050565b600080600080600080600060e0888a03121561099357600080fd5b873596506020880135955060408801356001600160401b03808211156109b857600080fd5b6109c48b838c016108cd565b965060608a0135955060808a0135945060a08a0135935060c08a01359150808211156109ef57600080fd5b506109fc8a828b016108cd565b91505092959891949750929550565b600060208284031215610a1d57600080fd5b5035919050565b60005b83811015610a3f578181015183820152602001610a27565b50506000910152565b60008151808452610a60816020860160208601610a24565b601f01601f19169290920160200192915050565b602081526000610a876020830184610a48565b9392505050565b6000602080830181845280855180835260408601915060408160051b870101925083870160005b82811015610ae357603f19888603018452610ad1858351610a48565b94509285019290850190600101610ab5565b5092979650505050505050565b60006001600160401b03821115610b0957610b09610887565b5060051b60200190565b600082601f830112610b2457600080fd5b81356020610b39610b3483610af0565b61089d565b82815260059290921b84018101918181019086841115610b5857600080fd5b8286015b84811015610b975780356001600160401b03811115610b7b5760008081fd5b610b898986838b01016108cd565b845250918301918301610b5c565b509695505050505050565b600082601f830112610bb357600080fd5b81356020610bc3610b3483610af0565b82815260059290921b84018101918181019086841115610be257600080fd5b8286015b84811015610b975780358352918301918301610be6565b600080600080600080600080610100898b031215610c1a57600080fd5b883597506020890135965060408901356001600160401b0380821115610c3f57600080fd5b610c4b8c838d01610b13565b975060608b0135915080821115610c6157600080fd5b610c6d8c838d01610ba2565b965060808b0135915080821115610c8357600080fd5b610c8f8c838d01610ba2565b955060a08b0135945060c08b0135915080821115610cac57600080fd5b610cb88c838d01610ba2565b935060e08b0135915080821115610cce57600080fd5b50610cdb8b828c016108cd565b9150509295985092959890939650565b6020808252825182820181905260009190848201906040850190845b81811015610d2c5783516001600160a01b031683529284019291840191600101610d07565b50909695505050505050565b6001600160a01b03811681146107d557600080fd5b600060208284031215610d5f57600080fd5b8135610a8781610d38565b60008251610d7c818460208701610a24565b9190910192915050565b87815286602082015260e060408201526000610da560e0830188610a48565b8660608401528560808401528460a084015282810360c0840152610dc98185610a48565b9a9950505050505050505050565b600060208284031215610de957600080fd5b8151610a8781610d38565b600181811c90821680610e0857607f821691505b60208210810361075457634e487b7160e01b600052602260045260246000fd5b601f821115610e7257600081815260208120601f850160051c81016020861015610e4f5750805b601f850160051c820191505b81811015610e6e57828155600101610e5b565b5050505b505050565b81516001600160401b03811115610e9057610e90610887565b610ea481610e9e8454610df4565b84610e28565b602080601f831160018114610ed95760008415610ec15750858301515b600019600386901b1c1916600185901b178555610e6e565b600085815260208120601f198616915b82811015610f0857888601518255948401946001909101908401610ee9565b5085821015610f265787850151600019600388901b60f8161c191681555b5050505050600190811b01905550565b634e487b7160e01b600052603260045260246000fd5b60006101008a8352896020840152806040840152610f6c8184018a610a48565b90508760608401528660808401528560a08401528460c084015282810360e0840152610f988185610a48565b9b9a5050505050505050505050565b600060018201610fc757634e487b7160e01b600052601160045260246000fd5b5060010190565b6000808354610fdc81610df4565b60018281168015610ff4576001811461100957611038565b60ff1984168752821515830287019450611038565b8760005260208060002060005b8581101561102f5781548a820152908401908201611016565b50505082870194505b5092969550505050505056fea2646970667358221220410b93f6b8f840c90ee9ad1145c86752e1ad6cb7078664b0367da9cddcf5a13c64736f6c63430008130033a264697066735822122090ba0ca54be24473adc3611ff75498733447b22eb18541eb62ed623b26561e8e64736f6c6343000813003360806040523480156200001157600080fd5b5060405162001b8638038062001b868339810160408190526200003491620006e9565b6200003f336200011c565b600380546001600160a01b03808e166001600160a01b031992831617909255600480548d841690831617905560058054928c169290911691909117905560066200008a8282620008cd565b50620000f9888588600081518110620000a757620000a762000999565b60200260200101518a600081518110620000c557620000c562000999565b602002602001015189600081518110620000e357620000e362000999565b602002602001015188876200016c60201b60201c565b6200010b8885888a8988888862000288565b505050505050505050505062000afc565b600080546001600160a01b038381166001600160a01b0319831681178455604051919092169283917f8be0079c531659141344cd1fd0a4f28419497f9722a3daafe3b4186f6b6457e09190a35050565b6200017662000466565b600354604051633e50e26760e21b81526000916001600160a01b03169063f943899c90620001b5908b908b908b908b908b908b908b90600401620009dd565b6020604051808303816000875af1158015620001d5573d6000803e3d6000fd5b505050506040513d601f19601f82011682018060405250810190620001fb919062000a32565b90508060018760405162000210919062000a57565b90815260405190819003602001902080546001600160a01b03929092166001600160a01b0319909216919091179055600280546001810182556000919091527f405787fa12a823e0f2b7631cc41b3ba8828b3321ca811111fa75cd3aa3bb5ace016200027d8782620008cd565b505050505050505050565b6200029262000466565b855160015b818110156200045a5760045488516000916001600160a01b031690635c2d70ce908d908d908d9087908110620002d157620002d162000999565b60200260200101518c8781518110620002ee57620002ee62000999565b60200260200101518c88815181106200030b576200030b62000999565b60200260200101518c8c8a8151811062000329576200032962000999565b60200260200101518c6040518963ffffffff1660e01b81526004016200035798979695949392919062000a75565b6020604051808303816000875af115801562000377573d6000803e3d6000fd5b505050506040513d601f19601f820116820180604052508101906200039d919062000a32565b90508060018a8481518110620003b757620003b762000999565b6020026020010151604051620003ce919062000a57565b908152602001604051809103902060006101000a8154816001600160a01b0302191690836001600160a01b03160217905550600289838151811062000417576200041762000999565b60209081029190910181015182546001810184556000938452919092200190620004429082620008cd565b50508080620004519062000ad4565b91505062000297565b50505050505050505050565b6000546001600160a01b03163314620004c55760405162461bcd60e51b815260206004820181905260248201527f4f776e61626c653a2063616c6c6572206973206e6f7420746865206f776e6572604482015260640160405180910390fd5b565b80516001600160a01b0381168114620004df57600080fd5b919050565b634e487b7160e01b600052604160045260246000fd5b604051601f8201601f191681016001600160401b0381118282101715620005255762000525620004e4565b604052919050565b60006001600160401b03821115620005495762000549620004e4565b5060051b60200190565b600082601f8301126200056557600080fd5b815160206200057e62000578836200052d565b620004fa565b82815260059290921b840181019181810190868411156200059e57600080fd5b8286015b84811015620005bb5780518352918301918301620005a2565b509695505050505050565b60005b83811015620005e3578181015183820152602001620005c9565b50506000910152565b600082601f830112620005fe57600080fd5b81516001600160401b038111156200061a576200061a620004e4565b6200062f601f8201601f1916602001620004fa565b8181528460208386010111156200064557600080fd5b62000658826020830160208701620005c6565b949350505050565b600082601f8301126200067257600080fd5b815160206200068562000578836200052d565b82815260059290921b84018101918181019086841115620006a557600080fd5b8286015b84811015620005bb5780516001600160401b03811115620006ca5760008081fd5b620006da8986838b0101620005ec565b845250918301918301620006a9565b60008060008060008060008060008060006101608c8e0312156200070c57600080fd5b620007178c620004c7565b9a506200072760208d01620004c7565b99506200073760408d01620004c7565b60608d015160808e0151919a5098506001600160401b038111156200075b57600080fd5b620007698e828f0162000553565b60a08e015190985090506001600160401b038111156200078857600080fd5b620007968e828f0162000660565b60c08e015190975090506001600160401b03811115620007b557600080fd5b620007c38e828f0162000553565b95505060e08c015193506101008c015192506101208c015160018060401b03811115620007ef57600080fd5b620007fd8e828f0162000553565b6101408e015190935090506001600160401b038111156200081d57600080fd5b6200082b8e828f01620005ec565b9150509295989b509295989b9093969950565b600181811c908216806200085357607f821691505b6020821081036200087457634e487b7160e01b600052602260045260246000fd5b50919050565b601f821115620008c857600081815260208120601f850160051c81016020861015620008a35750805b601f850160051c820191505b81811015620008c457828155600101620008af565b5050505b505050565b81516001600160401b03811115620008e957620008e9620004e4565b6200090181620008fa84546200083e565b846200087a565b602080601f831160018114620009395760008415620009205750858301515b600019600386901b1c1916600185901b178555620008c4565b600085815260208120601f198616915b828110156200096a5788860151825594840194600190910190840162000949565b5085821015620009895787850151600019600388901b60f8161c191681555b5050505050600190811b01905550565b634e487b7160e01b600052603260045260246000fd5b60008151808452620009c9816020860160208601620005c6565b601f01601f19169290920160200192915050565b87815286602082015260e060408201526000620009fe60e0830188620009af565b8660608401528560808401528460a084015282810360c084015262000a248185620009af565b9a9950505050505050505050565b60006020828403121562000a4557600080fd5b62000a5082620004c7565b9392505050565b6000825162000a6b818460208701620005c6565b9190910192915050565b60006101008a835289602084015280604084015262000a978184018a620009af565b90508760608401528660808401528560a08401528460c084015282810360e084015262000ac58185620009af565b9b9a5050505050505050505050565b60006001820162000af557634e487b7160e01b600052601160045260246000fd5b5060010190565b61107a8062000b0c6000396000f3fe608060405234801561001057600080fd5b50600436106100a45760003560e01c8063183a471c146100a9578063290f3094146100d957806335603440146100ee57806348a4f2e91461010e578063715018a6146101235780637580916b1461012b5780638043c9c01461015f578063849db6bf146101675780638da5cb5b1461017a5780639648c9f414610182578063cc43700814610199578063f2fde38b146101ae575b600080fd5b6100bc6100b736600461093c565b6101c1565b6040516001600160a01b0390911681526020015b60405180910390f35b6100ec6100e7366004610978565b6101f2565b005b6101016100fc366004610a0b565b610303565b6040516100d09190610a74565b6101166103af565b6040516100d09190610a8e565b6100ec610488565b6100bc61013936600461093c565b80516020818301810180516001825292820191909301209152546001600160a01b031681565b61010161049c565b6100ec610175366004610bfd565b6104a9565b6100bc610666565b61018b60075481565b6040519081526020016100d0565b6101a1610675565b6040516100d09190610ceb565b6100ec6101bc366004610d4d565b61075a565b60006001826040516101d39190610d6a565b908152604051908190036020019020546001600160a01b031692915050565b6101fa6107d8565b600354604051633e50e26760e21b81526000916001600160a01b03169063f943899c90610237908b908b908b908b908b908b908b90600401610d86565b6020604051808303816000875af1158015610256573d6000803e3d6000fd5b505050506040513d601f19601f8201168201806040525081019061027a9190610dd7565b90508060018760405161028d9190610d6a565b90815260405190819003602001902080546001600160a01b03929092166001600160a01b0319909216919091179055600280546001810182556000919091527f405787fa12a823e0f2b7631cc41b3ba8828b3321ca811111fa75cd3aa3bb5ace016102f88782610e77565b505050505050505050565b6002818154811061031357600080fd5b90600052602060002001600091509050805461032e90610df4565b80601f016020809104026020016040519081016040528092919081815260200182805461035a90610df4565b80156103a75780601f1061037c576101008083540402835291602001916103a7565b820191906000526020600020905b81548152906001019060200180831161038a57829003601f168201915b505050505081565b60606002805480602002602001604051908101604052809291908181526020016000905b8282101561047f5783829060005260206000200180546103f290610df4565b80601f016020809104026020016040519081016040528092919081815260200182805461041e90610df4565b801561046b5780601f106104405761010080835404028352916020019161046b565b820191906000526020600020905b81548152906001019060200180831161044e57829003601f168201915b5050505050815260200190600101906103d3565b50505050905090565b6104906107d8565b61049a6000610837565b565b6006805461032e90610df4565b6104b16107d8565b855160015b8181101561065a5760045488516000916001600160a01b031690635c2d70ce908d908d908d90879081106104ec576104ec610f36565b60200260200101518c878151811061050657610506610f36565b60200260200101518c888151811061052057610520610f36565b60200260200101518c8c8a8151811061053b5761053b610f36565b60200260200101518c6040518963ffffffff1660e01b8152600401610567989796959493929190610f4c565b6020604051808303816000875af1158015610586573d6000803e3d6000fd5b505050506040513d601f19601f820116820180604052508101906105aa9190610dd7565b90508060018a84815181106105c1576105c1610f36565b60200260200101516040516105d69190610d6a565b908152602001604051809103902060006101000a8154816001600160a01b0302191690836001600160a01b03160217905550600289838151811061061c5761061c610f36565b602090810291909101810151825460018101845560009384529190922001906106459082610e77565b5050808061065290610fa7565b9150506104b6565b50505050505050505050565b6000546001600160a01b031690565b6002546060906000906001600160401b0381111561069557610695610887565b6040519080825280602002602001820160405280156106be578160200160208202803683370190505b50905060005b600254811015610754576001600282815481106106e3576106e3610f36565b906000526020600020016040516106fa9190610fce565b9081526040519081900360200190205482516001600160a01b039091169083908390811061072a5761072a610f36565b6001600160a01b03909216602092830291909101909101528061074c81610fa7565b9150506106c4565b50919050565b6107626107d8565b6001600160a01b0381166107cc5760405162461bcd60e51b815260206004820152602660248201527f4f776e61626c653a206e6577206f776e657220697320746865207a65726f206160448201526564647265737360d01b60648201526084015b60405180910390fd5b6107d581610837565b50565b336107e1610666565b6001600160a01b03161461049a5760405162461bcd60e51b815260206004820181905260248201527f4f776e61626c653a2063616c6c6572206973206e6f7420746865206f776e657260448201526064016107c3565b600080546001600160a01b038381166001600160a01b0319831681178455604051919092169283917f8be0079c531659141344cd1fd0a4f28419497f9722a3daafe3b4186f6b6457e09190a35050565b634e487b7160e01b600052604160045260246000fd5b604051601f8201601f191681016001600160401b03811182821017156108c5576108c5610887565b604052919050565b600082601f8301126108de57600080fd5b81356001600160401b038111156108f7576108f7610887565b61090a601f8201601f191660200161089d565b81815284602083860101111561091f57600080fd5b816020850160208301376000918101602001919091529392505050565b60006020828403121561094e57600080fd5b81356001600160401b0381111561096457600080fd5b610970848285016108cd565b949350505050565b600080600080600080600060e0888a03121561099357600080fd5b873596506020880135955060408801356001600160401b03808211156109b857600080fd5b6109c48b838c016108cd565b965060608a0135955060808a0135945060a08a0135935060c08a01359150808211156109ef57600080fd5b506109fc8a828b016108cd565b91505092959891949750929550565b600060208284031215610a1d57600080fd5b5035919050565b60005b83811015610a3f578181015183820152602001610a27565b50506000910152565b60008151808452610a60816020860160208601610a24565b601f01601f19169290920160200192915050565b602081526000610a876020830184610a48565b9392505050565b6000602080830181845280855180835260408601915060408160051b870101925083870160005b82811015610ae357603f19888603018452610ad1858351610a48565b94509285019290850190600101610ab5565b5092979650505050505050565b60006001600160401b03821115610b0957610b09610887565b5060051b60200190565b600082601f830112610b2457600080fd5b81356020610b39610b3483610af0565b61089d565b82815260059290921b84018101918181019086841115610b5857600080fd5b8286015b84811015610b975780356001600160401b03811115610b7b5760008081fd5b610b898986838b01016108cd565b845250918301918301610b5c565b509695505050505050565b600082601f830112610bb357600080fd5b81356020610bc3610b3483610af0565b82815260059290921b84018101918181019086841115610be257600080fd5b8286015b84811015610b975780358352918301918301610be6565b600080600080600080600080610100898b031215610c1a57600080fd5b883597506020890135965060408901356001600160401b0380821115610c3f57600080fd5b610c4b8c838d01610b13565b975060608b0135915080821115610c6157600080fd5b610c6d8c838d01610ba2565b965060808b0135915080821115610c8357600080fd5b610c8f8c838d01610ba2565b955060a08b0135945060c08b0135915080821115610cac57600080fd5b610cb88c838d01610ba2565b935060e08b0135915080821115610cce57600080fd5b50610cdb8b828c016108cd565b9150509295985092959890939650565b6020808252825182820181905260009190848201906040850190845b81811015610d2c5783516001600160a01b031683529284019291840191600101610d07565b50909695505050505050565b6001600160a01b03811681146107d557600080fd5b600060208284031215610d5f57600080fd5b8135610a8781610d38565b60008251610d7c818460208701610a24565b9190910192915050565b87815286602082015260e060408201526000610da560e0830188610a48565b8660608401528560808401528460a084015282810360c0840152610dc98185610a48565b9a9950505050505050505050565b600060208284031215610de957600080fd5b8151610a8781610d38565b600181811c90821680610e0857607f821691505b60208210810361075457634e487b7160e01b600052602260045260246000fd5b601f821115610e7257600081815260208120601f850160051c81016020861015610e4f5750805b601f850160051c820191505b81811015610e6e57828155600101610e5b565b5050505b505050565b81516001600160401b03811115610e9057610e90610887565b610ea481610e9e8454610df4565b84610e28565b602080601f831160018114610ed95760008415610ec15750858301515b600019600386901b1c1916600185901b178555610e6e565b600085815260208120601f198616915b82811015610f0857888601518255948401946001909101908401610ee9565b5085821015610f265787850151600019600388901b60f8161c191681555b5050505050600190811b01905550565b634e487b7160e01b600052603260045260246000fd5b60006101008a8352896020840152806040840152610f6c8184018a610a48565b90508760608401528660808401528560a08401528460c084015282810360e0840152610f988185610a48565b9b9a5050505050505050505050565b600060018201610fc757634e487b7160e01b600052601160045260246000fd5b5060010190565b6000808354610fdc81610df4565b60018281168015610ff4576001811461100957611038565b60ff1984168752821515830287019450611038565b8760005260208060002060005b8581101561102f5781548a820152908401908201611016565b50505082870194505b5092969550505050505056fea2646970667358221220410b93f6b8f840c90ee9ad1145c86752e1ad6cb7078664b0367da9cddcf5a13c64736f6c63430008130033",
  "linkReferences": {},
  "deployedLinkReferences": {}
}