{
  "_format": "hh-sol-artifact-1",
  "contractName": "StandingNftContract",
  "sourceName": "contracts/StandingNftContract.sol",
  "abi": [
    {
      "inputs": [
        {
          "internalType": "string",
          "name": "_section",
          "type": "string"
        },
        {
          "internalType": "uint256",
          "name": "_supply",
          "type": "uint256"
        },
        {
          "internalType": "uint256",
          "name": "_startPrice",
          "type": "uint256"
        },
        {
          "internalType": "uint256",
          "name": "_priceCap",
          "type": "uint256"
        },
        {
          "internalType": "string",
          "name": "_event",
          "type": "string"
        }
      ],
      "stateMutability": "nonpayable",
      "type": "constructor"
    },
    {
      "anonymous": false,
      "inputs": [
        {
          "indexed": true,
          "internalType": "address",
          "name": "account",
          "type": "address"
        },
        {
          "indexed": true,
          "internalType": "address",
          "name": "operator",
          "type": "address"
        },
        {
          "indexed": false,
          "internalType": "bool",
          "name": "approved",
          "type": "bool"
        }
      ],
      "name": "ApprovalForAll",
      "type": "event"
    },
    {
      "anonymous": false,
      "inputs": [
        {
          "indexed": true,
          "internalType": "address",
          "name": "previousOwner",
          "type": "address"
        },
        {
          "indexed": true,
          "internalType": "address",
          "name": "newOwner",
          "type": "address"
        }
      ],
      "name": "OwnershipTransferred",
      "type": "event"
    },
    {
      "anonymous": false,
      "inputs": [
        {
          "indexed": true,
          "internalType": "address",
          "name": "operator",
          "type": "address"
        },
        {
          "indexed": true,
          "internalType": "address",
          "name": "from",
          "type": "address"
        },
        {
          "indexed": true,
          "internalType": "address",
          "name": "to",
          "type": "address"
        },
        {
          "indexed": false,
          "internalType": "uint256[]",
          "name": "ids",
          "type": "uint256[]"
        },
        {
          "indexed": false,
          "internalType": "uint256[]",
          "name": "values",
          "type": "uint256[]"
        }
      ],
      "name": "TransferBatch",
      "type": "event"
    },
    {
      "anonymous": false,
      "inputs": [
        {
          "indexed": true,
          "internalType": "address",
          "name": "operator",
          "type": "address"
        },
        {
          "indexed": true,
          "internalType": "address",
          "name": "from",
          "type": "address"
        },
        {
          "indexed": true,
          "internalType": "address",
          "name": "to",
          "type": "address"
        },
        {
          "indexed": false,
          "internalType": "uint256",
          "name": "id",
          "type": "uint256"
        },
        {
          "indexed": false,
          "internalType": "uint256",
          "name": "value",
          "type": "uint256"
        }
      ],
      "name": "TransferSingle",
      "type": "event"
    },
    {
      "anonymous": false,
      "inputs": [
        {
          "indexed": false,
          "internalType": "string",
          "name": "value",
          "type": "string"
        },
        {
          "indexed": true,
          "internalType": "uint256",
          "name": "id",
          "type": "uint256"
        }
      ],
      "name": "URI",
      "type": "event"
    },
    {
      "inputs": [],
      "name": "approveMarket",
      "outputs": [],
      "stateMutability": "nonpayable",
      "type": "function"
    },
    {
      "inputs": [
        {
          "internalType": "address",
          "name": "account",
          "type": "address"
        },
        {
          "internalType": "uint256",
          "name": "id",
          "type": "uint256"
        }
      ],
      "name": "balanceOf",
      "outputs": [
        {
          "internalType": "uint256",
          "name": "",
          "type": "uint256"
        }
      ],
      "stateMutability": "view",
      "type": "function"
    },
    {
      "inputs": [
        {
          "internalType": "address[]",
          "name": "accounts",
          "type": "address[]"
        },
        {
          "internalType": "uint256[]",
          "name": "ids",
          "type": "uint256[]"
        }
      ],
      "name": "balanceOfBatch",
      "outputs": [
        {
          "internalType": "uint256[]",
          "name": "",
          "type": "uint256[]"
        }
      ],
      "stateMutability": "view",
      "type": "function"
    },
    {
      "inputs": [],
      "name": "eventName",
      "outputs": [
        {
          "internalType": "string",
          "name": "",
          "type": "string"
        }
      ],
      "stateMutability": "view",
      "type": "function"
    },
    {
      "inputs": [],
      "name": "getEventName",
      "outputs": [
        {
          "internalType": "string",
          "name": "",
          "type": "string"
        }
      ],
      "stateMutability": "view",
      "type": "function"
    },
    {
      "inputs": [],
      "name": "getOwner",
      "outputs": [
        {
          "internalType": "address",
          "name": "",
          "type": "address"
        }
      ],
      "stateMutability": "view",
      "type": "function"
    },
    {
      "inputs": [],
      "name": "getPriceCap",
      "outputs": [
        {
          "internalType": "uint256",
          "name": "",
          "type": "uint256"
        }
      ],
      "stateMutability": "view",
      "type": "function"
    },
    {
      "inputs": [],
      "name": "getSection",
      "outputs": [
        {
          "internalType": "string",
          "name": "",
          "type": "string"
        }
      ],
      "stateMutability": "pure",
      "type": "function"
    },
    {
      "inputs": [],
      "name": "getStartPrice",
      "outputs": [
        {
          "internalType": "uint256",
          "name": "",
          "type": "uint256"
        }
      ],
      "stateMutability": "view",
      "type": "function"
    },
    {
      "inputs": [],
      "name": "getStartSeat",
      "outputs": [
        {
          "internalType": "uint256",
          "name": "",
          "type": "uint256"
        }
      ],
      "stateMutability": "pure",
      "type": "function"
    },
    {
      "inputs": [],
      "name": "getSupply",
      "outputs": [
        {
          "internalType": "uint256",
          "name": "",
          "type": "uint256"
        }
      ],
      "stateMutability": "view",
      "type": "function"
    },
    {
      "inputs": [],
      "name": "getTicketsLeft",
      "outputs": [
        {
          "internalType": "uint256",
          "name": "",
          "type": "uint256"
        }
      ],
      "stateMutability": "view",
      "type": "function"
    },
    {
      "inputs": [
        {
          "internalType": "uint256",
          "name": "_tokenid",
          "type": "uint256"
        }
      ],
      "name": "getTokenURI",
      "outputs": [
        {
          "internalType": "string",
          "name": "",
          "type": "string"
        }
      ],
      "stateMutability": "view",
      "type": "function"
    },
    {
      "inputs": [
        {
          "internalType": "address",
          "name": "account",
          "type": "address"
        },
        {
          "internalType": "address",
          "name": "operator",
          "type": "address"
        }
      ],
      "name": "isApprovedForAll",
      "outputs": [
        {
          "internalType": "bool",
          "name": "",
          "type": "bool"
        }
      ],
      "stateMutability": "view",
      "type": "function"
    },
    {
      "inputs": [],
      "name": "marketPlaceAddress",
      "outputs": [
        {
          "internalType": "address",
          "name": "",
          "type": "address"
        }
      ],
      "stateMutability": "view",
      "type": "function"
    },
    {
      "inputs": [],
      "name": "mint",
      "outputs": [],
      "stateMutability": "payable",
      "type": "function"
    },
    {
      "inputs": [
        {
          "internalType": "uint256",
          "name": "_amount",
          "type": "uint256"
        }
      ],
      "name": "mintBatch",
      "outputs": [],
      "stateMutability": "payable",
      "type": "function"
    },
    {
      "inputs": [],
      "name": "mintCount",
      "outputs": [
        {
          "internalType": "uint256",
          "name": "",
          "type": "uint256"
        }
      ],
      "stateMutability": "view",
      "type": "function"
    },
    {
      "inputs": [],
      "name": "owner",
      "outputs": [
        {
          "internalType": "address",
          "name": "",
          "type": "address"
        }
      ],
      "stateMutability": "view",
      "type": "function"
    },
    {
      "inputs": [],
      "name": "priceCap",
      "outputs": [
        {
          "internalType": "uint256",
          "name": "",
          "type": "uint256"
        }
      ],
      "stateMutability": "view",
      "type": "function"
    },
    {
      "inputs": [],
      "name": "renounceOwnership",
      "outputs": [],
      "stateMutability": "nonpayable",
      "type": "function"
    },
    {
      "inputs": [
        {
          "internalType": "address",
          "name": "from",
          "type": "address"
        },
        {
          "internalType": "address",
          "name": "to",
          "type": "address"
        },
        {
          "internalType": "uint256[]",
          "name": "ids",
          "type": "uint256[]"
        },
        {
          "internalType": "uint256[]",
          "name": "amounts",
          "type": "uint256[]"
        },
        {
          "internalType": "bytes",
          "name": "data",
          "type": "bytes"
        }
      ],
      "name": "safeBatchTransferFrom",
      "outputs": [],
      "stateMutability": "nonpayable",
      "type": "function"
    },
    {
      "inputs": [
        {
          "internalType": "address",
          "name": "from",
          "type": "address"
        },
        {
          "internalType": "address",
          "name": "to",
          "type": "address"
        },
        {
          "internalType": "uint256",
          "name": "id",
          "type": "uint256"
        },
        {
          "internalType": "uint256",
          "name": "amount",
          "type": "uint256"
        },
        {
          "internalType": "bytes",
          "name": "data",
          "type": "bytes"
        }
      ],
      "name": "safeTransferFrom",
      "outputs": [],
      "stateMutability": "nonpayable",
      "type": "function"
    },
    {
      "inputs": [],
      "name": "section",
      "outputs": [
        {
          "internalType": "string",
          "name": "",
          "type": "string"
        }
      ],
      "stateMutability": "view",
      "type": "function"
    },
    {
      "inputs": [
        {
          "internalType": "address",
          "name": "operator",
          "type": "address"
        },
        {
          "internalType": "bool",
          "name": "approved",
          "type": "bool"
        }
      ],
      "name": "setApprovalForAll",
      "outputs": [],
      "stateMutability": "nonpayable",
      "type": "function"
    },
    {
      "inputs": [
        {
          "internalType": "address",
          "name": "_marketPlaceAddress",
          "type": "address"
        }
      ],
      "name": "setMarketPlaceAddress",
      "outputs": [],
      "stateMutability": "nonpayable",
      "type": "function"
    },
    {
      "inputs": [],
      "name": "startPrice",
      "outputs": [
        {
          "internalType": "uint256",
          "name": "",
          "type": "uint256"
        }
      ],
      "stateMutability": "view",
      "type": "function"
    },
    {
      "inputs": [],
      "name": "supply",
      "outputs": [
        {
          "internalType": "uint256",
          "name": "",
          "type": "uint256"
        }
      ],
      "stateMutability": "view",
      "type": "function"
    },
    {
      "inputs": [
        {
          "internalType": "bytes4",
          "name": "interfaceId",
          "type": "bytes4"
        }
      ],
      "name": "supportsInterface",
      "outputs": [
        {
          "internalType": "bool",
          "name": "",
          "type": "bool"
        }
      ],
      "stateMutability": "view",
      "type": "function"
    },
    {
      "inputs": [
        {
          "internalType": "address",
          "name": "newOwner",
          "type": "address"
        }
      ],
      "name": "transferOwnership",
      "outputs": [],
      "stateMutability": "nonpayable",
      "type": "function"
    },
    {
      "inputs": [
        {
          "internalType": "uint256",
          "name": "_tokenid",
          "type": "uint256"
        }
      ],
      "name": "uri",
      "outputs": [
        {
          "internalType": "string",
          "name": "",
          "type": "string"
        }
      ],
      "stateMutability": "view",
      "type": "function"
    }
  ],
  "bytecode": "0x60806040523480156200001157600080fd5b506040516200487c3803806200487c833981810160405281019062000037919062000388565b806040516020016200004a91906200058b565b6040516020818303038152906040526200006a81620000d760201b60201c565b506200008b6200007f620000ec60201b60201c565b620000f460201b60201c565b84600590816200009c919062000801565b50836006819055508260088190555081600781905550600060098190555080600a9081620000cb919062000801565b505050505050620008e8565b8060029081620000e8919062000801565b5050565b600033905090565b6000600360009054906101000a900473ffffffffffffffffffffffffffffffffffffffff16905081600360006101000a81548173ffffffffffffffffffffffffffffffffffffffff021916908373ffffffffffffffffffffffffffffffffffffffff1602179055508173ffffffffffffffffffffffffffffffffffffffff168173ffffffffffffffffffffffffffffffffffffffff167f8be0079c531659141344cd1fd0a4f28419497f9722a3daafe3b4186f6b6457e060405160405180910390a35050565b6000604051905090565b600080fd5b600080fd5b600080fd5b600080fd5b6000601f19601f8301169050919050565b7f4e487b7100000000000000000000000000000000000000000000000000000000600052604160045260246000fd5b6200022382620001d8565b810181811067ffffffffffffffff82111715620002455762000244620001e9565b5b80604052505050565b60006200025a620001ba565b905062000268828262000218565b919050565b600067ffffffffffffffff8211156200028b576200028a620001e9565b5b6200029682620001d8565b9050602081019050919050565b60005b83811015620002c3578082015181840152602081019050620002a6565b60008484015250505050565b6000620002e6620002e0846200026d565b6200024e565b905082815260208101848484011115620003055762000304620001d3565b5b62000312848285620002a3565b509392505050565b600082601f830112620003325762000331620001ce565b5b815162000344848260208601620002cf565b91505092915050565b6000819050919050565b62000362816200034d565b81146200036e57600080fd5b50565b600081519050620003828162000357565b92915050565b600080600080600060a08688031215620003a757620003a6620001c4565b5b600086015167ffffffffffffffff811115620003c857620003c7620001c9565b5b620003d6888289016200031a565b9550506020620003e98882890162000371565b9450506040620003fc8882890162000371565b93505060606200040f8882890162000371565b925050608086015167ffffffffffffffff811115620004335762000432620001c9565b5b62000441888289016200031a565b9150509295509295909350565b600081905092915050565b7f68747470733a2f2f6d796170692e636f6d2f6170692f4e46542f000000000000600082015250565b600062000491601a836200044e565b91506200049e8262000459565b601a82019050919050565b600081519050919050565b6000620004c182620004a9565b620004cd81856200044e565b9350620004df818560208601620002a3565b80840191505092915050565b7f2f00000000000000000000000000000000000000000000000000000000000000600082015250565b6000620005236001836200044e565b91506200053082620004eb565b600182019050919050565b7f302e6a736f6e0000000000000000000000000000000000000000000000000000600082015250565b6000620005736006836200044e565b915062000580826200053b565b600682019050919050565b6000620005988262000482565b9150620005a68284620004b4565b9150620005b38262000514565b9150620005c08262000564565b915081905092915050565b7f4e487b7100000000000000000000000000000000000000000000000000000000600052602260045260246000fd5b600060028204905060018216806200061357607f821691505b602082108103620006295762000628620005cb565b5b50919050565b60008190508160005260206000209050919050565b60006020601f8301049050919050565b600082821b905092915050565b600060088302620006937fffffffffffffffffffffffffffffffffffffffffffffffffffffffffffffffff8262000654565b6200069f868362000654565b95508019841693508086168417925050509392505050565b6000819050919050565b6000620006e2620006dc620006d6846200034d565b620006b7565b6200034d565b9050919050565b6000819050919050565b620006fe83620006c1565b620007166200070d82620006e9565b84845462000661565b825550505050565b600090565b6200072d6200071e565b6200073a818484620006f3565b505050565b5b8181101562000762576200075660008262000723565b60018101905062000740565b5050565b601f821115620007b1576200077b816200062f565b620007868462000644565b8101602085101562000796578190505b620007ae620007a58562000644565b8301826200073f565b50505b505050565b600082821c905092915050565b6000620007d660001984600802620007b6565b1980831691505092915050565b6000620007f18383620007c3565b9150826002028217905092915050565b6200080c82620004a9565b67ffffffffffffffff811115620008285762000827620001e9565b5b620008348254620005fa565b6200084182828562000766565b600060209050601f83116001811462000879576000841562000864578287015190505b620008708582620007e3565b865550620008e0565b601f19841662000889866200062f565b60005b82811015620008b3578489015182556001820191506020850194506020810190506200088c565b86831015620008d35784890151620008cf601f891682620007c3565b8355505b6001600288020188555050505b505050505050565b613f8480620008f86000396000f3fe6080604052600436106101d75760003560e01c80636c9c2faf11610102578063baffa90311610095578063ed27107b11610064578063ed27107b14610673578063f1a9af891461069e578063f242432a146106c9578063f2fde38b146106f2576101d7565b8063baffa903146105cb578063c2560f2a146105f6578063cc98ef961461060d578063e985e9c514610636576101d7565b80638da5cb5b116100d15780638da5cb5b146105215780639659867e1461054c578063a22cb46514610577578063b81e43fc146105a0576101d7565b80636c9c2faf14610489578063715018a6146104b45780638043c9c0146104cb578063893d20e8146104f6576101d7565b8063278a262f1161017a5780634c7afe60116101495780634c7afe60146103cb5780634e1273f4146103f65780635a7bddbf14610433578063646f22c51461045e576101d7565b8063278a262f1461030f5780632c9cf3521461033a5780632eb2c2d6146103655780633bb3a24d1461038e576101d7565b8063047fc9aa116101b6578063047fc9aa146102815780630e89341c146102ac5780631249c58b146102e957806320e409b4146102f3576101d7565b8062fdd58e146101dc57806301ffc9a71461021957806302b7847c14610256575b600080fd5b3480156101e857600080fd5b5061020360048036038101906101fe91906126e5565b61071b565b6040516102109190612734565b60405180910390f35b34801561022557600080fd5b50610240600480360381019061023b91906127a7565b6107e3565b60405161024d91906127ef565b60405180910390f35b34801561026257600080fd5b5061026b6108c5565b6040516102789190612734565b60405180910390f35b34801561028d57600080fd5b506102966108cb565b6040516102a39190612734565b60405180910390f35b3480156102b857600080fd5b506102d360048036038101906102ce919061280a565b6108d1565b6040516102e091906128c7565b60405180910390f35b6102f1610905565b005b61030d6004803603810190610308919061280a565b6109c6565b005b34801561031b57600080fd5b50610324610b73565b60405161033191906128c7565b60405180910390f35b34801561034657600080fd5b5061034f610c01565b60405161035c9190612734565b60405180910390f35b34801561037157600080fd5b5061038c60048036038101906103879190612ae6565b610c06565b005b34801561039a57600080fd5b506103b560048036038101906103b0919061280a565b610ca7565b6040516103c291906128c7565b60405180910390f35b3480156103d757600080fd5b506103e0610cb9565b6040516103ed9190612734565b60405180910390f35b34801561040257600080fd5b5061041d60048036038101906104189190612c78565b610cc3565b60405161042a9190612dae565b60405180910390f35b34801561043f57600080fd5b50610448610ddc565b60405161045591906128c7565b60405180910390f35b34801561046a57600080fd5b50610473610e19565b6040516104809190612734565b60405180910390f35b34801561049557600080fd5b5061049e610e30565b6040516104ab9190612734565b60405180910390f35b3480156104c057600080fd5b506104c9610e3a565b005b3480156104d757600080fd5b506104e0610e4e565b6040516104ed91906128c7565b60405180910390f35b34801561050257600080fd5b5061050b610edc565b6040516105189190612ddf565b60405180910390f35b34801561052d57600080fd5b50610536610eeb565b6040516105439190612ddf565b60405180910390f35b34801561055857600080fd5b50610561610f15565b60405161056e9190612734565b60405180910390f35b34801561058357600080fd5b5061059e60048036038101906105999190612e26565b610f1b565b005b3480156105ac57600080fd5b506105b5610f31565b6040516105c291906128c7565b60405180910390f35b3480156105d757600080fd5b506105e0610fc3565b6040516105ed9190612734565b60405180910390f35b34801561060257600080fd5b5061060b610fcd565b005b34801561061957600080fd5b50610634600480360381019061062f9190612e66565b611068565b005b34801561064257600080fd5b5061065d60048036038101906106589190612e93565b611123565b60405161066a91906127ef565b60405180910390f35b34801561067f57600080fd5b506106886111b7565b6040516106959190612ddf565b60405180910390f35b3480156106aa57600080fd5b506106b36111dd565b6040516106c09190612734565b60405180910390f35b3480156106d557600080fd5b506106f060048036038101906106eb9190612ed3565b6111e3565b005b3480156106fe57600080fd5b5061071960048036038101906107149190612e66565b611284565b005b60008073ffffffffffffffffffffffffffffffffffffffff168373ffffffffffffffffffffffffffffffffffffffff160361078b576040517f08c379a000000000000000000000000000000000000000000000000000000000815260040161078290612fdc565b60405180910390fd5b60008083815260200190815260200160002060008473ffffffffffffffffffffffffffffffffffffffff1673ffffffffffffffffffffffffffffffffffffffff16815260200190815260200160002054905092915050565b60007fd9b67a26000000000000000000000000000000000000000000000000000000007bffffffffffffffffffffffffffffffffffffffffffffffffffffffff1916827bffffffffffffffffffffffffffffffffffffffffffffffffffffffff191614806108ae57507f0e89341c000000000000000000000000000000000000000000000000000000007bffffffffffffffffffffffffffffffffffffffffffffffffffffffff1916827bffffffffffffffffffffffffffffffffffffffffffffffffffffffff1916145b806108be57506108bd82611307565b5b9050919050565b60075481565b60065481565b6060600a6108de83611371565b6040516020016108ef929190613214565b6040516020818303038152906040529050919050565b6008543414610949576040517f08c379a0000000000000000000000000000000000000000000000000000000008152600401610940906132cb565b60405180910390fd5b6006546009541061098f576040517f08c379a000000000000000000000000000000000000000000000000000000000815260040161098690613337565b60405180910390fd5b6109ac33600060016040518060200160405280600081525061143f565b600960008154809291906109bf90613386565b9190505550565b60018111610a09576040517f08c379a0000000000000000000000000000000000000000000000000000000008152600401610a0090613440565b60405180910390fd5b60065460095482610a1a9190613460565b1115610a5b576040517f08c379a0000000000000000000000000000000000000000000000000000000008152600401610a5290613506565b60405180910390fd5b6000600167ffffffffffffffff811115610a7857610a776128ee565b5b604051908082528060200260200182016040528015610aa65781602001602082028036833780820191505090505b5090506000600167ffffffffffffffff811115610ac657610ac56128ee565b5b604051908082528060200260200182016040528015610af45781602001602082028036833780820191505090505b5090508282600081518110610b0c57610b0b613526565b5b602002602001018181525050600081600081518110610b2e57610b2d613526565b5b602002602001018181525050610b55338284604051806020016040528060008152506115ef565b8260096000828254610b679190613460565b92505081905550505050565b60058054610b8090613082565b80601f0160208091040260200160405190810160405280929190818152602001828054610bac90613082565b8015610bf95780601f10610bce57610100808354040283529160200191610bf9565b820191906000526020600020905b815481529060010190602001808311610bdc57829003601f168201915b505050505081565b600090565b610c0e61181b565b73ffffffffffffffffffffffffffffffffffffffff168573ffffffffffffffffffffffffffffffffffffffff161480610c545750610c5385610c4e61181b565b611123565b5b610c93576040517f08c379a0000000000000000000000000000000000000000000000000000000008152600401610c8a906135c7565b60405180910390fd5b610ca08585858585611823565b5050505050565b6060610cb2826108d1565b9050919050565b6000600754905090565b60608151835114610d09576040517f08c379a0000000000000000000000000000000000000000000000000000000008152600401610d0090613659565b60405180910390fd5b6000835167ffffffffffffffff811115610d2657610d256128ee565b5b604051908082528060200260200182016040528015610d545781602001602082028036833780820191505090505b50905060005b8451811015610dd157610da1858281518110610d7957610d78613526565b5b6020026020010151858381518110610d9457610d93613526565b5b602002602001015161071b565b828281518110610db457610db3613526565b5b60200260200101818152505080610dca90613386565b9050610d5a565b508091505092915050565b60606040518060400160405280601081526020017f5374616e64696e672073656374696f6e00000000000000000000000000000000815250905090565b6000600954600654610e2b9190613679565b905090565b6000600654905090565b610e42611b44565b610e4c6000611bc2565b565b600a8054610e5b90613082565b80601f0160208091040260200160405190810160405280929190818152602001828054610e8790613082565b8015610ed45780601f10610ea957610100808354040283529160200191610ed4565b820191906000526020600020905b815481529060010190602001808311610eb757829003601f168201915b505050505081565b6000610ee6610eeb565b905090565b6000600360009054906101000a900473ffffffffffffffffffffffffffffffffffffffff16905090565b60095481565b610f2d610f2661181b565b8383611c88565b5050565b6060600a8054610f4090613082565b80601f0160208091040260200160405190810160405280929190818152602001828054610f6c90613082565b8015610fb95780601f10610f8e57610100808354040283529160200191610fb9565b820191906000526020600020905b815481529060010190602001808311610f9c57829003601f168201915b5050505050905090565b6000600854905090565b610ff933600460009054906101000a900473ffffffffffffffffffffffffffffffffffffffff16611123565b15611039576040517f08c379a00000000000000000000000000000000000000000000000000000000081526004016110309061371f565b60405180910390fd5b611066600460009054906101000a900473ffffffffffffffffffffffffffffffffffffffff166001610f1b565b565b611070611b44565b600073ffffffffffffffffffffffffffffffffffffffff168173ffffffffffffffffffffffffffffffffffffffff16036110df576040517f08c379a00000000000000000000000000000000000000000000000000000000081526004016110d69061378b565b60405180910390fd5b80600460006101000a81548173ffffffffffffffffffffffffffffffffffffffff021916908373ffffffffffffffffffffffffffffffffffffffff16021790555050565b6000600160008473ffffffffffffffffffffffffffffffffffffffff1673ffffffffffffffffffffffffffffffffffffffff16815260200190815260200160002060008373ffffffffffffffffffffffffffffffffffffffff1673ffffffffffffffffffffffffffffffffffffffff16815260200190815260200160002060009054906101000a900460ff16905092915050565b600460009054906101000a900473ffffffffffffffffffffffffffffffffffffffff1681565b60085481565b6111eb61181b565b73ffffffffffffffffffffffffffffffffffffffff168573ffffffffffffffffffffffffffffffffffffffff16148061123157506112308561122b61181b565b611123565b5b611270576040517f08c379a0000000000000000000000000000000000000000000000000000000008152600401611267906135c7565b60405180910390fd5b61127d8585858585611df4565b5050505050565b61128c611b44565b600073ffffffffffffffffffffffffffffffffffffffff168173ffffffffffffffffffffffffffffffffffffffff16036112fb576040517f08c379a00000000000000000000000000000000000000000000000000000000081526004016112f29061381d565b60405180910390fd5b61130481611bc2565b50565b60007f01ffc9a7000000000000000000000000000000000000000000000000000000007bffffffffffffffffffffffffffffffffffffffffffffffffffffffff1916827bffffffffffffffffffffffffffffffffffffffffffffffffffffffff1916149050919050565b6060600060016113808461208f565b01905060008167ffffffffffffffff81111561139f5761139e6128ee565b5b6040519080825280601f01601f1916602001820160405280156113d15781602001600182028036833780820191505090505b509050600082602001820190505b600115611434578080600190039150507f3031323334353637383961626364656600000000000000000000000000000000600a86061a8153600a85816114285761142761383d565b5b049450600085036113df575b819350505050919050565b600073ffffffffffffffffffffffffffffffffffffffff168473ffffffffffffffffffffffffffffffffffffffff16036114ae576040517f08c379a00000000000000000000000000000000000000000000000000000000081526004016114a5906138de565b60405180910390fd5b60006114b861181b565b905060006114c5856121e2565b905060006114d2856121e2565b90506114e38360008985858961225c565b8460008088815260200190815260200160002060008973ffffffffffffffffffffffffffffffffffffffff1673ffffffffffffffffffffffffffffffffffffffff16815260200190815260200160002060008282546115429190613460565b925050819055508673ffffffffffffffffffffffffffffffffffffffff16600073ffffffffffffffffffffffffffffffffffffffff168473ffffffffffffffffffffffffffffffffffffffff167fc3d58168c5ae7397731d063d5bbf3d657854427343f4c083240f7aacaa2d0f6289896040516115c09291906138fe565b60405180910390a46115d783600089858589612264565b6115e68360008989898961226c565b50505050505050565b600073ffffffffffffffffffffffffffffffffffffffff168473ffffffffffffffffffffffffffffffffffffffff160361165e576040517f08c379a0000000000000000000000000000000000000000000000000000000008152600401611655906138de565b60405180910390fd5b81518351146116a2576040517f08c379a000000000000000000000000000000000000000000000000000000000815260040161169990613999565b60405180910390fd5b60006116ac61181b565b90506116bd8160008787878761225c565b60005b8451811015611776578381815181106116dc576116db613526565b5b60200260200101516000808784815181106116fa576116f9613526565b5b6020026020010151815260200190815260200160002060008873ffffffffffffffffffffffffffffffffffffffff1673ffffffffffffffffffffffffffffffffffffffff168152602001908152602001600020600082825461175c9190613460565b92505081905550808061176e90613386565b9150506116c0565b508473ffffffffffffffffffffffffffffffffffffffff16600073ffffffffffffffffffffffffffffffffffffffff168273ffffffffffffffffffffffffffffffffffffffff167f4a39dc06d4c0dbc64b70af90fd698a233a518aa5d07e595d983b8c0526c8f7fb87876040516117ee9291906139b9565b60405180910390a461180581600087878787612264565b61181481600087878787612443565b5050505050565b600033905090565b8151835114611867576040517f08c379a000000000000000000000000000000000000000000000000000000000815260040161185e90613999565b60405180910390fd5b600073ffffffffffffffffffffffffffffffffffffffff168473ffffffffffffffffffffffffffffffffffffffff16036118d6576040517f08c379a00000000000000000000000000000000000000000000000000000000081526004016118cd90613a62565b60405180910390fd5b60006118e061181b565b90506118f081878787878761225c565b60005b8451811015611aa157600085828151811061191157611910613526565b5b6020026020010151905060008583815181106119305761192f613526565b5b60200260200101519050600080600084815260200190815260200160002060008b73ffffffffffffffffffffffffffffffffffffffff1673ffffffffffffffffffffffffffffffffffffffff168152602001908152602001600020549050818110156119d1576040517f08c379a00000000000000000000000000000000000000000000000000000000081526004016119c890613af4565b60405180910390fd5b81810360008085815260200190815260200160002060008c73ffffffffffffffffffffffffffffffffffffffff1673ffffffffffffffffffffffffffffffffffffffff168152602001908152602001600020819055508160008085815260200190815260200160002060008b73ffffffffffffffffffffffffffffffffffffffff1673ffffffffffffffffffffffffffffffffffffffff1681526020019081526020016000206000828254611a869190613460565b9250508190555050505080611a9a90613386565b90506118f3565b508473ffffffffffffffffffffffffffffffffffffffff168673ffffffffffffffffffffffffffffffffffffffff168273ffffffffffffffffffffffffffffffffffffffff167f4a39dc06d4c0dbc64b70af90fd698a233a518aa5d07e595d983b8c0526c8f7fb8787604051611b189291906139b9565b60405180910390a4611b2e818787878787612264565b611b3c818787878787612443565b505050505050565b611b4c61181b565b73ffffffffffffffffffffffffffffffffffffffff16611b6a610eeb565b73ffffffffffffffffffffffffffffffffffffffff1614611bc0576040517f08c379a0000000000000000000000000000000000000000000000000000000008152600401611bb790613b60565b60405180910390fd5b565b6000600360009054906101000a900473ffffffffffffffffffffffffffffffffffffffff16905081600360006101000a81548173ffffffffffffffffffffffffffffffffffffffff021916908373ffffffffffffffffffffffffffffffffffffffff1602179055508173ffffffffffffffffffffffffffffffffffffffff168173ffffffffffffffffffffffffffffffffffffffff167f8be0079c531659141344cd1fd0a4f28419497f9722a3daafe3b4186f6b6457e060405160405180910390a35050565b8173ffffffffffffffffffffffffffffffffffffffff168373ffffffffffffffffffffffffffffffffffffffff1603611cf6576040517f08c379a0000000000000000000000000000000000000000000000000000000008152600401611ced90613bf2565b60405180910390fd5b80600160008573ffffffffffffffffffffffffffffffffffffffff1673ffffffffffffffffffffffffffffffffffffffff16815260200190815260200160002060008473ffffffffffffffffffffffffffffffffffffffff1673ffffffffffffffffffffffffffffffffffffffff16815260200190815260200160002060006101000a81548160ff0219169083151502179055508173ffffffffffffffffffffffffffffffffffffffff168373ffffffffffffffffffffffffffffffffffffffff167f17307eab39ab6107e8899845ad3d59bd9653f200f220920489ca2b5937696c3183604051611de791906127ef565b60405180910390a3505050565b600073ffffffffffffffffffffffffffffffffffffffff168473ffffffffffffffffffffffffffffffffffffffff1603611e63576040517f08c379a0000000000000000000000000000000000000000000000000000000008152600401611e5a90613a62565b60405180910390fd5b6000611e6d61181b565b90506000611e7a856121e2565b90506000611e87856121e2565b9050611e9783898985858961225c565b600080600088815260200190815260200160002060008a73ffffffffffffffffffffffffffffffffffffffff1673ffffffffffffffffffffffffffffffffffffffff16815260200190815260200160002054905085811015611f2e576040517f08c379a0000000000000000000000000000000000000000000000000000000008152600401611f2590613af4565b60405180910390fd5b85810360008089815260200190815260200160002060008b73ffffffffffffffffffffffffffffffffffffffff1673ffffffffffffffffffffffffffffffffffffffff168152602001908152602001600020819055508560008089815260200190815260200160002060008a73ffffffffffffffffffffffffffffffffffffffff1673ffffffffffffffffffffffffffffffffffffffff1681526020019081526020016000206000828254611fe39190613460565b925050819055508773ffffffffffffffffffffffffffffffffffffffff168973ffffffffffffffffffffffffffffffffffffffff168573ffffffffffffffffffffffffffffffffffffffff167fc3d58168c5ae7397731d063d5bbf3d657854427343f4c083240f7aacaa2d0f628a8a6040516120609291906138fe565b60405180910390a4612076848a8a86868a612264565b612084848a8a8a8a8a61226c565b505050505050505050565b600080600090507a184f03e93ff9f4daa797ed6e38ed64bf6a1f01000000000000000083106120ed577a184f03e93ff9f4daa797ed6e38ed64bf6a1f01000000000000000083816120e3576120e261383d565b5b0492506040810190505b6d04ee2d6d415b85acef8100000000831061212a576d04ee2d6d415b85acef810000000083816121205761211f61383d565b5b0492506020810190505b662386f26fc10000831061215957662386f26fc10000838161214f5761214e61383d565b5b0492506010810190505b6305f5e1008310612182576305f5e10083816121785761217761383d565b5b0492506008810190505b61271083106121a757612710838161219d5761219c61383d565b5b0492506004810190505b606483106121ca57606483816121c0576121bf61383d565b5b0492506002810190505b600a83106121d9576001810190505b80915050919050565b60606000600167ffffffffffffffff811115612201576122006128ee565b5b60405190808252806020026020018201604052801561222f5781602001602082028036833780820191505090505b509050828160008151811061224757612246613526565b5b60200260200101818152505080915050919050565b505050505050565b505050505050565b61228b8473ffffffffffffffffffffffffffffffffffffffff1661261a565b1561243b578373ffffffffffffffffffffffffffffffffffffffff1663f23a6e6187878686866040518663ffffffff1660e01b81526004016122d1959493929190613c67565b6020604051808303816000875af192505050801561230d57506040513d601f19601f8201168201806040525081019061230a9190613cd6565b60015b6123b257612319613d10565b806308c379a003612375575061232d613d32565b806123385750612377565b806040517f08c379a000000000000000000000000000000000000000000000000000000000815260040161236c91906128c7565b60405180910390fd5b505b6040517f08c379a00000000000000000000000000000000000000000000000000000000081526004016123a990613e34565b60405180910390fd5b63f23a6e6160e01b7bffffffffffffffffffffffffffffffffffffffffffffffffffffffff1916817bffffffffffffffffffffffffffffffffffffffffffffffffffffffff191614612439576040517f08c379a000000000000000000000000000000000000000000000000000000000815260040161243090613ec6565b60405180910390fd5b505b505050505050565b6124628473ffffffffffffffffffffffffffffffffffffffff1661261a565b15612612578373ffffffffffffffffffffffffffffffffffffffff1663bc197c8187878686866040518663ffffffff1660e01b81526004016124a8959493929190613ee6565b6020604051808303816000875af19250505080156124e457506040513d601f19601f820116820180604052508101906124e19190613cd6565b60015b612589576124f0613d10565b806308c379a00361254c5750612504613d32565b8061250f575061254e565b806040517f08c379a000000000000000000000000000000000000000000000000000000000815260040161254391906128c7565b60405180910390fd5b505b6040517f08c379a000000000000000000000000000000000000000000000000000000000815260040161258090613e34565b60405180910390fd5b63bc197c8160e01b7bffffffffffffffffffffffffffffffffffffffffffffffffffffffff1916817bffffffffffffffffffffffffffffffffffffffffffffffffffffffff191614612610576040517f08c379a000000000000000000000000000000000000000000000000000000000815260040161260790613ec6565b60405180910390fd5b505b505050505050565b6000808273ffffffffffffffffffffffffffffffffffffffff163b119050919050565b6000604051905090565b600080fd5b600080fd5b600073ffffffffffffffffffffffffffffffffffffffff82169050919050565b600061267c82612651565b9050919050565b61268c81612671565b811461269757600080fd5b50565b6000813590506126a981612683565b92915050565b6000819050919050565b6126c2816126af565b81146126cd57600080fd5b50565b6000813590506126df816126b9565b92915050565b600080604083850312156126fc576126fb612647565b5b600061270a8582860161269a565b925050602061271b858286016126d0565b9150509250929050565b61272e816126af565b82525050565b60006020820190506127496000830184612725565b92915050565b60007fffffffff0000000000000000000000000000000000000000000000000000000082169050919050565b6127848161274f565b811461278f57600080fd5b50565b6000813590506127a18161277b565b92915050565b6000602082840312156127bd576127bc612647565b5b60006127cb84828501612792565b91505092915050565b60008115159050919050565b6127e9816127d4565b82525050565b600060208201905061280460008301846127e0565b92915050565b6000602082840312156128205761281f612647565b5b600061282e848285016126d0565b91505092915050565b600081519050919050565b600082825260208201905092915050565b60005b83811015612871578082015181840152602081019050612856565b60008484015250505050565b6000601f19601f8301169050919050565b600061289982612837565b6128a38185612842565b93506128b3818560208601612853565b6128bc8161287d565b840191505092915050565b600060208201905081810360008301526128e1818461288e565b905092915050565b600080fd5b7f4e487b7100000000000000000000000000000000000000000000000000000000600052604160045260246000fd5b6129268261287d565b810181811067ffffffffffffffff82111715612945576129446128ee565b5b80604052505050565b600061295861263d565b9050612964828261291d565b919050565b600067ffffffffffffffff821115612984576129836128ee565b5b602082029050602081019050919050565b600080fd5b60006129ad6129a884612969565b61294e565b905080838252602082019050602084028301858111156129d0576129cf612995565b5b835b818110156129f957806129e588826126d0565b8452602084019350506020810190506129d2565b5050509392505050565b600082601f830112612a1857612a176128e9565b5b8135612a2884826020860161299a565b91505092915050565b600080fd5b600067ffffffffffffffff821115612a5157612a506128ee565b5b612a5a8261287d565b9050602081019050919050565b82818337600083830152505050565b6000612a89612a8484612a36565b61294e565b905082815260208101848484011115612aa557612aa4612a31565b5b612ab0848285612a67565b509392505050565b600082601f830112612acd57612acc6128e9565b5b8135612add848260208601612a76565b91505092915050565b600080600080600060a08688031215612b0257612b01612647565b5b6000612b108882890161269a565b9550506020612b218882890161269a565b945050604086013567ffffffffffffffff811115612b4257612b4161264c565b5b612b4e88828901612a03565b935050606086013567ffffffffffffffff811115612b6f57612b6e61264c565b5b612b7b88828901612a03565b925050608086013567ffffffffffffffff811115612b9c57612b9b61264c565b5b612ba888828901612ab8565b9150509295509295909350565b600067ffffffffffffffff821115612bd057612bcf6128ee565b5b602082029050602081019050919050565b6000612bf4612bef84612bb5565b61294e565b90508083825260208201905060208402830185811115612c1757612c16612995565b5b835b81811015612c405780612c2c888261269a565b845260208401935050602081019050612c19565b5050509392505050565b600082601f830112612c5f57612c5e6128e9565b5b8135612c6f848260208601612be1565b91505092915050565b60008060408385031215612c8f57612c8e612647565b5b600083013567ffffffffffffffff811115612cad57612cac61264c565b5b612cb985828601612c4a565b925050602083013567ffffffffffffffff811115612cda57612cd961264c565b5b612ce685828601612a03565b9150509250929050565b600081519050919050565b600082825260208201905092915050565b6000819050602082019050919050565b612d25816126af565b82525050565b6000612d378383612d1c565b60208301905092915050565b6000602082019050919050565b6000612d5b82612cf0565b612d658185612cfb565b9350612d7083612d0c565b8060005b83811015612da1578151612d888882612d2b565b9750612d9383612d43565b925050600181019050612d74565b5085935050505092915050565b60006020820190508181036000830152612dc88184612d50565b905092915050565b612dd981612671565b82525050565b6000602082019050612df46000830184612dd0565b92915050565b612e03816127d4565b8114612e0e57600080fd5b50565b600081359050612e2081612dfa565b92915050565b60008060408385031215612e3d57612e3c612647565b5b6000612e4b8582860161269a565b9250506020612e5c85828601612e11565b9150509250929050565b600060208284031215612e7c57612e7b612647565b5b6000612e8a8482850161269a565b91505092915050565b60008060408385031215612eaa57612ea9612647565b5b6000612eb88582860161269a565b9250506020612ec98582860161269a565b9150509250929050565b600080600080600060a08688031215612eef57612eee612647565b5b6000612efd8882890161269a565b9550506020612f0e8882890161269a565b9450506040612f1f888289016126d0565b9350506060612f30888289016126d0565b925050608086013567ffffffffffffffff811115612f5157612f5061264c565b5b612f5d88828901612ab8565b9150509295509295909350565b7f455243313135353a2061646472657373207a65726f206973206e6f742061207660008201527f616c6964206f776e657200000000000000000000000000000000000000000000602082015250565b6000612fc6602a83612842565b9150612fd182612f6a565b604082019050919050565b60006020820190508181036000830152612ff581612fb9565b9050919050565b600081905092915050565b7f68747470733a2f2f6d796170692e636f6d2f6170692f4e46542f000000000000600082015250565b600061303d601a83612ffc565b915061304882613007565b601a82019050919050565b7f4e487b7100000000000000000000000000000000000000000000000000000000600052602260045260246000fd5b6000600282049050600182168061309a57607f821691505b6020821081036130ad576130ac613053565b5b50919050565b60008190508160005260206000209050919050565b600081546130d581613082565b6130df8186612ffc565b945060018216600081146130fa576001811461310f57613142565b60ff1983168652811515820286019350613142565b613118856130b3565b60005b8381101561313a5781548189015260018201915060208101905061311b565b838801955050505b50505092915050565b7f2f00000000000000000000000000000000000000000000000000000000000000600082015250565b6000613181600183612ffc565b915061318c8261314b565b600182019050919050565b60006131a282612837565b6131ac8185612ffc565b93506131bc818560208601612853565b80840191505092915050565b7f2e6a736f6e000000000000000000000000000000000000000000000000000000600082015250565b60006131fe600583612ffc565b9150613209826131c8565b600582019050919050565b600061321f82613030565b915061322b82856130c8565b915061323682613174565b91506132428284613197565b915061324d826131f1565b91508190509392505050565b7f416d6f756e742073656e74206973206c6f776572207468616e2074686520726560008201527f7175697265642070726963650000000000000000000000000000000000000000602082015250565b60006132b5602c83612842565b91506132c082613259565b604082019050919050565b600060208201905081810360008301526132e4816132a8565b9050919050565b7f536f7272792c20776527726520736f6c64206f75740000000000000000000000600082015250565b6000613321601583612842565b915061332c826132eb565b602082019050919050565b6000602082019050818103600083015261335081613314565b9050919050565b7f4e487b7100000000000000000000000000000000000000000000000000000000600052601160045260246000fd5b6000613391826126af565b91507fffffffffffffffffffffffffffffffffffffffffffffffffffffffffffffffff82036133c3576133c2613357565b5b600182019050919050565b7f546f2075736520746869732066756e6374696f6e2c207468657265206861732060008201527f746f206265206d6f7265204e465473206d696e74656400000000000000000000602082015250565b600061342a603683612842565b9150613435826133ce565b604082019050919050565b600060208201905081810360008301526134598161341d565b9050919050565b600061346b826126af565b9150613476836126af565b925082820190508082111561348e5761348d613357565b5b92915050565b7f54686520616d6f756e7420796f75207769736820746f2070757263686173652060008201527f6973206d6f7265207468616e20746865207469636b657473206c656674000000602082015250565b60006134f0603d83612842565b91506134fb82613494565b604082019050919050565b6000602082019050818103600083015261351f816134e3565b9050919050565b7f4e487b7100000000000000000000000000000000000000000000000000000000600052603260045260246000fd5b7f455243313135353a2063616c6c6572206973206e6f7420746f6b656e206f776e60008201527f6572206f7220617070726f766564000000000000000000000000000000000000602082015250565b60006135b1602e83612842565b91506135bc82613555565b604082019050919050565b600060208201905081810360008301526135e0816135a4565b9050919050565b7f455243313135353a206163636f756e747320616e6420696473206c656e67746860008201527f206d69736d617463680000000000000000000000000000000000000000000000602082015250565b6000613643602983612842565b915061364e826135e7565b604082019050919050565b6000602082019050818103600083015261367281613636565b9050919050565b6000613684826126af565b915061368f836126af565b92508282039050818111156136a7576136a6613357565b5b92915050565b7f596f75206861766520616c726561647920617070726f76656420746865206d6160008201527f726b6574706c6163650000000000000000000000000000000000000000000000602082015250565b6000613709602983612842565b9150613714826136ad565b604082019050919050565b60006020820190508181036000830152613738816136fc565b9050919050565b7f496e76616c696420616464726573730000000000000000000000000000000000600082015250565b6000613775600f83612842565b91506137808261373f565b602082019050919050565b600060208201905081810360008301526137a481613768565b9050919050565b7f4f776e61626c653a206e6577206f776e657220697320746865207a65726f206160008201527f6464726573730000000000000000000000000000000000000000000000000000602082015250565b6000613807602683612842565b9150613812826137ab565b604082019050919050565b60006020820190508181036000830152613836816137fa565b9050919050565b7f4e487b7100000000000000000000000000000000000000000000000000000000600052601260045260246000fd5b7f455243313135353a206d696e7420746f20746865207a65726f2061646472657360008201527f7300000000000000000000000000000000000000000000000000000000000000602082015250565b60006138c8602183612842565b91506138d38261386c565b604082019050919050565b600060208201905081810360008301526138f7816138bb565b9050919050565b60006040820190506139136000830185612725565b6139206020830184612725565b9392505050565b7f455243313135353a2069647320616e6420616d6f756e7473206c656e6774682060008201527f6d69736d61746368000000000000000000000000000000000000000000000000602082015250565b6000613983602883612842565b915061398e82613927565b604082019050919050565b600060208201905081810360008301526139b281613976565b9050919050565b600060408201905081810360008301526139d38185612d50565b905081810360208301526139e78184612d50565b90509392505050565b7f455243313135353a207472616e7366657220746f20746865207a65726f20616460008201527f6472657373000000000000000000000000000000000000000000000000000000602082015250565b6000613a4c602583612842565b9150613a57826139f0565b604082019050919050565b60006020820190508181036000830152613a7b81613a3f565b9050919050565b7f455243313135353a20696e73756666696369656e742062616c616e636520666f60008201527f72207472616e7366657200000000000000000000000000000000000000000000602082015250565b6000613ade602a83612842565b9150613ae982613a82565b604082019050919050565b60006020820190508181036000830152613b0d81613ad1565b9050919050565b7f4f776e61626c653a2063616c6c6572206973206e6f7420746865206f776e6572600082015250565b6000613b4a602083612842565b9150613b5582613b14565b602082019050919050565b60006020820190508181036000830152613b7981613b3d565b9050919050565b7f455243313135353a2073657474696e6720617070726f76616c2073746174757360008201527f20666f722073656c660000000000000000000000000000000000000000000000602082015250565b6000613bdc602983612842565b9150613be782613b80565b604082019050919050565b60006020820190508181036000830152613c0b81613bcf565b9050919050565b600081519050919050565b600082825260208201905092915050565b6000613c3982613c12565b613c438185613c1d565b9350613c53818560208601612853565b613c5c8161287d565b840191505092915050565b600060a082019050613c7c6000830188612dd0565b613c896020830187612dd0565b613c966040830186612725565b613ca36060830185612725565b8181036080830152613cb58184613c2e565b90509695505050505050565b600081519050613cd08161277b565b92915050565b600060208284031215613cec57613ceb612647565b5b6000613cfa84828501613cc1565b91505092915050565b60008160e01c9050919050565b600060033d1115613d2f5760046000803e613d2c600051613d03565b90505b90565b600060443d10613dbf57613d4461263d565b60043d036004823e80513d602482011167ffffffffffffffff82111715613d6c575050613dbf565b808201805167ffffffffffffffff811115613d8a5750505050613dbf565b80602083010160043d038501811115613da7575050505050613dbf565b613db68260200185018661291d565b82955050505050505b90565b7f455243313135353a207472616e7366657220746f206e6f6e2d4552433131353560008201527f526563656976657220696d706c656d656e746572000000000000000000000000602082015250565b6000613e1e603483612842565b9150613e2982613dc2565b604082019050919050565b60006020820190508181036000830152613e4d81613e11565b9050919050565b7f455243313135353a204552433131353552656365697665722072656a6563746560008201527f6420746f6b656e73000000000000000000000000000000000000000000000000602082015250565b6000613eb0602883612842565b9150613ebb82613e54565b604082019050919050565b60006020820190508181036000830152613edf81613ea3565b9050919050565b600060a082019050613efb6000830188612dd0565b613f086020830187612dd0565b8181036040830152613f1a8186612d50565b90508181036060830152613f2e8185612d50565b90508181036080830152613f428184613c2e565b9050969550505050505056fea2646970667358221220f9026d0b5ee11f89f2ba9d146214488f1fa1c4ecafdee32697369d8d63495f5a64736f6c63430008130033",
  "linkReferences": {},
  "deployedLinkReferences": {}
}