{
  "_format": "hh-sol-artifact-1",
  "contractName": "StandingNftContract",
  "sourceName": "contracts/StandingNftContract.sol",
  "abi": [
    {
      "inputs": [
        {
          "internalType": "string",
          "name": "_section",
          "type": "string"
        },
        {
          "internalType": "uint256",
          "name": "_supply",
          "type": "uint256"
        },
        {
          "internalType": "uint256",
          "name": "_startPrice",
          "type": "uint256"
        },
        {
          "internalType": "uint256",
          "name": "_priceCap",
          "type": "uint256"
        },
        {
          "internalType": "string",
          "name": "_event",
          "type": "string"
        },
        {
          "internalType": "address",
          "name": "_usdc",
          "type": "address"
        }
      ],
      "stateMutability": "nonpayable",
      "type": "constructor"
    },
    {
      "anonymous": false,
      "inputs": [
        {
          "indexed": true,
          "internalType": "address",
          "name": "account",
          "type": "address"
        },
        {
          "indexed": true,
          "internalType": "address",
          "name": "operator",
          "type": "address"
        },
        {
          "indexed": false,
          "internalType": "bool",
          "name": "approved",
          "type": "bool"
        }
      ],
      "name": "ApprovalForAll",
      "type": "event"
    },
    {
      "anonymous": false,
      "inputs": [
        {
          "indexed": true,
          "internalType": "address",
          "name": "previousOwner",
          "type": "address"
        },
        {
          "indexed": true,
          "internalType": "address",
          "name": "newOwner",
          "type": "address"
        }
      ],
      "name": "OwnershipTransferred",
      "type": "event"
    },
    {
      "anonymous": false,
      "inputs": [
        {
          "indexed": true,
          "internalType": "address",
          "name": "operator",
          "type": "address"
        },
        {
          "indexed": true,
          "internalType": "address",
          "name": "from",
          "type": "address"
        },
        {
          "indexed": true,
          "internalType": "address",
          "name": "to",
          "type": "address"
        },
        {
          "indexed": false,
          "internalType": "uint256[]",
          "name": "ids",
          "type": "uint256[]"
        },
        {
          "indexed": false,
          "internalType": "uint256[]",
          "name": "values",
          "type": "uint256[]"
        }
      ],
      "name": "TransferBatch",
      "type": "event"
    },
    {
      "anonymous": false,
      "inputs": [
        {
          "indexed": true,
          "internalType": "address",
          "name": "operator",
          "type": "address"
        },
        {
          "indexed": true,
          "internalType": "address",
          "name": "from",
          "type": "address"
        },
        {
          "indexed": true,
          "internalType": "address",
          "name": "to",
          "type": "address"
        },
        {
          "indexed": false,
          "internalType": "uint256",
          "name": "id",
          "type": "uint256"
        },
        {
          "indexed": false,
          "internalType": "uint256",
          "name": "value",
          "type": "uint256"
        }
      ],
      "name": "TransferSingle",
      "type": "event"
    },
    {
      "anonymous": false,
      "inputs": [
        {
          "indexed": false,
          "internalType": "string",
          "name": "value",
          "type": "string"
        },
        {
          "indexed": true,
          "internalType": "uint256",
          "name": "id",
          "type": "uint256"
        }
      ],
      "name": "URI",
      "type": "event"
    },
    {
      "inputs": [],
      "name": "approveMarket",
      "outputs": [],
      "stateMutability": "nonpayable",
      "type": "function"
    },
    {
      "inputs": [
        {
          "internalType": "address",
          "name": "account",
          "type": "address"
        },
        {
          "internalType": "uint256",
          "name": "id",
          "type": "uint256"
        }
      ],
      "name": "balanceOf",
      "outputs": [
        {
          "internalType": "uint256",
          "name": "",
          "type": "uint256"
        }
      ],
      "stateMutability": "view",
      "type": "function"
    },
    {
      "inputs": [
        {
          "internalType": "address[]",
          "name": "accounts",
          "type": "address[]"
        },
        {
          "internalType": "uint256[]",
          "name": "ids",
          "type": "uint256[]"
        }
      ],
      "name": "balanceOfBatch",
      "outputs": [
        {
          "internalType": "uint256[]",
          "name": "",
          "type": "uint256[]"
        }
      ],
      "stateMutability": "view",
      "type": "function"
    },
    {
      "inputs": [],
      "name": "eventName",
      "outputs": [
        {
          "internalType": "string",
          "name": "",
          "type": "string"
        }
      ],
      "stateMutability": "view",
      "type": "function"
    },
    {
      "inputs": [],
      "name": "getEventName",
      "outputs": [
        {
          "internalType": "string",
          "name": "",
          "type": "string"
        }
      ],
      "stateMutability": "view",
      "type": "function"
    },
    {
      "inputs": [],
      "name": "getOwner",
      "outputs": [
        {
          "internalType": "address",
          "name": "",
          "type": "address"
        }
      ],
      "stateMutability": "view",
      "type": "function"
    },
    {
      "inputs": [],
      "name": "getPriceCap",
      "outputs": [
        {
          "internalType": "uint256",
          "name": "",
          "type": "uint256"
        }
      ],
      "stateMutability": "view",
      "type": "function"
    },
    {
      "inputs": [],
      "name": "getSection",
      "outputs": [
        {
          "internalType": "string",
          "name": "",
          "type": "string"
        }
      ],
      "stateMutability": "pure",
      "type": "function"
    },
    {
      "inputs": [],
      "name": "getStartPrice",
      "outputs": [
        {
          "internalType": "uint256",
          "name": "",
          "type": "uint256"
        }
      ],
      "stateMutability": "view",
      "type": "function"
    },
    {
      "inputs": [],
      "name": "getStartSeat",
      "outputs": [
        {
          "internalType": "uint256",
          "name": "",
          "type": "uint256"
        }
      ],
      "stateMutability": "pure",
      "type": "function"
    },
    {
      "inputs": [],
      "name": "getSupply",
      "outputs": [
        {
          "internalType": "uint256",
          "name": "",
          "type": "uint256"
        }
      ],
      "stateMutability": "view",
      "type": "function"
    },
    {
      "inputs": [],
      "name": "getTicketsLeft",
      "outputs": [
        {
          "internalType": "uint256",
          "name": "",
          "type": "uint256"
        }
      ],
      "stateMutability": "view",
      "type": "function"
    },
    {
      "inputs": [
        {
          "internalType": "uint256",
          "name": "_tokenid",
          "type": "uint256"
        }
      ],
      "name": "getTokenURI",
      "outputs": [
        {
          "internalType": "string",
          "name": "",
          "type": "string"
        }
      ],
      "stateMutability": "view",
      "type": "function"
    },
    {
      "inputs": [
        {
          "internalType": "address",
          "name": "account",
          "type": "address"
        },
        {
          "internalType": "address",
          "name": "operator",
          "type": "address"
        }
      ],
      "name": "isApprovedForAll",
      "outputs": [
        {
          "internalType": "bool",
          "name": "",
          "type": "bool"
        }
      ],
      "stateMutability": "view",
      "type": "function"
    },
    {
      "inputs": [],
      "name": "marketPlaceAddress",
      "outputs": [
        {
          "internalType": "address",
          "name": "",
          "type": "address"
        }
      ],
      "stateMutability": "view",
      "type": "function"
    },
    {
      "inputs": [],
      "name": "mint",
      "outputs": [],
      "stateMutability": "payable",
      "type": "function"
    },
    {
      "inputs": [
        {
          "internalType": "uint256",
          "name": "_amount",
          "type": "uint256"
        }
      ],
      "name": "mintBatch",
      "outputs": [],
      "stateMutability": "payable",
      "type": "function"
    },
    {
      "inputs": [],
      "name": "mintCount",
      "outputs": [
        {
          "internalType": "uint256",
          "name": "",
          "type": "uint256"
        }
      ],
      "stateMutability": "view",
      "type": "function"
    },
    {
      "inputs": [],
      "name": "owner",
      "outputs": [
        {
          "internalType": "address",
          "name": "",
          "type": "address"
        }
      ],
      "stateMutability": "view",
      "type": "function"
    },
    {
      "inputs": [],
      "name": "priceCap",
      "outputs": [
        {
          "internalType": "uint256",
          "name": "",
          "type": "uint256"
        }
      ],
      "stateMutability": "view",
      "type": "function"
    },
    {
      "inputs": [],
      "name": "renounceOwnership",
      "outputs": [],
      "stateMutability": "nonpayable",
      "type": "function"
    },
    {
      "inputs": [
        {
          "internalType": "address",
          "name": "from",
          "type": "address"
        },
        {
          "internalType": "address",
          "name": "to",
          "type": "address"
        },
        {
          "internalType": "uint256[]",
          "name": "ids",
          "type": "uint256[]"
        },
        {
          "internalType": "uint256[]",
          "name": "amounts",
          "type": "uint256[]"
        },
        {
          "internalType": "bytes",
          "name": "data",
          "type": "bytes"
        }
      ],
      "name": "safeBatchTransferFrom",
      "outputs": [],
      "stateMutability": "nonpayable",
      "type": "function"
    },
    {
      "inputs": [
        {
          "internalType": "address",
          "name": "from",
          "type": "address"
        },
        {
          "internalType": "address",
          "name": "to",
          "type": "address"
        },
        {
          "internalType": "uint256",
          "name": "id",
          "type": "uint256"
        },
        {
          "internalType": "uint256",
          "name": "amount",
          "type": "uint256"
        },
        {
          "internalType": "bytes",
          "name": "data",
          "type": "bytes"
        }
      ],
      "name": "safeTransferFrom",
      "outputs": [],
      "stateMutability": "nonpayable",
      "type": "function"
    },
    {
      "inputs": [],
      "name": "section",
      "outputs": [
        {
          "internalType": "string",
          "name": "",
          "type": "string"
        }
      ],
      "stateMutability": "view",
      "type": "function"
    },
    {
      "inputs": [
        {
          "internalType": "address",
          "name": "operator",
          "type": "address"
        },
        {
          "internalType": "bool",
          "name": "approved",
          "type": "bool"
        }
      ],
      "name": "setApprovalForAll",
      "outputs": [],
      "stateMutability": "nonpayable",
      "type": "function"
    },
    {
      "inputs": [
        {
          "internalType": "address",
          "name": "_marketPlaceAddress",
          "type": "address"
        }
      ],
      "name": "setMarketPlaceAddress",
      "outputs": [],
      "stateMutability": "nonpayable",
      "type": "function"
    },
    {
      "inputs": [],
      "name": "startPrice",
      "outputs": [
        {
          "internalType": "uint256",
          "name": "",
          "type": "uint256"
        }
      ],
      "stateMutability": "view",
      "type": "function"
    },
    {
      "inputs": [],
      "name": "supply",
      "outputs": [
        {
          "internalType": "uint256",
          "name": "",
          "type": "uint256"
        }
      ],
      "stateMutability": "view",
      "type": "function"
    },
    {
      "inputs": [
        {
          "internalType": "bytes4",
          "name": "interfaceId",
          "type": "bytes4"
        }
      ],
      "name": "supportsInterface",
      "outputs": [
        {
          "internalType": "bool",
          "name": "",
          "type": "bool"
        }
      ],
      "stateMutability": "view",
      "type": "function"
    },
    {
      "inputs": [
        {
          "internalType": "address",
          "name": "newOwner",
          "type": "address"
        }
      ],
      "name": "transferOwnership",
      "outputs": [],
      "stateMutability": "nonpayable",
      "type": "function"
    },
    {
      "inputs": [
        {
          "internalType": "uint256",
          "name": "_tokenid",
          "type": "uint256"
        }
      ],
      "name": "uri",
      "outputs": [
        {
          "internalType": "string",
          "name": "",
          "type": "string"
        }
      ],
      "stateMutability": "view",
      "type": "function"
    },
    {
      "inputs": [],
      "name": "usdcToken",
      "outputs": [
        {
          "internalType": "contract IERC20",
          "name": "",
          "type": "address"
        }
      ],
      "stateMutability": "view",
      "type": "function"
    }
  ],
  "bytecode": "0x60806040523480156200001157600080fd5b5060405162004c3538038062004c3583398181016040528101906200003791906200042f565b816040516020016200004a919062000646565b6040516020818303038152906040526200006a816200011960201b60201c565b506200008b6200007f6200012e60201b60201c565b6200013660201b60201c565b85600590816200009c9190620008bc565b50846006819055508360088190555082600781905550600060098190555081600a9081620000cb9190620008bc565b5080600b60006101000a81548173ffffffffffffffffffffffffffffffffffffffff021916908373ffffffffffffffffffffffffffffffffffffffff160217905550505050505050620009a3565b80600290816200012a9190620008bc565b5050565b600033905090565b6000600360009054906101000a900473ffffffffffffffffffffffffffffffffffffffff16905081600360006101000a81548173ffffffffffffffffffffffffffffffffffffffff021916908373ffffffffffffffffffffffffffffffffffffffff1602179055508173ffffffffffffffffffffffffffffffffffffffff168173ffffffffffffffffffffffffffffffffffffffff167f8be0079c531659141344cd1fd0a4f28419497f9722a3daafe3b4186f6b6457e060405160405180910390a35050565b6000604051905090565b600080fd5b600080fd5b600080fd5b600080fd5b6000601f19601f8301169050919050565b7f4e487b7100000000000000000000000000000000000000000000000000000000600052604160045260246000fd5b62000265826200021a565b810181811067ffffffffffffffff821117156200028757620002866200022b565b5b80604052505050565b60006200029c620001fc565b9050620002aa82826200025a565b919050565b600067ffffffffffffffff821115620002cd57620002cc6200022b565b5b620002d8826200021a565b9050602081019050919050565b60005b8381101562000305578082015181840152602081019050620002e8565b60008484015250505050565b6000620003286200032284620002af565b62000290565b90508281526020810184848401111562000347576200034662000215565b5b62000354848285620002e5565b509392505050565b600082601f83011262000374576200037362000210565b5b81516200038684826020860162000311565b91505092915050565b6000819050919050565b620003a4816200038f565b8114620003b057600080fd5b50565b600081519050620003c48162000399565b92915050565b600073ffffffffffffffffffffffffffffffffffffffff82169050919050565b6000620003f782620003ca565b9050919050565b6200040981620003ea565b81146200041557600080fd5b50565b6000815190506200042981620003fe565b92915050565b60008060008060008060c087890312156200044f576200044e62000206565b5b600087015167ffffffffffffffff81111562000470576200046f6200020b565b5b6200047e89828a016200035c565b96505060206200049189828a01620003b3565b9550506040620004a489828a01620003b3565b9450506060620004b789828a01620003b3565b935050608087015167ffffffffffffffff811115620004db57620004da6200020b565b5b620004e989828a016200035c565b92505060a0620004fc89828a0162000418565b9150509295509295509295565b600081905092915050565b7f68747470733a2f2f6d796170692e636f6d2f6170692f4e46542f000000000000600082015250565b60006200054c601a8362000509565b9150620005598262000514565b601a82019050919050565b600081519050919050565b60006200057c8262000564565b62000588818562000509565b93506200059a818560208601620002e5565b80840191505092915050565b7f2f00000000000000000000000000000000000000000000000000000000000000600082015250565b6000620005de60018362000509565b9150620005eb82620005a6565b600182019050919050565b7f302e6a736f6e0000000000000000000000000000000000000000000000000000600082015250565b60006200062e60068362000509565b91506200063b82620005f6565b600682019050919050565b600062000653826200053d565b91506200066182846200056f565b91506200066e82620005cf565b91506200067b826200061f565b915081905092915050565b7f4e487b7100000000000000000000000000000000000000000000000000000000600052602260045260246000fd5b60006002820490506001821680620006ce57607f821691505b602082108103620006e457620006e362000686565b5b50919050565b60008190508160005260206000209050919050565b60006020601f8301049050919050565b600082821b905092915050565b6000600883026200074e7fffffffffffffffffffffffffffffffffffffffffffffffffffffffffffffffff826200070f565b6200075a86836200070f565b95508019841693508086168417925050509392505050565b6000819050919050565b60006200079d6200079762000791846200038f565b62000772565b6200038f565b9050919050565b6000819050919050565b620007b9836200077c565b620007d1620007c882620007a4565b8484546200071c565b825550505050565b600090565b620007e8620007d9565b620007f5818484620007ae565b505050565b5b818110156200081d5762000811600082620007de565b600181019050620007fb565b5050565b601f8211156200086c576200083681620006ea565b6200084184620006ff565b8101602085101562000851578190505b620008696200086085620006ff565b830182620007fa565b50505b505050565b600082821c905092915050565b6000620008916000198460080262000871565b1980831691505092915050565b6000620008ac83836200087e565b9150826002028217905092915050565b620008c78262000564565b67ffffffffffffffff811115620008e357620008e26200022b565b5b620008ef8254620006b5565b620008fc82828562000821565b600060209050601f8311600181146200093457600084156200091f578287015190505b6200092b85826200089e565b8655506200099b565b601f1984166200094486620006ea565b60005b828110156200096e5784890151825560018201915060208501945060208101905062000947565b868310156200098e57848901516200098a601f8916826200087e565b8355505b6001600288020188555050505b505050505050565b61428280620009b36000396000f3fe6080604052600436106101e25760003560e01c80636c9c2faf11610102578063baffa90311610095578063ed27107b11610064578063ed27107b146106a9578063f1a9af89146106d4578063f242432a146106ff578063f2fde38b14610728576101e2565b8063baffa90314610601578063c2560f2a1461062c578063cc98ef9614610643578063e985e9c51461066c576101e2565b80638da5cb5b116100d15780638da5cb5b146105575780639659867e14610582578063a22cb465146105ad578063b81e43fc146105d6576101e2565b80636c9c2faf146104bf578063715018a6146104ea5780638043c9c014610501578063893d20e81461052c576101e2565b8063278a262f1161017a5780634c7afe60116101495780634c7afe60146104015780634e1273f41461042c5780635a7bddbf14610469578063646f22c514610494576101e2565b8063278a262f146103455780632c9cf352146103705780632eb2c2d61461039b5780633bb3a24d146103c4576101e2565b80630e89341c116101b65780630e89341c146102b757806311eac855146102f45780631249c58b1461031f57806320e409b414610329576101e2565b8062fdd58e146101e757806301ffc9a71461022457806302b7847c14610261578063047fc9aa1461028c575b600080fd5b3480156101f357600080fd5b5061020e600480360381019061020991906128d4565b610751565b60405161021b9190612923565b60405180910390f35b34801561023057600080fd5b5061024b60048036038101906102469190612996565b610819565b60405161025891906129de565b60405180910390f35b34801561026d57600080fd5b506102766108fb565b6040516102839190612923565b60405180910390f35b34801561029857600080fd5b506102a1610901565b6040516102ae9190612923565b60405180910390f35b3480156102c357600080fd5b506102de60048036038101906102d991906129f9565b610907565b6040516102eb9190612ab6565b60405180910390f35b34801561030057600080fd5b5061030961093b565b6040516103169190612b37565b60405180910390f35b610327610961565b005b610343600480360381019061033e91906129f9565b610ac1565b005b34801561035157600080fd5b5061035a610d62565b6040516103679190612ab6565b60405180910390f35b34801561037c57600080fd5b50610385610df0565b6040516103929190612923565b60405180910390f35b3480156103a757600080fd5b506103c260048036038101906103bd9190612d4f565b610df5565b005b3480156103d057600080fd5b506103eb60048036038101906103e691906129f9565b610e96565b6040516103f89190612ab6565b60405180910390f35b34801561040d57600080fd5b50610416610ea8565b6040516104239190612923565b60405180910390f35b34801561043857600080fd5b50610453600480360381019061044e9190612ee1565b610eb2565b6040516104609190613017565b60405180910390f35b34801561047557600080fd5b5061047e610fcb565b60405161048b9190612ab6565b60405180910390f35b3480156104a057600080fd5b506104a9611008565b6040516104b69190612923565b60405180910390f35b3480156104cb57600080fd5b506104d461101f565b6040516104e19190612923565b60405180910390f35b3480156104f657600080fd5b506104ff611029565b005b34801561050d57600080fd5b5061051661103d565b6040516105239190612ab6565b60405180910390f35b34801561053857600080fd5b506105416110cb565b60405161054e9190613048565b60405180910390f35b34801561056357600080fd5b5061056c6110da565b6040516105799190613048565b60405180910390f35b34801561058e57600080fd5b50610597611104565b6040516105a49190612923565b60405180910390f35b3480156105b957600080fd5b506105d460048036038101906105cf919061308f565b61110a565b005b3480156105e257600080fd5b506105eb611120565b6040516105f89190612ab6565b60405180910390f35b34801561060d57600080fd5b506106166111b2565b6040516106239190612923565b60405180910390f35b34801561063857600080fd5b506106416111bc565b005b34801561064f57600080fd5b5061066a600480360381019061066591906130cf565b611257565b005b34801561067857600080fd5b50610693600480360381019061068e91906130fc565b611312565b6040516106a091906129de565b60405180910390f35b3480156106b557600080fd5b506106be6113a6565b6040516106cb9190613048565b60405180910390f35b3480156106e057600080fd5b506106e96113cc565b6040516106f69190612923565b60405180910390f35b34801561070b57600080fd5b506107266004803603810190610721919061313c565b6113d2565b005b34801561073457600080fd5b5061074f600480360381019061074a91906130cf565b611473565b005b60008073ffffffffffffffffffffffffffffffffffffffff168373ffffffffffffffffffffffffffffffffffffffff16036107c1576040517f08c379a00000000000000000000000000000000000000000000000000000000081526004016107b890613245565b60405180910390fd5b60008083815260200190815260200160002060008473ffffffffffffffffffffffffffffffffffffffff1673ffffffffffffffffffffffffffffffffffffffff16815260200190815260200160002054905092915050565b60007fd9b67a26000000000000000000000000000000000000000000000000000000007bffffffffffffffffffffffffffffffffffffffffffffffffffffffff1916827bffffffffffffffffffffffffffffffffffffffffffffffffffffffff191614806108e457507f0e89341c000000000000000000000000000000000000000000000000000000007bffffffffffffffffffffffffffffffffffffffffffffffffffffffff1916827bffffffffffffffffffffffffffffffffffffffffffffffffffffffff1916145b806108f457506108f3826114f6565b5b9050919050565b60075481565b60065481565b6060600a61091483611560565b60405160200161092592919061347d565b6040516020818303038152906040529050919050565b600b60009054906101000a900473ffffffffffffffffffffffffffffffffffffffff1681565b600b60009054906101000a900473ffffffffffffffffffffffffffffffffffffffff1673ffffffffffffffffffffffffffffffffffffffff166323b872dd33306008546040518463ffffffff1660e01b81526004016109c2939291906134c2565b6020604051808303816000875af11580156109e1573d6000803e3d6000fd5b505050506040513d601f19601f82011682018060405250810190610a05919061350e565b610a44576040517f08c379a0000000000000000000000000000000000000000000000000000000008152600401610a3b90613587565b60405180910390fd5b60065460095410610a8a576040517f08c379a0000000000000000000000000000000000000000000000000000000008152600401610a81906135f3565b60405180910390fd5b610aa733600060016040518060200160405280600081525061162e565b60096000815480929190610aba90613642565b9190505550565b60018111610b04576040517f08c379a0000000000000000000000000000000000000000000000000000000008152600401610afb906136fc565b60405180910390fd5b60065460095482610b15919061371c565b1115610b56576040517f08c379a0000000000000000000000000000000000000000000000000000000008152600401610b4d906137c2565b60405180910390fd5b600060085482610b6691906137e2565b9050600b60009054906101000a900473ffffffffffffffffffffffffffffffffffffffff1673ffffffffffffffffffffffffffffffffffffffff166323b872dd3330846040518463ffffffff1660e01b8152600401610bc7939291906134c2565b6020604051808303816000875af1158015610be6573d6000803e3d6000fd5b505050506040513d601f19601f82011682018060405250810190610c0a919061350e565b610c49576040517f08c379a0000000000000000000000000000000000000000000000000000000008152600401610c4090613587565b60405180910390fd5b6000600167ffffffffffffffff811115610c6657610c65612b57565b5b604051908082528060200260200182016040528015610c945781602001602082028036833780820191505090505b5090506000600167ffffffffffffffff811115610cb457610cb3612b57565b5b604051908082528060200260200182016040528015610ce25781602001602082028036833780820191505090505b5090508382600081518110610cfa57610cf9613824565b5b602002602001018181525050600081600081518110610d1c57610d1b613824565b5b602002602001018181525050610d43338284604051806020016040528060008152506117de565b8360096000828254610d55919061371c565b9250508190555050505050565b60058054610d6f906132eb565b80601f0160208091040260200160405190810160405280929190818152602001828054610d9b906132eb565b8015610de85780601f10610dbd57610100808354040283529160200191610de8565b820191906000526020600020905b815481529060010190602001808311610dcb57829003601f168201915b505050505081565b600090565b610dfd611a0a565b73ffffffffffffffffffffffffffffffffffffffff168573ffffffffffffffffffffffffffffffffffffffff161480610e435750610e4285610e3d611a0a565b611312565b5b610e82576040517f08c379a0000000000000000000000000000000000000000000000000000000008152600401610e79906138c5565b60405180910390fd5b610e8f8585858585611a12565b5050505050565b6060610ea182610907565b9050919050565b6000600754905090565b60608151835114610ef8576040517f08c379a0000000000000000000000000000000000000000000000000000000008152600401610eef90613957565b60405180910390fd5b6000835167ffffffffffffffff811115610f1557610f14612b57565b5b604051908082528060200260200182016040528015610f435781602001602082028036833780820191505090505b50905060005b8451811015610fc057610f90858281518110610f6857610f67613824565b5b6020026020010151858381518110610f8357610f82613824565b5b6020026020010151610751565b828281518110610fa357610fa2613824565b5b60200260200101818152505080610fb990613642565b9050610f49565b508091505092915050565b60606040518060400160405280601081526020017f5374616e64696e672073656374696f6e00000000000000000000000000000000815250905090565b600060095460065461101a9190613977565b905090565b6000600654905090565b611031611d33565b61103b6000611db1565b565b600a805461104a906132eb565b80601f0160208091040260200160405190810160405280929190818152602001828054611076906132eb565b80156110c35780601f10611098576101008083540402835291602001916110c3565b820191906000526020600020905b8154815290600101906020018083116110a657829003601f168201915b505050505081565b60006110d56110da565b905090565b6000600360009054906101000a900473ffffffffffffffffffffffffffffffffffffffff16905090565b60095481565b61111c611115611a0a565b8383611e77565b5050565b6060600a805461112f906132eb565b80601f016020809104026020016040519081016040528092919081815260200182805461115b906132eb565b80156111a85780601f1061117d576101008083540402835291602001916111a8565b820191906000526020600020905b81548152906001019060200180831161118b57829003601f168201915b5050505050905090565b6000600854905090565b6111e833600460009054906101000a900473ffffffffffffffffffffffffffffffffffffffff16611312565b15611228576040517f08c379a000000000000000000000000000000000000000000000000000000000815260040161121f90613a1d565b60405180910390fd5b611255600460009054906101000a900473ffffffffffffffffffffffffffffffffffffffff16600161110a565b565b61125f611d33565b600073ffffffffffffffffffffffffffffffffffffffff168173ffffffffffffffffffffffffffffffffffffffff16036112ce576040517f08c379a00000000000000000000000000000000000000000000000000000000081526004016112c590613a89565b60405180910390fd5b80600460006101000a81548173ffffffffffffffffffffffffffffffffffffffff021916908373ffffffffffffffffffffffffffffffffffffffff16021790555050565b6000600160008473ffffffffffffffffffffffffffffffffffffffff1673ffffffffffffffffffffffffffffffffffffffff16815260200190815260200160002060008373ffffffffffffffffffffffffffffffffffffffff1673ffffffffffffffffffffffffffffffffffffffff16815260200190815260200160002060009054906101000a900460ff16905092915050565b600460009054906101000a900473ffffffffffffffffffffffffffffffffffffffff1681565b60085481565b6113da611a0a565b73ffffffffffffffffffffffffffffffffffffffff168573ffffffffffffffffffffffffffffffffffffffff161480611420575061141f8561141a611a0a565b611312565b5b61145f576040517f08c379a0000000000000000000000000000000000000000000000000000000008152600401611456906138c5565b60405180910390fd5b61146c8585858585611fe3565b5050505050565b61147b611d33565b600073ffffffffffffffffffffffffffffffffffffffff168173ffffffffffffffffffffffffffffffffffffffff16036114ea576040517f08c379a00000000000000000000000000000000000000000000000000000000081526004016114e190613b1b565b60405180910390fd5b6114f381611db1565b50565b60007f01ffc9a7000000000000000000000000000000000000000000000000000000007bffffffffffffffffffffffffffffffffffffffffffffffffffffffff1916827bffffffffffffffffffffffffffffffffffffffffffffffffffffffff1916149050919050565b60606000600161156f8461227e565b01905060008167ffffffffffffffff81111561158e5761158d612b57565b5b6040519080825280601f01601f1916602001820160405280156115c05781602001600182028036833780820191505090505b509050600082602001820190505b600115611623578080600190039150507f3031323334353637383961626364656600000000000000000000000000000000600a86061a8153600a858161161757611616613b3b565b5b049450600085036115ce575b819350505050919050565b600073ffffffffffffffffffffffffffffffffffffffff168473ffffffffffffffffffffffffffffffffffffffff160361169d576040517f08c379a000000000000000000000000000000000000000000000000000000000815260040161169490613bdc565b60405180910390fd5b60006116a7611a0a565b905060006116b4856123d1565b905060006116c1856123d1565b90506116d28360008985858961244b565b8460008088815260200190815260200160002060008973ffffffffffffffffffffffffffffffffffffffff1673ffffffffffffffffffffffffffffffffffffffff1681526020019081526020016000206000828254611731919061371c565b925050819055508673ffffffffffffffffffffffffffffffffffffffff16600073ffffffffffffffffffffffffffffffffffffffff168473ffffffffffffffffffffffffffffffffffffffff167fc3d58168c5ae7397731d063d5bbf3d657854427343f4c083240f7aacaa2d0f6289896040516117af929190613bfc565b60405180910390a46117c683600089858589612453565b6117d58360008989898961245b565b50505050505050565b600073ffffffffffffffffffffffffffffffffffffffff168473ffffffffffffffffffffffffffffffffffffffff160361184d576040517f08c379a000000000000000000000000000000000000000000000000000000000815260040161184490613bdc565b60405180910390fd5b8151835114611891576040517f08c379a000000000000000000000000000000000000000000000000000000000815260040161188890613c97565b60405180910390fd5b600061189b611a0a565b90506118ac8160008787878761244b565b60005b8451811015611965578381815181106118cb576118ca613824565b5b60200260200101516000808784815181106118e9576118e8613824565b5b6020026020010151815260200190815260200160002060008873ffffffffffffffffffffffffffffffffffffffff1673ffffffffffffffffffffffffffffffffffffffff168152602001908152602001600020600082825461194b919061371c565b92505081905550808061195d90613642565b9150506118af565b508473ffffffffffffffffffffffffffffffffffffffff16600073ffffffffffffffffffffffffffffffffffffffff168273ffffffffffffffffffffffffffffffffffffffff167f4a39dc06d4c0dbc64b70af90fd698a233a518aa5d07e595d983b8c0526c8f7fb87876040516119dd929190613cb7565b60405180910390a46119f481600087878787612453565b611a0381600087878787612632565b5050505050565b600033905090565b8151835114611a56576040517f08c379a0000000000000000000000000000000000000000000000000000000008152600401611a4d90613c97565b60405180910390fd5b600073ffffffffffffffffffffffffffffffffffffffff168473ffffffffffffffffffffffffffffffffffffffff1603611ac5576040517f08c379a0000000000000000000000000000000000000000000000000000000008152600401611abc90613d60565b60405180910390fd5b6000611acf611a0a565b9050611adf81878787878761244b565b60005b8451811015611c90576000858281518110611b0057611aff613824565b5b602002602001015190506000858381518110611b1f57611b1e613824565b5b60200260200101519050600080600084815260200190815260200160002060008b73ffffffffffffffffffffffffffffffffffffffff1673ffffffffffffffffffffffffffffffffffffffff16815260200190815260200160002054905081811015611bc0576040517f08c379a0000000000000000000000000000000000000000000000000000000008152600401611bb790613df2565b60405180910390fd5b81810360008085815260200190815260200160002060008c73ffffffffffffffffffffffffffffffffffffffff1673ffffffffffffffffffffffffffffffffffffffff168152602001908152602001600020819055508160008085815260200190815260200160002060008b73ffffffffffffffffffffffffffffffffffffffff1673ffffffffffffffffffffffffffffffffffffffff1681526020019081526020016000206000828254611c75919061371c565b9250508190555050505080611c8990613642565b9050611ae2565b508473ffffffffffffffffffffffffffffffffffffffff168673ffffffffffffffffffffffffffffffffffffffff168273ffffffffffffffffffffffffffffffffffffffff167f4a39dc06d4c0dbc64b70af90fd698a233a518aa5d07e595d983b8c0526c8f7fb8787604051611d07929190613cb7565b60405180910390a4611d1d818787878787612453565b611d2b818787878787612632565b505050505050565b611d3b611a0a565b73ffffffffffffffffffffffffffffffffffffffff16611d596110da565b73ffffffffffffffffffffffffffffffffffffffff1614611daf576040517f08c379a0000000000000000000000000000000000000000000000000000000008152600401611da690613e5e565b60405180910390fd5b565b6000600360009054906101000a900473ffffffffffffffffffffffffffffffffffffffff16905081600360006101000a81548173ffffffffffffffffffffffffffffffffffffffff021916908373ffffffffffffffffffffffffffffffffffffffff1602179055508173ffffffffffffffffffffffffffffffffffffffff168173ffffffffffffffffffffffffffffffffffffffff167f8be0079c531659141344cd1fd0a4f28419497f9722a3daafe3b4186f6b6457e060405160405180910390a35050565b8173ffffffffffffffffffffffffffffffffffffffff168373ffffffffffffffffffffffffffffffffffffffff1603611ee5576040517f08c379a0000000000000000000000000000000000000000000000000000000008152600401611edc90613ef0565b60405180910390fd5b80600160008573ffffffffffffffffffffffffffffffffffffffff1673ffffffffffffffffffffffffffffffffffffffff16815260200190815260200160002060008473ffffffffffffffffffffffffffffffffffffffff1673ffffffffffffffffffffffffffffffffffffffff16815260200190815260200160002060006101000a81548160ff0219169083151502179055508173ffffffffffffffffffffffffffffffffffffffff168373ffffffffffffffffffffffffffffffffffffffff167f17307eab39ab6107e8899845ad3d59bd9653f200f220920489ca2b5937696c3183604051611fd691906129de565b60405180910390a3505050565b600073ffffffffffffffffffffffffffffffffffffffff168473ffffffffffffffffffffffffffffffffffffffff1603612052576040517f08c379a000000000000000000000000000000000000000000000000000000000815260040161204990613d60565b60405180910390fd5b600061205c611a0a565b90506000612069856123d1565b90506000612076856123d1565b905061208683898985858961244b565b600080600088815260200190815260200160002060008a73ffffffffffffffffffffffffffffffffffffffff1673ffffffffffffffffffffffffffffffffffffffff1681526020019081526020016000205490508581101561211d576040517f08c379a000000000000000000000000000000000000000000000000000000000815260040161211490613df2565b60405180910390fd5b85810360008089815260200190815260200160002060008b73ffffffffffffffffffffffffffffffffffffffff1673ffffffffffffffffffffffffffffffffffffffff168152602001908152602001600020819055508560008089815260200190815260200160002060008a73ffffffffffffffffffffffffffffffffffffffff1673ffffffffffffffffffffffffffffffffffffffff16815260200190815260200160002060008282546121d2919061371c565b925050819055508773ffffffffffffffffffffffffffffffffffffffff168973ffffffffffffffffffffffffffffffffffffffff168573ffffffffffffffffffffffffffffffffffffffff167fc3d58168c5ae7397731d063d5bbf3d657854427343f4c083240f7aacaa2d0f628a8a60405161224f929190613bfc565b60405180910390a4612265848a8a86868a612453565b612273848a8a8a8a8a61245b565b505050505050505050565b600080600090507a184f03e93ff9f4daa797ed6e38ed64bf6a1f01000000000000000083106122dc577a184f03e93ff9f4daa797ed6e38ed64bf6a1f01000000000000000083816122d2576122d1613b3b565b5b0492506040810190505b6d04ee2d6d415b85acef81000000008310612319576d04ee2d6d415b85acef8100000000838161230f5761230e613b3b565b5b0492506020810190505b662386f26fc10000831061234857662386f26fc10000838161233e5761233d613b3b565b5b0492506010810190505b6305f5e1008310612371576305f5e100838161236757612366613b3b565b5b0492506008810190505b612710831061239657612710838161238c5761238b613b3b565b5b0492506004810190505b606483106123b957606483816123af576123ae613b3b565b5b0492506002810190505b600a83106123c8576001810190505b80915050919050565b60606000600167ffffffffffffffff8111156123f0576123ef612b57565b5b60405190808252806020026020018201604052801561241e5781602001602082028036833780820191505090505b509050828160008151811061243657612435613824565b5b60200260200101818152505080915050919050565b505050505050565b505050505050565b61247a8473ffffffffffffffffffffffffffffffffffffffff16612809565b1561262a578373ffffffffffffffffffffffffffffffffffffffff1663f23a6e6187878686866040518663ffffffff1660e01b81526004016124c0959493929190613f65565b6020604051808303816000875af19250505080156124fc57506040513d601f19601f820116820180604052508101906124f99190613fd4565b60015b6125a15761250861400e565b806308c379a003612564575061251c614030565b806125275750612566565b806040517f08c379a000000000000000000000000000000000000000000000000000000000815260040161255b9190612ab6565b60405180910390fd5b505b6040517f08c379a000000000000000000000000000000000000000000000000000000000815260040161259890614132565b60405180910390fd5b63f23a6e6160e01b7bffffffffffffffffffffffffffffffffffffffffffffffffffffffff1916817bffffffffffffffffffffffffffffffffffffffffffffffffffffffff191614612628576040517f08c379a000000000000000000000000000000000000000000000000000000000815260040161261f906141c4565b60405180910390fd5b505b505050505050565b6126518473ffffffffffffffffffffffffffffffffffffffff16612809565b15612801578373ffffffffffffffffffffffffffffffffffffffff1663bc197c8187878686866040518663ffffffff1660e01b81526004016126979594939291906141e4565b6020604051808303816000875af19250505080156126d357506040513d601f19601f820116820180604052508101906126d09190613fd4565b60015b612778576126df61400e565b806308c379a00361273b57506126f3614030565b806126fe575061273d565b806040517f08c379a00000000000000000000000000000000000000000000000000000000081526004016127329190612ab6565b60405180910390fd5b505b6040517f08c379a000000000000000000000000000000000000000000000000000000000815260040161276f90614132565b60405180910390fd5b63bc197c8160e01b7bffffffffffffffffffffffffffffffffffffffffffffffffffffffff1916817bffffffffffffffffffffffffffffffffffffffffffffffffffffffff1916146127ff576040517f08c379a00000000000000000000000000000000000000000000000000000000081526004016127f6906141c4565b60405180910390fd5b505b505050505050565b6000808273ffffffffffffffffffffffffffffffffffffffff163b119050919050565b6000604051905090565b600080fd5b600080fd5b600073ffffffffffffffffffffffffffffffffffffffff82169050919050565b600061286b82612840565b9050919050565b61287b81612860565b811461288657600080fd5b50565b60008135905061289881612872565b92915050565b6000819050919050565b6128b18161289e565b81146128bc57600080fd5b50565b6000813590506128ce816128a8565b92915050565b600080604083850312156128eb576128ea612836565b5b60006128f985828601612889565b925050602061290a858286016128bf565b9150509250929050565b61291d8161289e565b82525050565b60006020820190506129386000830184612914565b92915050565b60007fffffffff0000000000000000000000000000000000000000000000000000000082169050919050565b6129738161293e565b811461297e57600080fd5b50565b6000813590506129908161296a565b92915050565b6000602082840312156129ac576129ab612836565b5b60006129ba84828501612981565b91505092915050565b60008115159050919050565b6129d8816129c3565b82525050565b60006020820190506129f360008301846129cf565b92915050565b600060208284031215612a0f57612a0e612836565b5b6000612a1d848285016128bf565b91505092915050565b600081519050919050565b600082825260208201905092915050565b60005b83811015612a60578082015181840152602081019050612a45565b60008484015250505050565b6000601f19601f8301169050919050565b6000612a8882612a26565b612a928185612a31565b9350612aa2818560208601612a42565b612aab81612a6c565b840191505092915050565b60006020820190508181036000830152612ad08184612a7d565b905092915050565b6000819050919050565b6000612afd612af8612af384612840565b612ad8565b612840565b9050919050565b6000612b0f82612ae2565b9050919050565b6000612b2182612b04565b9050919050565b612b3181612b16565b82525050565b6000602082019050612b4c6000830184612b28565b92915050565b600080fd5b7f4e487b7100000000000000000000000000000000000000000000000000000000600052604160045260246000fd5b612b8f82612a6c565b810181811067ffffffffffffffff82111715612bae57612bad612b57565b5b80604052505050565b6000612bc161282c565b9050612bcd8282612b86565b919050565b600067ffffffffffffffff821115612bed57612bec612b57565b5b602082029050602081019050919050565b600080fd5b6000612c16612c1184612bd2565b612bb7565b90508083825260208201905060208402830185811115612c3957612c38612bfe565b5b835b81811015612c625780612c4e88826128bf565b845260208401935050602081019050612c3b565b5050509392505050565b600082601f830112612c8157612c80612b52565b5b8135612c91848260208601612c03565b91505092915050565b600080fd5b600067ffffffffffffffff821115612cba57612cb9612b57565b5b612cc382612a6c565b9050602081019050919050565b82818337600083830152505050565b6000612cf2612ced84612c9f565b612bb7565b905082815260208101848484011115612d0e57612d0d612c9a565b5b612d19848285612cd0565b509392505050565b600082601f830112612d3657612d35612b52565b5b8135612d46848260208601612cdf565b91505092915050565b600080600080600060a08688031215612d6b57612d6a612836565b5b6000612d7988828901612889565b9550506020612d8a88828901612889565b945050604086013567ffffffffffffffff811115612dab57612daa61283b565b5b612db788828901612c6c565b935050606086013567ffffffffffffffff811115612dd857612dd761283b565b5b612de488828901612c6c565b925050608086013567ffffffffffffffff811115612e0557612e0461283b565b5b612e1188828901612d21565b9150509295509295909350565b600067ffffffffffffffff821115612e3957612e38612b57565b5b602082029050602081019050919050565b6000612e5d612e5884612e1e565b612bb7565b90508083825260208201905060208402830185811115612e8057612e7f612bfe565b5b835b81811015612ea95780612e958882612889565b845260208401935050602081019050612e82565b5050509392505050565b600082601f830112612ec857612ec7612b52565b5b8135612ed8848260208601612e4a565b91505092915050565b60008060408385031215612ef857612ef7612836565b5b600083013567ffffffffffffffff811115612f1657612f1561283b565b5b612f2285828601612eb3565b925050602083013567ffffffffffffffff811115612f4357612f4261283b565b5b612f4f85828601612c6c565b9150509250929050565b600081519050919050565b600082825260208201905092915050565b6000819050602082019050919050565b612f8e8161289e565b82525050565b6000612fa08383612f85565b60208301905092915050565b6000602082019050919050565b6000612fc482612f59565b612fce8185612f64565b9350612fd983612f75565b8060005b8381101561300a578151612ff18882612f94565b9750612ffc83612fac565b925050600181019050612fdd565b5085935050505092915050565b600060208201905081810360008301526130318184612fb9565b905092915050565b61304281612860565b82525050565b600060208201905061305d6000830184613039565b92915050565b61306c816129c3565b811461307757600080fd5b50565b60008135905061308981613063565b92915050565b600080604083850312156130a6576130a5612836565b5b60006130b485828601612889565b92505060206130c58582860161307a565b9150509250929050565b6000602082840312156130e5576130e4612836565b5b60006130f384828501612889565b91505092915050565b6000806040838503121561311357613112612836565b5b600061312185828601612889565b925050602061313285828601612889565b9150509250929050565b600080600080600060a0868803121561315857613157612836565b5b600061316688828901612889565b955050602061317788828901612889565b9450506040613188888289016128bf565b9350506060613199888289016128bf565b925050608086013567ffffffffffffffff8111156131ba576131b961283b565b5b6131c688828901612d21565b9150509295509295909350565b7f455243313135353a2061646472657373207a65726f206973206e6f742061207660008201527f616c6964206f776e657200000000000000000000000000000000000000000000602082015250565b600061322f602a83612a31565b915061323a826131d3565b604082019050919050565b6000602082019050818103600083015261325e81613222565b9050919050565b600081905092915050565b7f68747470733a2f2f6d796170692e636f6d2f6170692f4e46542f000000000000600082015250565b60006132a6601a83613265565b91506132b182613270565b601a82019050919050565b7f4e487b7100000000000000000000000000000000000000000000000000000000600052602260045260246000fd5b6000600282049050600182168061330357607f821691505b602082108103613316576133156132bc565b5b50919050565b60008190508160005260206000209050919050565b6000815461333e816132eb565b6133488186613265565b945060018216600081146133635760018114613378576133ab565b60ff19831686528115158202860193506133ab565b6133818561331c565b60005b838110156133a357815481890152600182019150602081019050613384565b838801955050505b50505092915050565b7f2f00000000000000000000000000000000000000000000000000000000000000600082015250565b60006133ea600183613265565b91506133f5826133b4565b600182019050919050565b600061340b82612a26565b6134158185613265565b9350613425818560208601612a42565b80840191505092915050565b7f2e6a736f6e000000000000000000000000000000000000000000000000000000600082015250565b6000613467600583613265565b915061347282613431565b600582019050919050565b600061348882613299565b91506134948285613331565b915061349f826133dd565b91506134ab8284613400565b91506134b68261345a565b91508190509392505050565b60006060820190506134d76000830186613039565b6134e46020830185613039565b6134f16040830184612914565b949350505050565b60008151905061350881613063565b92915050565b60006020828403121561352457613523612836565b5b6000613532848285016134f9565b91505092915050565b7f55534443207472616e73666572206661696c6564000000000000000000000000600082015250565b6000613571601483612a31565b915061357c8261353b565b602082019050919050565b600060208201905081810360008301526135a081613564565b9050919050565b7f536f7272792c20776527726520736f6c64206f75740000000000000000000000600082015250565b60006135dd601583612a31565b91506135e8826135a7565b602082019050919050565b6000602082019050818103600083015261360c816135d0565b9050919050565b7f4e487b7100000000000000000000000000000000000000000000000000000000600052601160045260246000fd5b600061364d8261289e565b91507fffffffffffffffffffffffffffffffffffffffffffffffffffffffffffffffff820361367f5761367e613613565b5b600182019050919050565b7f546f2075736520746869732066756e6374696f6e2c207468657265206861732060008201527f746f206265206d6f7265204e465473206d696e74656400000000000000000000602082015250565b60006136e6603683612a31565b91506136f18261368a565b604082019050919050565b60006020820190508181036000830152613715816136d9565b9050919050565b60006137278261289e565b91506137328361289e565b925082820190508082111561374a57613749613613565b5b92915050565b7f54686520616d6f756e7420796f75207769736820746f2070757263686173652060008201527f6973206d6f7265207468616e20746865207469636b657473206c656674000000602082015250565b60006137ac603d83612a31565b91506137b782613750565b604082019050919050565b600060208201905081810360008301526137db8161379f565b9050919050565b60006137ed8261289e565b91506137f88361289e565b92508282026138068161289e565b9150828204841483151761381d5761381c613613565b5b5092915050565b7f4e487b7100000000000000000000000000000000000000000000000000000000600052603260045260246000fd5b7f455243313135353a2063616c6c6572206973206e6f7420746f6b656e206f776e60008201527f6572206f7220617070726f766564000000000000000000000000000000000000602082015250565b60006138af602e83612a31565b91506138ba82613853565b604082019050919050565b600060208201905081810360008301526138de816138a2565b9050919050565b7f455243313135353a206163636f756e747320616e6420696473206c656e67746860008201527f206d69736d617463680000000000000000000000000000000000000000000000602082015250565b6000613941602983612a31565b915061394c826138e5565b604082019050919050565b6000602082019050818103600083015261397081613934565b9050919050565b60006139828261289e565b915061398d8361289e565b92508282039050818111156139a5576139a4613613565b5b92915050565b7f596f75206861766520616c726561647920617070726f76656420746865206d6160008201527f726b6574706c6163650000000000000000000000000000000000000000000000602082015250565b6000613a07602983612a31565b9150613a12826139ab565b604082019050919050565b60006020820190508181036000830152613a36816139fa565b9050919050565b7f496e76616c696420616464726573730000000000000000000000000000000000600082015250565b6000613a73600f83612a31565b9150613a7e82613a3d565b602082019050919050565b60006020820190508181036000830152613aa281613a66565b9050919050565b7f4f776e61626c653a206e6577206f776e657220697320746865207a65726f206160008201527f6464726573730000000000000000000000000000000000000000000000000000602082015250565b6000613b05602683612a31565b9150613b1082613aa9565b604082019050919050565b60006020820190508181036000830152613b3481613af8565b9050919050565b7f4e487b7100000000000000000000000000000000000000000000000000000000600052601260045260246000fd5b7f455243313135353a206d696e7420746f20746865207a65726f2061646472657360008201527f7300000000000000000000000000000000000000000000000000000000000000602082015250565b6000613bc6602183612a31565b9150613bd182613b6a565b604082019050919050565b60006020820190508181036000830152613bf581613bb9565b9050919050565b6000604082019050613c116000830185612914565b613c1e6020830184612914565b9392505050565b7f455243313135353a2069647320616e6420616d6f756e7473206c656e6774682060008201527f6d69736d61746368000000000000000000000000000000000000000000000000602082015250565b6000613c81602883612a31565b9150613c8c82613c25565b604082019050919050565b60006020820190508181036000830152613cb081613c74565b9050919050565b60006040820190508181036000830152613cd18185612fb9565b90508181036020830152613ce58184612fb9565b90509392505050565b7f455243313135353a207472616e7366657220746f20746865207a65726f20616460008201527f6472657373000000000000000000000000000000000000000000000000000000602082015250565b6000613d4a602583612a31565b9150613d5582613cee565b604082019050919050565b60006020820190508181036000830152613d7981613d3d565b9050919050565b7f455243313135353a20696e73756666696369656e742062616c616e636520666f60008201527f72207472616e7366657200000000000000000000000000000000000000000000602082015250565b6000613ddc602a83612a31565b9150613de782613d80565b604082019050919050565b60006020820190508181036000830152613e0b81613dcf565b9050919050565b7f4f776e61626c653a2063616c6c6572206973206e6f7420746865206f776e6572600082015250565b6000613e48602083612a31565b9150613e5382613e12565b602082019050919050565b60006020820190508181036000830152613e7781613e3b565b9050919050565b7f455243313135353a2073657474696e6720617070726f76616c2073746174757360008201527f20666f722073656c660000000000000000000000000000000000000000000000602082015250565b6000613eda602983612a31565b9150613ee582613e7e565b604082019050919050565b60006020820190508181036000830152613f0981613ecd565b9050919050565b600081519050919050565b600082825260208201905092915050565b6000613f3782613f10565b613f418185613f1b565b9350613f51818560208601612a42565b613f5a81612a6c565b840191505092915050565b600060a082019050613f7a6000830188613039565b613f876020830187613039565b613f946040830186612914565b613fa16060830185612914565b8181036080830152613fb38184613f2c565b90509695505050505050565b600081519050613fce8161296a565b92915050565b600060208284031215613fea57613fe9612836565b5b6000613ff884828501613fbf565b91505092915050565b60008160e01c9050919050565b600060033d111561402d5760046000803e61402a600051614001565b90505b90565b600060443d106140bd5761404261282c565b60043d036004823e80513d602482011167ffffffffffffffff8211171561406a5750506140bd565b808201805167ffffffffffffffff81111561408857505050506140bd565b80602083010160043d0385018111156140a55750505050506140bd565b6140b482602001850186612b86565b82955050505050505b90565b7f455243313135353a207472616e7366657220746f206e6f6e2d4552433131353560008201527f526563656976657220696d706c656d656e746572000000000000000000000000602082015250565b600061411c603483612a31565b9150614127826140c0565b604082019050919050565b6000602082019050818103600083015261414b8161410f565b9050919050565b7f455243313135353a204552433131353552656365697665722072656a6563746560008201527f6420746f6b656e73000000000000000000000000000000000000000000000000602082015250565b60006141ae602883612a31565b91506141b982614152565b604082019050919050565b600060208201905081810360008301526141dd816141a1565b9050919050565b600060a0820190506141f96000830188613039565b6142066020830187613039565b81810360408301526142188186612fb9565b9050818103606083015261422c8185612fb9565b905081810360808301526142408184613f2c565b9050969550505050505056fea2646970667358221220a5efb9140848046168c56eebe35f4623a634ae08cd62d87d92ee34b2694ad2b464736f6c63430008130033",
  "linkReferences": {},
  "deployedLinkReferences": {}
}