{
  "_format": "hh-sol-artifact-1",
  "contractName": "Session",
  "sourceName": "contracts/Session.sol",
  "abi": [
    {
      "inputs": [
        {
          "internalType": "address",
          "name": "_standingFactory",
          "type": "address"
        },
        {
          "internalType": "address",
          "name": "_seatedFactory",
          "type": "address"
        },
        {
          "internalType": "address",
          "name": "_sessionFactory",
          "type": "address"
        },
        {
          "internalType": "uint256",
          "name": "_eventId",
          "type": "uint256"
        },
        {
          "internalType": "uint256[]",
          "name": "_supply",
          "type": "uint256[]"
        },
        {
          "internalType": "string[]",
          "name": "_section",
          "type": "string[]"
        },
        {
          "internalType": "uint256[]",
          "name": "_startPrice",
          "type": "uint256[]"
        },
        {
          "internalType": "uint256",
          "name": "_sessionId",
          "type": "uint256"
        },
        {
          "internalType": "uint256",
          "name": "_priceCap",
          "type": "uint256"
        },
        {
          "internalType": "uint256[]",
          "name": "_startSeats",
          "type": "uint256[]"
        },
        {
          "internalType": "string[]",
          "name": "_nftMeta",
          "type": "string[]"
        }
      ],
      "stateMutability": "nonpayable",
      "type": "constructor"
    },
    {
      "anonymous": false,
      "inputs": [
        {
          "indexed": true,
          "internalType": "address",
          "name": "previousOwner",
          "type": "address"
        },
        {
          "indexed": true,
          "internalType": "address",
          "name": "newOwner",
          "type": "address"
        }
      ],
      "name": "OwnershipTransferred",
      "type": "event"
    },
    {
      "inputs": [
        {
          "internalType": "uint256",
          "name": "_eventId",
          "type": "uint256"
        },
        {
          "internalType": "uint256",
          "name": "_sessionId",
          "type": "uint256"
        },
        {
          "internalType": "string[]",
          "name": "_section",
          "type": "string[]"
        },
        {
          "internalType": "uint256[]",
          "name": "_supply",
          "type": "uint256[]"
        },
        {
          "internalType": "uint256[]",
          "name": "_startPrice",
          "type": "uint256[]"
        },
        {
          "internalType": "uint256",
          "name": "_priceCap",
          "type": "uint256"
        },
        {
          "internalType": "uint256[]",
          "name": "_startSeats",
          "type": "uint256[]"
        },
        {
          "internalType": "string",
          "name": "_nftMeta",
          "type": "string"
        }
      ],
      "name": "addSeatedNFTContract",
      "outputs": [],
      "stateMutability": "nonpayable",
      "type": "function"
    },
    {
      "inputs": [
        {
          "internalType": "uint256",
          "name": "_eventId",
          "type": "uint256"
        },
        {
          "internalType": "uint256",
          "name": "_sessionId",
          "type": "uint256"
        },
        {
          "internalType": "string",
          "name": "_section",
          "type": "string"
        },
        {
          "internalType": "uint256",
          "name": "_supply",
          "type": "uint256"
        },
        {
          "internalType": "uint256",
          "name": "_startPrice",
          "type": "uint256"
        },
        {
          "internalType": "uint256",
          "name": "_priceCap",
          "type": "uint256"
        },
        {
          "internalType": "string",
          "name": "_nftMeta",
          "type": "string"
        }
      ],
      "name": "addStandingNFTContract",
      "outputs": [],
      "stateMutability": "nonpayable",
      "type": "function"
    },
    {
      "inputs": [],
      "name": "getAllSectionsAddress",
      "outputs": [
        {
          "internalType": "address[]",
          "name": "",
          "type": "address[]"
        }
      ],
      "stateMutability": "view",
      "type": "function"
    },
    {
      "inputs": [
        {
          "internalType": "string",
          "name": "_section",
          "type": "string"
        }
      ],
      "name": "getSectionToAddress",
      "outputs": [
        {
          "internalType": "address",
          "name": "",
          "type": "address"
        }
      ],
      "stateMutability": "view",
      "type": "function"
    },
    {
      "inputs": [],
      "name": "getSections",
      "outputs": [
        {
          "internalType": "string[]",
          "name": "",
          "type": "string[]"
        }
      ],
      "stateMutability": "view",
      "type": "function"
    },
    {
      "inputs": [],
      "name": "owner",
      "outputs": [
        {
          "internalType": "address",
          "name": "",
          "type": "address"
        }
      ],
      "stateMutability": "view",
      "type": "function"
    },
    {
      "inputs": [],
      "name": "renounceOwnership",
      "outputs": [],
      "stateMutability": "nonpayable",
      "type": "function"
    },
    {
      "inputs": [
        {
          "internalType": "string",
          "name": "",
          "type": "string"
        }
      ],
      "name": "sectionToAddress",
      "outputs": [
        {
          "internalType": "address",
          "name": "",
          "type": "address"
        }
      ],
      "stateMutability": "view",
      "type": "function"
    },
    {
      "inputs": [
        {
          "internalType": "uint256",
          "name": "",
          "type": "uint256"
        }
      ],
      "name": "sections",
      "outputs": [
        {
          "internalType": "string",
          "name": "",
          "type": "string"
        }
      ],
      "stateMutability": "view",
      "type": "function"
    },
    {
      "inputs": [],
      "name": "sessionId",
      "outputs": [
        {
          "internalType": "uint256",
          "name": "",
          "type": "uint256"
        }
      ],
      "stateMutability": "view",
      "type": "function"
    },
    {
      "inputs": [
        {
          "internalType": "address",
          "name": "newOwner",
          "type": "address"
        }
      ],
      "name": "transferOwnership",
      "outputs": [],
      "stateMutability": "nonpayable",
      "type": "function"
    }
  ],
  "bytecode": "0x60806040523480156200001157600080fd5b5060405162001c8938038062001c898339810160408190526200003491620007fe565b6200003f3362000163565b600380546001600160a01b03808e166001600160a01b031992831617909255600480548d841690831617905560058054928c16929091169190911790558051620000919060069060208401906200050e565b506200011d888588600081518110620000ae57620000ae62000953565b60200260200101518a600081518110620000cc57620000cc62000953565b602002602001015189600081518110620000ea57620000ea62000953565b6020026020010151888760008151811062000109576200010962000953565b6020026020010151620001b360201b60201c565b620001528885888a898888886001815181106200013e576200013e62000953565b6020026020010151620002cf60201b60201c565b505050505050505050505062000c11565b600080546001600160a01b038381166001600160a01b0319831681178455604051919092169283917f8be0079c531659141344cd1fd0a4f28419497f9722a3daafe3b4186f6b6457e09190a35050565b620001bd620004ad565b600354604051633e50e26760e21b81526000916001600160a01b03169063f943899c90620001fc908b908b908b908b908b908b908b9060040162000997565b6020604051808303816000875af11580156200021c573d6000803e3d6000fd5b505050506040513d601f19601f82011682018060405250810190620002429190620009ec565b90508060018760405162000257919062000a11565b90815260405190819003602001902080546001600160a01b03929092166001600160a01b0319909216919091179055600280546001810182556000919091527f405787fa12a823e0f2b7631cc41b3ba8828b3321ca811111fa75cd3aa3bb5ace01620002c4878262000abe565b505050505050505050565b620002d9620004ad565b855160015b81811015620004a15760045488516000916001600160a01b031690635c2d70ce908d908d908d908790811062000318576200031862000953565b60200260200101518c878151811062000335576200033562000953565b60200260200101518c888151811062000352576200035262000953565b60200260200101518c8c8a8151811062000370576200037062000953565b60200260200101518c6040518963ffffffff1660e01b81526004016200039e98979695949392919062000b8a565b6020604051808303816000875af1158015620003be573d6000803e3d6000fd5b505050506040513d601f19601f82011682018060405250810190620003e49190620009ec565b90508060018a8481518110620003fe57620003fe62000953565b602002602001015160405162000415919062000a11565b908152602001604051809103902060006101000a8154816001600160a01b0302191690836001600160a01b0316021790555060028983815181106200045e576200045e62000953565b6020908102919091018101518254600181018455600093845291909220019062000489908262000abe565b50508080620004989062000be9565b915050620002de565b50505050505050505050565b6000546001600160a01b031633146200050c5760405162461bcd60e51b815260206004820181905260248201527f4f776e61626c653a2063616c6c6572206973206e6f7420746865206f776e6572604482015260640160405180910390fd5b565b82805482825590600052602060002090810192821562000559579160200282015b8281111562000559578251829062000548908262000abe565b50916020019190600101906200052f565b50620005679291506200056b565b5090565b80821115620005675760006200058282826200058c565b506001016200056b565b5080546200059a9062000a2f565b6000825580601f10620005ab575050565b601f016020900490600052602060002090810190620005cb9190620005ce565b50565b5b80821115620005675760008155600101620005cf565b80516001600160a01b0381168114620005fd57600080fd5b919050565b634e487b7160e01b600052604160045260246000fd5b604051601f8201601f191681016001600160401b038111828210171562000643576200064362000602565b604052919050565b60006001600160401b0382111562000667576200066762000602565b5060051b60200190565b600082601f8301126200068357600080fd5b815160206200069c62000696836200064b565b62000618565b82815260059290921b84018101918181019086841115620006bc57600080fd5b8286015b84811015620006d95780518352918301918301620006c0565b509695505050505050565b60005b8381101562000701578181015183820152602001620006e7565b50506000910152565b6000601f83818401126200071d57600080fd5b825160206200073062000696836200064b565b82815260059290921b850181019181810190878411156200075057600080fd5b8287015b84811015620007f25780516001600160401b0380821115620007765760008081fd5b818a0191508a603f8301126200078c5760008081fd5b85820151604082821115620007a557620007a562000602565b620007b8828b01601f1916890162000618565b92508183528c81838601011115620007d05760008081fd5b620007e182898501838701620006e4565b505084525091830191830162000754565b50979650505050505050565b60008060008060008060008060008060006101608c8e0312156200082157600080fd5b6200082c8c620005e5565b9a506200083c60208d01620005e5565b99506200084c60408d01620005e5565b60608d015160808e0151919a5098506001600160401b038111156200087057600080fd5b6200087e8e828f0162000671565b60a08e015190985090506001600160401b038111156200089d57600080fd5b620008ab8e828f016200070a565b60c08e015190975090506001600160401b03811115620008ca57600080fd5b620008d88e828f0162000671565b95505060e08c015193506101008c015192506101208c015160018060401b038111156200090457600080fd5b620009128e828f0162000671565b6101408e015190935090506001600160401b038111156200093257600080fd5b620009408e828f016200070a565b9150509295989b509295989b9093969950565b634e487b7160e01b600052603260045260246000fd5b6000815180845262000983816020860160208601620006e4565b601f01601f19169290920160200192915050565b87815286602082015260e060408201526000620009b860e083018862000969565b8660608401528560808401528460a084015282810360c0840152620009de818562000969565b9a9950505050505050505050565b600060208284031215620009ff57600080fd5b62000a0a82620005e5565b9392505050565b6000825162000a25818460208701620006e4565b9190910192915050565b600181811c9082168062000a4457607f821691505b60208210810362000a6557634e487b7160e01b600052602260045260246000fd5b50919050565b601f82111562000ab957600081815260208120601f850160051c8101602086101562000a945750805b601f850160051c820191505b8181101562000ab55782815560010162000aa0565b5050505b505050565b81516001600160401b0381111562000ada5762000ada62000602565b62000af28162000aeb845462000a2f565b8462000a6b565b602080601f83116001811462000b2a576000841562000b115750858301515b600019600386901b1c1916600185901b17855562000ab5565b600085815260208120601f198616915b8281101562000b5b5788860151825594840194600190910190840162000b3a565b508582101562000b7a5787850151600019600388901b60f8161c191681555b5050505050600190811b01905550565b60006101008a835289602084015280604084015262000bac8184018a62000969565b90508760608401528660808401528560a08401528460c084015282810360e084015262000bda818562000969565b9b9a5050505050505050505050565b60006001820162000c0a57634e487b7160e01b600052601160045260246000fd5b5060010190565b6110688062000c216000396000f3fe608060405234801561001057600080fd5b50600436106100a95760003560e01c80637580916b116100715780637580916b14610130578063849db6bf146101645780638da5cb5b146101775780639648c9f414610188578063cc4370081461019f578063f2fde38b146101b457600080fd5b8063183a471c146100ae578063290f3094146100de57806335603440146100f357806348a4f2e914610113578063715018a614610128575b600080fd5b6100c16100bc366004610924565b6101c7565b6040516001600160a01b0390911681526020015b60405180910390f35b6100f16100ec366004610961565b6101f8565b005b6101066101013660046109f5565b610309565b6040516100d59190610a5e565b61011b6103b5565b6040516100d59190610a78565b6100f161048e565b6100c161013e366004610924565b80516020818301810180516001825292820191909301209152546001600160a01b031681565b6100f1610172366004610be9565b6104a2565b6000546001600160a01b03166100c1565b61019160075481565b6040519081526020016100d5565b6101a761065f565b6040516100d59190610cd8565b6100f16101c2366004610d3a565b610745565b60006001826040516101d99190610d57565b908152604051908190036020019020546001600160a01b031692915050565b6102006107c3565b600354604051633e50e26760e21b81526000916001600160a01b03169063f943899c9061023d908b908b908b908b908b908b908b90600401610d73565b6020604051808303816000875af115801561025c573d6000803e3d6000fd5b505050506040513d601f19601f820116820180604052508101906102809190610dc4565b9050806001876040516102939190610d57565b90815260405190819003602001902080546001600160a01b03929092166001600160a01b0319909216919091179055600280546001810182556000919091527f405787fa12a823e0f2b7631cc41b3ba8828b3321ca811111fa75cd3aa3bb5ace016102fe8782610e64565b505050505050505050565b6002818154811061031957600080fd5b90600052602060002001600091509050805461033490610de1565b80601f016020809104026020016040519081016040528092919081815260200182805461036090610de1565b80156103ad5780601f10610382576101008083540402835291602001916103ad565b820191906000526020600020905b81548152906001019060200180831161039057829003601f168201915b505050505081565b60606002805480602002602001604051908101604052809291908181526020016000905b828210156104855783829060005260206000200180546103f890610de1565b80601f016020809104026020016040519081016040528092919081815260200182805461042490610de1565b80156104715780601f1061044657610100808354040283529160200191610471565b820191906000526020600020905b81548152906001019060200180831161045457829003601f168201915b5050505050815260200190600101906103d9565b50505050905090565b6104966107c3565b6104a0600061081d565b565b6104aa6107c3565b855160015b818110156106535760045488516000916001600160a01b031690635c2d70ce908d908d908d90879081106104e5576104e5610f24565b60200260200101518c87815181106104ff576104ff610f24565b60200260200101518c888151811061051957610519610f24565b60200260200101518c8c8a8151811061053457610534610f24565b60200260200101518c6040518963ffffffff1660e01b8152600401610560989796959493929190610f3a565b6020604051808303816000875af115801561057f573d6000803e3d6000fd5b505050506040513d601f19601f820116820180604052508101906105a39190610dc4565b90508060018a84815181106105ba576105ba610f24565b60200260200101516040516105cf9190610d57565b908152602001604051809103902060006101000a8154816001600160a01b0302191690836001600160a01b03160217905550600289838151811061061557610615610f24565b6020908102919091018101518254600181018455600093845291909220019061063e9082610e64565b5050808061064b90610f95565b9150506104af565b50505050505050505050565b60025460609060009067ffffffffffffffff8111156106805761068061086d565b6040519080825280602002602001820160405280156106a9578160200160208202803683370190505b50905060005b60025481101561073f576001600282815481106106ce576106ce610f24565b906000526020600020016040516106e59190610fbc565b9081526040519081900360200190205482516001600160a01b039091169083908390811061071557610715610f24565b6001600160a01b03909216602092830291909101909101528061073781610f95565b9150506106af565b50919050565b61074d6107c3565b6001600160a01b0381166107b75760405162461bcd60e51b815260206004820152602660248201527f4f776e61626c653a206e6577206f776e657220697320746865207a65726f206160448201526564647265737360d01b60648201526084015b60405180910390fd5b6107c08161081d565b50565b6000546001600160a01b031633146104a05760405162461bcd60e51b815260206004820181905260248201527f4f776e61626c653a2063616c6c6572206973206e6f7420746865206f776e657260448201526064016107ae565b600080546001600160a01b038381166001600160a01b0319831681178455604051919092169283917f8be0079c531659141344cd1fd0a4f28419497f9722a3daafe3b4186f6b6457e09190a35050565b634e487b7160e01b600052604160045260246000fd5b604051601f8201601f1916810167ffffffffffffffff811182821017156108ac576108ac61086d565b604052919050565b600082601f8301126108c557600080fd5b813567ffffffffffffffff8111156108df576108df61086d565b6108f2601f8201601f1916602001610883565b81815284602083860101111561090757600080fd5b816020850160208301376000918101602001919091529392505050565b60006020828403121561093657600080fd5b813567ffffffffffffffff81111561094d57600080fd5b610959848285016108b4565b949350505050565b600080600080600080600060e0888a03121561097c57600080fd5b8735965060208801359550604088013567ffffffffffffffff808211156109a257600080fd5b6109ae8b838c016108b4565b965060608a0135955060808a0135945060a08a0135935060c08a01359150808211156109d957600080fd5b506109e68a828b016108b4565b91505092959891949750929550565b600060208284031215610a0757600080fd5b5035919050565b60005b83811015610a29578181015183820152602001610a11565b50506000910152565b60008151808452610a4a816020860160208601610a0e565b601f01601f19169290920160200192915050565b602081526000610a716020830184610a32565b9392505050565b6000602080830181845280855180835260408601915060408160051b870101925083870160005b82811015610acd57603f19888603018452610abb858351610a32565b94509285019290850190600101610a9f565b5092979650505050505050565b600067ffffffffffffffff821115610af457610af461086d565b5060051b60200190565b600082601f830112610b0f57600080fd5b81356020610b24610b1f83610ada565b610883565b82815260059290921b84018101918181019086841115610b4357600080fd5b8286015b84811015610b8357803567ffffffffffffffff811115610b675760008081fd5b610b758986838b01016108b4565b845250918301918301610b47565b509695505050505050565b600082601f830112610b9f57600080fd5b81356020610baf610b1f83610ada565b82815260059290921b84018101918181019086841115610bce57600080fd5b8286015b84811015610b835780358352918301918301610bd2565b600080600080600080600080610100898b031215610c0657600080fd5b8835975060208901359650604089013567ffffffffffffffff80821115610c2c57600080fd5b610c388c838d01610afe565b975060608b0135915080821115610c4e57600080fd5b610c5a8c838d01610b8e565b965060808b0135915080821115610c7057600080fd5b610c7c8c838d01610b8e565b955060a08b0135945060c08b0135915080821115610c9957600080fd5b610ca58c838d01610b8e565b935060e08b0135915080821115610cbb57600080fd5b50610cc88b828c016108b4565b9150509295985092959890939650565b6020808252825182820181905260009190848201906040850190845b81811015610d195783516001600160a01b031683529284019291840191600101610cf4565b50909695505050505050565b6001600160a01b03811681146107c057600080fd5b600060208284031215610d4c57600080fd5b8135610a7181610d25565b60008251610d69818460208701610a0e565b9190910192915050565b87815286602082015260e060408201526000610d9260e0830188610a32565b8660608401528560808401528460a084015282810360c0840152610db68185610a32565b9a9950505050505050505050565b600060208284031215610dd657600080fd5b8151610a7181610d25565b600181811c90821680610df557607f821691505b60208210810361073f57634e487b7160e01b600052602260045260246000fd5b601f821115610e5f57600081815260208120601f850160051c81016020861015610e3c5750805b601f850160051c820191505b81811015610e5b57828155600101610e48565b5050505b505050565b815167ffffffffffffffff811115610e7e57610e7e61086d565b610e9281610e8c8454610de1565b84610e15565b602080601f831160018114610ec75760008415610eaf5750858301515b600019600386901b1c1916600185901b178555610e5b565b600085815260208120601f198616915b82811015610ef657888601518255948401946001909101908401610ed7565b5085821015610f145787850151600019600388901b60f8161c191681555b5050505050600190811b01905550565b634e487b7160e01b600052603260045260246000fd5b60006101008a8352896020840152806040840152610f5a8184018a610a32565b90508760608401528660808401528560a08401528460c084015282810360e0840152610f868185610a32565b9b9a5050505050505050505050565b600060018201610fb557634e487b7160e01b600052601160045260246000fd5b5060010190565b6000808354610fca81610de1565b60018281168015610fe25760018114610ff757611026565b60ff1984168752821515830287019450611026565b8760005260208060002060005b8581101561101d5781548a820152908401908201611004565b50505082870194505b5092969550505050505056fea264697066735822122091b18f380ee8d435adc514165603a5a0107c191ef4fc7096c277975072b0e50c64736f6c63430008130033",
  "linkReferences": {},
  "deployedLinkReferences": {}
}