{
  "_format": "hh-sol-artifact-1",
  "contractName": "Session",
  "sourceName": "contracts/Session.sol",
  "abi": [
    {
      "inputs": [
        {
          "internalType": "address",
          "name": "_standingFactory",
          "type": "address"
        },
        {
          "internalType": "address",
          "name": "_seatedFactory",
          "type": "address"
        },
        {
          "internalType": "address",
          "name": "_sessionFactory",
          "type": "address"
        },
        {
          "internalType": "uint256",
          "name": "_eventId",
          "type": "uint256"
        },
        {
          "internalType": "uint256[]",
          "name": "_supply",
          "type": "uint256[]"
        },
        {
          "internalType": "string[]",
          "name": "_section",
          "type": "string[]"
        },
        {
          "internalType": "uint256[]",
          "name": "_startPrice",
          "type": "uint256[]"
        },
        {
          "internalType": "uint256",
          "name": "_sessionId",
          "type": "uint256"
        },
        {
          "internalType": "uint256",
          "name": "_priceCap",
          "type": "uint256"
        },
        {
          "internalType": "uint256[]",
          "name": "_startSeats",
          "type": "uint256[]"
        },
        {
          "internalType": "string",
          "name": "_eventName",
          "type": "string"
        }
      ],
      "stateMutability": "nonpayable",
      "type": "constructor"
    },
    {
      "anonymous": false,
      "inputs": [
        {
          "indexed": true,
          "internalType": "address",
          "name": "previousOwner",
          "type": "address"
        },
        {
          "indexed": true,
          "internalType": "address",
          "name": "newOwner",
          "type": "address"
        }
      ],
      "name": "OwnershipTransferred",
      "type": "event"
    },
    {
      "inputs": [
        {
          "internalType": "uint256",
          "name": "_eventId",
          "type": "uint256"
        },
        {
          "internalType": "uint256",
          "name": "_sessionId",
          "type": "uint256"
        },
        {
          "internalType": "string[]",
          "name": "_section",
          "type": "string[]"
        },
        {
          "internalType": "uint256[]",
          "name": "_supply",
          "type": "uint256[]"
        },
        {
          "internalType": "uint256[]",
          "name": "_startPrice",
          "type": "uint256[]"
        },
        {
          "internalType": "uint256",
          "name": "_priceCap",
          "type": "uint256"
        },
        {
          "internalType": "uint256[]",
          "name": "_startSeats",
          "type": "uint256[]"
        },
        {
          "internalType": "string",
          "name": "_eventName",
          "type": "string"
        }
      ],
      "name": "addSeatedNFTContract",
      "outputs": [],
      "stateMutability": "nonpayable",
      "type": "function"
    },
    {
      "inputs": [
        {
          "internalType": "uint256",
          "name": "_eventId",
          "type": "uint256"
        },
        {
          "internalType": "uint256",
          "name": "_sessionId",
          "type": "uint256"
        },
        {
          "internalType": "string",
          "name": "_section",
          "type": "string"
        },
        {
          "internalType": "uint256",
          "name": "_supply",
          "type": "uint256"
        },
        {
          "internalType": "uint256",
          "name": "_startPrice",
          "type": "uint256"
        },
        {
          "internalType": "uint256",
          "name": "_priceCap",
          "type": "uint256"
        },
        {
          "internalType": "string",
          "name": "_eventName",
          "type": "string"
        }
      ],
      "name": "addStandingNFTContract",
      "outputs": [],
      "stateMutability": "nonpayable",
      "type": "function"
    },
    {
      "inputs": [],
      "name": "eventName",
      "outputs": [
        {
          "internalType": "string",
          "name": "",
          "type": "string"
        }
      ],
      "stateMutability": "view",
      "type": "function"
    },
    {
      "inputs": [],
      "name": "getAllSectionsAddress",
      "outputs": [
        {
          "internalType": "address[]",
          "name": "",
          "type": "address[]"
        }
      ],
      "stateMutability": "view",
      "type": "function"
    },
    {
      "inputs": [
        {
          "internalType": "string",
          "name": "_section",
          "type": "string"
        }
      ],
      "name": "getSectionToAddress",
      "outputs": [
        {
          "internalType": "address",
          "name": "",
          "type": "address"
        }
      ],
      "stateMutability": "view",
      "type": "function"
    },
    {
      "inputs": [],
      "name": "getSections",
      "outputs": [
        {
          "internalType": "string[]",
          "name": "",
          "type": "string[]"
        }
      ],
      "stateMutability": "view",
      "type": "function"
    },
    {
      "inputs": [],
      "name": "owner",
      "outputs": [
        {
          "internalType": "address",
          "name": "",
          "type": "address"
        }
      ],
      "stateMutability": "view",
      "type": "function"
    },
    {
      "inputs": [],
      "name": "renounceOwnership",
      "outputs": [],
      "stateMutability": "nonpayable",
      "type": "function"
    },
    {
      "inputs": [
        {
          "internalType": "string",
          "name": "",
          "type": "string"
        }
      ],
      "name": "sectionToAddress",
      "outputs": [
        {
          "internalType": "address",
          "name": "",
          "type": "address"
        }
      ],
      "stateMutability": "view",
      "type": "function"
    },
    {
      "inputs": [
        {
          "internalType": "uint256",
          "name": "",
          "type": "uint256"
        }
      ],
      "name": "sections",
      "outputs": [
        {
          "internalType": "string",
          "name": "",
          "type": "string"
        }
      ],
      "stateMutability": "view",
      "type": "function"
    },
    {
      "inputs": [],
      "name": "sessionId",
      "outputs": [
        {
          "internalType": "uint256",
          "name": "",
          "type": "uint256"
        }
      ],
      "stateMutability": "view",
      "type": "function"
    },
    {
      "inputs": [
        {
          "internalType": "address",
          "name": "newOwner",
          "type": "address"
        }
      ],
      "name": "transferOwnership",
      "outputs": [],
      "stateMutability": "nonpayable",
      "type": "function"
    }
  ],
  "bytecode": "0x60806040523480156200001157600080fd5b5060405162001b8638038062001b868339810160408190526200003491620006e9565b6200003f336200011c565b600380546001600160a01b03808e166001600160a01b031992831617909255600480548d841690831617905560058054928c169290911691909117905560066200008a8282620008cd565b50620000f9888588600081518110620000a757620000a762000999565b60200260200101518a600081518110620000c557620000c562000999565b602002602001015189600081518110620000e357620000e362000999565b602002602001015188876200016c60201b60201c565b6200010b8885888a8988888862000288565b505050505050505050505062000afc565b600080546001600160a01b038381166001600160a01b0319831681178455604051919092169283917f8be0079c531659141344cd1fd0a4f28419497f9722a3daafe3b4186f6b6457e09190a35050565b6200017662000466565b600354604051633e50e26760e21b81526000916001600160a01b03169063f943899c90620001b5908b908b908b908b908b908b908b90600401620009dd565b6020604051808303816000875af1158015620001d5573d6000803e3d6000fd5b505050506040513d601f19601f82011682018060405250810190620001fb919062000a32565b90508060018760405162000210919062000a57565b90815260405190819003602001902080546001600160a01b03929092166001600160a01b0319909216919091179055600280546001810182556000919091527f405787fa12a823e0f2b7631cc41b3ba8828b3321ca811111fa75cd3aa3bb5ace016200027d8782620008cd565b505050505050505050565b6200029262000466565b855160015b818110156200045a5760045488516000916001600160a01b031690635c2d70ce908d908d908d9087908110620002d157620002d162000999565b60200260200101518c8781518110620002ee57620002ee62000999565b60200260200101518c88815181106200030b576200030b62000999565b60200260200101518c8c8a8151811062000329576200032962000999565b60200260200101518c6040518963ffffffff1660e01b81526004016200035798979695949392919062000a75565b6020604051808303816000875af115801562000377573d6000803e3d6000fd5b505050506040513d601f19601f820116820180604052508101906200039d919062000a32565b90508060018a8481518110620003b757620003b762000999565b6020026020010151604051620003ce919062000a57565b908152602001604051809103902060006101000a8154816001600160a01b0302191690836001600160a01b03160217905550600289838151811062000417576200041762000999565b60209081029190910181015182546001810184556000938452919092200190620004429082620008cd565b50508080620004519062000ad4565b91505062000297565b50505050505050505050565b6000546001600160a01b03163314620004c55760405162461bcd60e51b815260206004820181905260248201527f4f776e61626c653a2063616c6c6572206973206e6f7420746865206f776e6572604482015260640160405180910390fd5b565b80516001600160a01b0381168114620004df57600080fd5b919050565b634e487b7160e01b600052604160045260246000fd5b604051601f8201601f191681016001600160401b0381118282101715620005255762000525620004e4565b604052919050565b60006001600160401b03821115620005495762000549620004e4565b5060051b60200190565b600082601f8301126200056557600080fd5b815160206200057e62000578836200052d565b620004fa565b82815260059290921b840181019181810190868411156200059e57600080fd5b8286015b84811015620005bb5780518352918301918301620005a2565b509695505050505050565b60005b83811015620005e3578181015183820152602001620005c9565b50506000910152565b600082601f830112620005fe57600080fd5b81516001600160401b038111156200061a576200061a620004e4565b6200062f601f8201601f1916602001620004fa565b8181528460208386010111156200064557600080fd5b62000658826020830160208701620005c6565b949350505050565b600082601f8301126200067257600080fd5b815160206200068562000578836200052d565b82815260059290921b84018101918181019086841115620006a557600080fd5b8286015b84811015620005bb5780516001600160401b03811115620006ca5760008081fd5b620006da8986838b0101620005ec565b845250918301918301620006a9565b60008060008060008060008060008060006101608c8e0312156200070c57600080fd5b620007178c620004c7565b9a506200072760208d01620004c7565b99506200073760408d01620004c7565b60608d015160808e0151919a5098506001600160401b038111156200075b57600080fd5b620007698e828f0162000553565b60a08e015190985090506001600160401b038111156200078857600080fd5b620007968e828f0162000660565b60c08e015190975090506001600160401b03811115620007b557600080fd5b620007c38e828f0162000553565b95505060e08c015193506101008c015192506101208c015160018060401b03811115620007ef57600080fd5b620007fd8e828f0162000553565b6101408e015190935090506001600160401b038111156200081d57600080fd5b6200082b8e828f01620005ec565b9150509295989b509295989b9093969950565b600181811c908216806200085357607f821691505b6020821081036200087457634e487b7160e01b600052602260045260246000fd5b50919050565b601f821115620008c857600081815260208120601f850160051c81016020861015620008a35750805b601f850160051c820191505b81811015620008c457828155600101620008af565b5050505b505050565b81516001600160401b03811115620008e957620008e9620004e4565b6200090181620008fa84546200083e565b846200087a565b602080601f831160018114620009395760008415620009205750858301515b600019600386901b1c1916600185901b178555620008c4565b600085815260208120601f198616915b828110156200096a5788860151825594840194600190910190840162000949565b5085821015620009895787850151600019600388901b60f8161c191681555b5050505050600190811b01905550565b634e487b7160e01b600052603260045260246000fd5b60008151808452620009c9816020860160208601620005c6565b601f01601f19169290920160200192915050565b87815286602082015260e060408201526000620009fe60e0830188620009af565b8660608401528560808401528460a084015282810360c084015262000a248185620009af565b9a9950505050505050505050565b60006020828403121562000a4557600080fd5b62000a5082620004c7565b9392505050565b6000825162000a6b818460208701620005c6565b9190910192915050565b60006101008a835289602084015280604084015262000a978184018a620009af565b90508760608401528660808401528560a08401528460c084015282810360e084015262000ac58185620009af565b9b9a5050505050505050505050565b60006001820162000af557634e487b7160e01b600052601160045260246000fd5b5060010190565b61107a8062000b0c6000396000f3fe608060405234801561001057600080fd5b50600436106100a45760003560e01c8063183a471c146100a9578063290f3094146100d957806335603440146100ee57806348a4f2e91461010e578063715018a6146101235780637580916b1461012b5780638043c9c01461015f578063849db6bf146101675780638da5cb5b1461017a5780639648c9f414610182578063cc43700814610199578063f2fde38b146101ae575b600080fd5b6100bc6100b736600461093c565b6101c1565b6040516001600160a01b0390911681526020015b60405180910390f35b6100ec6100e7366004610978565b6101f2565b005b6101016100fc366004610a0b565b610303565b6040516100d09190610a74565b6101166103af565b6040516100d09190610a8e565b6100ec610488565b6100bc61013936600461093c565b80516020818301810180516001825292820191909301209152546001600160a01b031681565b61010161049c565b6100ec610175366004610bfd565b6104a9565b6100bc610666565b61018b60075481565b6040519081526020016100d0565b6101a1610675565b6040516100d09190610ceb565b6100ec6101bc366004610d4d565b61075a565b60006001826040516101d39190610d6a565b908152604051908190036020019020546001600160a01b031692915050565b6101fa6107d8565b600354604051633e50e26760e21b81526000916001600160a01b03169063f943899c90610237908b908b908b908b908b908b908b90600401610d86565b6020604051808303816000875af1158015610256573d6000803e3d6000fd5b505050506040513d601f19601f8201168201806040525081019061027a9190610dd7565b90508060018760405161028d9190610d6a565b90815260405190819003602001902080546001600160a01b03929092166001600160a01b0319909216919091179055600280546001810182556000919091527f405787fa12a823e0f2b7631cc41b3ba8828b3321ca811111fa75cd3aa3bb5ace016102f88782610e77565b505050505050505050565b6002818154811061031357600080fd5b90600052602060002001600091509050805461032e90610df4565b80601f016020809104026020016040519081016040528092919081815260200182805461035a90610df4565b80156103a75780601f1061037c576101008083540402835291602001916103a7565b820191906000526020600020905b81548152906001019060200180831161038a57829003601f168201915b505050505081565b60606002805480602002602001604051908101604052809291908181526020016000905b8282101561047f5783829060005260206000200180546103f290610df4565b80601f016020809104026020016040519081016040528092919081815260200182805461041e90610df4565b801561046b5780601f106104405761010080835404028352916020019161046b565b820191906000526020600020905b81548152906001019060200180831161044e57829003601f168201915b5050505050815260200190600101906103d3565b50505050905090565b6104906107d8565b61049a6000610837565b565b6006805461032e90610df4565b6104b16107d8565b855160015b8181101561065a5760045488516000916001600160a01b031690635c2d70ce908d908d908d90879081106104ec576104ec610f36565b60200260200101518c878151811061050657610506610f36565b60200260200101518c888151811061052057610520610f36565b60200260200101518c8c8a8151811061053b5761053b610f36565b60200260200101518c6040518963ffffffff1660e01b8152600401610567989796959493929190610f4c565b6020604051808303816000875af1158015610586573d6000803e3d6000fd5b505050506040513d601f19601f820116820180604052508101906105aa9190610dd7565b90508060018a84815181106105c1576105c1610f36565b60200260200101516040516105d69190610d6a565b908152602001604051809103902060006101000a8154816001600160a01b0302191690836001600160a01b03160217905550600289838151811061061c5761061c610f36565b602090810291909101810151825460018101845560009384529190922001906106459082610e77565b5050808061065290610fa7565b9150506104b6565b50505050505050505050565b6000546001600160a01b031690565b6002546060906000906001600160401b0381111561069557610695610887565b6040519080825280602002602001820160405280156106be578160200160208202803683370190505b50905060005b600254811015610754576001600282815481106106e3576106e3610f36565b906000526020600020016040516106fa9190610fce565b9081526040519081900360200190205482516001600160a01b039091169083908390811061072a5761072a610f36565b6001600160a01b03909216602092830291909101909101528061074c81610fa7565b9150506106c4565b50919050565b6107626107d8565b6001600160a01b0381166107cc5760405162461bcd60e51b815260206004820152602660248201527f4f776e61626c653a206e6577206f776e657220697320746865207a65726f206160448201526564647265737360d01b60648201526084015b60405180910390fd5b6107d581610837565b50565b336107e1610666565b6001600160a01b03161461049a5760405162461bcd60e51b815260206004820181905260248201527f4f776e61626c653a2063616c6c6572206973206e6f7420746865206f776e657260448201526064016107c3565b600080546001600160a01b038381166001600160a01b0319831681178455604051919092169283917f8be0079c531659141344cd1fd0a4f28419497f9722a3daafe3b4186f6b6457e09190a35050565b634e487b7160e01b600052604160045260246000fd5b604051601f8201601f191681016001600160401b03811182821017156108c5576108c5610887565b604052919050565b600082601f8301126108de57600080fd5b81356001600160401b038111156108f7576108f7610887565b61090a601f8201601f191660200161089d565b81815284602083860101111561091f57600080fd5b816020850160208301376000918101602001919091529392505050565b60006020828403121561094e57600080fd5b81356001600160401b0381111561096457600080fd5b610970848285016108cd565b949350505050565b600080600080600080600060e0888a03121561099357600080fd5b873596506020880135955060408801356001600160401b03808211156109b857600080fd5b6109c48b838c016108cd565b965060608a0135955060808a0135945060a08a0135935060c08a01359150808211156109ef57600080fd5b506109fc8a828b016108cd565b91505092959891949750929550565b600060208284031215610a1d57600080fd5b5035919050565b60005b83811015610a3f578181015183820152602001610a27565b50506000910152565b60008151808452610a60816020860160208601610a24565b601f01601f19169290920160200192915050565b602081526000610a876020830184610a48565b9392505050565b6000602080830181845280855180835260408601915060408160051b870101925083870160005b82811015610ae357603f19888603018452610ad1858351610a48565b94509285019290850190600101610ab5565b5092979650505050505050565b60006001600160401b03821115610b0957610b09610887565b5060051b60200190565b600082601f830112610b2457600080fd5b81356020610b39610b3483610af0565b61089d565b82815260059290921b84018101918181019086841115610b5857600080fd5b8286015b84811015610b975780356001600160401b03811115610b7b5760008081fd5b610b898986838b01016108cd565b845250918301918301610b5c565b509695505050505050565b600082601f830112610bb357600080fd5b81356020610bc3610b3483610af0565b82815260059290921b84018101918181019086841115610be257600080fd5b8286015b84811015610b975780358352918301918301610be6565b600080600080600080600080610100898b031215610c1a57600080fd5b883597506020890135965060408901356001600160401b0380821115610c3f57600080fd5b610c4b8c838d01610b13565b975060608b0135915080821115610c6157600080fd5b610c6d8c838d01610ba2565b965060808b0135915080821115610c8357600080fd5b610c8f8c838d01610ba2565b955060a08b0135945060c08b0135915080821115610cac57600080fd5b610cb88c838d01610ba2565b935060e08b0135915080821115610cce57600080fd5b50610cdb8b828c016108cd565b9150509295985092959890939650565b6020808252825182820181905260009190848201906040850190845b81811015610d2c5783516001600160a01b031683529284019291840191600101610d07565b50909695505050505050565b6001600160a01b03811681146107d557600080fd5b600060208284031215610d5f57600080fd5b8135610a8781610d38565b60008251610d7c818460208701610a24565b9190910192915050565b87815286602082015260e060408201526000610da560e0830188610a48565b8660608401528560808401528460a084015282810360c0840152610dc98185610a48565b9a9950505050505050505050565b600060208284031215610de957600080fd5b8151610a8781610d38565b600181811c90821680610e0857607f821691505b60208210810361075457634e487b7160e01b600052602260045260246000fd5b601f821115610e7257600081815260208120601f850160051c81016020861015610e4f5750805b601f850160051c820191505b81811015610e6e57828155600101610e5b565b5050505b505050565b81516001600160401b03811115610e9057610e90610887565b610ea481610e9e8454610df4565b84610e28565b602080601f831160018114610ed95760008415610ec15750858301515b600019600386901b1c1916600185901b178555610e6e565b600085815260208120601f198616915b82811015610f0857888601518255948401946001909101908401610ee9565b5085821015610f265787850151600019600388901b60f8161c191681555b5050505050600190811b01905550565b634e487b7160e01b600052603260045260246000fd5b60006101008a8352896020840152806040840152610f6c8184018a610a48565b90508760608401528660808401528560a08401528460c084015282810360e0840152610f988185610a48565b9b9a5050505050505050505050565b600060018201610fc757634e487b7160e01b600052601160045260246000fd5b5060010190565b6000808354610fdc81610df4565b60018281168015610ff4576001811461100957611038565b60ff1984168752821515830287019450611038565b8760005260208060002060005b8581101561102f5781548a820152908401908201611016565b50505082870194505b5092969550505050505056fea2646970667358221220410b93f6b8f840c90ee9ad1145c86752e1ad6cb7078664b0367da9cddcf5a13c64736f6c63430008130033",
  "linkReferences": {},
  "deployedLinkReferences": {}
}