{
  "_format": "hh-sol-artifact-1",
  "contractName": "Session",
  "sourceName": "contracts/Session.sol",
  "abi": [
    {
      "inputs": [
        {
          "internalType": "address",
          "name": "_standingFactory",
          "type": "address"
        },
        {
          "internalType": "address",
          "name": "_seatedFactory",
          "type": "address"
        },
        {
          "internalType": "address",
          "name": "_sessionFactory",
          "type": "address"
        },
        {
          "internalType": "uint256",
          "name": "_eventId",
          "type": "uint256"
        },
        {
          "internalType": "uint256[]",
          "name": "_supply",
          "type": "uint256[]"
        },
        {
          "internalType": "string[]",
          "name": "_section",
          "type": "string[]"
        },
        {
          "internalType": "uint256[]",
          "name": "_startPrice",
          "type": "uint256[]"
        },
        {
          "internalType": "uint256",
          "name": "_sessionId",
          "type": "uint256"
        },
        {
          "internalType": "uint256",
          "name": "_priceCap",
          "type": "uint256"
        },
        {
          "internalType": "uint256[]",
          "name": "_startSeats",
          "type": "uint256[]"
        },
        {
          "internalType": "string[]",
          "name": "_nftMeta",
          "type": "string[]"
        }
      ],
      "stateMutability": "nonpayable",
      "type": "constructor"
    },
    {
      "anonymous": false,
      "inputs": [
        {
          "indexed": true,
          "internalType": "address",
          "name": "previousOwner",
          "type": "address"
        },
        {
          "indexed": true,
          "internalType": "address",
          "name": "newOwner",
          "type": "address"
        }
      ],
      "name": "OwnershipTransferred",
      "type": "event"
    },
    {
      "inputs": [
        {
          "internalType": "uint256",
          "name": "_eventId",
          "type": "uint256"
        },
        {
          "internalType": "uint256",
          "name": "_sessionId",
          "type": "uint256"
        },
        {
          "internalType": "string[]",
          "name": "_section",
          "type": "string[]"
        },
        {
          "internalType": "uint256[]",
          "name": "_supply",
          "type": "uint256[]"
        },
        {
          "internalType": "uint256[]",
          "name": "_startPrice",
          "type": "uint256[]"
        },
        {
          "internalType": "uint256",
          "name": "_priceCap",
          "type": "uint256"
        },
        {
          "internalType": "uint256[]",
          "name": "_startSeats",
          "type": "uint256[]"
        },
        {
          "internalType": "string",
          "name": "_nftMeta",
          "type": "string"
        }
      ],
      "name": "addSeatedNFTContract",
      "outputs": [],
      "stateMutability": "nonpayable",
      "type": "function"
    },
    {
      "inputs": [
        {
          "internalType": "uint256",
          "name": "_eventId",
          "type": "uint256"
        },
        {
          "internalType": "uint256",
          "name": "_sessionId",
          "type": "uint256"
        },
        {
          "internalType": "string",
          "name": "_section",
          "type": "string"
        },
        {
          "internalType": "uint256",
          "name": "_supply",
          "type": "uint256"
        },
        {
          "internalType": "uint256",
          "name": "_startPrice",
          "type": "uint256"
        },
        {
          "internalType": "uint256",
          "name": "_priceCap",
          "type": "uint256"
        },
        {
          "internalType": "string",
          "name": "_nftMeta",
          "type": "string"
        }
      ],
      "name": "addStandingNFTContract",
      "outputs": [],
      "stateMutability": "nonpayable",
      "type": "function"
    },
    {
      "inputs": [],
      "name": "getAllSectionsAddress",
      "outputs": [
        {
          "internalType": "address[]",
          "name": "",
          "type": "address[]"
        }
      ],
      "stateMutability": "view",
      "type": "function"
    },
    {
      "inputs": [
        {
          "internalType": "string",
          "name": "_section",
          "type": "string"
        }
      ],
      "name": "getSectionToAddress",
      "outputs": [
        {
          "internalType": "address",
          "name": "",
          "type": "address"
        }
      ],
      "stateMutability": "view",
      "type": "function"
    },
    {
      "inputs": [],
      "name": "getSections",
      "outputs": [
        {
          "internalType": "string[]",
          "name": "",
          "type": "string[]"
        }
      ],
      "stateMutability": "view",
      "type": "function"
    },
    {
      "inputs": [],
      "name": "owner",
      "outputs": [
        {
          "internalType": "address",
          "name": "",
          "type": "address"
        }
      ],
      "stateMutability": "view",
      "type": "function"
    },
    {
      "inputs": [],
      "name": "renounceOwnership",
      "outputs": [],
      "stateMutability": "nonpayable",
      "type": "function"
    },
    {
      "inputs": [
        {
          "internalType": "string",
          "name": "",
          "type": "string"
        }
      ],
      "name": "sectionToAddress",
      "outputs": [
        {
          "internalType": "address",
          "name": "",
          "type": "address"
        }
      ],
      "stateMutability": "view",
      "type": "function"
    },
    {
      "inputs": [
        {
          "internalType": "uint256",
          "name": "",
          "type": "uint256"
        }
      ],
      "name": "sections",
      "outputs": [
        {
          "internalType": "string",
          "name": "",
          "type": "string"
        }
      ],
      "stateMutability": "view",
      "type": "function"
    },
    {
      "inputs": [],
      "name": "sessionId",
      "outputs": [
        {
          "internalType": "uint256",
          "name": "",
          "type": "uint256"
        }
      ],
      "stateMutability": "view",
      "type": "function"
    },
    {
      "inputs": [
        {
          "internalType": "address",
          "name": "newOwner",
          "type": "address"
        }
      ],
      "name": "transferOwnership",
      "outputs": [],
      "stateMutability": "nonpayable",
      "type": "function"
    }
  ],
  "bytecode": "0x60806040523480156200001157600080fd5b5060405162001c7b38038062001c7b8339810160408190526200003491620007fe565b6200003f3362000163565b600380546001600160a01b03808e166001600160a01b031992831617909255600480548d841690831617905560058054928c16929091169190911790558051620000919060069060208401906200050e565b506200011d888588600081518110620000ae57620000ae62000953565b60200260200101518a600081518110620000cc57620000cc62000953565b602002602001015189600081518110620000ea57620000ea62000953565b6020026020010151888760008151811062000109576200010962000953565b6020026020010151620001b360201b60201c565b620001528885888a898888886001815181106200013e576200013e62000953565b6020026020010151620002cf60201b60201c565b505050505050505050505062000c11565b600080546001600160a01b038381166001600160a01b0319831681178455604051919092169283917f8be0079c531659141344cd1fd0a4f28419497f9722a3daafe3b4186f6b6457e09190a35050565b620001bd620004ad565b600354604051633e50e26760e21b81526000916001600160a01b03169063f943899c90620001fc908b908b908b908b908b908b908b9060040162000997565b6020604051808303816000875af11580156200021c573d6000803e3d6000fd5b505050506040513d601f19601f82011682018060405250810190620002429190620009ec565b90508060018760405162000257919062000a11565b90815260405190819003602001902080546001600160a01b03929092166001600160a01b0319909216919091179055600280546001810182556000919091527f405787fa12a823e0f2b7631cc41b3ba8828b3321ca811111fa75cd3aa3bb5ace01620002c4878262000abe565b505050505050505050565b620002d9620004ad565b855160015b81811015620004a15760045488516000916001600160a01b031690635c2d70ce908d908d908d908790811062000318576200031862000953565b60200260200101518c878151811062000335576200033562000953565b60200260200101518c888151811062000352576200035262000953565b60200260200101518c8c8a8151811062000370576200037062000953565b60200260200101518c6040518963ffffffff1660e01b81526004016200039e98979695949392919062000b8a565b6020604051808303816000875af1158015620003be573d6000803e3d6000fd5b505050506040513d601f19601f82011682018060405250810190620003e49190620009ec565b90508060018a8481518110620003fe57620003fe62000953565b602002602001015160405162000415919062000a11565b908152602001604051809103902060006101000a8154816001600160a01b0302191690836001600160a01b0316021790555060028983815181106200045e576200045e62000953565b6020908102919091018101518254600181018455600093845291909220019062000489908262000abe565b50508080620004989062000be9565b915050620002de565b50505050505050505050565b6000546001600160a01b031633146200050c5760405162461bcd60e51b815260206004820181905260248201527f4f776e61626c653a2063616c6c6572206973206e6f7420746865206f776e6572604482015260640160405180910390fd5b565b82805482825590600052602060002090810192821562000559579160200282015b8281111562000559578251829062000548908262000abe565b50916020019190600101906200052f565b50620005679291506200056b565b5090565b80821115620005675760006200058282826200058c565b506001016200056b565b5080546200059a9062000a2f565b6000825580601f10620005ab575050565b601f016020900490600052602060002090810190620005cb9190620005ce565b50565b5b80821115620005675760008155600101620005cf565b80516001600160a01b0381168114620005fd57600080fd5b919050565b634e487b7160e01b600052604160045260246000fd5b604051601f8201601f191681016001600160401b038111828210171562000643576200064362000602565b604052919050565b60006001600160401b0382111562000667576200066762000602565b5060051b60200190565b600082601f8301126200068357600080fd5b815160206200069c62000696836200064b565b62000618565b82815260059290921b84018101918181019086841115620006bc57600080fd5b8286015b84811015620006d95780518352918301918301620006c0565b509695505050505050565b60005b8381101562000701578181015183820152602001620006e7565b50506000910152565b6000601f83818401126200071d57600080fd5b825160206200073062000696836200064b565b82815260059290921b850181019181810190878411156200075057600080fd5b8287015b84811015620007f25780516001600160401b0380821115620007765760008081fd5b818a0191508a603f8301126200078c5760008081fd5b85820151604082821115620007a557620007a562000602565b620007b8828b01601f1916890162000618565b92508183528c81838601011115620007d05760008081fd5b620007e182898501838701620006e4565b505084525091830191830162000754565b50979650505050505050565b60008060008060008060008060008060006101608c8e0312156200082157600080fd5b6200082c8c620005e5565b9a506200083c60208d01620005e5565b99506200084c60408d01620005e5565b60608d015160808e0151919a5098506001600160401b038111156200087057600080fd5b6200087e8e828f0162000671565b60a08e015190985090506001600160401b038111156200089d57600080fd5b620008ab8e828f016200070a565b60c08e015190975090506001600160401b03811115620008ca57600080fd5b620008d88e828f0162000671565b95505060e08c015193506101008c015192506101208c015160018060401b038111156200090457600080fd5b620009128e828f0162000671565b6101408e015190935090506001600160401b038111156200093257600080fd5b620009408e828f016200070a565b9150509295989b509295989b9093969950565b634e487b7160e01b600052603260045260246000fd5b6000815180845262000983816020860160208601620006e4565b601f01601f19169290920160200192915050565b87815286602082015260e060408201526000620009b860e083018862000969565b8660608401528560808401528460a084015282810360c0840152620009de818562000969565b9a9950505050505050505050565b600060208284031215620009ff57600080fd5b62000a0a82620005e5565b9392505050565b6000825162000a25818460208701620006e4565b9190910192915050565b600181811c9082168062000a4457607f821691505b60208210810362000a6557634e487b7160e01b600052602260045260246000fd5b50919050565b601f82111562000ab957600081815260208120601f850160051c8101602086101562000a945750805b601f850160051c820191505b8181101562000ab55782815560010162000aa0565b5050505b505050565b81516001600160401b0381111562000ada5762000ada62000602565b62000af28162000aeb845462000a2f565b8462000a6b565b602080601f83116001811462000b2a576000841562000b115750858301515b600019600386901b1c1916600185901b17855562000ab5565b600085815260208120601f198616915b8281101562000b5b5788860151825594840194600190910190840162000b3a565b508582101562000b7a5787850151600019600388901b60f8161c191681555b5050505050600190811b01905550565b60006101008a835289602084015280604084015262000bac8184018a62000969565b90508760608401528660808401528560a08401528460c084015282810360e084015262000bda818562000969565b9b9a5050505050505050505050565b60006001820162000c0a57634e487b7160e01b600052601160045260246000fd5b5060010190565b61105a8062000c216000396000f3fe608060405234801561001057600080fd5b50600436106100995760003560e01c8063183a471c1461009e578063290f3094146100ce57806335603440146100e357806348a4f2e914610103578063715018a6146101185780637580916b14610120578063849db6bf146101545780638da5cb5b146101675780639648c9f41461016f578063cc43700814610186578063f2fde38b1461019b575b600080fd5b6100b16100ac36600461091c565b6101ae565b6040516001600160a01b0390911681526020015b60405180910390f35b6100e16100dc366004610958565b6101df565b005b6100f66100f13660046109eb565b6102f0565b6040516100c59190610a54565b61010b61039c565b6040516100c59190610a6e565b6100e1610475565b6100b161012e36600461091c565b80516020818301810180516001825292820191909301209152546001600160a01b031681565b6100e1610162366004610bdd565b610489565b6100b1610646565b61017860075481565b6040519081526020016100c5565b61018e610655565b6040516100c59190610ccb565b6100e16101a9366004610d2d565b61073a565b60006001826040516101c09190610d4a565b908152604051908190036020019020546001600160a01b031692915050565b6101e76107b8565b600354604051633e50e26760e21b81526000916001600160a01b03169063f943899c90610224908b908b908b908b908b908b908b90600401610d66565b6020604051808303816000875af1158015610243573d6000803e3d6000fd5b505050506040513d601f19601f820116820180604052508101906102679190610db7565b90508060018760405161027a9190610d4a565b90815260405190819003602001902080546001600160a01b03929092166001600160a01b0319909216919091179055600280546001810182556000919091527f405787fa12a823e0f2b7631cc41b3ba8828b3321ca811111fa75cd3aa3bb5ace016102e58782610e57565b505050505050505050565b6002818154811061030057600080fd5b90600052602060002001600091509050805461031b90610dd4565b80601f016020809104026020016040519081016040528092919081815260200182805461034790610dd4565b80156103945780601f1061036957610100808354040283529160200191610394565b820191906000526020600020905b81548152906001019060200180831161037757829003601f168201915b505050505081565b60606002805480602002602001604051908101604052809291908181526020016000905b8282101561046c5783829060005260206000200180546103df90610dd4565b80601f016020809104026020016040519081016040528092919081815260200182805461040b90610dd4565b80156104585780601f1061042d57610100808354040283529160200191610458565b820191906000526020600020905b81548152906001019060200180831161043b57829003601f168201915b5050505050815260200190600101906103c0565b50505050905090565b61047d6107b8565b6104876000610817565b565b6104916107b8565b855160015b8181101561063a5760045488516000916001600160a01b031690635c2d70ce908d908d908d90879081106104cc576104cc610f16565b60200260200101518c87815181106104e6576104e6610f16565b60200260200101518c888151811061050057610500610f16565b60200260200101518c8c8a8151811061051b5761051b610f16565b60200260200101518c6040518963ffffffff1660e01b8152600401610547989796959493929190610f2c565b6020604051808303816000875af1158015610566573d6000803e3d6000fd5b505050506040513d601f19601f8201168201806040525081019061058a9190610db7565b90508060018a84815181106105a1576105a1610f16565b60200260200101516040516105b69190610d4a565b908152602001604051809103902060006101000a8154816001600160a01b0302191690836001600160a01b0316021790555060028983815181106105fc576105fc610f16565b602090810291909101810151825460018101845560009384529190922001906106259082610e57565b5050808061063290610f87565b915050610496565b50505050505050505050565b6000546001600160a01b031690565b6002546060906000906001600160401b0381111561067557610675610867565b60405190808252806020026020018201604052801561069e578160200160208202803683370190505b50905060005b600254811015610734576001600282815481106106c3576106c3610f16565b906000526020600020016040516106da9190610fae565b9081526040519081900360200190205482516001600160a01b039091169083908390811061070a5761070a610f16565b6001600160a01b03909216602092830291909101909101528061072c81610f87565b9150506106a4565b50919050565b6107426107b8565b6001600160a01b0381166107ac5760405162461bcd60e51b815260206004820152602660248201527f4f776e61626c653a206e6577206f776e657220697320746865207a65726f206160448201526564647265737360d01b60648201526084015b60405180910390fd5b6107b581610817565b50565b336107c1610646565b6001600160a01b0316146104875760405162461bcd60e51b815260206004820181905260248201527f4f776e61626c653a2063616c6c6572206973206e6f7420746865206f776e657260448201526064016107a3565b600080546001600160a01b038381166001600160a01b0319831681178455604051919092169283917f8be0079c531659141344cd1fd0a4f28419497f9722a3daafe3b4186f6b6457e09190a35050565b634e487b7160e01b600052604160045260246000fd5b604051601f8201601f191681016001600160401b03811182821017156108a5576108a5610867565b604052919050565b600082601f8301126108be57600080fd5b81356001600160401b038111156108d7576108d7610867565b6108ea601f8201601f191660200161087d565b8181528460208386010111156108ff57600080fd5b816020850160208301376000918101602001919091529392505050565b60006020828403121561092e57600080fd5b81356001600160401b0381111561094457600080fd5b610950848285016108ad565b949350505050565b600080600080600080600060e0888a03121561097357600080fd5b873596506020880135955060408801356001600160401b038082111561099857600080fd5b6109a48b838c016108ad565b965060608a0135955060808a0135945060a08a0135935060c08a01359150808211156109cf57600080fd5b506109dc8a828b016108ad565b91505092959891949750929550565b6000602082840312156109fd57600080fd5b5035919050565b60005b83811015610a1f578181015183820152602001610a07565b50506000910152565b60008151808452610a40816020860160208601610a04565b601f01601f19169290920160200192915050565b602081526000610a676020830184610a28565b9392505050565b6000602080830181845280855180835260408601915060408160051b870101925083870160005b82811015610ac357603f19888603018452610ab1858351610a28565b94509285019290850190600101610a95565b5092979650505050505050565b60006001600160401b03821115610ae957610ae9610867565b5060051b60200190565b600082601f830112610b0457600080fd5b81356020610b19610b1483610ad0565b61087d565b82815260059290921b84018101918181019086841115610b3857600080fd5b8286015b84811015610b775780356001600160401b03811115610b5b5760008081fd5b610b698986838b01016108ad565b845250918301918301610b3c565b509695505050505050565b600082601f830112610b9357600080fd5b81356020610ba3610b1483610ad0565b82815260059290921b84018101918181019086841115610bc257600080fd5b8286015b84811015610b775780358352918301918301610bc6565b600080600080600080600080610100898b031215610bfa57600080fd5b883597506020890135965060408901356001600160401b0380821115610c1f57600080fd5b610c2b8c838d01610af3565b975060608b0135915080821115610c4157600080fd5b610c4d8c838d01610b82565b965060808b0135915080821115610c6357600080fd5b610c6f8c838d01610b82565b955060a08b0135945060c08b0135915080821115610c8c57600080fd5b610c988c838d01610b82565b935060e08b0135915080821115610cae57600080fd5b50610cbb8b828c016108ad565b9150509295985092959890939650565b6020808252825182820181905260009190848201906040850190845b81811015610d0c5783516001600160a01b031683529284019291840191600101610ce7565b50909695505050505050565b6001600160a01b03811681146107b557600080fd5b600060208284031215610d3f57600080fd5b8135610a6781610d18565b60008251610d5c818460208701610a04565b9190910192915050565b87815286602082015260e060408201526000610d8560e0830188610a28565b8660608401528560808401528460a084015282810360c0840152610da98185610a28565b9a9950505050505050505050565b600060208284031215610dc957600080fd5b8151610a6781610d18565b600181811c90821680610de857607f821691505b60208210810361073457634e487b7160e01b600052602260045260246000fd5b601f821115610e5257600081815260208120601f850160051c81016020861015610e2f5750805b601f850160051c820191505b81811015610e4e57828155600101610e3b565b5050505b505050565b81516001600160401b03811115610e7057610e70610867565b610e8481610e7e8454610dd4565b84610e08565b602080601f831160018114610eb95760008415610ea15750858301515b600019600386901b1c1916600185901b178555610e4e565b600085815260208120601f198616915b82811015610ee857888601518255948401946001909101908401610ec9565b5085821015610f065787850151600019600388901b60f8161c191681555b5050505050600190811b01905550565b634e487b7160e01b600052603260045260246000fd5b60006101008a8352896020840152806040840152610f4c8184018a610a28565b90508760608401528660808401528560a08401528460c084015282810360e0840152610f788185610a28565b9b9a5050505050505050505050565b600060018201610fa757634e487b7160e01b600052601160045260246000fd5b5060010190565b6000808354610fbc81610dd4565b60018281168015610fd45760018114610fe957611018565b60ff1984168752821515830287019450611018565b8760005260208060002060005b8581101561100f5781548a820152908401908201610ff6565b50505082870194505b5092969550505050505056fea2646970667358221220705fc7fd90516e8858ddbf03ce79b45887b77a25fe63cbc08f944592a9a902da64736f6c63430008130033",
  "linkReferences": {},
  "deployedLinkReferences": {}
}