{
  "_format": "hh-sol-artifact-1",
  "contractName": "SessionNftFactory",
  "sourceName": "contracts/SessionNftFactory.sol",
  "abi": [
    {
      "anonymous": false,
      "inputs": [
        {
          "indexed": true,
          "internalType": "string",
          "name": "section",
          "type": "string"
        },
        {
          "indexed": false,
          "internalType": "address",
          "name": "nftAddress",
          "type": "address"
        },
        {
          "indexed": false,
          "internalType": "address",
          "name": "owner",
          "type": "address"
        },
        {
          "indexed": false,
          "internalType": "uint256",
          "name": "supply",
          "type": "uint256"
        },
        {
          "indexed": false,
          "internalType": "uint256",
          "name": "startPrice",
          "type": "uint256"
        },
        {
          "indexed": false,
          "internalType": "uint256",
          "name": "startSeat",
          "type": "uint256"
        },
        {
          "indexed": true,
          "internalType": "string",
          "name": "eventName",
          "type": "string"
        }
      ],
      "name": "NFTAdded",
      "type": "event"
    },
    {
      "anonymous": false,
      "inputs": [
        {
          "indexed": true,
          "internalType": "address",
          "name": "previousOwner",
          "type": "address"
        },
        {
          "indexed": true,
          "internalType": "address",
          "name": "newOwner",
          "type": "address"
        }
      ],
      "name": "OwnershipTransferred",
      "type": "event"
    },
    {
      "inputs": [
        {
          "internalType": "contract ITickets",
          "name": "_nft",
          "type": "address"
        }
      ],
      "name": "addNft",
      "outputs": [],
      "stateMutability": "nonpayable",
      "type": "function"
    },
    {
      "inputs": [],
      "name": "getSeatedSections",
      "outputs": [
        {
          "internalType": "string[]",
          "name": "",
          "type": "string[]"
        }
      ],
      "stateMutability": "view",
      "type": "function"
    },
    {
      "inputs": [],
      "name": "owner",
      "outputs": [
        {
          "internalType": "address",
          "name": "",
          "type": "address"
        }
      ],
      "stateMutability": "view",
      "type": "function"
    },
    {
      "inputs": [],
      "name": "renounceOwnership",
      "outputs": [],
      "stateMutability": "nonpayable",
      "type": "function"
    },
    {
      "inputs": [
        {
          "internalType": "address",
          "name": "newOwner",
          "type": "address"
        }
      ],
      "name": "transferOwnership",
      "outputs": [],
      "stateMutability": "nonpayable",
      "type": "function"
    }
  ],
  "bytecode": "0x608060405234801561001057600080fd5b5061002d61002261003260201b60201c565b61003a60201b60201c565b6100fe565b600033905090565b60008060009054906101000a900473ffffffffffffffffffffffffffffffffffffffff169050816000806101000a81548173ffffffffffffffffffffffffffffffffffffffff021916908373ffffffffffffffffffffffffffffffffffffffff1602179055508173ffffffffffffffffffffffffffffffffffffffff168173ffffffffffffffffffffffffffffffffffffffff167f8be0079c531659141344cd1fd0a4f28419497f9722a3daafe3b4186f6b6457e060405160405180910390a35050565b6112a68061010d6000396000f3fe608060405234801561001057600080fd5b50600436106100575760003560e01c8063447a91fd1461005c57806364aecfe414610078578063715018a6146100965780638da5cb5b146100a0578063f2fde38b146100be575b600080fd5b61007660048036038101906100719190610996565b6100da565b005b61008061062f565b60405161008d9190610b15565b60405180910390f35b61009e610708565b005b6100a861071c565b6040516100b59190610b46565b60405180910390f35b6100d860048036038101906100d39190610b8d565b610745565b005b6100e26107c8565b600081905060008273ffffffffffffffffffffffffffffffffffffffff16635a7bddbf6040518163ffffffff1660e01b8152600401600060405180830381865afa158015610134573d6000803e3d6000fd5b505050506040513d6000823e3d601f19601f8201168201806040525081019061015d9190610ce0565b905060008373ffffffffffffffffffffffffffffffffffffffff16632c9cf3526040518163ffffffff1660e01b8152600401602060405180830381865afa1580156101ac573d6000803e3d6000fd5b505050506040513d601f19601f820116820180604052508101906101d09190610d5f565b146102825760018373ffffffffffffffffffffffffffffffffffffffff16635a7bddbf6040518163ffffffff1660e01b8152600401600060405180830381865afa158015610222573d6000803e3d6000fd5b505050506040513d6000823e3d601f19601f8201168201806040525081019061024b9190610ce0565b90806001815401808255809150506001900390600052602060002001600090919091909150908161027c9190610f98565b506102c4565b81600260006101000a81548173ffffffffffffffffffffffffffffffffffffffff021916908373ffffffffffffffffffffffffffffffffffffffff1602179055505b8160038473ffffffffffffffffffffffffffffffffffffffff16635a7bddbf6040518163ffffffff1660e01b8152600401600060405180830381865afa158015610312573d6000803e3d6000fd5b505050506040513d6000823e3d601f19601f8201168201806040525081019061033b9190610ce0565b60405161034891906110a6565b908152602001604051809103902060006101000a81548173ffffffffffffffffffffffffffffffffffffffff021916908373ffffffffffffffffffffffffffffffffffffffff1602179055508273ffffffffffffffffffffffffffffffffffffffff1663b81e43fc6040518163ffffffff1660e01b8152600401600060405180830381865afa1580156103df573d6000803e3d6000fd5b505050506040513d6000823e3d601f19601f820116820180604052508101906104089190610ce0565b60405161041591906110a6565b60405180910390208160405161042b91906110a6565b60405180910390207f4e0f20cb3cae0a5d1ab50f5a721be9b2143a142b62ee4c799990df5703eb88a9848673ffffffffffffffffffffffffffffffffffffffff1663893d20e86040518163ffffffff1660e01b8152600401602060405180830381865afa1580156104a0573d6000803e3d6000fd5b505050506040513d601f19601f820116820180604052508101906104c491906110d2565b8773ffffffffffffffffffffffffffffffffffffffff16636c9c2faf6040518163ffffffff1660e01b8152600401602060405180830381865afa15801561050f573d6000803e3d6000fd5b505050506040513d601f19601f820116820180604052508101906105339190610d5f565b8873ffffffffffffffffffffffffffffffffffffffff1663baffa9036040518163ffffffff1660e01b8152600401602060405180830381865afa15801561057e573d6000803e3d6000fd5b505050506040513d601f19601f820116820180604052508101906105a29190610d5f565b8973ffffffffffffffffffffffffffffffffffffffff16632c9cf3526040518163ffffffff1660e01b8152600401602060405180830381865afa1580156105ed573d6000803e3d6000fd5b505050506040513d601f19601f820116820180604052508101906106119190610d5f565b60405161062295949392919061110e565b60405180910390a3505050565b60606001805480602002602001604051908101604052809291908181526020016000905b828210156106ff57838290600052602060002001805461067290610dbb565b80601f016020809104026020016040519081016040528092919081815260200182805461069e90610dbb565b80156106eb5780601f106106c0576101008083540402835291602001916106eb565b820191906000526020600020905b8154815290600101906020018083116106ce57829003601f168201915b505050505081526020019060010190610653565b50505050905090565b6107106107c8565b61071a6000610846565b565b60008060009054906101000a900473ffffffffffffffffffffffffffffffffffffffff16905090565b61074d6107c8565b600073ffffffffffffffffffffffffffffffffffffffff168173ffffffffffffffffffffffffffffffffffffffff16036107bc576040517f08c379a00000000000000000000000000000000000000000000000000000000081526004016107b3906111e4565b60405180910390fd5b6107c581610846565b50565b6107d061090a565b73ffffffffffffffffffffffffffffffffffffffff166107ee61071c565b73ffffffffffffffffffffffffffffffffffffffff1614610844576040517f08c379a000000000000000000000000000000000000000000000000000000000815260040161083b90611250565b60405180910390fd5b565b60008060009054906101000a900473ffffffffffffffffffffffffffffffffffffffff169050816000806101000a81548173ffffffffffffffffffffffffffffffffffffffff021916908373ffffffffffffffffffffffffffffffffffffffff1602179055508173ffffffffffffffffffffffffffffffffffffffff168173ffffffffffffffffffffffffffffffffffffffff167f8be0079c531659141344cd1fd0a4f28419497f9722a3daafe3b4186f6b6457e060405160405180910390a35050565b600033905090565b6000604051905090565b600080fd5b600080fd5b600073ffffffffffffffffffffffffffffffffffffffff82169050919050565b600061095182610926565b9050919050565b600061096382610946565b9050919050565b61097381610958565b811461097e57600080fd5b50565b6000813590506109908161096a565b92915050565b6000602082840312156109ac576109ab61091c565b5b60006109ba84828501610981565b91505092915050565b600081519050919050565b600082825260208201905092915050565b6000819050602082019050919050565b600081519050919050565b600082825260208201905092915050565b60005b83811015610a29578082015181840152602081019050610a0e565b60008484015250505050565b6000601f19601f8301169050919050565b6000610a51826109ef565b610a5b81856109fa565b9350610a6b818560208601610a0b565b610a7481610a35565b840191505092915050565b6000610a8b8383610a46565b905092915050565b6000602082019050919050565b6000610aab826109c3565b610ab581856109ce565b935083602082028501610ac7856109df565b8060005b85811015610b035784840389528151610ae48582610a7f565b9450610aef83610a93565b925060208a01995050600181019050610acb565b50829750879550505050505092915050565b60006020820190508181036000830152610b2f8184610aa0565b905092915050565b610b4081610946565b82525050565b6000602082019050610b5b6000830184610b37565b92915050565b610b6a81610946565b8114610b7557600080fd5b50565b600081359050610b8781610b61565b92915050565b600060208284031215610ba357610ba261091c565b5b6000610bb184828501610b78565b91505092915050565b600080fd5b600080fd5b7f4e487b7100000000000000000000000000000000000000000000000000000000600052604160045260246000fd5b610bfc82610a35565b810181811067ffffffffffffffff82111715610c1b57610c1a610bc4565b5b80604052505050565b6000610c2e610912565b9050610c3a8282610bf3565b919050565b600067ffffffffffffffff821115610c5a57610c59610bc4565b5b610c6382610a35565b9050602081019050919050565b6000610c83610c7e84610c3f565b610c24565b905082815260208101848484011115610c9f57610c9e610bbf565b5b610caa848285610a0b565b509392505050565b600082601f830112610cc757610cc6610bba565b5b8151610cd7848260208601610c70565b91505092915050565b600060208284031215610cf657610cf561091c565b5b600082015167ffffffffffffffff811115610d1457610d13610921565b5b610d2084828501610cb2565b91505092915050565b6000819050919050565b610d3c81610d29565b8114610d4757600080fd5b50565b600081519050610d5981610d33565b92915050565b600060208284031215610d7557610d7461091c565b5b6000610d8384828501610d4a565b91505092915050565b7f4e487b7100000000000000000000000000000000000000000000000000000000600052602260045260246000fd5b60006002820490506001821680610dd357607f821691505b602082108103610de657610de5610d8c565b5b50919050565b60008190508160005260206000209050919050565b60006020601f8301049050919050565b600082821b905092915050565b600060088302610e4e7fffffffffffffffffffffffffffffffffffffffffffffffffffffffffffffffff82610e11565b610e588683610e11565b95508019841693508086168417925050509392505050565b6000819050919050565b6000610e95610e90610e8b84610d29565b610e70565b610d29565b9050919050565b6000819050919050565b610eaf83610e7a565b610ec3610ebb82610e9c565b848454610e1e565b825550505050565b600090565b610ed8610ecb565b610ee3818484610ea6565b505050565b5b81811015610f0757610efc600082610ed0565b600181019050610ee9565b5050565b601f821115610f4c57610f1d81610dec565b610f2684610e01565b81016020851015610f35578190505b610f49610f4185610e01565b830182610ee8565b50505b505050565b600082821c905092915050565b6000610f6f60001984600802610f51565b1980831691505092915050565b6000610f888383610f5e565b9150826002028217905092915050565b610fa1826109ef565b67ffffffffffffffff811115610fba57610fb9610bc4565b5b610fc48254610dbb565b610fcf828285610f0b565b600060209050601f8311600181146110025760008415610ff0578287015190505b610ffa8582610f7c565b865550611062565b601f19841661101086610dec565b60005b8281101561103857848901518255600182019150602085019450602081019050611013565b868310156110555784890151611051601f891682610f5e565b8355505b6001600288020188555050505b505050505050565b600081905092915050565b6000611080826109ef565b61108a818561106a565b935061109a818560208601610a0b565b80840191505092915050565b60006110b28284611075565b915081905092915050565b6000815190506110cc81610b61565b92915050565b6000602082840312156110e8576110e761091c565b5b60006110f6848285016110bd565b91505092915050565b61110881610d29565b82525050565b600060a0820190506111236000830188610b37565b6111306020830187610b37565b61113d60408301866110ff565b61114a60608301856110ff565b61115760808301846110ff565b9695505050505050565b600082825260208201905092915050565b7f4f776e61626c653a206e6577206f776e657220697320746865207a65726f206160008201527f6464726573730000000000000000000000000000000000000000000000000000602082015250565b60006111ce602683611161565b91506111d982611172565b604082019050919050565b600060208201905081810360008301526111fd816111c1565b9050919050565b7f4f776e61626c653a2063616c6c6572206973206e6f7420746865206f776e6572600082015250565b600061123a602083611161565b915061124582611204565b602082019050919050565b600060208201905081810360008301526112698161122d565b905091905056fea2646970667358221220ce589c1cefe30fbc755939054896f11fc13b7598c1a5dbc0ed8c5789ed9aa63264736f6c63430008130033",
  "linkReferences": {},
  "deployedLinkReferences": {}
}